
C:/Users/tomas/Documents/pico-projects/adc/build/adc_dma_capture.elf:     file format elf32-littlearm

Sections:
Idx Name          Size      VMA       LMA       File off  Algn
  0 .boot2        00000100  10000000  10000000  00001000  2**0
                  CONTENTS, ALLOC, LOAD, READONLY, CODE
  1 .text         00006f68  10000100  10000100  00001100  2**3
                  CONTENTS, ALLOC, LOAD, READONLY, CODE
  2 .rodata       00000534  10007068  10007068  00008068  2**3
                  CONTENTS, ALLOC, LOAD, READONLY, DATA
  3 .binary_info  00000020  1000759c  1000759c  0000859c  2**2
                  CONTENTS, ALLOC, LOAD, DATA
  4 .ram_vector_table 000000c0  20000000  20000000  00009480  2**2
                  CONTENTS
  5 .data         000003c0  200000c0  100075bc  000090c0  2**4
                  CONTENTS, ALLOC, LOAD, READONLY, CODE
  6 .uninitialized_data 00000000  20000480  20000480  00009540  2**0
                  CONTENTS
  7 .scratch_x    00000000  20040000  20040000  00009540  2**0
                  CONTENTS
  8 .scratch_y    00000000  20041000  20041000  00009540  2**0
                  CONTENTS
  9 .bss          00001d28  20000480  20000480  00009480  2**3
                  ALLOC
 10 .heap         00000800  200021a8  200021a8  00009540  2**2
                  CONTENTS, READONLY
 11 .stack_dummy  00000800  20041000  20041000  00009d40  2**5
                  CONTENTS, READONLY
 12 .ARM.attributes 00000028  00000000  00000000  0000a540  2**0
                  CONTENTS, READONLY
 13 .comment      00000049  00000000  00000000  0000a568  2**0
                  CONTENTS, READONLY
 14 .debug_frame  00000028  00000000  00000000  0000a5b4  2**2
                  CONTENTS, READONLY, DEBUGGING, OCTETS

C:/Users/tomas/Documents/pico-projects/adc/build/adc_dma_capture.elf:     file format elf32-littlearm


Disassembly of section .boot2:

10000000 <__boot2_start__>:
10000000:	4b32b500 	.word	0x4b32b500
10000004:	60582021 	.word	0x60582021
10000008:	21026898 	.word	0x21026898
1000000c:	60984388 	.word	0x60984388
10000010:	611860d8 	.word	0x611860d8
10000014:	4b2e6158 	.word	0x4b2e6158
10000018:	60992100 	.word	0x60992100
1000001c:	61592102 	.word	0x61592102
10000020:	22f02101 	.word	0x22f02101
10000024:	492b5099 	.word	0x492b5099
10000028:	21016019 	.word	0x21016019
1000002c:	20356099 	.word	0x20356099
10000030:	f844f000 	.word	0xf844f000
10000034:	42902202 	.word	0x42902202
10000038:	2106d014 	.word	0x2106d014
1000003c:	f0006619 	.word	0xf0006619
10000040:	6e19f834 	.word	0x6e19f834
10000044:	66192101 	.word	0x66192101
10000048:	66182000 	.word	0x66182000
1000004c:	f000661a 	.word	0xf000661a
10000050:	6e19f82c 	.word	0x6e19f82c
10000054:	6e196e19 	.word	0x6e196e19
10000058:	f0002005 	.word	0xf0002005
1000005c:	2101f82f 	.word	0x2101f82f
10000060:	d1f94208 	.word	0xd1f94208
10000064:	60992100 	.word	0x60992100
10000068:	6019491b 	.word	0x6019491b
1000006c:	60592100 	.word	0x60592100
10000070:	481b491a 	.word	0x481b491a
10000074:	21016001 	.word	0x21016001
10000078:	21eb6099 	.word	0x21eb6099
1000007c:	21a06619 	.word	0x21a06619
10000080:	f0006619 	.word	0xf0006619
10000084:	2100f812 	.word	0x2100f812
10000088:	49166099 	.word	0x49166099
1000008c:	60014814 	.word	0x60014814
10000090:	60992101 	.word	0x60992101
10000094:	2800bc01 	.word	0x2800bc01
10000098:	4700d000 	.word	0x4700d000
1000009c:	49134812 	.word	0x49134812
100000a0:	c8036008 	.word	0xc8036008
100000a4:	8808f380 	.word	0x8808f380
100000a8:	b5034708 	.word	0xb5034708
100000ac:	20046a99 	.word	0x20046a99
100000b0:	d0fb4201 	.word	0xd0fb4201
100000b4:	42012001 	.word	0x42012001
100000b8:	bd03d1f8 	.word	0xbd03d1f8
100000bc:	6618b502 	.word	0x6618b502
100000c0:	f7ff6618 	.word	0xf7ff6618
100000c4:	6e18fff2 	.word	0x6e18fff2
100000c8:	bd026e18 	.word	0xbd026e18
100000cc:	40020000 	.word	0x40020000
100000d0:	18000000 	.word	0x18000000
100000d4:	00070000 	.word	0x00070000
100000d8:	005f0300 	.word	0x005f0300
100000dc:	00002221 	.word	0x00002221
100000e0:	180000f4 	.word	0x180000f4
100000e4:	a0002022 	.word	0xa0002022
100000e8:	10000100 	.word	0x10000100
100000ec:	e000ed08 	.word	0xe000ed08
	...
100000fc:	7a4eb274 	.word	0x7a4eb274

Disassembly of section .text:

10000100 <__VECTOR_TABLE>:
10000100:	20042000 	.word	0x20042000
10000104:	100001f7 	.word	0x100001f7
10000108:	100001c3 	.word	0x100001c3
1000010c:	100001c5 	.word	0x100001c5
10000110:	100001c1 	.word	0x100001c1
10000114:	100001c1 	.word	0x100001c1
10000118:	100001c1 	.word	0x100001c1
1000011c:	100001c1 	.word	0x100001c1
10000120:	100001c1 	.word	0x100001c1
10000124:	100001c1 	.word	0x100001c1
10000128:	100001c1 	.word	0x100001c1
1000012c:	100001c7 	.word	0x100001c7
10000130:	100001c1 	.word	0x100001c1
10000134:	100001c1 	.word	0x100001c1
10000138:	100001c9 	.word	0x100001c9
1000013c:	100001cb 	.word	0x100001cb
10000140:	100001cd 	.word	0x100001cd
10000144:	100001cd 	.word	0x100001cd
10000148:	100001cd 	.word	0x100001cd
1000014c:	100001cd 	.word	0x100001cd
10000150:	100001cd 	.word	0x100001cd
10000154:	100001cd 	.word	0x100001cd
10000158:	100001cd 	.word	0x100001cd
1000015c:	100001cd 	.word	0x100001cd
10000160:	100001cd 	.word	0x100001cd
10000164:	100001cd 	.word	0x100001cd
10000168:	100001cd 	.word	0x100001cd
1000016c:	100001cd 	.word	0x100001cd
10000170:	100001cd 	.word	0x100001cd
10000174:	100001cd 	.word	0x100001cd
10000178:	100001cd 	.word	0x100001cd
1000017c:	100001cd 	.word	0x100001cd
10000180:	100001cd 	.word	0x100001cd
10000184:	100001cd 	.word	0x100001cd
10000188:	100001cd 	.word	0x100001cd
1000018c:	100001cd 	.word	0x100001cd
10000190:	100001cd 	.word	0x100001cd
10000194:	100001cd 	.word	0x100001cd
10000198:	100001cd 	.word	0x100001cd
1000019c:	100001cd 	.word	0x100001cd
100001a0:	100001cd 	.word	0x100001cd
100001a4:	100001cd 	.word	0x100001cd
100001a8:	100001cd 	.word	0x100001cd
100001ac:	100001cd 	.word	0x100001cd
100001b0:	100001cd 	.word	0x100001cd
100001b4:	100001cd 	.word	0x100001cd
100001b8:	100001cd 	.word	0x100001cd
100001bc:	100001cd 	.word	0x100001cd

100001c0 <isr_invalid>:
100001c0:	be00      	bkpt	0x0000

100001c2 <isr_nmi>:
100001c2:	be00      	bkpt	0x0000

100001c4 <isr_hardfault>:
100001c4:	be00      	bkpt	0x0000

100001c6 <isr_svcall>:
100001c6:	be00      	bkpt	0x0000

100001c8 <isr_pendsv>:
100001c8:	be00      	bkpt	0x0000

100001ca <isr_systick>:
100001ca:	be00      	bkpt	0x0000

100001cc <__unhandled_user_irq>:
100001cc:	f000 f84b 	bl	10000266 <__get_current_exception>
100001d0:	3810      	subs	r0, #16

100001d2 <unhandled_user_irq_num_in_r0>:
100001d2:	be00      	bkpt	0x0000

100001d4 <binary_info_header>:
100001d4:	7188ebf2 	.word	0x7188ebf2
100001d8:	1000759c 	.word	0x1000759c
100001dc:	100075bc 	.word	0x100075bc
100001e0:	10000234 	.word	0x10000234
100001e4:	e71aa390 	.word	0xe71aa390

100001e8 <_entry_point>:
100001e8:	2000      	movs	r0, #0
100001ea:	4921      	ldr	r1, [pc, #132]	; (10000270 <__get_current_exception+0xa>)
100001ec:	6008      	str	r0, [r1, #0]
100001ee:	c806      	ldmia	r0!, {r1, r2}
100001f0:	f381 8808 	msr	MSP, r1
100001f4:	4710      	bx	r2

100001f6 <_reset_handler>:
100001f6:	481f      	ldr	r0, [pc, #124]	; (10000274 <__get_current_exception+0xe>)
100001f8:	6800      	ldr	r0, [r0, #0]
100001fa:	2800      	cmp	r0, #0
100001fc:	d12f      	bne.n	1000025e <hold_non_core0_in_bootrom>
100001fe:	a40d      	add	r4, pc, #52	; (adr r4, 10000234 <data_cpy_table>)
10000200:	cc0e      	ldmia	r4!, {r1, r2, r3}
10000202:	2900      	cmp	r1, #0
10000204:	d002      	beq.n	1000020c <_reset_handler+0x16>
10000206:	f000 f812 	bl	1000022e <data_cpy>
1000020a:	e7f9      	b.n	10000200 <_reset_handler+0xa>
1000020c:	491a      	ldr	r1, [pc, #104]	; (10000278 <__get_current_exception+0x12>)
1000020e:	4a1b      	ldr	r2, [pc, #108]	; (1000027c <__get_current_exception+0x16>)
10000210:	2000      	movs	r0, #0
10000212:	e000      	b.n	10000216 <bss_fill_test>

10000214 <bss_fill_loop>:
10000214:	c101      	stmia	r1!, {r0}

10000216 <bss_fill_test>:
10000216:	4291      	cmp	r1, r2
10000218:	d1fc      	bne.n	10000214 <bss_fill_loop>

1000021a <platform_entry>:
1000021a:	4919      	ldr	r1, [pc, #100]	; (10000280 <__get_current_exception+0x1a>)
1000021c:	4788      	blx	r1
1000021e:	4919      	ldr	r1, [pc, #100]	; (10000284 <__get_current_exception+0x1e>)
10000220:	4788      	blx	r1
10000222:	4919      	ldr	r1, [pc, #100]	; (10000288 <__get_current_exception+0x22>)
10000224:	4788      	blx	r1
10000226:	be00      	bkpt	0x0000
10000228:	e7fd      	b.n	10000226 <platform_entry+0xc>

1000022a <data_cpy_loop>:
1000022a:	c901      	ldmia	r1!, {r0}
1000022c:	c201      	stmia	r2!, {r0}

1000022e <data_cpy>:
1000022e:	429a      	cmp	r2, r3
10000230:	d3fb      	bcc.n	1000022a <data_cpy_loop>
10000232:	4770      	bx	lr

10000234 <data_cpy_table>:
10000234:	100075bc 	.word	0x100075bc
10000238:	200000c0 	.word	0x200000c0
1000023c:	20000480 	.word	0x20000480
10000240:	1000797c 	.word	0x1000797c
10000244:	20040000 	.word	0x20040000
10000248:	20040000 	.word	0x20040000
1000024c:	1000797c 	.word	0x1000797c
10000250:	20041000 	.word	0x20041000
10000254:	20041000 	.word	0x20041000
10000258:	00000000 	.word	0x00000000
1000025c:	4770      	bx	lr

1000025e <hold_non_core0_in_bootrom>:
1000025e:	480b      	ldr	r0, [pc, #44]	; (1000028c <__get_current_exception+0x26>)
10000260:	f003 f846 	bl	100032f0 <rom_func_lookup>
10000264:	4700      	bx	r0

10000266 <__get_current_exception>:
10000266:	f3ef 8005 	mrs	r0, IPSR
1000026a:	b2c0      	uxtb	r0, r0
1000026c:	4770      	bx	lr
1000026e:	0000      	.short	0x0000
10000270:	e000ed08 	.word	0xe000ed08
10000274:	d0000000 	.word	0xd0000000
10000278:	20000480 	.word	0x20000480
1000027c:	200021a8 	.word	0x200021a8
10000280:	10001495 	.word	0x10001495
10000284:	10000505 	.word	0x10000505
10000288:	10001585 	.word	0x10001585
1000028c:	00005657 	.word	0x00005657

10000290 <__bi_50>:
10000290:	50520006 5360b3ab 10007338              ..RP..`S8s..

1000029c <__bi_38>:
1000029c:	50520006 02031c86 10007348              ..RP....Hs..

100002a8 <__bi_30>:
100002a8:	50520006 9da22254 10007358              ..RPT"..Xs..

100002b4 <__bi_22>:
100002b4:	50520005 68f465de 1000797c              ..RP.e.h|y..

100002c0 <_init>:
100002c0:	b5f8      	push	{r3, r4, r5, r6, r7, lr}
100002c2:	46c0      	nop			; (mov r8, r8)

100002c4 <__do_global_dtors_aux>:
100002c4:	b510      	push	{r4, lr}
100002c6:	4c06      	ldr	r4, [pc, #24]	; (100002e0 <__do_global_dtors_aux+0x1c>)
100002c8:	7823      	ldrb	r3, [r4, #0]
100002ca:	2b00      	cmp	r3, #0
100002cc:	d107      	bne.n	100002de <__do_global_dtors_aux+0x1a>
100002ce:	4b05      	ldr	r3, [pc, #20]	; (100002e4 <__do_global_dtors_aux+0x20>)
100002d0:	2b00      	cmp	r3, #0
100002d2:	d002      	beq.n	100002da <__do_global_dtors_aux+0x16>
100002d4:	4804      	ldr	r0, [pc, #16]	; (100002e8 <__do_global_dtors_aux+0x24>)
100002d6:	e000      	b.n	100002da <__do_global_dtors_aux+0x16>
100002d8:	bf00      	nop
100002da:	2301      	movs	r3, #1
100002dc:	7023      	strb	r3, [r4, #0]
100002de:	bd10      	pop	{r4, pc}
100002e0:	20000788 	.word	0x20000788
100002e4:	00000000 	.word	0x00000000
100002e8:	10007068 	.word	0x10007068

100002ec <frame_dummy>:
100002ec:	4b04      	ldr	r3, [pc, #16]	; (10000300 <frame_dummy+0x14>)
100002ee:	b510      	push	{r4, lr}
100002f0:	2b00      	cmp	r3, #0
100002f2:	d003      	beq.n	100002fc <frame_dummy+0x10>
100002f4:	4903      	ldr	r1, [pc, #12]	; (10000304 <frame_dummy+0x18>)
100002f6:	4804      	ldr	r0, [pc, #16]	; (10000308 <frame_dummy+0x1c>)
100002f8:	e000      	b.n	100002fc <frame_dummy+0x10>
100002fa:	bf00      	nop
100002fc:	bd10      	pop	{r4, pc}
100002fe:	46c0      	nop			; (mov r8, r8)
10000300:	00000000 	.word	0x00000000
10000304:	2000078c 	.word	0x2000078c
10000308:	10007068 	.word	0x10007068

1000030c <dma_handler>:
1000030c:	b5f0      	push	{r4, r5, r6, r7, lr}
1000030e:	46c6      	mov	lr, r8
10000310:	2208      	movs	r2, #8
10000312:	b500      	push	{lr}
10000314:	4b38      	ldr	r3, [pc, #224]	; (100003f8 <dma_handler+0xec>)
10000316:	4939      	ldr	r1, [pc, #228]	; (100003fc <dma_handler+0xf0>)
10000318:	601a      	str	r2, [r3, #0]
1000031a:	b082      	sub	sp, #8
1000031c:	32f8      	adds	r2, #248	; 0xf8
1000031e:	680b      	ldr	r3, [r1, #0]
10000320:	4213      	tst	r3, r2
10000322:	d0fc      	beq.n	1000031e <dma_handler+0x12>
10000324:	688b      	ldr	r3, [r1, #8]
10000326:	4213      	tst	r3, r2
10000328:	d106      	bne.n	10000338 <dma_handler+0x2c>
1000032a:	2180      	movs	r1, #128	; 0x80
1000032c:	4b33      	ldr	r3, [pc, #204]	; (100003fc <dma_handler+0xf0>)
1000032e:	0049      	lsls	r1, r1, #1
10000330:	68da      	ldr	r2, [r3, #12]
10000332:	689a      	ldr	r2, [r3, #8]
10000334:	420a      	tst	r2, r1
10000336:	d0fb      	beq.n	10000330 <dma_handler+0x24>
10000338:	4b31      	ldr	r3, [pc, #196]	; (10000400 <dma_handler+0xf4>)
1000033a:	27fa      	movs	r7, #250	; 0xfa
1000033c:	4698      	mov	r8, r3
1000033e:	2500      	movs	r5, #0
10000340:	001c      	movs	r4, r3
10000342:	013f      	lsls	r7, r7, #4
10000344:	4447      	add	r7, r8
10000346:	1c2e      	adds	r6, r5, #0
10000348:	8820      	ldrh	r0, [r4, #0]
1000034a:	f003 fe8f 	bl	1000406c <__wrap___aeabi_i2f>
1000034e:	1c01      	adds	r1, r0, #0
10000350:	1c30      	adds	r0, r6, #0
10000352:	f003 fe6d 	bl	10004030 <__wrap___aeabi_fadd>
10000356:	1c06      	adds	r6, r0, #0
10000358:	8860      	ldrh	r0, [r4, #2]
1000035a:	f003 fe87 	bl	1000406c <__wrap___aeabi_i2f>
1000035e:	1c01      	adds	r1, r0, #0
10000360:	1c28      	adds	r0, r5, #0
10000362:	f003 fe65 	bl	10004030 <__wrap___aeabi_fadd>
10000366:	3404      	adds	r4, #4
10000368:	1c05      	adds	r5, r0, #0
1000036a:	42a7      	cmp	r7, r4
1000036c:	d1ec      	bne.n	10000348 <dma_handler+0x3c>
1000036e:	4925      	ldr	r1, [pc, #148]	; (10000404 <dma_handler+0xf8>)
10000370:	1c30      	adds	r0, r6, #0
10000372:	f003 fe60 	bl	10004036 <__wrap___aeabi_fdiv>
10000376:	f003 fe9b 	bl	100040b0 <__wrap___aeabi_f2d>
1000037a:	0006      	movs	r6, r0
1000037c:	000f      	movs	r7, r1
1000037e:	1c28      	adds	r0, r5, #0
10000380:	4920      	ldr	r1, [pc, #128]	; (10000404 <dma_handler+0xf8>)
10000382:	f003 fe58 	bl	10004036 <__wrap___aeabi_fdiv>
10000386:	f003 fe93 	bl	100040b0 <__wrap___aeabi_f2d>
1000038a:	0032      	movs	r2, r6
1000038c:	9000      	str	r0, [sp, #0]
1000038e:	9101      	str	r1, [sp, #4]
10000390:	003b      	movs	r3, r7
10000392:	481d      	ldr	r0, [pc, #116]	; (10000408 <dma_handler+0xfc>)
10000394:	f004 f914 	bl	100045c0 <__wrap_printf>
10000398:	2201      	movs	r2, #1
1000039a:	21a0      	movs	r1, #160	; 0xa0
1000039c:	4b1b      	ldr	r3, [pc, #108]	; (1000040c <dma_handler+0x100>)
1000039e:	05c9      	lsls	r1, r1, #23
100003a0:	681b      	ldr	r3, [r3, #0]
100003a2:	468c      	mov	ip, r1
100003a4:	409a      	lsls	r2, r3
100003a6:	481a      	ldr	r0, [pc, #104]	; (10000410 <dma_handler+0x104>)
100003a8:	019b      	lsls	r3, r3, #6
100003aa:	500a      	str	r2, [r1, r0]
100003ac:	4819      	ldr	r0, [pc, #100]	; (10000414 <dma_handler+0x108>)
100003ae:	4463      	add	r3, ip
100003b0:	6018      	str	r0, [r3, #0]
100003b2:	4640      	mov	r0, r8
100003b4:	6058      	str	r0, [r3, #4]
100003b6:	2386      	movs	r3, #134	; 0x86
100003b8:	00db      	lsls	r3, r3, #3
100003ba:	50ca      	str	r2, [r1, r3]
100003bc:	2280      	movs	r2, #128	; 0x80
100003be:	490f      	ldr	r1, [pc, #60]	; (100003fc <dma_handler+0xf0>)
100003c0:	0052      	lsls	r2, r2, #1
100003c2:	680b      	ldr	r3, [r1, #0]
100003c4:	4213      	tst	r3, r2
100003c6:	d0fc      	beq.n	100003c2 <dma_handler+0xb6>
100003c8:	688b      	ldr	r3, [r1, #8]
100003ca:	4213      	tst	r3, r2
100003cc:	d106      	bne.n	100003dc <dma_handler+0xd0>
100003ce:	2180      	movs	r1, #128	; 0x80
100003d0:	4b0a      	ldr	r3, [pc, #40]	; (100003fc <dma_handler+0xf0>)
100003d2:	0049      	lsls	r1, r1, #1
100003d4:	68da      	ldr	r2, [r3, #12]
100003d6:	689a      	ldr	r2, [r3, #8]
100003d8:	420a      	tst	r2, r1
100003da:	d0fb      	beq.n	100003d4 <dma_handler+0xc8>
100003dc:	22e0      	movs	r2, #224	; 0xe0
100003de:	4b07      	ldr	r3, [pc, #28]	; (100003fc <dma_handler+0xf0>)
100003e0:	01d2      	lsls	r2, r2, #7
100003e2:	681b      	ldr	r3, [r3, #0]
100003e4:	4013      	ands	r3, r2
100003e6:	4a0c      	ldr	r2, [pc, #48]	; (10000418 <dma_handler+0x10c>)
100003e8:	6013      	str	r3, [r2, #0]
100003ea:	2208      	movs	r2, #8
100003ec:	4b0b      	ldr	r3, [pc, #44]	; (1000041c <dma_handler+0x110>)
100003ee:	601a      	str	r2, [r3, #0]
100003f0:	b002      	add	sp, #8
100003f2:	bc80      	pop	{r7}
100003f4:	46b8      	mov	r8, r7
100003f6:	bdf0      	pop	{r4, r5, r6, r7, pc}
100003f8:	4004f000 	.word	0x4004f000
100003fc:	4004c000 	.word	0x4004c000
10000400:	20000d08 	.word	0x20000d08
10000404:	447a0000 	.word	0x447a0000
10000408:	10007068 	.word	0x10007068
1000040c:	20001d3c 	.word	0x20001d3c
10000410:	0000040c 	.word	0x0000040c
10000414:	4004c00c 	.word	0x4004c00c
10000418:	4004d000 	.word	0x4004d000
1000041c:	4004e000 	.word	0x4004e000

10000420 <init_adc_dma_irq>:
10000420:	b570      	push	{r4, r5, r6, lr}
10000422:	f006 fd8b 	bl	10006f3c <adc_init>
10000426:	211f      	movs	r1, #31
10000428:	201a      	movs	r0, #26
1000042a:	f000 f873 	bl	10000514 <gpio_set_function>
1000042e:	2200      	movs	r2, #0
10000430:	2100      	movs	r1, #0
10000432:	201a      	movs	r0, #26
10000434:	f000 f886 	bl	10000544 <gpio_set_pulls>
10000438:	2100      	movs	r1, #0
1000043a:	201a      	movs	r0, #26
1000043c:	f000 f89a 	bl	10000574 <gpio_set_input_enabled>
10000440:	2202      	movs	r2, #2
10000442:	4b21      	ldr	r3, [pc, #132]	; (100004c8 <init_adc_dma_irq+0xa8>)
10000444:	2001      	movs	r0, #1
10000446:	601a      	str	r2, [r3, #0]
10000448:	2388      	movs	r3, #136	; 0x88
1000044a:	4a20      	ldr	r2, [pc, #128]	; (100004cc <init_adc_dma_irq+0xac>)
1000044c:	035b      	lsls	r3, r3, #13
1000044e:	6811      	ldr	r1, [r2, #0]
10000450:	2401      	movs	r4, #1
10000452:	404b      	eors	r3, r1
10000454:	21f8      	movs	r1, #248	; 0xf8
10000456:	0349      	lsls	r1, r1, #13
10000458:	400b      	ands	r3, r1
1000045a:	491d      	ldr	r1, [pc, #116]	; (100004d0 <init_adc_dma_irq+0xb0>)
1000045c:	600b      	str	r3, [r1, #0]
1000045e:	4b1d      	ldr	r3, [pc, #116]	; (100004d4 <init_adc_dma_irq+0xb4>)
10000460:	6819      	ldr	r1, [r3, #0]
10000462:	4b1d      	ldr	r3, [pc, #116]	; (100004d8 <init_adc_dma_irq+0xb8>)
10000464:	404b      	eors	r3, r1
10000466:	491d      	ldr	r1, [pc, #116]	; (100004dc <init_adc_dma_irq+0xbc>)
10000468:	400b      	ands	r3, r1
1000046a:	491d      	ldr	r1, [pc, #116]	; (100004e0 <init_adc_dma_irq+0xc0>)
1000046c:	600b      	str	r3, [r1, #0]
1000046e:	23c0      	movs	r3, #192	; 0xc0
10000470:	015b      	lsls	r3, r3, #5
10000472:	6113      	str	r3, [r2, #16]
10000474:	f006 fd7e 	bl	10006f74 <dma_claim_unused_channel>
10000478:	21a0      	movs	r1, #160	; 0xa0
1000047a:	05c9      	lsls	r1, r1, #23
1000047c:	468c      	mov	ip, r1
1000047e:	4b19      	ldr	r3, [pc, #100]	; (100004e4 <init_adc_dma_irq+0xc4>)
10000480:	02c2      	lsls	r2, r0, #11
10000482:	4013      	ands	r3, r2
10000484:	4a18      	ldr	r2, [pc, #96]	; (100004e8 <init_adc_dma_irq+0xc8>)
10000486:	4d19      	ldr	r5, [pc, #100]	; (100004ec <init_adc_dma_irq+0xcc>)
10000488:	431a      	orrs	r2, r3
1000048a:	4919      	ldr	r1, [pc, #100]	; (100004f0 <init_adc_dma_irq+0xd0>)
1000048c:	0183      	lsls	r3, r0, #6
1000048e:	4463      	add	r3, ip
10000490:	6028      	str	r0, [r5, #0]
10000492:	6019      	str	r1, [r3, #0]
10000494:	4917      	ldr	r1, [pc, #92]	; (100004f4 <init_adc_dma_irq+0xd4>)
10000496:	6059      	str	r1, [r3, #4]
10000498:	21fa      	movs	r1, #250	; 0xfa
1000049a:	00c9      	lsls	r1, r1, #3
1000049c:	6099      	str	r1, [r3, #8]
1000049e:	611a      	str	r2, [r3, #16]
100004a0:	0022      	movs	r2, r4
100004a2:	4082      	lsls	r2, r0
100004a4:	4b14      	ldr	r3, [pc, #80]	; (100004f8 <init_adc_dma_irq+0xd8>)
100004a6:	200b      	movs	r0, #11
100004a8:	601a      	str	r2, [r3, #0]
100004aa:	4914      	ldr	r1, [pc, #80]	; (100004fc <init_adc_dma_irq+0xdc>)
100004ac:	f001 fa0a 	bl	100018c4 <irq_set_exclusive_handler>
100004b0:	2101      	movs	r1, #1
100004b2:	200b      	movs	r0, #11
100004b4:	f001 f9e4 	bl	10001880 <irq_set_enabled>
100004b8:	682b      	ldr	r3, [r5, #0]
100004ba:	22a0      	movs	r2, #160	; 0xa0
100004bc:	409c      	lsls	r4, r3
100004be:	4b10      	ldr	r3, [pc, #64]	; (10000500 <init_adc_dma_irq+0xe0>)
100004c0:	05d2      	lsls	r2, r2, #23
100004c2:	50d4      	str	r4, [r2, r3]
100004c4:	bd70      	pop	{r4, r5, r6, pc}
100004c6:	46c0      	nop			; (mov r8, r8)
100004c8:	4004e000 	.word	0x4004e000
100004cc:	4004c000 	.word	0x4004c000
100004d0:	4004d000 	.word	0x4004d000
100004d4:	4004c008 	.word	0x4004c008
100004d8:	01000009 	.word	0x01000009
100004dc:	0f00000f 	.word	0x0f00000f
100004e0:	4004d008 	.word	0x4004d008
100004e4:	ff007fff 	.word	0xff007fff
100004e8:	00120025 	.word	0x00120025
100004ec:	20001d3c 	.word	0x20001d3c
100004f0:	4004c00c 	.word	0x4004c00c
100004f4:	20000d08 	.word	0x20000d08
100004f8:	50002404 	.word	0x50002404
100004fc:	1000030d 	.word	0x1000030d
10000500:	0000040c 	.word	0x0000040c

10000504 <main>:
10000504:	b510      	push	{r4, lr}
10000506:	f004 f867 	bl	100045d8 <stdio_init_all>
1000050a:	f7ff ff89 	bl	10000420 <init_adc_dma_irq>
1000050e:	f7ff fefd 	bl	1000030c <dma_handler>
10000512:	e7fe      	b.n	10000512 <main+0xe>

10000514 <gpio_set_function>:
10000514:	4a09      	ldr	r2, [pc, #36]	; (1000053c <gpio_set_function+0x28>)
10000516:	0083      	lsls	r3, r0, #2
10000518:	4694      	mov	ip, r2
1000051a:	2240      	movs	r2, #64	; 0x40
1000051c:	4463      	add	r3, ip
1000051e:	b510      	push	{r4, lr}
10000520:	681c      	ldr	r4, [r3, #0]
10000522:	00c0      	lsls	r0, r0, #3
10000524:	4062      	eors	r2, r4
10000526:	24c0      	movs	r4, #192	; 0xc0
10000528:	4014      	ands	r4, r2
1000052a:	2280      	movs	r2, #128	; 0x80
1000052c:	0152      	lsls	r2, r2, #5
1000052e:	4313      	orrs	r3, r2
10000530:	601c      	str	r4, [r3, #0]
10000532:	4b03      	ldr	r3, [pc, #12]	; (10000540 <gpio_set_function+0x2c>)
10000534:	469c      	mov	ip, r3
10000536:	4460      	add	r0, ip
10000538:	6041      	str	r1, [r0, #4]
1000053a:	bd10      	pop	{r4, pc}
1000053c:	4001c004 	.word	0x4001c004
10000540:	40014000 	.word	0x40014000

10000544 <gpio_set_pulls>:
10000544:	4b0a      	ldr	r3, [pc, #40]	; (10000570 <gpio_set_pulls+0x2c>)
10000546:	0080      	lsls	r0, r0, #2
10000548:	469c      	mov	ip, r3
1000054a:	2304      	movs	r3, #4
1000054c:	4460      	add	r0, ip
1000054e:	2900      	cmp	r1, #0
10000550:	d001      	beq.n	10000556 <gpio_set_pulls+0x12>
10000552:	230c      	movs	r3, #12
10000554:	2108      	movs	r1, #8
10000556:	2a00      	cmp	r2, #0
10000558:	d100      	bne.n	1000055c <gpio_set_pulls+0x18>
1000055a:	000b      	movs	r3, r1
1000055c:	6802      	ldr	r2, [r0, #0]
1000055e:	4053      	eors	r3, r2
10000560:	220c      	movs	r2, #12
10000562:	401a      	ands	r2, r3
10000564:	2380      	movs	r3, #128	; 0x80
10000566:	015b      	lsls	r3, r3, #5
10000568:	4318      	orrs	r0, r3
1000056a:	6002      	str	r2, [r0, #0]
1000056c:	4770      	bx	lr
1000056e:	46c0      	nop			; (mov r8, r8)
10000570:	4001c004 	.word	0x4001c004

10000574 <gpio_set_input_enabled>:
10000574:	4b08      	ldr	r3, [pc, #32]	; (10000598 <gpio_set_input_enabled+0x24>)
10000576:	0080      	lsls	r0, r0, #2
10000578:	469c      	mov	ip, r3
1000057a:	4460      	add	r0, ip
1000057c:	2900      	cmp	r1, #0
1000057e:	d005      	beq.n	1000058c <gpio_set_input_enabled+0x18>
10000580:	2380      	movs	r3, #128	; 0x80
10000582:	019b      	lsls	r3, r3, #6
10000584:	4318      	orrs	r0, r3
10000586:	2340      	movs	r3, #64	; 0x40
10000588:	6003      	str	r3, [r0, #0]
1000058a:	4770      	bx	lr
1000058c:	23c0      	movs	r3, #192	; 0xc0
1000058e:	019b      	lsls	r3, r3, #6
10000590:	4318      	orrs	r0, r3
10000592:	2340      	movs	r3, #64	; 0x40
10000594:	6003      	str	r3, [r0, #0]
10000596:	e7f8      	b.n	1000058a <gpio_set_input_enabled+0x16>
10000598:	4001c004 	.word	0x4001c004

1000059c <hw_claim_or_assert>:
1000059c:	b570      	push	{r4, r5, r6, lr}
1000059e:	f3ef 8c10 	mrs	ip, PRIMASK
100005a2:	b672      	cpsid	i
100005a4:	4d0d      	ldr	r5, [pc, #52]	; (100005dc <hw_claim_or_assert+0x40>)
100005a6:	682b      	ldr	r3, [r5, #0]
100005a8:	2b00      	cmp	r3, #0
100005aa:	d0fc      	beq.n	100005a6 <hw_claim_or_assert+0xa>
100005ac:	f3bf 8f5f 	dmb	sy
100005b0:	2407      	movs	r4, #7
100005b2:	08cb      	lsrs	r3, r1, #3
100005b4:	18c6      	adds	r6, r0, r3
100005b6:	5cc0      	ldrb	r0, [r0, r3]
100005b8:	2301      	movs	r3, #1
100005ba:	400c      	ands	r4, r1
100005bc:	40a3      	lsls	r3, r4
100005be:	001c      	movs	r4, r3
100005c0:	4004      	ands	r4, r0
100005c2:	4203      	tst	r3, r0
100005c4:	d107      	bne.n	100005d6 <hw_claim_or_assert+0x3a>
100005c6:	4303      	orrs	r3, r0
100005c8:	7033      	strb	r3, [r6, #0]
100005ca:	f3bf 8f5f 	dmb	sy
100005ce:	602c      	str	r4, [r5, #0]
100005d0:	f38c 8810 	msr	PRIMASK, ip
100005d4:	bd70      	pop	{r4, r5, r6, pc}
100005d6:	0010      	movs	r0, r2
100005d8:	f000 ffd6 	bl	10001588 <panic>
100005dc:	d000012c 	.word	0xd000012c

100005e0 <hw_claim_unused_from_range>:
100005e0:	b5f8      	push	{r3, r4, r5, r6, r7, lr}
100005e2:	4647      	mov	r7, r8
100005e4:	46ce      	mov	lr, r9
100005e6:	4688      	mov	r8, r1
100005e8:	b580      	push	{r7, lr}
100005ea:	f3ef 8c10 	mrs	ip, PRIMASK
100005ee:	b672      	cpsid	i
100005f0:	4d21      	ldr	r5, [pc, #132]	; (10000678 <hw_claim_unused_from_range+0x98>)
100005f2:	682c      	ldr	r4, [r5, #0]
100005f4:	2c00      	cmp	r4, #0
100005f6:	d0fc      	beq.n	100005f2 <hw_claim_unused_from_range+0x12>
100005f8:	f3bf 8f5f 	dmb	sy
100005fc:	429a      	cmp	r2, r3
100005fe:	d82c      	bhi.n	1000065a <hw_claim_unused_from_range+0x7a>
10000600:	08d4      	lsrs	r4, r2, #3
10000602:	2707      	movs	r7, #7
10000604:	5d05      	ldrb	r5, [r0, r4]
10000606:	1906      	adds	r6, r0, r4
10000608:	2401      	movs	r4, #1
1000060a:	4017      	ands	r7, r2
1000060c:	40bc      	lsls	r4, r7
1000060e:	422c      	tst	r4, r5
10000610:	d01f      	beq.n	10000652 <hw_claim_unused_from_range+0x72>
10000612:	2107      	movs	r1, #7
10000614:	2701      	movs	r7, #1
10000616:	4689      	mov	r9, r1
10000618:	e009      	b.n	1000062e <hw_claim_unused_from_range+0x4e>
1000061a:	08d4      	lsrs	r4, r2, #3
1000061c:	5d05      	ldrb	r5, [r0, r4]
1000061e:	1906      	adds	r6, r0, r4
10000620:	464c      	mov	r4, r9
10000622:	0039      	movs	r1, r7
10000624:	4014      	ands	r4, r2
10000626:	40a1      	lsls	r1, r4
10000628:	000c      	movs	r4, r1
1000062a:	4229      	tst	r1, r5
1000062c:	d011      	beq.n	10000652 <hw_claim_unused_from_range+0x72>
1000062e:	3201      	adds	r2, #1
10000630:	4293      	cmp	r3, r2
10000632:	d2f2      	bcs.n	1000061a <hw_claim_unused_from_range+0x3a>
10000634:	2001      	movs	r0, #1
10000636:	4240      	negs	r0, r0
10000638:	f3bf 8f5f 	dmb	sy
1000063c:	2200      	movs	r2, #0
1000063e:	4b0e      	ldr	r3, [pc, #56]	; (10000678 <hw_claim_unused_from_range+0x98>)
10000640:	601a      	str	r2, [r3, #0]
10000642:	f38c 8810 	msr	PRIMASK, ip
10000646:	2800      	cmp	r0, #0
10000648:	db0f      	blt.n	1000066a <hw_claim_unused_from_range+0x8a>
1000064a:	bcc0      	pop	{r6, r7}
1000064c:	46b9      	mov	r9, r7
1000064e:	46b0      	mov	r8, r6
10000650:	bdf8      	pop	{r3, r4, r5, r6, r7, pc}
10000652:	432c      	orrs	r4, r5
10000654:	0010      	movs	r0, r2
10000656:	7034      	strb	r4, [r6, #0]
10000658:	e7ee      	b.n	10000638 <hw_claim_unused_from_range+0x58>
1000065a:	f3bf 8f5f 	dmb	sy
1000065e:	2300      	movs	r3, #0
10000660:	602b      	str	r3, [r5, #0]
10000662:	f38c 8810 	msr	PRIMASK, ip
10000666:	2001      	movs	r0, #1
10000668:	4240      	negs	r0, r0
1000066a:	4643      	mov	r3, r8
1000066c:	2b00      	cmp	r3, #0
1000066e:	d0ec      	beq.n	1000064a <hw_claim_unused_from_range+0x6a>
10000670:	9808      	ldr	r0, [sp, #32]
10000672:	f000 ff89 	bl	10001588 <panic>
10000676:	46c0      	nop			; (mov r8, r8)
10000678:	d000012c 	.word	0xd000012c

1000067c <running_on_fpga>:
1000067c:	4b02      	ldr	r3, [pc, #8]	; (10000688 <running_on_fpga+0xc>)
1000067e:	6818      	ldr	r0, [r3, #0]
10000680:	0780      	lsls	r0, r0, #30
10000682:	0fc0      	lsrs	r0, r0, #31
10000684:	4770      	bx	lr
10000686:	46c0      	nop			; (mov r8, r8)
10000688:	4006c000 	.word	0x4006c000

1000068c <spin_locks_reset>:
1000068c:	2100      	movs	r1, #0
1000068e:	4b04      	ldr	r3, [pc, #16]	; (100006a0 <spin_locks_reset+0x14>)
10000690:	4a04      	ldr	r2, [pc, #16]	; (100006a4 <spin_locks_reset+0x18>)
10000692:	f3bf 8f5f 	dmb	sy
10000696:	c302      	stmia	r3!, {r1}
10000698:	4293      	cmp	r3, r2
1000069a:	d1fa      	bne.n	10000692 <spin_locks_reset+0x6>
1000069c:	4770      	bx	lr
1000069e:	46c0      	nop			; (mov r8, r8)
100006a0:	d0000100 	.word	0xd0000100
100006a4:	d0000180 	.word	0xd0000180

100006a8 <next_striped_spin_lock_num>:
100006a8:	4a04      	ldr	r2, [pc, #16]	; (100006bc <next_striped_spin_lock_num+0x14>)
100006aa:	7810      	ldrb	r0, [r2, #0]
100006ac:	1c43      	adds	r3, r0, #1
100006ae:	b2db      	uxtb	r3, r3
100006b0:	2b17      	cmp	r3, #23
100006b2:	d900      	bls.n	100006b6 <next_striped_spin_lock_num+0xe>
100006b4:	2310      	movs	r3, #16
100006b6:	7013      	strb	r3, [r2, #0]
100006b8:	4770      	bx	lr
100006ba:	46c0      	nop			; (mov r8, r8)
100006bc:	20000388 	.word	0x20000388

100006c0 <spin_lock_claim_unused>:
100006c0:	b500      	push	{lr}
100006c2:	4b05      	ldr	r3, [pc, #20]	; (100006d8 <spin_lock_claim_unused+0x18>)
100006c4:	b083      	sub	sp, #12
100006c6:	0001      	movs	r1, r0
100006c8:	9300      	str	r3, [sp, #0]
100006ca:	2218      	movs	r2, #24
100006cc:	231f      	movs	r3, #31
100006ce:	4803      	ldr	r0, [pc, #12]	; (100006dc <spin_lock_claim_unused+0x1c>)
100006d0:	f7ff ff86 	bl	100005e0 <hw_claim_unused_from_range>
100006d4:	b003      	add	sp, #12
100006d6:	bd00      	pop	{pc}
100006d8:	10007078 	.word	0x10007078
100006dc:	20001ca8 	.word	0x20001ca8

100006e0 <timer_pool_entry_comparator>:
100006e0:	6883      	ldr	r3, [r0, #8]
100006e2:	480b      	ldr	r0, [pc, #44]	; (10000710 <timer_pool_entry_comparator+0x30>)
100006e4:	b510      	push	{r4, lr}
100006e6:	4684      	mov	ip, r0
100006e8:	4461      	add	r1, ip
100006ea:	4462      	add	r2, ip
100006ec:	0109      	lsls	r1, r1, #4
100006ee:	0112      	lsls	r2, r2, #4
100006f0:	189a      	adds	r2, r3, r2
100006f2:	1859      	adds	r1, r3, r1
100006f4:	6854      	ldr	r4, [r2, #4]
100006f6:	684b      	ldr	r3, [r1, #4]
100006f8:	2001      	movs	r0, #1
100006fa:	429c      	cmp	r4, r3
100006fc:	d801      	bhi.n	10000702 <timer_pool_entry_comparator+0x22>
100006fe:	d002      	beq.n	10000706 <timer_pool_entry_comparator+0x26>
10000700:	2000      	movs	r0, #0
10000702:	b2c0      	uxtb	r0, r0
10000704:	bd10      	pop	{r4, pc}
10000706:	6812      	ldr	r2, [r2, #0]
10000708:	680b      	ldr	r3, [r1, #0]
1000070a:	429a      	cmp	r2, r3
1000070c:	d8f9      	bhi.n	10000702 <timer_pool_entry_comparator+0x22>
1000070e:	e7f7      	b.n	10000700 <timer_pool_entry_comparator+0x20>
10000710:	0fffffff 	.word	0x0fffffff

10000714 <sleep_until_callback>:
10000714:	4b0a      	ldr	r3, [pc, #40]	; (10000740 <sleep_until_callback+0x2c>)
10000716:	6819      	ldr	r1, [r3, #0]
10000718:	f3ef 8010 	mrs	r0, PRIMASK
1000071c:	b672      	cpsid	i
1000071e:	680a      	ldr	r2, [r1, #0]
10000720:	2a00      	cmp	r2, #0
10000722:	d0fc      	beq.n	1000071e <sleep_until_callback+0xa>
10000724:	f3bf 8f5f 	dmb	sy
10000728:	681b      	ldr	r3, [r3, #0]
1000072a:	f3bf 8f5f 	dmb	sy
1000072e:	2200      	movs	r2, #0
10000730:	601a      	str	r2, [r3, #0]
10000732:	f380 8810 	msr	PRIMASK, r0
10000736:	bf40      	sev
10000738:	2000      	movs	r0, #0
1000073a:	2100      	movs	r1, #0
1000073c:	4770      	bx	lr
1000073e:	46c0      	nop			; (mov r8, r8)
10000740:	20002170 	.word	0x20002170

10000744 <add_alarm_under_lock.isra.0>:
10000744:	b5f8      	push	{r3, r4, r5, r6, r7, lr}
10000746:	4657      	mov	r7, sl
10000748:	464e      	mov	r6, r9
1000074a:	4645      	mov	r5, r8
1000074c:	46de      	mov	lr, fp
1000074e:	b5e0      	push	{r5, r6, r7, lr}
10000750:	4699      	mov	r9, r3
10000752:	ab0c      	add	r3, sp, #48	; 0x30
10000754:	781c      	ldrb	r4, [r3, #0]
10000756:	ab0d      	add	r3, sp, #52	; 0x34
10000758:	781b      	ldrb	r3, [r3, #0]
1000075a:	0006      	movs	r6, r0
1000075c:	4690      	mov	r8, r2
1000075e:	469a      	mov	sl, r3
10000760:	6807      	ldr	r7, [r0, #0]
10000762:	2c00      	cmp	r4, #0
10000764:	d111      	bne.n	1000078a <add_alarm_under_lock.isra.0+0x46>
10000766:	7bbc      	ldrb	r4, [r7, #14]
10000768:	2c00      	cmp	r4, #0
1000076a:	d042      	beq.n	100007f2 <add_alarm_under_lock.isra.0+0xae>
1000076c:	0065      	lsls	r5, r4, #1
1000076e:	683b      	ldr	r3, [r7, #0]
10000770:	192d      	adds	r5, r5, r4
10000772:	3d03      	subs	r5, #3
10000774:	1959      	adds	r1, r3, r5
10000776:	784b      	ldrb	r3, [r1, #1]
10000778:	73bb      	strb	r3, [r7, #14]
1000077a:	2b00      	cmp	r3, #0
1000077c:	d100      	bne.n	10000780 <add_alarm_under_lock.isra.0+0x3c>
1000077e:	73fb      	strb	r3, [r7, #15]
10000780:	2300      	movs	r3, #0
10000782:	708b      	strb	r3, [r1, #2]
10000784:	704b      	strb	r3, [r1, #1]
10000786:	700b      	strb	r3, [r1, #0]
10000788:	e004      	b.n	10000794 <add_alarm_under_lock.isra.0+0x50>
1000078a:	0065      	lsls	r5, r4, #1
1000078c:	683b      	ldr	r3, [r7, #0]
1000078e:	192d      	adds	r5, r5, r4
10000790:	3d03      	subs	r5, #3
10000792:	1959      	adds	r1, r3, r5
10000794:	68b2      	ldr	r2, [r6, #8]
10000796:	4b2a      	ldr	r3, [pc, #168]	; (10000840 <add_alarm_under_lock.isra.0+0xfc>)
10000798:	4694      	mov	ip, r2
1000079a:	4642      	mov	r2, r8
1000079c:	18e3      	adds	r3, r4, r3
1000079e:	011b      	lsls	r3, r3, #4
100007a0:	4463      	add	r3, ip
100007a2:	601a      	str	r2, [r3, #0]
100007a4:	464a      	mov	r2, r9
100007a6:	605a      	str	r2, [r3, #4]
100007a8:	9a0a      	ldr	r2, [sp, #40]	; 0x28
100007aa:	609a      	str	r2, [r3, #8]
100007ac:	9a0b      	ldr	r2, [sp, #44]	; 0x2c
100007ae:	60da      	str	r2, [r3, #12]
100007b0:	2300      	movs	r3, #0
100007b2:	708b      	strb	r3, [r1, #2]
100007b4:	704b      	strb	r3, [r1, #1]
100007b6:	700b      	strb	r3, [r1, #0]
100007b8:	7b7b      	ldrb	r3, [r7, #13]
100007ba:	469b      	mov	fp, r3
100007bc:	2b00      	cmp	r3, #0
100007be:	d02b      	beq.n	10000818 <add_alarm_under_lock.isra.0+0xd4>
100007c0:	0022      	movs	r2, r4
100007c2:	4659      	mov	r1, fp
100007c4:	68b8      	ldr	r0, [r7, #8]
100007c6:	687b      	ldr	r3, [r7, #4]
100007c8:	4798      	blx	r3
100007ca:	683a      	ldr	r2, [r7, #0]
100007cc:	2800      	cmp	r0, #0
100007ce:	d016      	beq.n	100007fe <add_alarm_under_lock.isra.0+0xba>
100007d0:	465b      	mov	r3, fp
100007d2:	4658      	mov	r0, fp
100007d4:	005b      	lsls	r3, r3, #1
100007d6:	445b      	add	r3, fp
100007d8:	1955      	adds	r5, r2, r5
100007da:	3b03      	subs	r3, #3
100007dc:	70a8      	strb	r0, [r5, #2]
100007de:	18d1      	adds	r1, r2, r3
100007e0:	5cd3      	ldrb	r3, [r2, r3]
100007e2:	2b00      	cmp	r3, #0
100007e4:	d000      	beq.n	100007e8 <add_alarm_under_lock.isra.0+0xa4>
100007e6:	706b      	strb	r3, [r5, #1]
100007e8:	465b      	mov	r3, fp
100007ea:	700c      	strb	r4, [r1, #0]
100007ec:	737b      	strb	r3, [r7, #13]
100007ee:	45a3      	cmp	fp, r4
100007f0:	d013      	beq.n	1000081a <add_alarm_under_lock.isra.0+0xd6>
100007f2:	bcf0      	pop	{r4, r5, r6, r7}
100007f4:	46bb      	mov	fp, r7
100007f6:	46b2      	mov	sl, r6
100007f8:	46a9      	mov	r9, r5
100007fa:	46a0      	mov	r8, r4
100007fc:	bdf8      	pop	{r3, r4, r5, r6, r7, pc}
100007fe:	465b      	mov	r3, fp
10000800:	005b      	lsls	r3, r3, #1
10000802:	445b      	add	r3, fp
10000804:	3b03      	subs	r3, #3
10000806:	18d3      	adds	r3, r2, r3
10000808:	709c      	strb	r4, [r3, #2]
1000080a:	1951      	adds	r1, r2, r5
1000080c:	5d52      	ldrb	r2, [r2, r5]
1000080e:	2a00      	cmp	r2, #0
10000810:	d000      	beq.n	10000814 <add_alarm_under_lock.isra.0+0xd0>
10000812:	705a      	strb	r2, [r3, #1]
10000814:	465b      	mov	r3, fp
10000816:	700b      	strb	r3, [r1, #0]
10000818:	737c      	strb	r4, [r7, #13]
1000081a:	4642      	mov	r2, r8
1000081c:	464b      	mov	r3, r9
1000081e:	7d30      	ldrb	r0, [r6, #20]
10000820:	f000 fba4 	bl	10000f6c <hardware_alarm_set_target>
10000824:	1e05      	subs	r5, r0, #0
10000826:	d006      	beq.n	10000836 <add_alarm_under_lock.isra.0+0xf2>
10000828:	4653      	mov	r3, sl
1000082a:	2b00      	cmp	r3, #0
1000082c:	d103      	bne.n	10000836 <add_alarm_under_lock.isra.0+0xf2>
1000082e:	0021      	movs	r1, r4
10000830:	6830      	ldr	r0, [r6, #0]
10000832:	f000 fdf1 	bl	10001418 <ph_remove_and_free_node>
10000836:	9b0e      	ldr	r3, [sp, #56]	; 0x38
10000838:	2b00      	cmp	r3, #0
1000083a:	d0da      	beq.n	100007f2 <add_alarm_under_lock.isra.0+0xae>
1000083c:	701d      	strb	r5, [r3, #0]
1000083e:	e7d8      	b.n	100007f2 <add_alarm_under_lock.isra.0+0xae>
10000840:	0fffffff 	.word	0x0fffffff

10000844 <alarm_pool_alarm_callback>:
10000844:	b5f0      	push	{r4, r5, r6, r7, lr}
10000846:	46de      	mov	lr, fp
10000848:	464e      	mov	r6, r9
1000084a:	4657      	mov	r7, sl
1000084c:	4645      	mov	r5, r8
1000084e:	2300      	movs	r3, #0
10000850:	b5e0      	push	{r5, r6, r7, lr}
10000852:	b08d      	sub	sp, #52	; 0x34
10000854:	930a      	str	r3, [sp, #40]	; 0x28
10000856:	4b6b      	ldr	r3, [pc, #428]	; (10000a04 <alarm_pool_alarm_callback+0x1c0>)
10000858:	0082      	lsls	r2, r0, #2
1000085a:	58d3      	ldr	r3, [r2, r3]
1000085c:	900b      	str	r0, [sp, #44]	; 0x2c
1000085e:	4699      	mov	r9, r3
10000860:	2300      	movs	r3, #0
10000862:	469b      	mov	fp, r3
10000864:	464b      	mov	r3, r9
10000866:	9307      	str	r3, [sp, #28]
10000868:	f000 fb30 	bl	10000ecc <time_us_64>
1000086c:	9c07      	ldr	r4, [sp, #28]
1000086e:	0006      	movs	r6, r0
10000870:	000f      	movs	r7, r1
10000872:	6862      	ldr	r2, [r4, #4]
10000874:	f3ef 8510 	mrs	r5, PRIMASK
10000878:	b672      	cpsid	i
1000087a:	6813      	ldr	r3, [r2, #0]
1000087c:	2b00      	cmp	r3, #0
1000087e:	d0fc      	beq.n	1000087a <alarm_pool_alarm_callback+0x36>
10000880:	0022      	movs	r2, r4
10000882:	9407      	str	r4, [sp, #28]
10000884:	f3bf 8f5f 	dmb	sy
10000888:	6824      	ldr	r4, [r4, #0]
1000088a:	7b63      	ldrb	r3, [r4, #13]
1000088c:	4699      	mov	r9, r3
1000088e:	2b00      	cmp	r3, #0
10000890:	d067      	beq.n	10000962 <alarm_pool_alarm_callback+0x11e>
10000892:	6892      	ldr	r2, [r2, #8]
10000894:	4b5c      	ldr	r3, [pc, #368]	; (10000a08 <alarm_pool_alarm_callback+0x1c4>)
10000896:	4690      	mov	r8, r2
10000898:	444b      	add	r3, r9
1000089a:	011b      	lsls	r3, r3, #4
1000089c:	4498      	add	r8, r3
1000089e:	4643      	mov	r3, r8
100008a0:	681a      	ldr	r2, [r3, #0]
100008a2:	685b      	ldr	r3, [r3, #4]
100008a4:	0010      	movs	r0, r2
100008a6:	0019      	movs	r1, r3
100008a8:	1b80      	subs	r0, r0, r6
100008aa:	41b9      	sbcs	r1, r7
100008ac:	2900      	cmp	r1, #0
100008ae:	dd5f      	ble.n	10000970 <alarm_pool_alarm_callback+0x12c>
100008b0:	980b      	ldr	r0, [sp, #44]	; 0x2c
100008b2:	f000 fb5b 	bl	10000f6c <hardware_alarm_set_target>
100008b6:	2300      	movs	r3, #0
100008b8:	2600      	movs	r6, #0
100008ba:	4698      	mov	r8, r3
100008bc:	2700      	movs	r7, #0
100008be:	469a      	mov	sl, r3
100008c0:	9c07      	ldr	r4, [sp, #28]
100008c2:	6863      	ldr	r3, [r4, #4]
100008c4:	f3bf 8f5f 	dmb	sy
100008c8:	465a      	mov	r2, fp
100008ca:	601a      	str	r2, [r3, #0]
100008cc:	f385 8810 	msr	PRIMASK, r5
100008d0:	4653      	mov	r3, sl
100008d2:	2b00      	cmp	r3, #0
100008d4:	d108      	bne.n	100008e8 <alarm_pool_alarm_callback+0xa4>
100008d6:	2800      	cmp	r0, #0
100008d8:	d1c6      	bne.n	10000868 <alarm_pool_alarm_callback+0x24>
100008da:	b00d      	add	sp, #52	; 0x34
100008dc:	bcf0      	pop	{r4, r5, r6, r7}
100008de:	46bb      	mov	fp, r7
100008e0:	46b2      	mov	sl, r6
100008e2:	46a9      	mov	r9, r5
100008e4:	46a0      	mov	r8, r4
100008e6:	bdf0      	pop	{r4, r5, r6, r7, pc}
100008e8:	9b0a      	ldr	r3, [sp, #40]	; 0x28
100008ea:	4641      	mov	r1, r8
100008ec:	0218      	lsls	r0, r3, #8
100008ee:	464b      	mov	r3, r9
100008f0:	4318      	orrs	r0, r3
100008f2:	47d0      	blx	sl
100008f4:	9008      	str	r0, [sp, #32]
100008f6:	9109      	str	r1, [sp, #36]	; 0x24
100008f8:	6862      	ldr	r2, [r4, #4]
100008fa:	f3ef 8510 	mrs	r5, PRIMASK
100008fe:	b672      	cpsid	i
10000900:	6813      	ldr	r3, [r2, #0]
10000902:	2b00      	cmp	r3, #0
10000904:	d0fc      	beq.n	10000900 <alarm_pool_alarm_callback+0xbc>
10000906:	9407      	str	r4, [sp, #28]
10000908:	f3bf 8f5f 	dmb	sy
1000090c:	9908      	ldr	r1, [sp, #32]
1000090e:	9a09      	ldr	r2, [sp, #36]	; 0x24
10000910:	2a00      	cmp	r2, #0
10000912:	db48      	blt.n	100009a6 <alarm_pool_alarm_callback+0x162>
10000914:	4311      	orrs	r1, r2
10000916:	d003      	beq.n	10000920 <alarm_pool_alarm_callback+0xdc>
10000918:	9b07      	ldr	r3, [sp, #28]
1000091a:	691b      	ldr	r3, [r3, #16]
1000091c:	2b00      	cmp	r3, #0
1000091e:	d15d      	bne.n	100009dc <alarm_pool_alarm_callback+0x198>
10000920:	9b07      	ldr	r3, [sp, #28]
10000922:	681b      	ldr	r3, [r3, #0]
10000924:	7bd9      	ldrb	r1, [r3, #15]
10000926:	2900      	cmp	r1, #0
10000928:	d007      	beq.n	1000093a <alarm_pool_alarm_callback+0xf6>
1000092a:	004a      	lsls	r2, r1, #1
1000092c:	1852      	adds	r2, r2, r1
1000092e:	6819      	ldr	r1, [r3, #0]
10000930:	468c      	mov	ip, r1
10000932:	4649      	mov	r1, r9
10000934:	4462      	add	r2, ip
10000936:	3a03      	subs	r2, #3
10000938:	7051      	strb	r1, [r2, #1]
1000093a:	464a      	mov	r2, r9
1000093c:	73da      	strb	r2, [r3, #15]
1000093e:	464b      	mov	r3, r9
10000940:	9a07      	ldr	r2, [sp, #28]
10000942:	3b01      	subs	r3, #1
10000944:	68d1      	ldr	r1, [r2, #12]
10000946:	5cca      	ldrb	r2, [r1, r3]
10000948:	3201      	adds	r2, #1
1000094a:	54ca      	strb	r2, [r1, r3]
1000094c:	465b      	mov	r3, fp
1000094e:	9a07      	ldr	r2, [sp, #28]
10000950:	6113      	str	r3, [r2, #16]
10000952:	6853      	ldr	r3, [r2, #4]
10000954:	f3bf 8f5f 	dmb	sy
10000958:	465a      	mov	r2, fp
1000095a:	601a      	str	r2, [r3, #0]
1000095c:	f385 8810 	msr	PRIMASK, r5
10000960:	e782      	b.n	10000868 <alarm_pool_alarm_callback+0x24>
10000962:	2300      	movs	r3, #0
10000964:	2600      	movs	r6, #0
10000966:	4698      	mov	r8, r3
10000968:	2700      	movs	r7, #0
1000096a:	469a      	mov	sl, r3
1000096c:	2000      	movs	r0, #0
1000096e:	e7a7      	b.n	100008c0 <alarm_pool_alarm_callback+0x7c>
10000970:	2900      	cmp	r1, #0
10000972:	d101      	bne.n	10000978 <alarm_pool_alarm_callback+0x134>
10000974:	2800      	cmp	r0, #0
10000976:	d19b      	bne.n	100008b0 <alarm_pool_alarm_callback+0x6c>
10000978:	2100      	movs	r1, #0
1000097a:	0020      	movs	r0, r4
1000097c:	f000 fcce 	bl	1000131c <ph_remove_head>
10000980:	4643      	mov	r3, r8
10000982:	681e      	ldr	r6, [r3, #0]
10000984:	685f      	ldr	r7, [r3, #4]
10000986:	689b      	ldr	r3, [r3, #8]
10000988:	9a07      	ldr	r2, [sp, #28]
1000098a:	469a      	mov	sl, r3
1000098c:	4643      	mov	r3, r8
1000098e:	68db      	ldr	r3, [r3, #12]
10000990:	4698      	mov	r8, r3
10000992:	68d3      	ldr	r3, [r2, #12]
10000994:	444b      	add	r3, r9
10000996:	3b01      	subs	r3, #1
10000998:	781b      	ldrb	r3, [r3, #0]
1000099a:	930a      	str	r3, [sp, #40]	; 0x28
1000099c:	021b      	lsls	r3, r3, #8
1000099e:	4303      	orrs	r3, r0
100009a0:	6113      	str	r3, [r2, #16]
100009a2:	2000      	movs	r0, #0
100009a4:	e78c      	b.n	100008c0 <alarm_pool_alarm_callback+0x7c>
100009a6:	6923      	ldr	r3, [r4, #16]
100009a8:	2b00      	cmp	r3, #0
100009aa:	d0b9      	beq.n	10000920 <alarm_pool_alarm_callback+0xdc>
100009ac:	0033      	movs	r3, r6
100009ae:	003c      	movs	r4, r7
100009b0:	1a5b      	subs	r3, r3, r1
100009b2:	4194      	sbcs	r4, r2
100009b4:	001a      	movs	r2, r3
100009b6:	0023      	movs	r3, r4
100009b8:	42a7      	cmp	r7, r4
100009ba:	d819      	bhi.n	100009f0 <alarm_pool_alarm_callback+0x1ac>
100009bc:	429f      	cmp	r7, r3
100009be:	d01b      	beq.n	100009f8 <alarm_pool_alarm_callback+0x1b4>
100009c0:	4659      	mov	r1, fp
100009c2:	9104      	str	r1, [sp, #16]
100009c4:	2101      	movs	r1, #1
100009c6:	9103      	str	r1, [sp, #12]
100009c8:	4649      	mov	r1, r9
100009ca:	9102      	str	r1, [sp, #8]
100009cc:	4641      	mov	r1, r8
100009ce:	9101      	str	r1, [sp, #4]
100009d0:	4651      	mov	r1, sl
100009d2:	9807      	ldr	r0, [sp, #28]
100009d4:	9100      	str	r1, [sp, #0]
100009d6:	f7ff feb5 	bl	10000744 <add_alarm_under_lock.isra.0>
100009da:	e7b7      	b.n	1000094c <alarm_pool_alarm_callback+0x108>
100009dc:	f000 fa76 	bl	10000ecc <time_us_64>
100009e0:	9a08      	ldr	r2, [sp, #32]
100009e2:	9b09      	ldr	r3, [sp, #36]	; 0x24
100009e4:	0006      	movs	r6, r0
100009e6:	000f      	movs	r7, r1
100009e8:	1992      	adds	r2, r2, r6
100009ea:	417b      	adcs	r3, r7
100009ec:	4299      	cmp	r1, r3
100009ee:	d9e5      	bls.n	100009bc <alarm_pool_alarm_callback+0x178>
100009f0:	2201      	movs	r2, #1
100009f2:	4252      	negs	r2, r2
100009f4:	17d3      	asrs	r3, r2, #31
100009f6:	e7e3      	b.n	100009c0 <alarm_pool_alarm_callback+0x17c>
100009f8:	4296      	cmp	r6, r2
100009fa:	d9e1      	bls.n	100009c0 <alarm_pool_alarm_callback+0x17c>
100009fc:	2201      	movs	r2, #1
100009fe:	4252      	negs	r2, r2
10000a00:	17d3      	asrs	r3, r2, #31
10000a02:	e7dd      	b.n	100009c0 <alarm_pool_alarm_callback+0x17c>
10000a04:	20002154 	.word	0x20002154
10000a08:	0fffffff 	.word	0x0fffffff

10000a0c <alarm_pool_add_alarm_at.constprop.0>:
10000a0c:	b5f8      	push	{r3, r4, r5, r6, r7, lr}
10000a0e:	4657      	mov	r7, sl
10000a10:	464e      	mov	r6, r9
10000a12:	4645      	mov	r5, r8
10000a14:	46de      	mov	lr, fp
10000a16:	b5e0      	push	{r5, r6, r7, lr}
10000a18:	4d40      	ldr	r5, [pc, #256]	; (10000b1c <alarm_pool_add_alarm_at.constprop.0+0x110>)
10000a1a:	4681      	mov	r9, r0
10000a1c:	468a      	mov	sl, r1
10000a1e:	686a      	ldr	r2, [r5, #4]
10000a20:	f3ef 8810 	mrs	r8, PRIMASK
10000a24:	b672      	cpsid	i
10000a26:	6813      	ldr	r3, [r2, #0]
10000a28:	2b00      	cmp	r3, #0
10000a2a:	d0fc      	beq.n	10000a26 <alarm_pool_add_alarm_at.constprop.0+0x1a>
10000a2c:	f3bf 8f5f 	dmb	sy
10000a30:	682e      	ldr	r6, [r5, #0]
10000a32:	7bb4      	ldrb	r4, [r6, #14]
10000a34:	2c00      	cmp	r4, #0
10000a36:	d039      	beq.n	10000aac <alarm_pool_add_alarm_at.constprop.0+0xa0>
10000a38:	0067      	lsls	r7, r4, #1
10000a3a:	6833      	ldr	r3, [r6, #0]
10000a3c:	193f      	adds	r7, r7, r4
10000a3e:	3f03      	subs	r7, #3
10000a40:	19db      	adds	r3, r3, r7
10000a42:	785a      	ldrb	r2, [r3, #1]
10000a44:	73b2      	strb	r2, [r6, #14]
10000a46:	2a00      	cmp	r2, #0
10000a48:	d100      	bne.n	10000a4c <alarm_pool_add_alarm_at.constprop.0+0x40>
10000a4a:	73f2      	strb	r2, [r6, #15]
10000a4c:	68a9      	ldr	r1, [r5, #8]
10000a4e:	4a34      	ldr	r2, [pc, #208]	; (10000b20 <alarm_pool_add_alarm_at.constprop.0+0x114>)
10000a50:	468c      	mov	ip, r1
10000a52:	4649      	mov	r1, r9
10000a54:	18a2      	adds	r2, r4, r2
10000a56:	0112      	lsls	r2, r2, #4
10000a58:	4462      	add	r2, ip
10000a5a:	6011      	str	r1, [r2, #0]
10000a5c:	4651      	mov	r1, sl
10000a5e:	6051      	str	r1, [r2, #4]
10000a60:	4930      	ldr	r1, [pc, #192]	; (10000b24 <alarm_pool_add_alarm_at.constprop.0+0x118>)
10000a62:	6091      	str	r1, [r2, #8]
10000a64:	2100      	movs	r1, #0
10000a66:	60d1      	str	r1, [r2, #12]
10000a68:	7099      	strb	r1, [r3, #2]
10000a6a:	7059      	strb	r1, [r3, #1]
10000a6c:	7019      	strb	r1, [r3, #0]
10000a6e:	7b73      	ldrb	r3, [r6, #13]
10000a70:	469b      	mov	fp, r3
10000a72:	2b00      	cmp	r3, #0
10000a74:	d035      	beq.n	10000ae2 <alarm_pool_add_alarm_at.constprop.0+0xd6>
10000a76:	0022      	movs	r2, r4
10000a78:	0019      	movs	r1, r3
10000a7a:	68b0      	ldr	r0, [r6, #8]
10000a7c:	6873      	ldr	r3, [r6, #4]
10000a7e:	4798      	blx	r3
10000a80:	6832      	ldr	r2, [r6, #0]
10000a82:	2800      	cmp	r0, #0
10000a84:	d020      	beq.n	10000ac8 <alarm_pool_add_alarm_at.constprop.0+0xbc>
10000a86:	465b      	mov	r3, fp
10000a88:	4658      	mov	r0, fp
10000a8a:	005b      	lsls	r3, r3, #1
10000a8c:	445b      	add	r3, fp
10000a8e:	19d7      	adds	r7, r2, r7
10000a90:	3b03      	subs	r3, #3
10000a92:	70b8      	strb	r0, [r7, #2]
10000a94:	18d1      	adds	r1, r2, r3
10000a96:	5cd3      	ldrb	r3, [r2, r3]
10000a98:	2b00      	cmp	r3, #0
10000a9a:	d000      	beq.n	10000a9e <alarm_pool_add_alarm_at.constprop.0+0x92>
10000a9c:	707b      	strb	r3, [r7, #1]
10000a9e:	465b      	mov	r3, fp
10000aa0:	700c      	strb	r4, [r1, #0]
10000aa2:	7373      	strb	r3, [r6, #13]
10000aa4:	455c      	cmp	r4, fp
10000aa6:	d01d      	beq.n	10000ae4 <alarm_pool_add_alarm_at.constprop.0+0xd8>
10000aa8:	2600      	movs	r6, #0
10000aaa:	e026      	b.n	10000afa <alarm_pool_add_alarm_at.constprop.0+0xee>
10000aac:	686b      	ldr	r3, [r5, #4]
10000aae:	f3bf 8f5f 	dmb	sy
10000ab2:	601c      	str	r4, [r3, #0]
10000ab4:	f388 8810 	msr	PRIMASK, r8
10000ab8:	2001      	movs	r0, #1
10000aba:	4240      	negs	r0, r0
10000abc:	bcf0      	pop	{r4, r5, r6, r7}
10000abe:	46bb      	mov	fp, r7
10000ac0:	46b2      	mov	sl, r6
10000ac2:	46a9      	mov	r9, r5
10000ac4:	46a0      	mov	r8, r4
10000ac6:	bdf8      	pop	{r3, r4, r5, r6, r7, pc}
10000ac8:	465b      	mov	r3, fp
10000aca:	005b      	lsls	r3, r3, #1
10000acc:	445b      	add	r3, fp
10000ace:	3b03      	subs	r3, #3
10000ad0:	18d3      	adds	r3, r2, r3
10000ad2:	709c      	strb	r4, [r3, #2]
10000ad4:	19d1      	adds	r1, r2, r7
10000ad6:	5dd2      	ldrb	r2, [r2, r7]
10000ad8:	2a00      	cmp	r2, #0
10000ada:	d000      	beq.n	10000ade <alarm_pool_add_alarm_at.constprop.0+0xd2>
10000adc:	705a      	strb	r2, [r3, #1]
10000ade:	465b      	mov	r3, fp
10000ae0:	700b      	strb	r3, [r1, #0]
10000ae2:	7374      	strb	r4, [r6, #13]
10000ae4:	464a      	mov	r2, r9
10000ae6:	4653      	mov	r3, sl
10000ae8:	7d28      	ldrb	r0, [r5, #20]
10000aea:	f000 fa3f 	bl	10000f6c <hardware_alarm_set_target>
10000aee:	1e06      	subs	r6, r0, #0
10000af0:	d0da      	beq.n	10000aa8 <alarm_pool_add_alarm_at.constprop.0+0x9c>
10000af2:	0021      	movs	r1, r4
10000af4:	6828      	ldr	r0, [r5, #0]
10000af6:	f000 fc8f 	bl	10001418 <ph_remove_and_free_node>
10000afa:	68eb      	ldr	r3, [r5, #12]
10000afc:	191b      	adds	r3, r3, r4
10000afe:	3b01      	subs	r3, #1
10000b00:	7819      	ldrb	r1, [r3, #0]
10000b02:	686b      	ldr	r3, [r5, #4]
10000b04:	f3bf 8f5f 	dmb	sy
10000b08:	2200      	movs	r2, #0
10000b0a:	601a      	str	r2, [r3, #0]
10000b0c:	f388 8810 	msr	PRIMASK, r8
10000b10:	2000      	movs	r0, #0
10000b12:	2e00      	cmp	r6, #0
10000b14:	d1d2      	bne.n	10000abc <alarm_pool_add_alarm_at.constprop.0+0xb0>
10000b16:	0208      	lsls	r0, r1, #8
10000b18:	4320      	orrs	r0, r4
10000b1a:	e7cf      	b.n	10000abc <alarm_pool_add_alarm_at.constprop.0+0xb0>
10000b1c:	2000038c 	.word	0x2000038c
10000b20:	0fffffff 	.word	0x0fffffff
10000b24:	10000715 	.word	0x10000715

10000b28 <alarm_pool_init_default>:
10000b28:	b510      	push	{r4, lr}
10000b2a:	4c12      	ldr	r4, [pc, #72]	; (10000b74 <alarm_pool_init_default+0x4c>)
10000b2c:	6863      	ldr	r3, [r4, #4]
10000b2e:	2b00      	cmp	r3, #0
10000b30:	d004      	beq.n	10000b3c <alarm_pool_init_default+0x14>
10000b32:	210a      	movs	r1, #10
10000b34:	4810      	ldr	r0, [pc, #64]	; (10000b78 <alarm_pool_init_default+0x50>)
10000b36:	f000 faa7 	bl	10001088 <lock_init>
10000b3a:	bd10      	pop	{r4, pc}
10000b3c:	0023      	movs	r3, r4
10000b3e:	4a0f      	ldr	r2, [pc, #60]	; (10000b7c <alarm_pool_init_default+0x54>)
10000b40:	2110      	movs	r1, #16
10000b42:	6820      	ldr	r0, [r4, #0]
10000b44:	f000 fb08 	bl	10001158 <ph_post_alloc_init>
10000b48:	2003      	movs	r0, #3
10000b4a:	f000 f9b3 	bl	10000eb4 <hardware_alarm_claim>
10000b4e:	2003      	movs	r0, #3
10000b50:	f000 fa7c 	bl	1000104c <hardware_alarm_cancel>
10000b54:	2003      	movs	r0, #3
10000b56:	490a      	ldr	r1, [pc, #40]	; (10000b80 <alarm_pool_init_default+0x58>)
10000b58:	f000 f9c2 	bl	10000ee0 <hardware_alarm_set_callback>
10000b5c:	f7ff fda4 	bl	100006a8 <next_striped_spin_lock_num>
10000b60:	4b08      	ldr	r3, [pc, #32]	; (10000b84 <alarm_pool_init_default+0x5c>)
10000b62:	469c      	mov	ip, r3
10000b64:	2303      	movs	r3, #3
10000b66:	4460      	add	r0, ip
10000b68:	7523      	strb	r3, [r4, #20]
10000b6a:	4b07      	ldr	r3, [pc, #28]	; (10000b88 <alarm_pool_init_default+0x60>)
10000b6c:	0080      	lsls	r0, r0, #2
10000b6e:	6060      	str	r0, [r4, #4]
10000b70:	60dc      	str	r4, [r3, #12]
10000b72:	e7de      	b.n	10000b32 <alarm_pool_init_default+0xa>
10000b74:	2000038c 	.word	0x2000038c
10000b78:	20002170 	.word	0x20002170
10000b7c:	100006e1 	.word	0x100006e1
10000b80:	10000845 	.word	0x10000845
10000b84:	34000040 	.word	0x34000040
10000b88:	20002154 	.word	0x20002154

10000b8c <alarm_pool_get_default>:
10000b8c:	4800      	ldr	r0, [pc, #0]	; (10000b90 <alarm_pool_get_default+0x4>)
10000b8e:	4770      	bx	lr
10000b90:	2000038c 	.word	0x2000038c

10000b94 <alarm_pool_add_alarm_at>:
10000b94:	b5f0      	push	{r4, r5, r6, r7, lr}
10000b96:	4657      	mov	r7, sl
10000b98:	464e      	mov	r6, r9
10000b9a:	4645      	mov	r5, r8
10000b9c:	46de      	mov	lr, fp
10000b9e:	b5e0      	push	{r5, r6, r7, lr}
10000ba0:	b085      	sub	sp, #20
10000ba2:	9301      	str	r3, [sp, #4]
10000ba4:	ab10      	add	r3, sp, #64	; 0x40
10000ba6:	781b      	ldrb	r3, [r3, #0]
10000ba8:	0006      	movs	r6, r0
10000baa:	9303      	str	r3, [sp, #12]
10000bac:	2300      	movs	r3, #0
10000bae:	469a      	mov	sl, r3
10000bb0:	4698      	mov	r8, r3
10000bb2:	9200      	str	r2, [sp, #0]
10000bb4:	6872      	ldr	r2, [r6, #4]
10000bb6:	f3ef 8910 	mrs	r9, PRIMASK
10000bba:	b672      	cpsid	i
10000bbc:	6813      	ldr	r3, [r2, #0]
10000bbe:	2b00      	cmp	r3, #0
10000bc0:	d0fc      	beq.n	10000bbc <alarm_pool_add_alarm_at+0x28>
10000bc2:	f3bf 8f5f 	dmb	sy
10000bc6:	6835      	ldr	r5, [r6, #0]
10000bc8:	7bac      	ldrb	r4, [r5, #14]
10000bca:	2c00      	cmp	r4, #0
10000bcc:	d049      	beq.n	10000c62 <alarm_pool_add_alarm_at+0xce>
10000bce:	0067      	lsls	r7, r4, #1
10000bd0:	682b      	ldr	r3, [r5, #0]
10000bd2:	193f      	adds	r7, r7, r4
10000bd4:	3f03      	subs	r7, #3
10000bd6:	19db      	adds	r3, r3, r7
10000bd8:	785a      	ldrb	r2, [r3, #1]
10000bda:	73aa      	strb	r2, [r5, #14]
10000bdc:	2a00      	cmp	r2, #0
10000bde:	d100      	bne.n	10000be2 <alarm_pool_add_alarm_at+0x4e>
10000be0:	73ea      	strb	r2, [r5, #15]
10000be2:	68b1      	ldr	r1, [r6, #8]
10000be4:	4a4f      	ldr	r2, [pc, #316]	; (10000d24 <alarm_pool_add_alarm_at+0x190>)
10000be6:	468c      	mov	ip, r1
10000be8:	9800      	ldr	r0, [sp, #0]
10000bea:	9901      	ldr	r1, [sp, #4]
10000bec:	18a2      	adds	r2, r4, r2
10000bee:	0112      	lsls	r2, r2, #4
10000bf0:	4462      	add	r2, ip
10000bf2:	6010      	str	r0, [r2, #0]
10000bf4:	6051      	str	r1, [r2, #4]
10000bf6:	990e      	ldr	r1, [sp, #56]	; 0x38
10000bf8:	6091      	str	r1, [r2, #8]
10000bfa:	990f      	ldr	r1, [sp, #60]	; 0x3c
10000bfc:	60d1      	str	r1, [r2, #12]
10000bfe:	4642      	mov	r2, r8
10000c00:	709a      	strb	r2, [r3, #2]
10000c02:	705a      	strb	r2, [r3, #1]
10000c04:	701a      	strb	r2, [r3, #0]
10000c06:	7b6b      	ldrb	r3, [r5, #13]
10000c08:	469b      	mov	fp, r3
10000c0a:	2b00      	cmp	r3, #0
10000c0c:	d045      	beq.n	10000c9a <alarm_pool_add_alarm_at+0x106>
10000c0e:	0022      	movs	r2, r4
10000c10:	0019      	movs	r1, r3
10000c12:	68a8      	ldr	r0, [r5, #8]
10000c14:	686b      	ldr	r3, [r5, #4]
10000c16:	4798      	blx	r3
10000c18:	682a      	ldr	r2, [r5, #0]
10000c1a:	2800      	cmp	r0, #0
10000c1c:	d030      	beq.n	10000c80 <alarm_pool_add_alarm_at+0xec>
10000c1e:	465b      	mov	r3, fp
10000c20:	4658      	mov	r0, fp
10000c22:	005b      	lsls	r3, r3, #1
10000c24:	445b      	add	r3, fp
10000c26:	19d7      	adds	r7, r2, r7
10000c28:	3b03      	subs	r3, #3
10000c2a:	70b8      	strb	r0, [r7, #2]
10000c2c:	18d1      	adds	r1, r2, r3
10000c2e:	5cd3      	ldrb	r3, [r2, r3]
10000c30:	2b00      	cmp	r3, #0
10000c32:	d000      	beq.n	10000c36 <alarm_pool_add_alarm_at+0xa2>
10000c34:	707b      	strb	r3, [r7, #1]
10000c36:	465b      	mov	r3, fp
10000c38:	700c      	strb	r4, [r1, #0]
10000c3a:	736b      	strb	r3, [r5, #13]
10000c3c:	455c      	cmp	r4, fp
10000c3e:	d02d      	beq.n	10000c9c <alarm_pool_add_alarm_at+0x108>
10000c40:	68f3      	ldr	r3, [r6, #12]
10000c42:	191b      	adds	r3, r3, r4
10000c44:	3b01      	subs	r3, #1
10000c46:	7818      	ldrb	r0, [r3, #0]
10000c48:	6873      	ldr	r3, [r6, #4]
10000c4a:	f3bf 8f5f 	dmb	sy
10000c4e:	4642      	mov	r2, r8
10000c50:	601a      	str	r2, [r3, #0]
10000c52:	f389 8810 	msr	PRIMASK, r9
10000c56:	4653      	mov	r3, sl
10000c58:	2b00      	cmp	r3, #0
10000c5a:	d12c      	bne.n	10000cb6 <alarm_pool_add_alarm_at+0x122>
10000c5c:	0200      	lsls	r0, r0, #8
10000c5e:	4320      	orrs	r0, r4
10000c60:	e007      	b.n	10000c72 <alarm_pool_add_alarm_at+0xde>
10000c62:	6873      	ldr	r3, [r6, #4]
10000c64:	f3bf 8f5f 	dmb	sy
10000c68:	601c      	str	r4, [r3, #0]
10000c6a:	f389 8810 	msr	PRIMASK, r9
10000c6e:	2001      	movs	r0, #1
10000c70:	4240      	negs	r0, r0
10000c72:	b005      	add	sp, #20
10000c74:	bcf0      	pop	{r4, r5, r6, r7}
10000c76:	46bb      	mov	fp, r7
10000c78:	46b2      	mov	sl, r6
10000c7a:	46a9      	mov	r9, r5
10000c7c:	46a0      	mov	r8, r4
10000c7e:	bdf0      	pop	{r4, r5, r6, r7, pc}
10000c80:	465b      	mov	r3, fp
10000c82:	005b      	lsls	r3, r3, #1
10000c84:	445b      	add	r3, fp
10000c86:	3b03      	subs	r3, #3
10000c88:	18d3      	adds	r3, r2, r3
10000c8a:	709c      	strb	r4, [r3, #2]
10000c8c:	19d1      	adds	r1, r2, r7
10000c8e:	5dd2      	ldrb	r2, [r2, r7]
10000c90:	2a00      	cmp	r2, #0
10000c92:	d000      	beq.n	10000c96 <alarm_pool_add_alarm_at+0x102>
10000c94:	705a      	strb	r2, [r3, #1]
10000c96:	465b      	mov	r3, fp
10000c98:	700b      	strb	r3, [r1, #0]
10000c9a:	736c      	strb	r4, [r5, #13]
10000c9c:	7d30      	ldrb	r0, [r6, #20]
10000c9e:	9a00      	ldr	r2, [sp, #0]
10000ca0:	9b01      	ldr	r3, [sp, #4]
10000ca2:	f000 f963 	bl	10000f6c <hardware_alarm_set_target>
10000ca6:	4682      	mov	sl, r0
10000ca8:	2800      	cmp	r0, #0
10000caa:	d0c9      	beq.n	10000c40 <alarm_pool_add_alarm_at+0xac>
10000cac:	0021      	movs	r1, r4
10000cae:	6830      	ldr	r0, [r6, #0]
10000cb0:	f000 fbb2 	bl	10001418 <ph_remove_and_free_node>
10000cb4:	e7c4      	b.n	10000c40 <alarm_pool_add_alarm_at+0xac>
10000cb6:	9b03      	ldr	r3, [sp, #12]
10000cb8:	2b00      	cmp	r3, #0
10000cba:	d030      	beq.n	10000d1e <alarm_pool_add_alarm_at+0x18a>
10000cbc:	9b0e      	ldr	r3, [sp, #56]	; 0x38
10000cbe:	2000      	movs	r0, #0
10000cc0:	990f      	ldr	r1, [sp, #60]	; 0x3c
10000cc2:	4798      	blx	r3
10000cc4:	0003      	movs	r3, r0
10000cc6:	0004      	movs	r4, r0
10000cc8:	000d      	movs	r5, r1
10000cca:	430b      	orrs	r3, r1
10000ccc:	d027      	beq.n	10000d1e <alarm_pool_add_alarm_at+0x18a>
10000cce:	2900      	cmp	r1, #0
10000cd0:	da0d      	bge.n	10000cee <alarm_pool_add_alarm_at+0x15a>
10000cd2:	9800      	ldr	r0, [sp, #0]
10000cd4:	9901      	ldr	r1, [sp, #4]
10000cd6:	0002      	movs	r2, r0
10000cd8:	000b      	movs	r3, r1
10000cda:	1b12      	subs	r2, r2, r4
10000cdc:	41ab      	sbcs	r3, r5
10000cde:	4299      	cmp	r1, r3
10000ce0:	d813      	bhi.n	10000d0a <alarm_pool_add_alarm_at+0x176>
10000ce2:	d018      	beq.n	10000d16 <alarm_pool_add_alarm_at+0x182>
10000ce4:	9200      	str	r2, [sp, #0]
10000ce6:	9301      	str	r3, [sp, #4]
10000ce8:	9b03      	ldr	r3, [sp, #12]
10000cea:	469a      	mov	sl, r3
10000cec:	e762      	b.n	10000bb4 <alarm_pool_add_alarm_at+0x20>
10000cee:	f000 f8ed 	bl	10000ecc <time_us_64>
10000cf2:	0002      	movs	r2, r0
10000cf4:	000b      	movs	r3, r1
10000cf6:	18a4      	adds	r4, r4, r2
10000cf8:	415d      	adcs	r5, r3
10000cfa:	9400      	str	r4, [sp, #0]
10000cfc:	9501      	str	r5, [sp, #4]
10000cfe:	42a9      	cmp	r1, r5
10000d00:	d803      	bhi.n	10000d0a <alarm_pool_add_alarm_at+0x176>
10000d02:	d1f1      	bne.n	10000ce8 <alarm_pool_add_alarm_at+0x154>
10000d04:	9900      	ldr	r1, [sp, #0]
10000d06:	428a      	cmp	r2, r1
10000d08:	d9ee      	bls.n	10000ce8 <alarm_pool_add_alarm_at+0x154>
10000d0a:	2301      	movs	r3, #1
10000d0c:	425b      	negs	r3, r3
10000d0e:	17dc      	asrs	r4, r3, #31
10000d10:	9300      	str	r3, [sp, #0]
10000d12:	9401      	str	r4, [sp, #4]
10000d14:	e7e8      	b.n	10000ce8 <alarm_pool_add_alarm_at+0x154>
10000d16:	9900      	ldr	r1, [sp, #0]
10000d18:	4291      	cmp	r1, r2
10000d1a:	d9e3      	bls.n	10000ce4 <alarm_pool_add_alarm_at+0x150>
10000d1c:	e7f5      	b.n	10000d0a <alarm_pool_add_alarm_at+0x176>
10000d1e:	2000      	movs	r0, #0
10000d20:	e7a7      	b.n	10000c72 <alarm_pool_add_alarm_at+0xde>
10000d22:	46c0      	nop			; (mov r8, r8)
10000d24:	0fffffff 	.word	0x0fffffff

10000d28 <best_effort_wfe_or_timeout>:
10000d28:	b5f8      	push	{r3, r4, r5, r6, r7, lr}
10000d2a:	46ce      	mov	lr, r9
10000d2c:	4647      	mov	r7, r8
10000d2e:	b580      	push	{r7, lr}
10000d30:	0006      	movs	r6, r0
10000d32:	000c      	movs	r4, r1
10000d34:	f7ff fe6a 	bl	10000a0c <alarm_pool_add_alarm_at.constprop.0>
10000d38:	2800      	cmp	r0, #0
10000d3a:	dc0c      	bgt.n	10000d56 <best_effort_wfe_or_timeout+0x2e>
10000d3c:	4b2d      	ldr	r3, [pc, #180]	; (10000df4 <best_effort_wfe_or_timeout+0xcc>)
10000d3e:	2000      	movs	r0, #0
10000d40:	6a59      	ldr	r1, [r3, #36]	; 0x24
10000d42:	428c      	cmp	r4, r1
10000d44:	d803      	bhi.n	10000d4e <best_effort_wfe_or_timeout+0x26>
10000d46:	6a9b      	ldr	r3, [r3, #40]	; 0x28
10000d48:	3001      	adds	r0, #1
10000d4a:	42b3      	cmp	r3, r6
10000d4c:	d345      	bcc.n	10000dda <best_effort_wfe_or_timeout+0xb2>
10000d4e:	bcc0      	pop	{r6, r7}
10000d50:	46b9      	mov	r9, r7
10000d52:	46b0      	mov	r8, r6
10000d54:	bdf8      	pop	{r3, r4, r5, r6, r7, pc}
10000d56:	bf20      	wfe
10000d58:	4d27      	ldr	r5, [pc, #156]	; (10000df8 <best_effort_wfe_or_timeout+0xd0>)
10000d5a:	686a      	ldr	r2, [r5, #4]
10000d5c:	f3ef 8710 	mrs	r7, PRIMASK
10000d60:	b672      	cpsid	i
10000d62:	6813      	ldr	r3, [r2, #0]
10000d64:	2b00      	cmp	r3, #0
10000d66:	d0fc      	beq.n	10000d62 <best_effort_wfe_or_timeout+0x3a>
10000d68:	f3bf 8f5f 	dmb	sy
10000d6c:	682b      	ldr	r3, [r5, #0]
10000d6e:	b2c1      	uxtb	r1, r0
10000d70:	469c      	mov	ip, r3
10000d72:	7b5b      	ldrb	r3, [r3, #13]
10000d74:	428b      	cmp	r3, r1
10000d76:	d035      	beq.n	10000de4 <best_effort_wfe_or_timeout+0xbc>
10000d78:	23ff      	movs	r3, #255	; 0xff
10000d7a:	4003      	ands	r3, r0
10000d7c:	005a      	lsls	r2, r3, #1
10000d7e:	4691      	mov	r9, r2
10000d80:	4662      	mov	r2, ip
10000d82:	6812      	ldr	r2, [r2, #0]
10000d84:	4499      	add	r9, r3
10000d86:	4690      	mov	r8, r2
10000d88:	464a      	mov	r2, r9
10000d8a:	4442      	add	r2, r8
10000d8c:	3a03      	subs	r2, #3
10000d8e:	7892      	ldrb	r2, [r2, #2]
10000d90:	2a00      	cmp	r2, #0
10000d92:	d01d      	beq.n	10000dd0 <best_effort_wfe_or_timeout+0xa8>
10000d94:	68ea      	ldr	r2, [r5, #12]
10000d96:	0a00      	lsrs	r0, r0, #8
10000d98:	4690      	mov	r8, r2
10000d9a:	4443      	add	r3, r8
10000d9c:	3b01      	subs	r3, #1
10000d9e:	781b      	ldrb	r3, [r3, #0]
10000da0:	b2c0      	uxtb	r0, r0
10000da2:	4283      	cmp	r3, r0
10000da4:	d021      	beq.n	10000dea <best_effort_wfe_or_timeout+0xc2>
10000da6:	686b      	ldr	r3, [r5, #4]
10000da8:	f3bf 8f5f 	dmb	sy
10000dac:	2200      	movs	r2, #0
10000dae:	601a      	str	r2, [r3, #0]
10000db0:	f387 8810 	msr	PRIMASK, r7
10000db4:	4a0f      	ldr	r2, [pc, #60]	; (10000df4 <best_effort_wfe_or_timeout+0xcc>)
10000db6:	2000      	movs	r0, #0
10000db8:	6a53      	ldr	r3, [r2, #36]	; 0x24
10000dba:	429c      	cmp	r4, r3
10000dbc:	d8c7      	bhi.n	10000d4e <best_effort_wfe_or_timeout+0x26>
10000dbe:	6a92      	ldr	r2, [r2, #40]	; 0x28
10000dc0:	3001      	adds	r0, #1
10000dc2:	42b2      	cmp	r2, r6
10000dc4:	d2c3      	bcs.n	10000d4e <best_effort_wfe_or_timeout+0x26>
10000dc6:	1ae0      	subs	r0, r4, r3
10000dc8:	1e42      	subs	r2, r0, #1
10000dca:	4190      	sbcs	r0, r2
10000dcc:	b2c0      	uxtb	r0, r0
10000dce:	e7be      	b.n	10000d4e <best_effort_wfe_or_timeout+0x26>
10000dd0:	692b      	ldr	r3, [r5, #16]
10000dd2:	4298      	cmp	r0, r3
10000dd4:	d1e7      	bne.n	10000da6 <best_effort_wfe_or_timeout+0x7e>
10000dd6:	612a      	str	r2, [r5, #16]
10000dd8:	e7e5      	b.n	10000da6 <best_effort_wfe_or_timeout+0x7e>
10000dda:	1a60      	subs	r0, r4, r1
10000ddc:	1e43      	subs	r3, r0, #1
10000dde:	4198      	sbcs	r0, r3
10000de0:	b2c0      	uxtb	r0, r0
10000de2:	e7b4      	b.n	10000d4e <best_effort_wfe_or_timeout+0x26>
10000de4:	23ff      	movs	r3, #255	; 0xff
10000de6:	4003      	ands	r3, r0
10000de8:	e7d4      	b.n	10000d94 <best_effort_wfe_or_timeout+0x6c>
10000dea:	4660      	mov	r0, ip
10000dec:	f000 fb14 	bl	10001418 <ph_remove_and_free_node>
10000df0:	e7d9      	b.n	10000da6 <best_effort_wfe_or_timeout+0x7e>
10000df2:	46c0      	nop			; (mov r8, r8)
10000df4:	40054000 	.word	0x40054000
10000df8:	2000038c 	.word	0x2000038c

10000dfc <hardware_alarm_irq_handler>:
10000dfc:	b5f0      	push	{r4, r5, r6, r7, lr}
10000dfe:	46d6      	mov	lr, sl
10000e00:	464f      	mov	r7, r9
10000e02:	4646      	mov	r6, r8
10000e04:	b5c0      	push	{r6, r7, lr}
10000e06:	f3ef 8305 	mrs	r3, IPSR
10000e0a:	223f      	movs	r2, #63	; 0x3f
10000e0c:	4013      	ands	r3, r2
10000e0e:	0018      	movs	r0, r3
10000e10:	3810      	subs	r0, #16
10000e12:	f3ef 8c10 	mrs	ip, PRIMASK
10000e16:	b672      	cpsid	i
10000e18:	4d20      	ldr	r5, [pc, #128]	; (10000e9c <hardware_alarm_irq_handler+0xa0>)
10000e1a:	682a      	ldr	r2, [r5, #0]
10000e1c:	2a00      	cmp	r2, #0
10000e1e:	d0fc      	beq.n	10000e1a <hardware_alarm_irq_handler+0x1e>
10000e20:	f3bf 8f5f 	dmb	sy
10000e24:	2201      	movs	r2, #1
10000e26:	0011      	movs	r1, r2
10000e28:	4081      	lsls	r1, r0
10000e2a:	4c1d      	ldr	r4, [pc, #116]	; (10000ea0 <hardware_alarm_irq_handler+0xa4>)
10000e2c:	4688      	mov	r8, r1
10000e2e:	6361      	str	r1, [r4, #52]	; 0x34
10000e30:	491c      	ldr	r1, [pc, #112]	; (10000ea4 <hardware_alarm_irq_handler+0xa8>)
10000e32:	0017      	movs	r7, r2
10000e34:	780e      	ldrb	r6, [r1, #0]
10000e36:	468a      	mov	sl, r1
10000e38:	0031      	movs	r1, r6
10000e3a:	40c1      	lsrs	r1, r0
10000e3c:	400f      	ands	r7, r1
10000e3e:	420a      	tst	r2, r1
10000e40:	d109      	bne.n	10000e56 <hardware_alarm_irq_handler+0x5a>
10000e42:	f3bf 8f5f 	dmb	sy
10000e46:	602f      	str	r7, [r5, #0]
10000e48:	f38c 8810 	msr	PRIMASK, ip
10000e4c:	bce0      	pop	{r5, r6, r7}
10000e4e:	46ba      	mov	sl, r7
10000e50:	46b1      	mov	r9, r6
10000e52:	46a8      	mov	r8, r5
10000e54:	bdf0      	pop	{r4, r5, r6, r7, pc}
10000e56:	4914      	ldr	r1, [pc, #80]	; (10000ea8 <hardware_alarm_irq_handler+0xac>)
10000e58:	0082      	lsls	r2, r0, #2
10000e5a:	6a64      	ldr	r4, [r4, #36]	; 0x24
10000e5c:	5851      	ldr	r1, [r2, r1]
10000e5e:	428c      	cmp	r4, r1
10000e60:	d30f      	bcc.n	10000e82 <hardware_alarm_irq_handler+0x86>
10000e62:	4b12      	ldr	r3, [pc, #72]	; (10000eac <hardware_alarm_irq_handler+0xb0>)
10000e64:	58d2      	ldr	r2, [r2, r3]
10000e66:	4643      	mov	r3, r8
10000e68:	439e      	bics	r6, r3
10000e6a:	4653      	mov	r3, sl
10000e6c:	701e      	strb	r6, [r3, #0]
10000e6e:	f3bf 8f5f 	dmb	sy
10000e72:	2300      	movs	r3, #0
10000e74:	602b      	str	r3, [r5, #0]
10000e76:	f38c 8810 	msr	PRIMASK, ip
10000e7a:	2a00      	cmp	r2, #0
10000e7c:	d0e6      	beq.n	10000e4c <hardware_alarm_irq_handler+0x50>
10000e7e:	4790      	blx	r2
10000e80:	e7e4      	b.n	10000e4c <hardware_alarm_irq_handler+0x50>
10000e82:	4a0b      	ldr	r2, [pc, #44]	; (10000eb0 <hardware_alarm_irq_handler+0xb4>)
10000e84:	009b      	lsls	r3, r3, #2
10000e86:	4690      	mov	r8, r2
10000e88:	4443      	add	r3, r8
10000e8a:	681a      	ldr	r2, [r3, #0]
10000e8c:	601a      	str	r2, [r3, #0]
10000e8e:	f3bf 8f5f 	dmb	sy
10000e92:	2300      	movs	r3, #0
10000e94:	602b      	str	r3, [r5, #0]
10000e96:	f38c 8810 	msr	PRIMASK, ip
10000e9a:	e7d7      	b.n	10000e4c <hardware_alarm_irq_handler+0x50>
10000e9c:	d0000128 	.word	0xd0000128
10000ea0:	40054000 	.word	0x40054000
10000ea4:	200021a6 	.word	0x200021a6
10000ea8:	2000217c 	.word	0x2000217c
10000eac:	20000bf8 	.word	0x20000bf8
10000eb0:	40053fd0 	.word	0x40053fd0

10000eb4 <hardware_alarm_claim>:
10000eb4:	b510      	push	{r4, lr}
10000eb6:	0001      	movs	r1, r0
10000eb8:	4a02      	ldr	r2, [pc, #8]	; (10000ec4 <hardware_alarm_claim+0x10>)
10000eba:	4803      	ldr	r0, [pc, #12]	; (10000ec8 <hardware_alarm_claim+0x14>)
10000ebc:	f7ff fb6e 	bl	1000059c <hw_claim_or_assert>
10000ec0:	bd10      	pop	{r4, pc}
10000ec2:	46c0      	nop			; (mov r8, r8)
10000ec4:	10007094 	.word	0x10007094
10000ec8:	200021a3 	.word	0x200021a3

10000ecc <time_us_64>:
10000ecc:	4b03      	ldr	r3, [pc, #12]	; (10000edc <time_us_64+0x10>)
10000ece:	6a59      	ldr	r1, [r3, #36]	; 0x24
10000ed0:	000a      	movs	r2, r1
10000ed2:	6a98      	ldr	r0, [r3, #40]	; 0x28
10000ed4:	6a59      	ldr	r1, [r3, #36]	; 0x24
10000ed6:	428a      	cmp	r2, r1
10000ed8:	d1fa      	bne.n	10000ed0 <time_us_64+0x4>
10000eda:	4770      	bx	lr
10000edc:	40054000 	.word	0x40054000

10000ee0 <hardware_alarm_set_callback>:
10000ee0:	b570      	push	{r4, r5, r6, lr}
10000ee2:	0004      	movs	r4, r0
10000ee4:	000d      	movs	r5, r1
10000ee6:	f3ef 8610 	mrs	r6, PRIMASK
10000eea:	b672      	cpsid	i
10000eec:	4a1a      	ldr	r2, [pc, #104]	; (10000f58 <hardware_alarm_set_callback+0x78>)
10000eee:	6813      	ldr	r3, [r2, #0]
10000ef0:	2b00      	cmp	r3, #0
10000ef2:	d0fc      	beq.n	10000eee <hardware_alarm_set_callback+0xe>
10000ef4:	f3bf 8f5f 	dmb	sy
10000ef8:	2d00      	cmp	r5, #0
10000efa:	d01b      	beq.n	10000f34 <hardware_alarm_set_callback+0x54>
10000efc:	0020      	movs	r0, r4
10000efe:	f000 fcd9 	bl	100018b4 <irq_get_vtable_handler>
10000f02:	4916      	ldr	r1, [pc, #88]	; (10000f5c <hardware_alarm_set_callback+0x7c>)
10000f04:	4281      	cmp	r1, r0
10000f06:	d00a      	beq.n	10000f1e <hardware_alarm_set_callback+0x3e>
10000f08:	0020      	movs	r0, r4
10000f0a:	f000 fcdb 	bl	100018c4 <irq_set_exclusive_handler>
10000f0e:	2101      	movs	r1, #1
10000f10:	0020      	movs	r0, r4
10000f12:	f000 fcb5 	bl	10001880 <irq_set_enabled>
10000f16:	2301      	movs	r3, #1
10000f18:	40a3      	lsls	r3, r4
10000f1a:	4a11      	ldr	r2, [pc, #68]	; (10000f60 <hardware_alarm_set_callback+0x80>)
10000f1c:	6013      	str	r3, [r2, #0]
10000f1e:	4b11      	ldr	r3, [pc, #68]	; (10000f64 <hardware_alarm_set_callback+0x84>)
10000f20:	00a4      	lsls	r4, r4, #2
10000f22:	50e5      	str	r5, [r4, r3]
10000f24:	f3bf 8f5f 	dmb	sy
10000f28:	2200      	movs	r2, #0
10000f2a:	4b0b      	ldr	r3, [pc, #44]	; (10000f58 <hardware_alarm_set_callback+0x78>)
10000f2c:	601a      	str	r2, [r3, #0]
10000f2e:	f386 8810 	msr	PRIMASK, r6
10000f32:	bd70      	pop	{r4, r5, r6, pc}
10000f34:	4b0b      	ldr	r3, [pc, #44]	; (10000f64 <hardware_alarm_set_callback+0x84>)
10000f36:	00a2      	lsls	r2, r4, #2
10000f38:	50d5      	str	r5, [r2, r3]
10000f3a:	2201      	movs	r2, #1
10000f3c:	40a2      	lsls	r2, r4
10000f3e:	490a      	ldr	r1, [pc, #40]	; (10000f68 <hardware_alarm_set_callback+0x88>)
10000f40:	0020      	movs	r0, r4
10000f42:	780b      	ldrb	r3, [r1, #0]
10000f44:	4393      	bics	r3, r2
10000f46:	700b      	strb	r3, [r1, #0]
10000f48:	4904      	ldr	r1, [pc, #16]	; (10000f5c <hardware_alarm_set_callback+0x7c>)
10000f4a:	f000 fce5 	bl	10001918 <irq_remove_handler>
10000f4e:	2100      	movs	r1, #0
10000f50:	0020      	movs	r0, r4
10000f52:	f000 fc95 	bl	10001880 <irq_set_enabled>
10000f56:	e7e5      	b.n	10000f24 <hardware_alarm_set_callback+0x44>
10000f58:	d0000128 	.word	0xd0000128
10000f5c:	10000dfd 	.word	0x10000dfd
10000f60:	40056038 	.word	0x40056038
10000f64:	20000bf8 	.word	0x20000bf8
10000f68:	200021a6 	.word	0x200021a6

10000f6c <hardware_alarm_set_target>:
10000f6c:	b5f0      	push	{r4, r5, r6, r7, lr}
10000f6e:	464f      	mov	r7, r9
10000f70:	46d6      	mov	lr, sl
10000f72:	4646      	mov	r6, r8
10000f74:	b5c0      	push	{r6, r7, lr}
10000f76:	0007      	movs	r7, r0
10000f78:	4c2f      	ldr	r4, [pc, #188]	; (10001038 <hardware_alarm_set_target+0xcc>)
10000f7a:	6a61      	ldr	r1, [r4, #36]	; 0x24
10000f7c:	000d      	movs	r5, r1
10000f7e:	6aa6      	ldr	r6, [r4, #40]	; 0x28
10000f80:	6a61      	ldr	r1, [r4, #36]	; 0x24
10000f82:	42a9      	cmp	r1, r5
10000f84:	d1fa      	bne.n	10000f7c <hardware_alarm_set_target+0x10>
10000f86:	428b      	cmp	r3, r1
10000f88:	d808      	bhi.n	10000f9c <hardware_alarm_set_target+0x30>
10000f8a:	d005      	beq.n	10000f98 <hardware_alarm_set_target+0x2c>
10000f8c:	2001      	movs	r0, #1
10000f8e:	bce0      	pop	{r5, r6, r7}
10000f90:	46ba      	mov	sl, r7
10000f92:	46b1      	mov	r9, r6
10000f94:	46a8      	mov	r8, r5
10000f96:	bdf0      	pop	{r4, r5, r6, r7, pc}
10000f98:	42b2      	cmp	r2, r6
10000f9a:	d9f7      	bls.n	10000f8c <hardware_alarm_set_target+0x20>
10000f9c:	f3ef 8a10 	mrs	sl, PRIMASK
10000fa0:	b672      	cpsid	i
10000fa2:	4826      	ldr	r0, [pc, #152]	; (1000103c <hardware_alarm_set_target+0xd0>)
10000fa4:	6801      	ldr	r1, [r0, #0]
10000fa6:	2900      	cmp	r1, #0
10000fa8:	d0fc      	beq.n	10000fa4 <hardware_alarm_set_target+0x38>
10000faa:	f3bf 8f5f 	dmb	sy
10000fae:	2501      	movs	r5, #1
10000fb0:	40bd      	lsls	r5, r7
10000fb2:	4923      	ldr	r1, [pc, #140]	; (10001040 <hardware_alarm_set_target+0xd4>)
10000fb4:	4c20      	ldr	r4, [pc, #128]	; (10001038 <hardware_alarm_set_target+0xcc>)
10000fb6:	4688      	mov	r8, r1
10000fb8:	7809      	ldrb	r1, [r1, #0]
10000fba:	4689      	mov	r9, r1
10000fbc:	4329      	orrs	r1, r5
10000fbe:	b2c9      	uxtb	r1, r1
10000fc0:	468c      	mov	ip, r1
10000fc2:	4641      	mov	r1, r8
10000fc4:	4660      	mov	r0, ip
10000fc6:	7008      	strb	r0, [r1, #0]
10000fc8:	1d39      	adds	r1, r7, #4
10000fca:	481e      	ldr	r0, [pc, #120]	; (10001044 <hardware_alarm_set_target+0xd8>)
10000fcc:	0089      	lsls	r1, r1, #2
10000fce:	6365      	str	r5, [r4, #52]	; 0x34
10000fd0:	510a      	str	r2, [r1, r4]
10000fd2:	00b9      	lsls	r1, r7, #2
10000fd4:	500b      	str	r3, [r1, r0]
10000fd6:	6a21      	ldr	r1, [r4, #32]
10000fd8:	2000      	movs	r0, #0
10000fda:	4229      	tst	r1, r5
10000fdc:	d019      	beq.n	10001012 <hardware_alarm_set_target+0xa6>
10000fde:	6a61      	ldr	r1, [r4, #36]	; 0x24
10000fe0:	0008      	movs	r0, r1
10000fe2:	6aa6      	ldr	r6, [r4, #40]	; 0x28
10000fe4:	6a61      	ldr	r1, [r4, #36]	; 0x24
10000fe6:	4281      	cmp	r1, r0
10000fe8:	d1fa      	bne.n	10000fe0 <hardware_alarm_set_target+0x74>
10000fea:	428b      	cmp	r3, r1
10000fec:	d819      	bhi.n	10001022 <hardware_alarm_set_target+0xb6>
10000fee:	d101      	bne.n	10000ff4 <hardware_alarm_set_target+0x88>
10000ff0:	42b2      	cmp	r2, r6
10000ff2:	d816      	bhi.n	10001022 <hardware_alarm_set_target+0xb6>
10000ff4:	45cc      	cmp	ip, r9
10000ff6:	d01d      	beq.n	10001034 <hardware_alarm_set_target+0xc8>
10000ff8:	4b0f      	ldr	r3, [pc, #60]	; (10001038 <hardware_alarm_set_target+0xcc>)
10000ffa:	201f      	movs	r0, #31
10000ffc:	621d      	str	r5, [r3, #32]
10000ffe:	635d      	str	r5, [r3, #52]	; 0x34
10001000:	2301      	movs	r3, #1
10001002:	4007      	ands	r7, r0
10001004:	40bb      	lsls	r3, r7
10001006:	4a10      	ldr	r2, [pc, #64]	; (10001048 <hardware_alarm_set_target+0xdc>)
10001008:	381e      	subs	r0, #30
1000100a:	6013      	str	r3, [r2, #0]
1000100c:	4643      	mov	r3, r8
1000100e:	464a      	mov	r2, r9
10001010:	701a      	strb	r2, [r3, #0]
10001012:	f3bf 8f5f 	dmb	sy
10001016:	2200      	movs	r2, #0
10001018:	4b08      	ldr	r3, [pc, #32]	; (1000103c <hardware_alarm_set_target+0xd0>)
1000101a:	601a      	str	r2, [r3, #0]
1000101c:	f38a 8810 	msr	PRIMASK, sl
10001020:	e7b5      	b.n	10000f8e <hardware_alarm_set_target+0x22>
10001022:	2000      	movs	r0, #0
10001024:	f3bf 8f5f 	dmb	sy
10001028:	2200      	movs	r2, #0
1000102a:	4b04      	ldr	r3, [pc, #16]	; (1000103c <hardware_alarm_set_target+0xd0>)
1000102c:	601a      	str	r2, [r3, #0]
1000102e:	f38a 8810 	msr	PRIMASK, sl
10001032:	e7ac      	b.n	10000f8e <hardware_alarm_set_target+0x22>
10001034:	2001      	movs	r0, #1
10001036:	e7ec      	b.n	10001012 <hardware_alarm_set_target+0xa6>
10001038:	40054000 	.word	0x40054000
1000103c:	d0000128 	.word	0xd0000128
10001040:	200021a6 	.word	0x200021a6
10001044:	2000217c 	.word	0x2000217c
10001048:	e000e280 	.word	0xe000e280

1000104c <hardware_alarm_cancel>:
1000104c:	f3ef 8c10 	mrs	ip, PRIMASK
10001050:	b672      	cpsid	i
10001052:	490a      	ldr	r1, [pc, #40]	; (1000107c <hardware_alarm_cancel+0x30>)
10001054:	680b      	ldr	r3, [r1, #0]
10001056:	2b00      	cmp	r3, #0
10001058:	d0fc      	beq.n	10001054 <hardware_alarm_cancel+0x8>
1000105a:	f3bf 8f5f 	dmb	sy
1000105e:	2301      	movs	r3, #1
10001060:	4083      	lsls	r3, r0
10001062:	4a07      	ldr	r2, [pc, #28]	; (10001080 <hardware_alarm_cancel+0x34>)
10001064:	4807      	ldr	r0, [pc, #28]	; (10001084 <hardware_alarm_cancel+0x38>)
10001066:	6213      	str	r3, [r2, #32]
10001068:	7802      	ldrb	r2, [r0, #0]
1000106a:	439a      	bics	r2, r3
1000106c:	7002      	strb	r2, [r0, #0]
1000106e:	f3bf 8f5f 	dmb	sy
10001072:	2300      	movs	r3, #0
10001074:	600b      	str	r3, [r1, #0]
10001076:	f38c 8810 	msr	PRIMASK, ip
1000107a:	4770      	bx	lr
1000107c:	d0000128 	.word	0xd0000128
10001080:	40054000 	.word	0x40054000
10001084:	200021a6 	.word	0x200021a6

10001088 <lock_init>:
10001088:	4b02      	ldr	r3, [pc, #8]	; (10001094 <lock_init+0xc>)
1000108a:	469c      	mov	ip, r3
1000108c:	4461      	add	r1, ip
1000108e:	0089      	lsls	r1, r1, #2
10001090:	6001      	str	r1, [r0, #0]
10001092:	4770      	bx	lr
10001094:	34000040 	.word	0x34000040

10001098 <mutex_init>:
10001098:	b510      	push	{r4, lr}
1000109a:	0004      	movs	r4, r0
1000109c:	f7ff fb04 	bl	100006a8 <next_striped_spin_lock_num>
100010a0:	0001      	movs	r1, r0
100010a2:	0020      	movs	r0, r4
100010a4:	f7ff fff0 	bl	10001088 <lock_init>
100010a8:	23ff      	movs	r3, #255	; 0xff
100010aa:	7123      	strb	r3, [r4, #4]
100010ac:	f3bf 8f5f 	dmb	sy
100010b0:	bd10      	pop	{r4, pc}
100010b2:	46c0      	nop			; (mov r8, r8)

100010b4 <recursive_mutex_init>:
100010b4:	b510      	push	{r4, lr}
100010b6:	0004      	movs	r4, r0
100010b8:	f7ff faf6 	bl	100006a8 <next_striped_spin_lock_num>
100010bc:	0001      	movs	r1, r0
100010be:	0020      	movs	r0, r4
100010c0:	f7ff ffe2 	bl	10001088 <lock_init>
100010c4:	23ff      	movs	r3, #255	; 0xff
100010c6:	80a3      	strh	r3, [r4, #4]
100010c8:	f3bf 8f5f 	dmb	sy
100010cc:	bd10      	pop	{r4, pc}
100010ce:	46c0      	nop			; (mov r8, r8)

100010d0 <critical_section_init>:
100010d0:	b510      	push	{r4, lr}
100010d2:	0004      	movs	r4, r0
100010d4:	2001      	movs	r0, #1
100010d6:	f7ff faf3 	bl	100006c0 <spin_lock_claim_unused>
100010da:	4b04      	ldr	r3, [pc, #16]	; (100010ec <critical_section_init+0x1c>)
100010dc:	469c      	mov	ip, r3
100010de:	4460      	add	r0, ip
100010e0:	0080      	lsls	r0, r0, #2
100010e2:	6020      	str	r0, [r4, #0]
100010e4:	f3bf 8f5f 	dmb	sy
100010e8:	bd10      	pop	{r4, pc}
100010ea:	46c0      	nop			; (mov r8, r8)
100010ec:	34000040 	.word	0x34000040

100010f0 <ph_merge_nodes>:
100010f0:	b570      	push	{r4, r5, r6, lr}
100010f2:	0005      	movs	r5, r0
100010f4:	0014      	movs	r4, r2
100010f6:	0016      	movs	r6, r2
100010f8:	2900      	cmp	r1, #0
100010fa:	d015      	beq.n	10001128 <ph_merge_nodes+0x38>
100010fc:	000c      	movs	r4, r1
100010fe:	2a00      	cmp	r2, #0
10001100:	d012      	beq.n	10001128 <ph_merge_nodes+0x38>
10001102:	6880      	ldr	r0, [r0, #8]
10001104:	686b      	ldr	r3, [r5, #4]
10001106:	4798      	blx	r3
10001108:	6829      	ldr	r1, [r5, #0]
1000110a:	2800      	cmp	r0, #0
1000110c:	d00e      	beq.n	1000112c <ph_merge_nodes+0x3c>
1000110e:	0073      	lsls	r3, r6, #1
10001110:	199b      	adds	r3, r3, r6
10001112:	0062      	lsls	r2, r4, #1
10001114:	3b03      	subs	r3, #3
10001116:	1912      	adds	r2, r2, r4
10001118:	18cb      	adds	r3, r1, r3
1000111a:	3a03      	subs	r2, #3
1000111c:	709c      	strb	r4, [r3, #2]
1000111e:	1888      	adds	r0, r1, r2
10001120:	5c8a      	ldrb	r2, [r1, r2]
10001122:	2a00      	cmp	r2, #0
10001124:	d115      	bne.n	10001152 <ph_merge_nodes+0x62>
10001126:	7006      	strb	r6, [r0, #0]
10001128:	0020      	movs	r0, r4
1000112a:	bd70      	pop	{r4, r5, r6, pc}
1000112c:	0063      	lsls	r3, r4, #1
1000112e:	191b      	adds	r3, r3, r4
10001130:	0072      	lsls	r2, r6, #1
10001132:	3b03      	subs	r3, #3
10001134:	1992      	adds	r2, r2, r6
10001136:	18cb      	adds	r3, r1, r3
10001138:	3a03      	subs	r2, #3
1000113a:	709e      	strb	r6, [r3, #2]
1000113c:	1888      	adds	r0, r1, r2
1000113e:	5c8a      	ldrb	r2, [r1, r2]
10001140:	2a00      	cmp	r2, #0
10001142:	d102      	bne.n	1000114a <ph_merge_nodes+0x5a>
10001144:	7004      	strb	r4, [r0, #0]
10001146:	0034      	movs	r4, r6
10001148:	e7ee      	b.n	10001128 <ph_merge_nodes+0x38>
1000114a:	705a      	strb	r2, [r3, #1]
1000114c:	7004      	strb	r4, [r0, #0]
1000114e:	0034      	movs	r4, r6
10001150:	e7ea      	b.n	10001128 <ph_merge_nodes+0x38>
10001152:	705a      	strb	r2, [r3, #1]
10001154:	7006      	strb	r6, [r0, #0]
10001156:	e7e7      	b.n	10001128 <ph_merge_nodes+0x38>

10001158 <ph_post_alloc_init>:
10001158:	b530      	push	{r4, r5, lr}
1000115a:	6083      	str	r3, [r0, #8]
1000115c:	2300      	movs	r3, #0
1000115e:	b2cc      	uxtb	r4, r1
10001160:	7343      	strb	r3, [r0, #13]
10001162:	3301      	adds	r3, #1
10001164:	7304      	strb	r4, [r0, #12]
10001166:	6042      	str	r2, [r0, #4]
10001168:	7383      	strb	r3, [r0, #14]
1000116a:	73c4      	strb	r4, [r0, #15]
1000116c:	000d      	movs	r5, r1
1000116e:	6800      	ldr	r0, [r0, #0]
10001170:	2c01      	cmp	r4, #1
10001172:	d906      	bls.n	10001182 <ph_post_alloc_init+0x2a>
10001174:	1c42      	adds	r2, r0, #1
10001176:	3301      	adds	r3, #1
10001178:	b2db      	uxtb	r3, r3
1000117a:	7013      	strb	r3, [r2, #0]
1000117c:	3203      	adds	r2, #3
1000117e:	429c      	cmp	r4, r3
10001180:	d1f9      	bne.n	10001176 <ph_post_alloc_init+0x1e>
10001182:	21ff      	movs	r1, #255	; 0xff
10001184:	4029      	ands	r1, r5
10001186:	004b      	lsls	r3, r1, #1
10001188:	1859      	adds	r1, r3, r1
1000118a:	2300      	movs	r3, #0
1000118c:	1840      	adds	r0, r0, r1
1000118e:	3803      	subs	r0, #3
10001190:	7043      	strb	r3, [r0, #1]
10001192:	bd30      	pop	{r4, r5, pc}

10001194 <ph_merge_two_pass>:
10001194:	b5f8      	push	{r3, r4, r5, r6, r7, lr}
10001196:	46ce      	mov	lr, r9
10001198:	4647      	mov	r7, r8
1000119a:	0006      	movs	r6, r0
1000119c:	000c      	movs	r4, r1
1000119e:	b580      	push	{r7, lr}
100011a0:	2900      	cmp	r1, #0
100011a2:	d007      	beq.n	100011b4 <ph_merge_two_pass+0x20>
100011a4:	004d      	lsls	r5, r1, #1
100011a6:	6803      	ldr	r3, [r0, #0]
100011a8:	186d      	adds	r5, r5, r1
100011aa:	3d03      	subs	r5, #3
100011ac:	195a      	adds	r2, r3, r5
100011ae:	7857      	ldrb	r7, [r2, #1]
100011b0:	2f00      	cmp	r7, #0
100011b2:	d104      	bne.n	100011be <ph_merge_two_pass+0x2a>
100011b4:	0020      	movs	r0, r4
100011b6:	bcc0      	pop	{r6, r7}
100011b8:	46b9      	mov	r9, r7
100011ba:	46b0      	mov	r8, r6
100011bc:	bdf8      	pop	{r3, r4, r5, r6, r7, pc}
100011be:	0079      	lsls	r1, r7, #1
100011c0:	19c9      	adds	r1, r1, r7
100011c2:	3903      	subs	r1, #3
100011c4:	4688      	mov	r8, r1
100011c6:	4443      	add	r3, r8
100011c8:	7859      	ldrb	r1, [r3, #1]
100011ca:	4689      	mov	r9, r1
100011cc:	2100      	movs	r1, #0
100011ce:	7059      	strb	r1, [r3, #1]
100011d0:	7051      	strb	r1, [r2, #1]
100011d2:	6873      	ldr	r3, [r6, #4]
100011d4:	003a      	movs	r2, r7
100011d6:	0021      	movs	r1, r4
100011d8:	6880      	ldr	r0, [r0, #8]
100011da:	4798      	blx	r3
100011dc:	6833      	ldr	r3, [r6, #0]
100011de:	2800      	cmp	r0, #0
100011e0:	d014      	beq.n	1000120c <ph_merge_two_pass+0x78>
100011e2:	4642      	mov	r2, r8
100011e4:	189a      	adds	r2, r3, r2
100011e6:	7094      	strb	r4, [r2, #2]
100011e8:	1959      	adds	r1, r3, r5
100011ea:	5d5b      	ldrb	r3, [r3, r5]
100011ec:	2b00      	cmp	r3, #0
100011ee:	d000      	beq.n	100011f2 <ph_merge_two_pass+0x5e>
100011f0:	7053      	strb	r3, [r2, #1]
100011f2:	700f      	strb	r7, [r1, #0]
100011f4:	0027      	movs	r7, r4
100011f6:	4649      	mov	r1, r9
100011f8:	0030      	movs	r0, r6
100011fa:	f7ff ffcb 	bl	10001194 <ph_merge_two_pass>
100011fe:	0039      	movs	r1, r7
10001200:	0002      	movs	r2, r0
10001202:	0030      	movs	r0, r6
10001204:	f7ff ff74 	bl	100010f0 <ph_merge_nodes>
10001208:	0004      	movs	r4, r0
1000120a:	e7d3      	b.n	100011b4 <ph_merge_two_pass+0x20>
1000120c:	4642      	mov	r2, r8
1000120e:	4641      	mov	r1, r8
10001210:	195d      	adds	r5, r3, r5
10001212:	70af      	strb	r7, [r5, #2]
10001214:	189a      	adds	r2, r3, r2
10001216:	5c5b      	ldrb	r3, [r3, r1]
10001218:	2b00      	cmp	r3, #0
1000121a:	d000      	beq.n	1000121e <ph_merge_two_pass+0x8a>
1000121c:	706b      	strb	r3, [r5, #1]
1000121e:	7014      	strb	r4, [r2, #0]
10001220:	e7e9      	b.n	100011f6 <ph_merge_two_pass+0x62>
10001222:	46c0      	nop			; (mov r8, r8)

10001224 <ph_remove_any_head>:
10001224:	b5f0      	push	{r4, r5, r6, r7, lr}
10001226:	4657      	mov	r7, sl
10001228:	4645      	mov	r5, r8
1000122a:	46de      	mov	lr, fp
1000122c:	464e      	mov	r6, r9
1000122e:	b5e0      	push	{r5, r6, r7, lr}
10001230:	000d      	movs	r5, r1
10001232:	006b      	lsls	r3, r5, #1
10001234:	6801      	ldr	r1, [r0, #0]
10001236:	195b      	adds	r3, r3, r5
10001238:	1edf      	subs	r7, r3, #3
1000123a:	0004      	movs	r4, r0
1000123c:	5dc8      	ldrb	r0, [r1, r7]
1000123e:	b083      	sub	sp, #12
10001240:	9201      	str	r2, [sp, #4]
10001242:	19ca      	adds	r2, r1, r7
10001244:	2800      	cmp	r0, #0
10001246:	d04c      	beq.n	100012e2 <ph_remove_any_head+0xbe>
10001248:	0043      	lsls	r3, r0, #1
1000124a:	181b      	adds	r3, r3, r0
1000124c:	3b03      	subs	r3, #3
1000124e:	18cb      	adds	r3, r1, r3
10001250:	785e      	ldrb	r6, [r3, #1]
10001252:	46b4      	mov	ip, r6
10001254:	2e00      	cmp	r6, #0
10001256:	d116      	bne.n	10001286 <ph_remove_any_head+0x62>
10001258:	9e01      	ldr	r6, [sp, #4]
1000125a:	2e00      	cmp	r6, #0
1000125c:	d03e      	beq.n	100012dc <ph_remove_any_head+0xb8>
1000125e:	7be6      	ldrb	r6, [r4, #15]
10001260:	2e00      	cmp	r6, #0
10001262:	d004      	beq.n	1000126e <ph_remove_any_head+0x4a>
10001264:	0073      	lsls	r3, r6, #1
10001266:	199b      	adds	r3, r3, r6
10001268:	18cb      	adds	r3, r1, r3
1000126a:	3b03      	subs	r3, #3
1000126c:	705d      	strb	r5, [r3, #1]
1000126e:	73e5      	strb	r5, [r4, #15]
10001270:	2800      	cmp	r0, #0
10001272:	d12f      	bne.n	100012d4 <ph_remove_any_head+0xb0>
10001274:	2300      	movs	r3, #0
10001276:	7053      	strb	r3, [r2, #1]
10001278:	b003      	add	sp, #12
1000127a:	bcf0      	pop	{r4, r5, r6, r7}
1000127c:	46bb      	mov	fp, r7
1000127e:	46b2      	mov	sl, r6
10001280:	46a9      	mov	r9, r5
10001282:	46a0      	mov	r8, r4
10001284:	bdf0      	pop	{r4, r5, r6, r7, pc}
10001286:	0072      	lsls	r2, r6, #1
10001288:	4462      	add	r2, ip
1000128a:	3a03      	subs	r2, #3
1000128c:	1889      	adds	r1, r1, r2
1000128e:	784a      	ldrb	r2, [r1, #1]
10001290:	4690      	mov	r8, r2
10001292:	2200      	movs	r2, #0
10001294:	704a      	strb	r2, [r1, #1]
10001296:	4691      	mov	r9, r2
10001298:	705a      	strb	r2, [r3, #1]
1000129a:	0001      	movs	r1, r0
1000129c:	0032      	movs	r2, r6
1000129e:	0020      	movs	r0, r4
100012a0:	f7ff ff26 	bl	100010f0 <ph_merge_nodes>
100012a4:	4643      	mov	r3, r8
100012a6:	4682      	mov	sl, r0
100012a8:	2b00      	cmp	r3, #0
100012aa:	d007      	beq.n	100012bc <ph_remove_any_head+0x98>
100012ac:	005b      	lsls	r3, r3, #1
100012ae:	6821      	ldr	r1, [r4, #0]
100012b0:	4443      	add	r3, r8
100012b2:	3b03      	subs	r3, #3
100012b4:	18cb      	adds	r3, r1, r3
100012b6:	785a      	ldrb	r2, [r3, #1]
100012b8:	2a00      	cmp	r2, #0
100012ba:	d116      	bne.n	100012ea <ph_remove_any_head+0xc6>
100012bc:	4642      	mov	r2, r8
100012be:	4651      	mov	r1, sl
100012c0:	0020      	movs	r0, r4
100012c2:	f7ff ff15 	bl	100010f0 <ph_merge_nodes>
100012c6:	6821      	ldr	r1, [r4, #0]
100012c8:	9b01      	ldr	r3, [sp, #4]
100012ca:	19ca      	adds	r2, r1, r7
100012cc:	2b00      	cmp	r3, #0
100012ce:	d1c6      	bne.n	1000125e <ph_remove_any_head+0x3a>
100012d0:	2800      	cmp	r0, #0
100012d2:	d0cf      	beq.n	10001274 <ph_remove_any_head+0x50>
100012d4:	0043      	lsls	r3, r0, #1
100012d6:	181b      	adds	r3, r3, r0
100012d8:	3b03      	subs	r3, #3
100012da:	18cb      	adds	r3, r1, r3
100012dc:	2100      	movs	r1, #0
100012de:	7099      	strb	r1, [r3, #2]
100012e0:	e7c8      	b.n	10001274 <ph_remove_any_head+0x50>
100012e2:	9b01      	ldr	r3, [sp, #4]
100012e4:	2b00      	cmp	r3, #0
100012e6:	d1ba      	bne.n	1000125e <ph_remove_any_head+0x3a>
100012e8:	e7c4      	b.n	10001274 <ph_remove_any_head+0x50>
100012ea:	0050      	lsls	r0, r2, #1
100012ec:	1880      	adds	r0, r0, r2
100012ee:	3803      	subs	r0, #3
100012f0:	1809      	adds	r1, r1, r0
100012f2:	7848      	ldrb	r0, [r1, #1]
100012f4:	4683      	mov	fp, r0
100012f6:	4648      	mov	r0, r9
100012f8:	7048      	strb	r0, [r1, #1]
100012fa:	7058      	strb	r0, [r3, #1]
100012fc:	4641      	mov	r1, r8
100012fe:	0020      	movs	r0, r4
10001300:	f7ff fef6 	bl	100010f0 <ph_merge_nodes>
10001304:	4659      	mov	r1, fp
10001306:	4680      	mov	r8, r0
10001308:	0020      	movs	r0, r4
1000130a:	f7ff ff43 	bl	10001194 <ph_merge_two_pass>
1000130e:	4641      	mov	r1, r8
10001310:	0002      	movs	r2, r0
10001312:	0020      	movs	r0, r4
10001314:	f7ff feec 	bl	100010f0 <ph_merge_nodes>
10001318:	4680      	mov	r8, r0
1000131a:	e7cf      	b.n	100012bc <ph_remove_any_head+0x98>

1000131c <ph_remove_head>:
1000131c:	b5f0      	push	{r4, r5, r6, r7, lr}
1000131e:	4657      	mov	r7, sl
10001320:	4645      	mov	r5, r8
10001322:	46de      	mov	lr, fp
10001324:	464e      	mov	r6, r9
10001326:	b5e0      	push	{r5, r6, r7, lr}
10001328:	b083      	sub	sp, #12
1000132a:	9101      	str	r1, [sp, #4]
1000132c:	7b45      	ldrb	r5, [r0, #13]
1000132e:	0004      	movs	r4, r0
10001330:	006b      	lsls	r3, r5, #1
10001332:	6800      	ldr	r0, [r0, #0]
10001334:	195b      	adds	r3, r3, r5
10001336:	1edf      	subs	r7, r3, #3
10001338:	5dc1      	ldrb	r1, [r0, r7]
1000133a:	19c2      	adds	r2, r0, r7
1000133c:	2900      	cmp	r1, #0
1000133e:	d04e      	beq.n	100013de <ph_remove_head+0xc2>
10001340:	004b      	lsls	r3, r1, #1
10001342:	185b      	adds	r3, r3, r1
10001344:	3b03      	subs	r3, #3
10001346:	18c3      	adds	r3, r0, r3
10001348:	785e      	ldrb	r6, [r3, #1]
1000134a:	46b4      	mov	ip, r6
1000134c:	2e00      	cmp	r6, #0
1000134e:	d118      	bne.n	10001382 <ph_remove_head+0x66>
10001350:	9e01      	ldr	r6, [sp, #4]
10001352:	2e00      	cmp	r6, #0
10001354:	d040      	beq.n	100013d8 <ph_remove_head+0xbc>
10001356:	7be6      	ldrb	r6, [r4, #15]
10001358:	2e00      	cmp	r6, #0
1000135a:	d004      	beq.n	10001366 <ph_remove_head+0x4a>
1000135c:	0073      	lsls	r3, r6, #1
1000135e:	199b      	adds	r3, r3, r6
10001360:	18c3      	adds	r3, r0, r3
10001362:	3b03      	subs	r3, #3
10001364:	705d      	strb	r5, [r3, #1]
10001366:	73e5      	strb	r5, [r4, #15]
10001368:	2900      	cmp	r1, #0
1000136a:	d131      	bne.n	100013d0 <ph_remove_head+0xb4>
1000136c:	2300      	movs	r3, #0
1000136e:	0028      	movs	r0, r5
10001370:	7053      	strb	r3, [r2, #1]
10001372:	7361      	strb	r1, [r4, #13]
10001374:	b003      	add	sp, #12
10001376:	bcf0      	pop	{r4, r5, r6, r7}
10001378:	46bb      	mov	fp, r7
1000137a:	46b2      	mov	sl, r6
1000137c:	46a9      	mov	r9, r5
1000137e:	46a0      	mov	r8, r4
10001380:	bdf0      	pop	{r4, r5, r6, r7, pc}
10001382:	0072      	lsls	r2, r6, #1
10001384:	4462      	add	r2, ip
10001386:	3a03      	subs	r2, #3
10001388:	1880      	adds	r0, r0, r2
1000138a:	7842      	ldrb	r2, [r0, #1]
1000138c:	4690      	mov	r8, r2
1000138e:	2200      	movs	r2, #0
10001390:	7042      	strb	r2, [r0, #1]
10001392:	4691      	mov	r9, r2
10001394:	705a      	strb	r2, [r3, #1]
10001396:	0020      	movs	r0, r4
10001398:	0032      	movs	r2, r6
1000139a:	f7ff fea9 	bl	100010f0 <ph_merge_nodes>
1000139e:	4643      	mov	r3, r8
100013a0:	4682      	mov	sl, r0
100013a2:	2b00      	cmp	r3, #0
100013a4:	d007      	beq.n	100013b6 <ph_remove_head+0x9a>
100013a6:	005b      	lsls	r3, r3, #1
100013a8:	6821      	ldr	r1, [r4, #0]
100013aa:	4443      	add	r3, r8
100013ac:	3b03      	subs	r3, #3
100013ae:	18cb      	adds	r3, r1, r3
100013b0:	785a      	ldrb	r2, [r3, #1]
100013b2:	2a00      	cmp	r2, #0
100013b4:	d117      	bne.n	100013e6 <ph_remove_head+0xca>
100013b6:	4642      	mov	r2, r8
100013b8:	4651      	mov	r1, sl
100013ba:	0020      	movs	r0, r4
100013bc:	f7ff fe98 	bl	100010f0 <ph_merge_nodes>
100013c0:	9b01      	ldr	r3, [sp, #4]
100013c2:	0001      	movs	r1, r0
100013c4:	6820      	ldr	r0, [r4, #0]
100013c6:	19c2      	adds	r2, r0, r7
100013c8:	2b00      	cmp	r3, #0
100013ca:	d1c4      	bne.n	10001356 <ph_remove_head+0x3a>
100013cc:	2900      	cmp	r1, #0
100013ce:	d0cd      	beq.n	1000136c <ph_remove_head+0x50>
100013d0:	004b      	lsls	r3, r1, #1
100013d2:	185b      	adds	r3, r3, r1
100013d4:	3b03      	subs	r3, #3
100013d6:	18c3      	adds	r3, r0, r3
100013d8:	2000      	movs	r0, #0
100013da:	7098      	strb	r0, [r3, #2]
100013dc:	e7c6      	b.n	1000136c <ph_remove_head+0x50>
100013de:	9b01      	ldr	r3, [sp, #4]
100013e0:	2b00      	cmp	r3, #0
100013e2:	d1b8      	bne.n	10001356 <ph_remove_head+0x3a>
100013e4:	e7c2      	b.n	1000136c <ph_remove_head+0x50>
100013e6:	0050      	lsls	r0, r2, #1
100013e8:	1880      	adds	r0, r0, r2
100013ea:	3803      	subs	r0, #3
100013ec:	1809      	adds	r1, r1, r0
100013ee:	7848      	ldrb	r0, [r1, #1]
100013f0:	4683      	mov	fp, r0
100013f2:	4648      	mov	r0, r9
100013f4:	7048      	strb	r0, [r1, #1]
100013f6:	7058      	strb	r0, [r3, #1]
100013f8:	4641      	mov	r1, r8
100013fa:	0020      	movs	r0, r4
100013fc:	f7ff fe78 	bl	100010f0 <ph_merge_nodes>
10001400:	4659      	mov	r1, fp
10001402:	4680      	mov	r8, r0
10001404:	0020      	movs	r0, r4
10001406:	f7ff fec5 	bl	10001194 <ph_merge_two_pass>
1000140a:	4641      	mov	r1, r8
1000140c:	0002      	movs	r2, r0
1000140e:	0020      	movs	r0, r4
10001410:	f7ff fe6e 	bl	100010f0 <ph_merge_nodes>
10001414:	4680      	mov	r8, r0
10001416:	e7ce      	b.n	100013b6 <ph_remove_head+0x9a>

10001418 <ph_remove_and_free_node>:
10001418:	b570      	push	{r4, r5, r6, lr}
1000141a:	0004      	movs	r4, r0
1000141c:	2900      	cmp	r1, #0
1000141e:	d02c      	beq.n	1000147a <ph_remove_and_free_node+0x62>
10001420:	7b43      	ldrb	r3, [r0, #13]
10001422:	428b      	cmp	r3, r1
10001424:	d02e      	beq.n	10001484 <ph_remove_and_free_node+0x6c>
10001426:	6805      	ldr	r5, [r0, #0]
10001428:	0048      	lsls	r0, r1, #1
1000142a:	1840      	adds	r0, r0, r1
1000142c:	3803      	subs	r0, #3
1000142e:	1828      	adds	r0, r5, r0
10001430:	7882      	ldrb	r2, [r0, #2]
10001432:	2a00      	cmp	r2, #0
10001434:	d021      	beq.n	1000147a <ph_remove_and_free_node+0x62>
10001436:	0053      	lsls	r3, r2, #1
10001438:	189b      	adds	r3, r3, r2
1000143a:	3b03      	subs	r3, #3
1000143c:	5cea      	ldrb	r2, [r5, r3]
1000143e:	18ee      	adds	r6, r5, r3
10001440:	428a      	cmp	r2, r1
10001442:	d102      	bne.n	1000144a <ph_remove_and_free_node+0x32>
10001444:	e01b      	b.n	1000147e <ph_remove_and_free_node+0x66>
10001446:	2a00      	cmp	r2, #0
10001448:	d008      	beq.n	1000145c <ph_remove_and_free_node+0x44>
1000144a:	0053      	lsls	r3, r2, #1
1000144c:	189b      	adds	r3, r3, r2
1000144e:	3b03      	subs	r3, #3
10001450:	18eb      	adds	r3, r5, r3
10001452:	785a      	ldrb	r2, [r3, #1]
10001454:	428a      	cmp	r2, r1
10001456:	d1f6      	bne.n	10001446 <ph_remove_and_free_node+0x2e>
10001458:	7842      	ldrb	r2, [r0, #1]
1000145a:	705a      	strb	r2, [r3, #1]
1000145c:	2300      	movs	r3, #0
1000145e:	2201      	movs	r2, #1
10001460:	7083      	strb	r3, [r0, #2]
10001462:	7043      	strb	r3, [r0, #1]
10001464:	0020      	movs	r0, r4
10001466:	f7ff fedd 	bl	10001224 <ph_remove_any_head>
1000146a:	7b61      	ldrb	r1, [r4, #13]
1000146c:	0002      	movs	r2, r0
1000146e:	0020      	movs	r0, r4
10001470:	f7ff fe3e 	bl	100010f0 <ph_merge_nodes>
10001474:	7360      	strb	r0, [r4, #13]
10001476:	2001      	movs	r0, #1
10001478:	e000      	b.n	1000147c <ph_remove_and_free_node+0x64>
1000147a:	2000      	movs	r0, #0
1000147c:	bd70      	pop	{r4, r5, r6, pc}
1000147e:	7843      	ldrb	r3, [r0, #1]
10001480:	7033      	strb	r3, [r6, #0]
10001482:	e7eb      	b.n	1000145c <ph_remove_and_free_node+0x44>
10001484:	2201      	movs	r2, #1
10001486:	0019      	movs	r1, r3
10001488:	f7ff fecc 	bl	10001224 <ph_remove_any_head>
1000148c:	7360      	strb	r0, [r4, #13]
1000148e:	2001      	movs	r0, #1
10001490:	e7f4      	b.n	1000147c <ph_remove_and_free_node+0x64>
10001492:	46c0      	nop			; (mov r8, r8)

10001494 <runtime_init>:
10001494:	4b2c      	ldr	r3, [pc, #176]	; (10001548 <runtime_init+0xb4>)
10001496:	4a2d      	ldr	r2, [pc, #180]	; (1000154c <runtime_init+0xb8>)
10001498:	b570      	push	{r4, r5, r6, lr}
1000149a:	601a      	str	r2, [r3, #0]
1000149c:	4a2c      	ldr	r2, [pc, #176]	; (10001550 <runtime_init+0xbc>)
1000149e:	4b2d      	ldr	r3, [pc, #180]	; (10001554 <runtime_init+0xc0>)
100014a0:	492d      	ldr	r1, [pc, #180]	; (10001558 <runtime_init+0xc4>)
100014a2:	601a      	str	r2, [r3, #0]
100014a4:	0014      	movs	r4, r2
100014a6:	688b      	ldr	r3, [r1, #8]
100014a8:	439c      	bics	r4, r3
100014aa:	d1fb      	bne.n	100014a4 <runtime_init+0x10>
100014ac:	4d2b      	ldr	r5, [pc, #172]	; (1000155c <runtime_init+0xc8>)
100014ae:	4e2c      	ldr	r6, [pc, #176]	; (10001560 <runtime_init+0xcc>)
100014b0:	42b5      	cmp	r5, r6
100014b2:	d208      	bcs.n	100014c6 <runtime_init+0x32>
100014b4:	3e01      	subs	r6, #1
100014b6:	1b76      	subs	r6, r6, r5
100014b8:	08b6      	lsrs	r6, r6, #2
100014ba:	cd08      	ldmia	r5!, {r3}
100014bc:	4798      	blx	r3
100014be:	0023      	movs	r3, r4
100014c0:	3401      	adds	r4, #1
100014c2:	42b3      	cmp	r3, r6
100014c4:	d1f9      	bne.n	100014ba <runtime_init+0x26>
100014c6:	f000 f87d 	bl	100015c4 <clocks_init>
100014ca:	4a26      	ldr	r2, [pc, #152]	; (10001564 <runtime_init+0xd0>)
100014cc:	4b21      	ldr	r3, [pc, #132]	; (10001554 <runtime_init+0xc0>)
100014ce:	601a      	str	r2, [r3, #0]
100014d0:	4a21      	ldr	r2, [pc, #132]	; (10001558 <runtime_init+0xc4>)
100014d2:	6893      	ldr	r3, [r2, #8]
100014d4:	43db      	mvns	r3, r3
100014d6:	01db      	lsls	r3, r3, #7
100014d8:	09dd      	lsrs	r5, r3, #7
100014da:	2b00      	cmp	r3, #0
100014dc:	d1f9      	bne.n	100014d2 <runtime_init+0x3e>
100014de:	2240      	movs	r2, #64	; 0x40
100014e0:	4b21      	ldr	r3, [pc, #132]	; (10001568 <runtime_init+0xd4>)
100014e2:	4c22      	ldr	r4, [pc, #136]	; (1000156c <runtime_init+0xd8>)
100014e4:	4e22      	ldr	r6, [pc, #136]	; (10001570 <runtime_init+0xdc>)
100014e6:	679a      	str	r2, [r3, #120]	; 0x78
100014e8:	675a      	str	r2, [r3, #116]	; 0x74
100014ea:	671a      	str	r2, [r3, #112]	; 0x70
100014ec:	66da      	str	r2, [r3, #108]	; 0x6c
100014ee:	42b4      	cmp	r4, r6
100014f0:	d208      	bcs.n	10001504 <runtime_init+0x70>
100014f2:	6823      	ldr	r3, [r4, #0]
100014f4:	0020      	movs	r0, r4
100014f6:	2b00      	cmp	r3, #0
100014f8:	d020      	beq.n	1000153c <runtime_init+0xa8>
100014fa:	3408      	adds	r4, #8
100014fc:	f7ff fdda 	bl	100010b4 <recursive_mutex_init>
10001500:	42b4      	cmp	r4, r6
10001502:	d3f6      	bcc.n	100014f2 <runtime_init+0x5e>
10001504:	4e1b      	ldr	r6, [pc, #108]	; (10001574 <runtime_init+0xe0>)
10001506:	4c1c      	ldr	r4, [pc, #112]	; (10001578 <runtime_init+0xe4>)
10001508:	22c0      	movs	r2, #192	; 0xc0
1000150a:	68a1      	ldr	r1, [r4, #8]
1000150c:	0030      	movs	r0, r6
1000150e:	f002 fe47 	bl	100041a0 <__wrap___aeabi_memcpy>
10001512:	60a6      	str	r6, [r4, #8]
10001514:	f7ff f8ba 	bl	1000068c <spin_locks_reset>
10001518:	f000 fb32 	bl	10001b80 <irq_init_priorities>
1000151c:	f7ff fb04 	bl	10000b28 <alarm_pool_init_default>
10001520:	4c16      	ldr	r4, [pc, #88]	; (1000157c <runtime_init+0xe8>)
10001522:	4e17      	ldr	r6, [pc, #92]	; (10001580 <runtime_init+0xec>)
10001524:	42b4      	cmp	r4, r6
10001526:	d208      	bcs.n	1000153a <runtime_init+0xa6>
10001528:	3e01      	subs	r6, #1
1000152a:	1b36      	subs	r6, r6, r4
1000152c:	08b6      	lsrs	r6, r6, #2
1000152e:	cc08      	ldmia	r4!, {r3}
10001530:	4798      	blx	r3
10001532:	002b      	movs	r3, r5
10001534:	3501      	adds	r5, #1
10001536:	429e      	cmp	r6, r3
10001538:	d1f9      	bne.n	1000152e <runtime_init+0x9a>
1000153a:	bd70      	pop	{r4, r5, r6, pc}
1000153c:	3408      	adds	r4, #8
1000153e:	f7ff fdab 	bl	10001098 <mutex_init>
10001542:	42b4      	cmp	r4, r6
10001544:	d3d5      	bcc.n	100014f2 <runtime_init+0x5e>
10001546:	e7dd      	b.n	10001504 <runtime_init+0x70>
10001548:	4000e000 	.word	0x4000e000
1000154c:	fefbcdbf 	.word	0xfefbcdbf
10001550:	003c7ffe 	.word	0x003c7ffe
10001554:	4000f000 	.word	0x4000f000
10001558:	4000c000 	.word	0x4000c000
1000155c:	20000468 	.word	0x20000468
10001560:	20000478 	.word	0x20000478
10001564:	01ffffff 	.word	0x01ffffff
10001568:	4001f000 	.word	0x4001f000
1000156c:	20000460 	.word	0x20000460
10001570:	20000468 	.word	0x20000468
10001574:	20000000 	.word	0x20000000
10001578:	e000ed00 	.word	0xe000ed00
1000157c:	20000478 	.word	0x20000478
10001580:	20000480 	.word	0x20000480

10001584 <exit>:
10001584:	be00      	bkpt	0x0000
10001586:	e7fd      	b.n	10001584 <exit>

10001588 <panic>:
10001588:	b40f      	push	{r0, r1, r2, r3}
1000158a:	b500      	push	{lr}
1000158c:	4808      	ldr	r0, [pc, #32]	; (100015b0 <panic+0x28>)
1000158e:	b083      	sub	sp, #12
10001590:	f002 ff6e 	bl	10004470 <__wrap_puts>
10001594:	9b04      	ldr	r3, [sp, #16]
10001596:	2b00      	cmp	r3, #0
10001598:	d007      	beq.n	100015aa <panic+0x22>
1000159a:	a905      	add	r1, sp, #20
1000159c:	0018      	movs	r0, r3
1000159e:	9101      	str	r1, [sp, #4]
100015a0:	f001 fe86 	bl	100032b0 <weak_raw_vprintf>
100015a4:	4803      	ldr	r0, [pc, #12]	; (100015b4 <panic+0x2c>)
100015a6:	f002 ff63 	bl	10004470 <__wrap_puts>
100015aa:	be00      	bkpt	0x0000
100015ac:	e7fd      	b.n	100015aa <panic+0x22>
100015ae:	46c0      	nop			; (mov r8, r8)
100015b0:	100070b8 	.word	0x100070b8
100015b4:	100070c8 	.word	0x100070c8

100015b8 <hard_assertion_failure>:
100015b8:	b510      	push	{r4, lr}
100015ba:	4801      	ldr	r0, [pc, #4]	; (100015c0 <hard_assertion_failure+0x8>)
100015bc:	f7ff ffe4 	bl	10001588 <panic>
100015c0:	100070cc 	.word	0x100070cc

100015c4 <clocks_init>:
100015c4:	b530      	push	{r4, r5, lr}
100015c6:	200c      	movs	r0, #12
100015c8:	b083      	sub	sp, #12
100015ca:	f000 fb3f 	bl	10001c4c <watchdog_start_tick>
100015ce:	f7ff f855 	bl	1000067c <running_on_fpga>
100015d2:	2800      	cmp	r0, #0
100015d4:	d00e      	beq.n	100015f4 <clocks_init+0x30>
100015d6:	4b94      	ldr	r3, [pc, #592]	; (10001828 <clocks_init+0x264>)
100015d8:	4a94      	ldr	r2, [pc, #592]	; (1000182c <clocks_init+0x268>)
100015da:	601a      	str	r2, [r3, #0]
100015dc:	605a      	str	r2, [r3, #4]
100015de:	609a      	str	r2, [r3, #8]
100015e0:	60da      	str	r2, [r3, #12]
100015e2:	611a      	str	r2, [r3, #16]
100015e4:	615a      	str	r2, [r3, #20]
100015e6:	619a      	str	r2, [r3, #24]
100015e8:	61da      	str	r2, [r3, #28]
100015ea:	621a      	str	r2, [r3, #32]
100015ec:	4a90      	ldr	r2, [pc, #576]	; (10001830 <clocks_init+0x26c>)
100015ee:	625a      	str	r2, [r3, #36]	; 0x24
100015f0:	b003      	add	sp, #12
100015f2:	bd30      	pop	{r4, r5, pc}
100015f4:	4c8f      	ldr	r4, [pc, #572]	; (10001834 <clocks_init+0x270>)
100015f6:	67a0      	str	r0, [r4, #120]	; 0x78
100015f8:	f000 fb7c 	bl	10001cf4 <xosc_init>
100015fc:	2201      	movs	r2, #1
100015fe:	4b8e      	ldr	r3, [pc, #568]	; (10001838 <clocks_init+0x274>)
10001600:	601a      	str	r2, [r3, #0]
10001602:	6c63      	ldr	r3, [r4, #68]	; 0x44
10001604:	2b01      	cmp	r3, #1
10001606:	d1fc      	bne.n	10001602 <clocks_init+0x3e>
10001608:	2203      	movs	r2, #3
1000160a:	4b8c      	ldr	r3, [pc, #560]	; (1000183c <clocks_init+0x278>)
1000160c:	601a      	str	r2, [r3, #0]
1000160e:	4a89      	ldr	r2, [pc, #548]	; (10001834 <clocks_init+0x270>)
10001610:	6b93      	ldr	r3, [r2, #56]	; 0x38
10001612:	2b01      	cmp	r3, #1
10001614:	d1fc      	bne.n	10001610 <clocks_init+0x4c>
10001616:	2402      	movs	r4, #2
10001618:	2101      	movs	r1, #1
1000161a:	4a89      	ldr	r2, [pc, #548]	; (10001840 <clocks_init+0x27c>)
1000161c:	4889      	ldr	r0, [pc, #548]	; (10001844 <clocks_init+0x280>)
1000161e:	3305      	adds	r3, #5
10001620:	9400      	str	r4, [sp, #0]
10001622:	f000 fabf 	bl	10001ba4 <pll_init>
10001626:	2305      	movs	r3, #5
10001628:	4a87      	ldr	r2, [pc, #540]	; (10001848 <clocks_init+0x284>)
1000162a:	2101      	movs	r1, #1
1000162c:	4887      	ldr	r0, [pc, #540]	; (1000184c <clocks_init+0x288>)
1000162e:	9400      	str	r4, [sp, #0]
10001630:	f000 fab8 	bl	10001ba4 <pll_init>
10001634:	4b86      	ldr	r3, [pc, #536]	; (10001850 <clocks_init+0x28c>)
10001636:	685a      	ldr	r2, [r3, #4]
10001638:	2aff      	cmp	r2, #255	; 0xff
1000163a:	d802      	bhi.n	10001642 <clocks_init+0x7e>
1000163c:	2280      	movs	r2, #128	; 0x80
1000163e:	0052      	lsls	r2, r2, #1
10001640:	605a      	str	r2, [r3, #4]
10001642:	2280      	movs	r2, #128	; 0x80
10001644:	4c78      	ldr	r4, [pc, #480]	; (10001828 <clocks_init+0x264>)
10001646:	4b7d      	ldr	r3, [pc, #500]	; (1000183c <clocks_init+0x278>)
10001648:	6921      	ldr	r1, [r4, #16]
1000164a:	0112      	lsls	r2, r2, #4
1000164c:	4d80      	ldr	r5, [pc, #512]	; (10001850 <clocks_init+0x28c>)
1000164e:	601a      	str	r2, [r3, #0]
10001650:	2900      	cmp	r1, #0
10001652:	d005      	beq.n	10001660 <clocks_init+0x9c>
10001654:	6960      	ldr	r0, [r4, #20]
10001656:	f001 fea5 	bl	100033a4 <__wrap___aeabi_uidiv>
1000165a:	3001      	adds	r0, #1
1000165c:	3801      	subs	r0, #1
1000165e:	d1fd      	bne.n	1000165c <clocks_init+0x98>
10001660:	21e0      	movs	r1, #224	; 0xe0
10001662:	4b7b      	ldr	r3, [pc, #492]	; (10001850 <clocks_init+0x28c>)
10001664:	2002      	movs	r0, #2
10001666:	681a      	ldr	r2, [r3, #0]
10001668:	4011      	ands	r1, r2
1000166a:	2280      	movs	r2, #128	; 0x80
1000166c:	0152      	lsls	r2, r2, #5
1000166e:	432a      	orrs	r2, r5
10001670:	6011      	str	r1, [r2, #0]
10001672:	6819      	ldr	r1, [r3, #0]
10001674:	4048      	eors	r0, r1
10001676:	2103      	movs	r1, #3
10001678:	4001      	ands	r1, r0
1000167a:	6011      	str	r1, [r2, #0]
1000167c:	2104      	movs	r1, #4
1000167e:	689a      	ldr	r2, [r3, #8]
10001680:	4211      	tst	r1, r2
10001682:	d0fc      	beq.n	1000167e <clocks_init+0xba>
10001684:	2280      	movs	r2, #128	; 0x80
10001686:	2180      	movs	r1, #128	; 0x80
10001688:	0192      	lsls	r2, r2, #6
1000168a:	432a      	orrs	r2, r5
1000168c:	0109      	lsls	r1, r1, #4
1000168e:	6011      	str	r1, [r2, #0]
10001690:	2280      	movs	r2, #128	; 0x80
10001692:	0052      	lsls	r2, r2, #1
10001694:	605a      	str	r2, [r3, #4]
10001696:	4b6f      	ldr	r3, [pc, #444]	; (10001854 <clocks_init+0x290>)
10001698:	6123      	str	r3, [r4, #16]
1000169a:	4b6f      	ldr	r3, [pc, #444]	; (10001858 <clocks_init+0x294>)
1000169c:	6859      	ldr	r1, [r3, #4]
1000169e:	29ff      	cmp	r1, #255	; 0xff
100016a0:	d800      	bhi.n	100016a4 <clocks_init+0xe0>
100016a2:	605a      	str	r2, [r3, #4]
100016a4:	2103      	movs	r1, #3
100016a6:	4a64      	ldr	r2, [pc, #400]	; (10001838 <clocks_init+0x274>)
100016a8:	4b6b      	ldr	r3, [pc, #428]	; (10001858 <clocks_init+0x294>)
100016aa:	6011      	str	r1, [r2, #0]
100016ac:	3902      	subs	r1, #2
100016ae:	689a      	ldr	r2, [r3, #8]
100016b0:	4211      	tst	r1, r2
100016b2:	d0fc      	beq.n	100016ae <clocks_init+0xea>
100016b4:	20e0      	movs	r0, #224	; 0xe0
100016b6:	681a      	ldr	r2, [r3, #0]
100016b8:	4010      	ands	r0, r2
100016ba:	2280      	movs	r2, #128	; 0x80
100016bc:	0152      	lsls	r2, r2, #5
100016be:	431a      	orrs	r2, r3
100016c0:	6010      	str	r0, [r2, #0]
100016c2:	6818      	ldr	r0, [r3, #0]
100016c4:	4048      	eors	r0, r1
100016c6:	2103      	movs	r1, #3
100016c8:	4001      	ands	r1, r0
100016ca:	2002      	movs	r0, #2
100016cc:	6011      	str	r1, [r2, #0]
100016ce:	4962      	ldr	r1, [pc, #392]	; (10001858 <clocks_init+0x294>)
100016d0:	688a      	ldr	r2, [r1, #8]
100016d2:	4210      	tst	r0, r2
100016d4:	d0fc      	beq.n	100016d0 <clocks_init+0x10c>
100016d6:	2280      	movs	r2, #128	; 0x80
100016d8:	0192      	lsls	r2, r2, #6
100016da:	4313      	orrs	r3, r2
100016dc:	2280      	movs	r2, #128	; 0x80
100016de:	0112      	lsls	r2, r2, #4
100016e0:	601a      	str	r2, [r3, #0]
100016e2:	2280      	movs	r2, #128	; 0x80
100016e4:	4b5d      	ldr	r3, [pc, #372]	; (1000185c <clocks_init+0x298>)
100016e6:	0052      	lsls	r2, r2, #1
100016e8:	604a      	str	r2, [r1, #4]
100016ea:	6163      	str	r3, [r4, #20]
100016ec:	4b5c      	ldr	r3, [pc, #368]	; (10001860 <clocks_init+0x29c>)
100016ee:	6859      	ldr	r1, [r3, #4]
100016f0:	29ff      	cmp	r1, #255	; 0xff
100016f2:	d800      	bhi.n	100016f6 <clocks_init+0x132>
100016f4:	605a      	str	r2, [r3, #4]
100016f6:	2280      	movs	r2, #128	; 0x80
100016f8:	4b5a      	ldr	r3, [pc, #360]	; (10001864 <clocks_init+0x2a0>)
100016fa:	69e1      	ldr	r1, [r4, #28]
100016fc:	0112      	lsls	r2, r2, #4
100016fe:	4d58      	ldr	r5, [pc, #352]	; (10001860 <clocks_init+0x29c>)
10001700:	601a      	str	r2, [r3, #0]
10001702:	2900      	cmp	r1, #0
10001704:	d005      	beq.n	10001712 <clocks_init+0x14e>
10001706:	6960      	ldr	r0, [r4, #20]
10001708:	f001 fe4c 	bl	100033a4 <__wrap___aeabi_uidiv>
1000170c:	3001      	adds	r0, #1
1000170e:	3801      	subs	r0, #1
10001710:	d1fd      	bne.n	1000170e <clocks_init+0x14a>
10001712:	22e0      	movs	r2, #224	; 0xe0
10001714:	4952      	ldr	r1, [pc, #328]	; (10001860 <clocks_init+0x29c>)
10001716:	680b      	ldr	r3, [r1, #0]
10001718:	401a      	ands	r2, r3
1000171a:	2380      	movs	r3, #128	; 0x80
1000171c:	015b      	lsls	r3, r3, #5
1000171e:	432b      	orrs	r3, r5
10001720:	601a      	str	r2, [r3, #0]
10001722:	2380      	movs	r3, #128	; 0x80
10001724:	2280      	movs	r2, #128	; 0x80
10001726:	019b      	lsls	r3, r3, #6
10001728:	432b      	orrs	r3, r5
1000172a:	0112      	lsls	r2, r2, #4
1000172c:	601a      	str	r2, [r3, #0]
1000172e:	2280      	movs	r2, #128	; 0x80
10001730:	4b3e      	ldr	r3, [pc, #248]	; (1000182c <clocks_init+0x268>)
10001732:	0052      	lsls	r2, r2, #1
10001734:	604a      	str	r2, [r1, #4]
10001736:	61e3      	str	r3, [r4, #28]
10001738:	4b4b      	ldr	r3, [pc, #300]	; (10001868 <clocks_init+0x2a4>)
1000173a:	6859      	ldr	r1, [r3, #4]
1000173c:	29ff      	cmp	r1, #255	; 0xff
1000173e:	d800      	bhi.n	10001742 <clocks_init+0x17e>
10001740:	605a      	str	r2, [r3, #4]
10001742:	2280      	movs	r2, #128	; 0x80
10001744:	4b49      	ldr	r3, [pc, #292]	; (1000186c <clocks_init+0x2a8>)
10001746:	6a21      	ldr	r1, [r4, #32]
10001748:	0112      	lsls	r2, r2, #4
1000174a:	4d47      	ldr	r5, [pc, #284]	; (10001868 <clocks_init+0x2a4>)
1000174c:	601a      	str	r2, [r3, #0]
1000174e:	2900      	cmp	r1, #0
10001750:	d005      	beq.n	1000175e <clocks_init+0x19a>
10001752:	6960      	ldr	r0, [r4, #20]
10001754:	f001 fe26 	bl	100033a4 <__wrap___aeabi_uidiv>
10001758:	3001      	adds	r0, #1
1000175a:	3801      	subs	r0, #1
1000175c:	d1fd      	bne.n	1000175a <clocks_init+0x196>
1000175e:	22e0      	movs	r2, #224	; 0xe0
10001760:	4941      	ldr	r1, [pc, #260]	; (10001868 <clocks_init+0x2a4>)
10001762:	680b      	ldr	r3, [r1, #0]
10001764:	401a      	ands	r2, r3
10001766:	2380      	movs	r3, #128	; 0x80
10001768:	015b      	lsls	r3, r3, #5
1000176a:	432b      	orrs	r3, r5
1000176c:	601a      	str	r2, [r3, #0]
1000176e:	2380      	movs	r3, #128	; 0x80
10001770:	2280      	movs	r2, #128	; 0x80
10001772:	019b      	lsls	r3, r3, #6
10001774:	432b      	orrs	r3, r5
10001776:	0112      	lsls	r2, r2, #4
10001778:	601a      	str	r2, [r3, #0]
1000177a:	2380      	movs	r3, #128	; 0x80
1000177c:	2280      	movs	r2, #128	; 0x80
1000177e:	005b      	lsls	r3, r3, #1
10001780:	604b      	str	r3, [r1, #4]
10001782:	4b2a      	ldr	r3, [pc, #168]	; (1000182c <clocks_init+0x268>)
10001784:	02d2      	lsls	r2, r2, #11
10001786:	6223      	str	r3, [r4, #32]
10001788:	4b39      	ldr	r3, [pc, #228]	; (10001870 <clocks_init+0x2ac>)
1000178a:	6859      	ldr	r1, [r3, #4]
1000178c:	4291      	cmp	r1, r2
1000178e:	d200      	bcs.n	10001792 <clocks_init+0x1ce>
10001790:	605a      	str	r2, [r3, #4]
10001792:	2280      	movs	r2, #128	; 0x80
10001794:	4b37      	ldr	r3, [pc, #220]	; (10001874 <clocks_init+0x2b0>)
10001796:	6a61      	ldr	r1, [r4, #36]	; 0x24
10001798:	0112      	lsls	r2, r2, #4
1000179a:	4d35      	ldr	r5, [pc, #212]	; (10001870 <clocks_init+0x2ac>)
1000179c:	601a      	str	r2, [r3, #0]
1000179e:	2900      	cmp	r1, #0
100017a0:	d005      	beq.n	100017ae <clocks_init+0x1ea>
100017a2:	6960      	ldr	r0, [r4, #20]
100017a4:	f001 fdfe 	bl	100033a4 <__wrap___aeabi_uidiv>
100017a8:	3001      	adds	r0, #1
100017aa:	3801      	subs	r0, #1
100017ac:	d1fd      	bne.n	100017aa <clocks_init+0x1e6>
100017ae:	22e0      	movs	r2, #224	; 0xe0
100017b0:	492f      	ldr	r1, [pc, #188]	; (10001870 <clocks_init+0x2ac>)
100017b2:	680b      	ldr	r3, [r1, #0]
100017b4:	401a      	ands	r2, r3
100017b6:	2380      	movs	r3, #128	; 0x80
100017b8:	015b      	lsls	r3, r3, #5
100017ba:	432b      	orrs	r3, r5
100017bc:	601a      	str	r2, [r3, #0]
100017be:	2380      	movs	r3, #128	; 0x80
100017c0:	2280      	movs	r2, #128	; 0x80
100017c2:	019b      	lsls	r3, r3, #6
100017c4:	432b      	orrs	r3, r5
100017c6:	0112      	lsls	r2, r2, #4
100017c8:	601a      	str	r2, [r3, #0]
100017ca:	2380      	movs	r3, #128	; 0x80
100017cc:	02db      	lsls	r3, r3, #11
100017ce:	604b      	str	r3, [r1, #4]
100017d0:	4b17      	ldr	r3, [pc, #92]	; (10001830 <clocks_init+0x26c>)
100017d2:	6263      	str	r3, [r4, #36]	; 0x24
100017d4:	4b28      	ldr	r3, [pc, #160]	; (10001878 <clocks_init+0x2b4>)
100017d6:	685a      	ldr	r2, [r3, #4]
100017d8:	2aff      	cmp	r2, #255	; 0xff
100017da:	d802      	bhi.n	100017e2 <clocks_init+0x21e>
100017dc:	2280      	movs	r2, #128	; 0x80
100017de:	0052      	lsls	r2, r2, #1
100017e0:	605a      	str	r2, [r3, #4]
100017e2:	2280      	movs	r2, #128	; 0x80
100017e4:	4b25      	ldr	r3, [pc, #148]	; (1000187c <clocks_init+0x2b8>)
100017e6:	69a1      	ldr	r1, [r4, #24]
100017e8:	0112      	lsls	r2, r2, #4
100017ea:	4d23      	ldr	r5, [pc, #140]	; (10001878 <clocks_init+0x2b4>)
100017ec:	601a      	str	r2, [r3, #0]
100017ee:	2900      	cmp	r1, #0
100017f0:	d005      	beq.n	100017fe <clocks_init+0x23a>
100017f2:	6960      	ldr	r0, [r4, #20]
100017f4:	f001 fdd6 	bl	100033a4 <__wrap___aeabi_uidiv>
100017f8:	3001      	adds	r0, #1
100017fa:	3801      	subs	r0, #1
100017fc:	d1fd      	bne.n	100017fa <clocks_init+0x236>
100017fe:	22e0      	movs	r2, #224	; 0xe0
10001800:	491d      	ldr	r1, [pc, #116]	; (10001878 <clocks_init+0x2b4>)
10001802:	680b      	ldr	r3, [r1, #0]
10001804:	401a      	ands	r2, r3
10001806:	2380      	movs	r3, #128	; 0x80
10001808:	015b      	lsls	r3, r3, #5
1000180a:	432b      	orrs	r3, r5
1000180c:	601a      	str	r2, [r3, #0]
1000180e:	2380      	movs	r3, #128	; 0x80
10001810:	2280      	movs	r2, #128	; 0x80
10001812:	019b      	lsls	r3, r3, #6
10001814:	432b      	orrs	r3, r5
10001816:	0112      	lsls	r2, r2, #4
10001818:	601a      	str	r2, [r3, #0]
1000181a:	2380      	movs	r3, #128	; 0x80
1000181c:	005b      	lsls	r3, r3, #1
1000181e:	604b      	str	r3, [r1, #4]
10001820:	4b0e      	ldr	r3, [pc, #56]	; (1000185c <clocks_init+0x298>)
10001822:	61a3      	str	r3, [r4, #24]
10001824:	e6e4      	b.n	100015f0 <clocks_init+0x2c>
10001826:	46c0      	nop			; (mov r8, r8)
10001828:	20001cac 	.word	0x20001cac
1000182c:	02dc6c00 	.word	0x02dc6c00
10001830:	0000b71b 	.word	0x0000b71b
10001834:	40008000 	.word	0x40008000
10001838:	4000b03c 	.word	0x4000b03c
1000183c:	4000b030 	.word	0x4000b030
10001840:	59682f00 	.word	0x59682f00
10001844:	40028000 	.word	0x40028000
10001848:	1c9c3800 	.word	0x1c9c3800
1000184c:	4002c000 	.word	0x4002c000
10001850:	40008030 	.word	0x40008030
10001854:	00b71b00 	.word	0x00b71b00
10001858:	4000803c 	.word	0x4000803c
1000185c:	07735940 	.word	0x07735940
10001860:	40008054 	.word	0x40008054
10001864:	4000b054 	.word	0x4000b054
10001868:	40008060 	.word	0x40008060
1000186c:	4000b060 	.word	0x4000b060
10001870:	4000806c 	.word	0x4000806c
10001874:	4000b06c 	.word	0x4000b06c
10001878:	40008048 	.word	0x40008048
1000187c:	4000b048 	.word	0x4000b048

10001880 <irq_set_enabled>:
10001880:	2301      	movs	r3, #1
10001882:	4083      	lsls	r3, r0
10001884:	2900      	cmp	r1, #0
10001886:	d004      	beq.n	10001892 <irq_set_enabled+0x12>
10001888:	4a03      	ldr	r2, [pc, #12]	; (10001898 <irq_set_enabled+0x18>)
1000188a:	6013      	str	r3, [r2, #0]
1000188c:	4a03      	ldr	r2, [pc, #12]	; (1000189c <irq_set_enabled+0x1c>)
1000188e:	6013      	str	r3, [r2, #0]
10001890:	4770      	bx	lr
10001892:	4a03      	ldr	r2, [pc, #12]	; (100018a0 <irq_set_enabled+0x20>)
10001894:	6013      	str	r3, [r2, #0]
10001896:	e7fb      	b.n	10001890 <irq_set_enabled+0x10>
10001898:	e000e280 	.word	0xe000e280
1000189c:	e000e100 	.word	0xe000e100
100018a0:	e000e180 	.word	0xe000e180

100018a4 <irq_set_pending>:
100018a4:	2301      	movs	r3, #1
100018a6:	4083      	lsls	r3, r0
100018a8:	4a01      	ldr	r2, [pc, #4]	; (100018b0 <irq_set_pending+0xc>)
100018aa:	6013      	str	r3, [r2, #0]
100018ac:	4770      	bx	lr
100018ae:	46c0      	nop			; (mov r8, r8)
100018b0:	e000e200 	.word	0xe000e200

100018b4 <irq_get_vtable_handler>:
100018b4:	4b02      	ldr	r3, [pc, #8]	; (100018c0 <irq_get_vtable_handler+0xc>)
100018b6:	3010      	adds	r0, #16
100018b8:	689b      	ldr	r3, [r3, #8]
100018ba:	0080      	lsls	r0, r0, #2
100018bc:	58c0      	ldr	r0, [r0, r3]
100018be:	4770      	bx	lr
100018c0:	e000ed00 	.word	0xe000ed00

100018c4 <irq_set_exclusive_handler>:
100018c4:	b570      	push	{r4, r5, r6, lr}
100018c6:	000d      	movs	r5, r1
100018c8:	f3ef 8610 	mrs	r6, PRIMASK
100018cc:	b672      	cpsid	i
100018ce:	4a0f      	ldr	r2, [pc, #60]	; (1000190c <irq_set_exclusive_handler+0x48>)
100018d0:	6813      	ldr	r3, [r2, #0]
100018d2:	2b00      	cmp	r3, #0
100018d4:	d0fc      	beq.n	100018d0 <irq_set_exclusive_handler+0xc>
100018d6:	f3bf 8f5f 	dmb	sy
100018da:	4b0d      	ldr	r3, [pc, #52]	; (10001910 <irq_set_exclusive_handler+0x4c>)
100018dc:	3010      	adds	r0, #16
100018de:	689b      	ldr	r3, [r3, #8]
100018e0:	0084      	lsls	r4, r0, #2
100018e2:	591b      	ldr	r3, [r3, r4]
100018e4:	4a0b      	ldr	r2, [pc, #44]	; (10001914 <irq_set_exclusive_handler+0x50>)
100018e6:	4293      	cmp	r3, r2
100018e8:	d003      	beq.n	100018f2 <irq_set_exclusive_handler+0x2e>
100018ea:	429d      	cmp	r5, r3
100018ec:	d001      	beq.n	100018f2 <irq_set_exclusive_handler+0x2e>
100018ee:	f7ff fe63 	bl	100015b8 <hard_assertion_failure>
100018f2:	4b07      	ldr	r3, [pc, #28]	; (10001910 <irq_set_exclusive_handler+0x4c>)
100018f4:	689b      	ldr	r3, [r3, #8]
100018f6:	511d      	str	r5, [r3, r4]
100018f8:	f3bf 8f5f 	dmb	sy
100018fc:	f3bf 8f5f 	dmb	sy
10001900:	2200      	movs	r2, #0
10001902:	4b02      	ldr	r3, [pc, #8]	; (1000190c <irq_set_exclusive_handler+0x48>)
10001904:	601a      	str	r2, [r3, #0]
10001906:	f386 8810 	msr	PRIMASK, r6
1000190a:	bd70      	pop	{r4, r5, r6, pc}
1000190c:	d0000124 	.word	0xd0000124
10001910:	e000ed00 	.word	0xe000ed00
10001914:	100001cd 	.word	0x100001cd

10001918 <irq_remove_handler>:
10001918:	b5f0      	push	{r4, r5, r6, r7, lr}
1000191a:	46de      	mov	lr, fp
1000191c:	4657      	mov	r7, sl
1000191e:	464e      	mov	r6, r9
10001920:	4645      	mov	r5, r8
10001922:	b5e0      	push	{r5, r6, r7, lr}
10001924:	000c      	movs	r4, r1
10001926:	b083      	sub	sp, #12
10001928:	f3ef 8a10 	mrs	sl, PRIMASK
1000192c:	b672      	cpsid	i
1000192e:	4a5a      	ldr	r2, [pc, #360]	; (10001a98 <irq_remove_handler+0x180>)
10001930:	6813      	ldr	r3, [r2, #0]
10001932:	2b00      	cmp	r3, #0
10001934:	d0fc      	beq.n	10001930 <irq_remove_handler+0x18>
10001936:	f3bf 8f5f 	dmb	sy
1000193a:	2210      	movs	r2, #16
1000193c:	4691      	mov	r9, r2
1000193e:	4481      	add	r9, r0
10001940:	464a      	mov	r2, r9
10001942:	4b56      	ldr	r3, [pc, #344]	; (10001a9c <irq_remove_handler+0x184>)
10001944:	0096      	lsls	r6, r2, #2
10001946:	689b      	ldr	r3, [r3, #8]
10001948:	599d      	ldr	r5, [r3, r6]
1000194a:	4b55      	ldr	r3, [pc, #340]	; (10001aa0 <irq_remove_handler+0x188>)
1000194c:	4698      	mov	r8, r3
1000194e:	429d      	cmp	r5, r3
10001950:	d005      	beq.n	1000195e <irq_remove_handler+0x46>
10001952:	42a5      	cmp	r5, r4
10001954:	d016      	beq.n	10001984 <irq_remove_handler+0x6c>
10001956:	4f53      	ldr	r7, [pc, #332]	; (10001aa4 <irq_remove_handler+0x18c>)
10001958:	1beb      	subs	r3, r5, r7
1000195a:	2b2f      	cmp	r3, #47	; 0x2f
1000195c:	d914      	bls.n	10001988 <irq_remove_handler+0x70>
1000195e:	4b4f      	ldr	r3, [pc, #316]	; (10001a9c <irq_remove_handler+0x184>)
10001960:	689b      	ldr	r3, [r3, #8]
10001962:	519d      	str	r5, [r3, r6]
10001964:	f3bf 8f5f 	dmb	sy
10001968:	f3bf 8f5f 	dmb	sy
1000196c:	2200      	movs	r2, #0
1000196e:	4b4a      	ldr	r3, [pc, #296]	; (10001a98 <irq_remove_handler+0x180>)
10001970:	601a      	str	r2, [r3, #0]
10001972:	f38a 8810 	msr	PRIMASK, sl
10001976:	b003      	add	sp, #12
10001978:	bcf0      	pop	{r4, r5, r6, r7}
1000197a:	46bb      	mov	fp, r7
1000197c:	46b2      	mov	sl, r6
1000197e:	46a9      	mov	r9, r5
10001980:	46a0      	mov	r8, r4
10001982:	bdf0      	pop	{r4, r5, r6, r7, pc}
10001984:	001d      	movs	r5, r3
10001986:	e7ea      	b.n	1000195e <irq_remove_handler+0x46>
10001988:	2301      	movs	r3, #1
1000198a:	4083      	lsls	r3, r0
1000198c:	469b      	mov	fp, r3
1000198e:	465a      	mov	r2, fp
10001990:	4b45      	ldr	r3, [pc, #276]	; (10001aa8 <irq_remove_handler+0x190>)
10001992:	681b      	ldr	r3, [r3, #0]
10001994:	401a      	ands	r2, r3
10001996:	9200      	str	r2, [sp, #0]
10001998:	465a      	mov	r2, fp
1000199a:	4b44      	ldr	r3, [pc, #272]	; (10001aac <irq_remove_handler+0x194>)
1000199c:	601a      	str	r2, [r3, #0]
1000199e:	f3bf 8f5f 	dmb	sy
100019a2:	f7fe fc60 	bl	10000266 <__get_current_exception>
100019a6:	9001      	str	r0, [sp, #4]
100019a8:	2800      	cmp	r0, #0
100019aa:	d003      	beq.n	100019b4 <irq_remove_handler+0x9c>
100019ac:	4581      	cmp	r9, r0
100019ae:	d001      	beq.n	100019b4 <irq_remove_handler+0x9c>
100019b0:	f7ff fe02 	bl	100015b8 <hard_assertion_failure>
100019b4:	2301      	movs	r3, #1
100019b6:	002a      	movs	r2, r5
100019b8:	439a      	bics	r2, r3
100019ba:	0013      	movs	r3, r2
100019bc:	493c      	ldr	r1, [pc, #240]	; (10001ab0 <irq_remove_handler+0x198>)
100019be:	1bdb      	subs	r3, r3, r7
100019c0:	415b      	adcs	r3, r3
100019c2:	4359      	muls	r1, r3
100019c4:	0d09      	lsrs	r1, r1, #20
100019c6:	6893      	ldr	r3, [r2, #8]
100019c8:	429c      	cmp	r4, r3
100019ca:	d108      	bne.n	100019de <irq_remove_handler+0xc6>
100019cc:	e05a      	b.n	10001a84 <irq_remove_handler+0x16c>
100019ce:	0043      	lsls	r3, r0, #1
100019d0:	181b      	adds	r3, r3, r0
100019d2:	009b      	lsls	r3, r3, #2
100019d4:	18fb      	adds	r3, r7, r3
100019d6:	6898      	ldr	r0, [r3, #8]
100019d8:	42a0      	cmp	r0, r4
100019da:	d011      	beq.n	10001a00 <irq_remove_handler+0xe8>
100019dc:	001a      	movs	r2, r3
100019de:	2006      	movs	r0, #6
100019e0:	5610      	ldrsb	r0, [r2, r0]
100019e2:	2800      	cmp	r0, #0
100019e4:	daf3      	bge.n	100019ce <irq_remove_handler+0xb6>
100019e6:	9b00      	ldr	r3, [sp, #0]
100019e8:	2b00      	cmp	r3, #0
100019ea:	d005      	beq.n	100019f8 <irq_remove_handler+0xe0>
100019ec:	465a      	mov	r2, fp
100019ee:	4b31      	ldr	r3, [pc, #196]	; (10001ab4 <irq_remove_handler+0x19c>)
100019f0:	601a      	str	r2, [r3, #0]
100019f2:	4b2d      	ldr	r3, [pc, #180]	; (10001aa8 <irq_remove_handler+0x190>)
100019f4:	601a      	str	r2, [r3, #0]
100019f6:	e7b2      	b.n	1000195e <irq_remove_handler+0x46>
100019f8:	465a      	mov	r2, fp
100019fa:	4b2c      	ldr	r3, [pc, #176]	; (10001aac <irq_remove_handler+0x194>)
100019fc:	601a      	str	r2, [r3, #0]
100019fe:	e7ae      	b.n	1000195e <irq_remove_handler+0x46>
10001a00:	2006      	movs	r0, #6
10001a02:	5618      	ldrsb	r0, [r3, r0]
10001a04:	2800      	cmp	r0, #0
10001a06:	db21      	blt.n	10001a4c <irq_remove_handler+0x134>
10001a08:	0042      	lsls	r2, r0, #1
10001a0a:	1811      	adds	r1, r2, r0
10001a0c:	0089      	lsls	r1, r1, #2
10001a0e:	187c      	adds	r4, r7, r1
10001a10:	4688      	mov	r8, r1
10001a12:	68a1      	ldr	r1, [r4, #8]
10001a14:	6099      	str	r1, [r3, #8]
10001a16:	79e1      	ldrb	r1, [r4, #7]
10001a18:	71d9      	strb	r1, [r3, #7]
10001a1a:	2106      	movs	r1, #6
10001a1c:	5661      	ldrsb	r1, [r4, r1]
10001a1e:	7199      	strb	r1, [r3, #6]
10001a20:	2900      	cmp	r1, #0
10001a22:	db1f      	blt.n	10001a64 <irq_remove_handler+0x14c>
10001a24:	88a4      	ldrh	r4, [r4, #4]
10001a26:	1af9      	subs	r1, r7, r3
10001a28:	0564      	lsls	r4, r4, #21
10001a2a:	1524      	asrs	r4, r4, #20
10001a2c:	4444      	add	r4, r8
10001a2e:	1909      	adds	r1, r1, r4
10001a30:	24e0      	movs	r4, #224	; 0xe0
10001a32:	0509      	lsls	r1, r1, #20
10001a34:	0d49      	lsrs	r1, r1, #21
10001a36:	0224      	lsls	r4, r4, #8
10001a38:	4321      	orrs	r1, r4
10001a3a:	8099      	strh	r1, [r3, #4]
10001a3c:	1812      	adds	r2, r2, r0
10001a3e:	4b1e      	ldr	r3, [pc, #120]	; (10001ab8 <irq_remove_handler+0x1a0>)
10001a40:	0092      	lsls	r2, r2, #2
10001a42:	18bf      	adds	r7, r7, r2
10001a44:	781a      	ldrb	r2, [r3, #0]
10001a46:	7018      	strb	r0, [r3, #0]
10001a48:	71ba      	strb	r2, [r7, #6]
10001a4a:	e7cc      	b.n	100019e6 <irq_remove_handler+0xce>
10001a4c:	9801      	ldr	r0, [sp, #4]
10001a4e:	2800      	cmp	r0, #0
10001a50:	d10b      	bne.n	10001a6a <irq_remove_handler+0x152>
10001a52:	30ff      	adds	r0, #255	; 0xff
10001a54:	7190      	strb	r0, [r2, #6]
10001a56:	4819      	ldr	r0, [pc, #100]	; (10001abc <irq_remove_handler+0x1a4>)
10001a58:	8090      	strh	r0, [r2, #4]
10001a5a:	4a17      	ldr	r2, [pc, #92]	; (10001ab8 <irq_remove_handler+0x1a0>)
10001a5c:	7810      	ldrb	r0, [r2, #0]
10001a5e:	7011      	strb	r1, [r2, #0]
10001a60:	7198      	strb	r0, [r3, #6]
10001a62:	e7c0      	b.n	100019e6 <irq_remove_handler+0xce>
10001a64:	21bd      	movs	r1, #189	; 0xbd
10001a66:	0209      	lsls	r1, r1, #8
10001a68:	e7e7      	b.n	10001a3a <irq_remove_handler+0x122>
10001a6a:	4a15      	ldr	r2, [pc, #84]	; (10001ac0 <irq_remove_handler+0x1a8>)
10001a6c:	4915      	ldr	r1, [pc, #84]	; (10001ac4 <irq_remove_handler+0x1ac>)
10001a6e:	1ad2      	subs	r2, r2, r3
10001a70:	3a08      	subs	r2, #8
10001a72:	0250      	lsls	r0, r2, #9
10001a74:	0d40      	lsrs	r0, r0, #21
10001a76:	4301      	orrs	r1, r0
10001a78:	8099      	strh	r1, [r3, #4]
10001a7a:	4913      	ldr	r1, [pc, #76]	; (10001ac8 <irq_remove_handler+0x1b0>)
10001a7c:	0852      	lsrs	r2, r2, #1
10001a7e:	430a      	orrs	r2, r1
10001a80:	80da      	strh	r2, [r3, #6]
10001a82:	e7b0      	b.n	100019e6 <irq_remove_handler+0xce>
10001a84:	2006      	movs	r0, #6
10001a86:	5610      	ldrsb	r0, [r2, r0]
10001a88:	0013      	movs	r3, r2
10001a8a:	2800      	cmp	r0, #0
10001a8c:	dabc      	bge.n	10001a08 <irq_remove_handler+0xf0>
10001a8e:	9a01      	ldr	r2, [sp, #4]
10001a90:	2a00      	cmp	r2, #0
10001a92:	d1ea      	bne.n	10001a6a <irq_remove_handler+0x152>
10001a94:	4645      	mov	r5, r8
10001a96:	e7e0      	b.n	10001a5a <irq_remove_handler+0x142>
10001a98:	d0000124 	.word	0xd0000124
10001a9c:	e000ed00 	.word	0xe000ed00
10001aa0:	100001cd 	.word	0x100001cd
10001aa4:	200003b4 	.word	0x200003b4
10001aa8:	e000e100 	.word	0xe000e100
10001aac:	e000e180 	.word	0xe000e180
10001ab0:	0000aaaa 	.word	0x0000aaaa
10001ab4:	e000e280 	.word	0xe000e280
10001ab8:	200021a4 	.word	0x200021a4
10001abc:	ffffbd00 	.word	0xffffbd00
10001ac0:	200003ee 	.word	0x200003ee
10001ac4:	fffff000 	.word	0xfffff000
10001ac8:	fffff800 	.word	0xfffff800

10001acc <irq_add_tail_to_free_list>:
10001acc:	b5f8      	push	{r3, r4, r5, r6, r7, lr}
10001ace:	2501      	movs	r5, #1
10001ad0:	0004      	movs	r4, r0
10001ad2:	4305      	orrs	r5, r0
10001ad4:	f7fe fbc7 	bl	10000266 <__get_current_exception>
10001ad8:	f3ef 8c10 	mrs	ip, PRIMASK
10001adc:	b672      	cpsid	i
10001ade:	4a21      	ldr	r2, [pc, #132]	; (10001b64 <irq_add_tail_to_free_list+0x98>)
10001ae0:	6813      	ldr	r3, [r2, #0]
10001ae2:	2b00      	cmp	r3, #0
10001ae4:	d0fc      	beq.n	10001ae0 <irq_add_tail_to_free_list+0x14>
10001ae6:	f3bf 8f5f 	dmb	sy
10001aea:	4e1f      	ldr	r6, [pc, #124]	; (10001b68 <irq_add_tail_to_free_list+0x9c>)
10001aec:	0021      	movs	r1, r4
10001aee:	68b7      	ldr	r7, [r6, #8]
10001af0:	4a1e      	ldr	r2, [pc, #120]	; (10001b6c <irq_add_tail_to_free_list+0xa0>)
10001af2:	4b1f      	ldr	r3, [pc, #124]	; (10001b70 <irq_add_tail_to_free_list+0xa4>)
10001af4:	1a89      	subs	r1, r1, r2
10001af6:	4149      	adcs	r1, r1
10001af8:	434b      	muls	r3, r1
10001afa:	0d1b      	lsrs	r3, r3, #20
10001afc:	b259      	sxtb	r1, r3
10001afe:	0083      	lsls	r3, r0, #2
10001b00:	58f8      	ldr	r0, [r7, r3]
10001b02:	42a8      	cmp	r0, r5
10001b04:	d01c      	beq.n	10001b40 <irq_add_tail_to_free_list+0x74>
10001b06:	2306      	movs	r3, #6
10001b08:	56d3      	ldrsb	r3, [r2, r3]
10001b0a:	428b      	cmp	r3, r1
10001b0c:	d01c      	beq.n	10001b48 <irq_add_tail_to_free_list+0x7c>
10001b0e:	2312      	movs	r3, #18
10001b10:	56d3      	ldrsb	r3, [r2, r3]
10001b12:	428b      	cmp	r3, r1
10001b14:	d022      	beq.n	10001b5c <irq_add_tail_to_free_list+0x90>
10001b16:	231e      	movs	r3, #30
10001b18:	56d3      	ldrsb	r3, [r2, r3]
10001b1a:	428b      	cmp	r3, r1
10001b1c:	d020      	beq.n	10001b60 <irq_add_tail_to_free_list+0x94>
10001b1e:	232a      	movs	r3, #42	; 0x2a
10001b20:	56d3      	ldrsb	r3, [r2, r3]
10001b22:	2003      	movs	r0, #3
10001b24:	428b      	cmp	r3, r1
10001b26:	d010      	beq.n	10001b4a <irq_add_tail_to_free_list+0x7e>
10001b28:	4b12      	ldr	r3, [pc, #72]	; (10001b74 <irq_add_tail_to_free_list+0xa8>)
10001b2a:	781a      	ldrb	r2, [r3, #0]
10001b2c:	7019      	strb	r1, [r3, #0]
10001b2e:	71a2      	strb	r2, [r4, #6]
10001b30:	f3bf 8f5f 	dmb	sy
10001b34:	2200      	movs	r2, #0
10001b36:	4b0b      	ldr	r3, [pc, #44]	; (10001b64 <irq_add_tail_to_free_list+0x98>)
10001b38:	601a      	str	r2, [r3, #0]
10001b3a:	f38c 8810 	msr	PRIMASK, ip
10001b3e:	bdf8      	pop	{r3, r4, r5, r6, r7, pc}
10001b40:	68b2      	ldr	r2, [r6, #8]
10001b42:	480d      	ldr	r0, [pc, #52]	; (10001b78 <irq_add_tail_to_free_list+0xac>)
10001b44:	50d0      	str	r0, [r2, r3]
10001b46:	e7ef      	b.n	10001b28 <irq_add_tail_to_free_list+0x5c>
10001b48:	2000      	movs	r0, #0
10001b4a:	0043      	lsls	r3, r0, #1
10001b4c:	181b      	adds	r3, r3, r0
10001b4e:	009b      	lsls	r3, r3, #2
10001b50:	18d2      	adds	r2, r2, r3
10001b52:	23ff      	movs	r3, #255	; 0xff
10001b54:	7193      	strb	r3, [r2, #6]
10001b56:	4b09      	ldr	r3, [pc, #36]	; (10001b7c <irq_add_tail_to_free_list+0xb0>)
10001b58:	8093      	strh	r3, [r2, #4]
10001b5a:	e7e5      	b.n	10001b28 <irq_add_tail_to_free_list+0x5c>
10001b5c:	2001      	movs	r0, #1
10001b5e:	e7f4      	b.n	10001b4a <irq_add_tail_to_free_list+0x7e>
10001b60:	2002      	movs	r0, #2
10001b62:	e7f2      	b.n	10001b4a <irq_add_tail_to_free_list+0x7e>
10001b64:	d0000124 	.word	0xd0000124
10001b68:	e000ed00 	.word	0xe000ed00
10001b6c:	200003b4 	.word	0x200003b4
10001b70:	0000aaaa 	.word	0x0000aaaa
10001b74:	200021a4 	.word	0x200021a4
10001b78:	100001cd 	.word	0x100001cd
10001b7c:	ffffbd00 	.word	0xffffbd00

10001b80 <irq_init_priorities>:
10001b80:	4b05      	ldr	r3, [pc, #20]	; (10001b98 <irq_init_priorities+0x18>)
10001b82:	4a06      	ldr	r2, [pc, #24]	; (10001b9c <irq_init_priorities+0x1c>)
10001b84:	6013      	str	r3, [r2, #0]
10001b86:	4a06      	ldr	r2, [pc, #24]	; (10001ba0 <irq_init_priorities+0x20>)
10001b88:	6013      	str	r3, [r2, #0]
10001b8a:	6053      	str	r3, [r2, #4]
10001b8c:	6093      	str	r3, [r2, #8]
10001b8e:	60d3      	str	r3, [r2, #12]
10001b90:	6113      	str	r3, [r2, #16]
10001b92:	6153      	str	r3, [r2, #20]
10001b94:	6193      	str	r3, [r2, #24]
10001b96:	4770      	bx	lr
10001b98:	80808080 	.word	0x80808080
10001b9c:	e000e400 	.word	0xe000e400
10001ba0:	e000e404 	.word	0xe000e404

10001ba4 <pll_init>:
10001ba4:	b5f0      	push	{r4, r5, r6, r7, lr}
10001ba6:	46c6      	mov	lr, r8
10001ba8:	0004      	movs	r4, r0
10001baa:	b500      	push	{lr}
10001bac:	200c      	movs	r0, #12
10001bae:	4690      	mov	r8, r2
10001bb0:	001f      	movs	r7, r3
10001bb2:	000e      	movs	r6, r1
10001bb4:	f001 fbf6 	bl	100033a4 <__wrap___aeabi_uidiv>
10001bb8:	0141      	lsls	r1, r0, #5
10001bba:	1a09      	subs	r1, r1, r0
10001bbc:	018d      	lsls	r5, r1, #6
10001bbe:	1a69      	subs	r1, r5, r1
10001bc0:	00c9      	lsls	r1, r1, #3
10001bc2:	1809      	adds	r1, r1, r0
10001bc4:	0189      	lsls	r1, r1, #6
10001bc6:	4640      	mov	r0, r8
10001bc8:	f001 fbec 	bl	100033a4 <__wrap___aeabi_uidiv>
10001bcc:	9b06      	ldr	r3, [sp, #24]
10001bce:	043f      	lsls	r7, r7, #16
10001bd0:	031a      	lsls	r2, r3, #12
10001bd2:	6823      	ldr	r3, [r4, #0]
10001bd4:	4317      	orrs	r7, r2
10001bd6:	2b00      	cmp	r3, #0
10001bd8:	db22      	blt.n	10001c20 <pll_init+0x7c>
10001bda:	4b18      	ldr	r3, [pc, #96]	; (10001c3c <pll_init+0x98>)
10001bdc:	4d18      	ldr	r5, [pc, #96]	; (10001c40 <pll_init+0x9c>)
10001bde:	18e2      	adds	r2, r4, r3
10001be0:	4253      	negs	r3, r2
10001be2:	415a      	adcs	r2, r3
10001be4:	2380      	movs	r3, #128	; 0x80
10001be6:	015b      	lsls	r3, r3, #5
10001be8:	469c      	mov	ip, r3
10001bea:	0312      	lsls	r2, r2, #12
10001bec:	4b15      	ldr	r3, [pc, #84]	; (10001c44 <pll_init+0xa0>)
10001bee:	4462      	add	r2, ip
10001bf0:	601a      	str	r2, [r3, #0]
10001bf2:	4b15      	ldr	r3, [pc, #84]	; (10001c48 <pll_init+0xa4>)
10001bf4:	601a      	str	r2, [r3, #0]
10001bf6:	0011      	movs	r1, r2
10001bf8:	68ab      	ldr	r3, [r5, #8]
10001bfa:	4399      	bics	r1, r3
10001bfc:	d1fb      	bne.n	10001bf6 <pll_init+0x52>
10001bfe:	22c0      	movs	r2, #192	; 0xc0
10001c00:	1d23      	adds	r3, r4, #4
10001c02:	0192      	lsls	r2, r2, #6
10001c04:	431a      	orrs	r2, r3
10001c06:	2321      	movs	r3, #33	; 0x21
10001c08:	6026      	str	r6, [r4, #0]
10001c0a:	60a0      	str	r0, [r4, #8]
10001c0c:	6013      	str	r3, [r2, #0]
10001c0e:	6823      	ldr	r3, [r4, #0]
10001c10:	2b00      	cmp	r3, #0
10001c12:	dafc      	bge.n	10001c0e <pll_init+0x6a>
10001c14:	2308      	movs	r3, #8
10001c16:	60e7      	str	r7, [r4, #12]
10001c18:	6013      	str	r3, [r2, #0]
10001c1a:	bc80      	pop	{r7}
10001c1c:	46b8      	mov	r8, r7
10001c1e:	bdf0      	pop	{r4, r5, r6, r7, pc}
10001c20:	233f      	movs	r3, #63	; 0x3f
10001c22:	6822      	ldr	r2, [r4, #0]
10001c24:	4013      	ands	r3, r2
10001c26:	42b3      	cmp	r3, r6
10001c28:	d1d7      	bne.n	10001bda <pll_init+0x36>
10001c2a:	68a3      	ldr	r3, [r4, #8]
10001c2c:	051b      	lsls	r3, r3, #20
10001c2e:	0d1b      	lsrs	r3, r3, #20
10001c30:	4283      	cmp	r3, r0
10001c32:	d1d2      	bne.n	10001bda <pll_init+0x36>
10001c34:	68e3      	ldr	r3, [r4, #12]
10001c36:	2f00      	cmp	r7, #0
10001c38:	d1cf      	bne.n	10001bda <pll_init+0x36>
10001c3a:	e7ee      	b.n	10001c1a <pll_init+0x76>
10001c3c:	bffd4000 	.word	0xbffd4000
10001c40:	4000c000 	.word	0x4000c000
10001c44:	4000e000 	.word	0x4000e000
10001c48:	4000f000 	.word	0x4000f000

10001c4c <watchdog_start_tick>:
10001c4c:	2380      	movs	r3, #128	; 0x80
10001c4e:	4a02      	ldr	r2, [pc, #8]	; (10001c58 <watchdog_start_tick+0xc>)
10001c50:	009b      	lsls	r3, r3, #2
10001c52:	4303      	orrs	r3, r0
10001c54:	62d3      	str	r3, [r2, #44]	; 0x2c
10001c56:	4770      	bx	lr
10001c58:	40058000 	.word	0x40058000

10001c5c <watchdog_reboot>:
10001c5c:	b510      	push	{r4, lr}
10001c5e:	0014      	movs	r4, r2
10001c60:	2280      	movs	r2, #128	; 0x80
10001c62:	4b1b      	ldr	r3, [pc, #108]	; (10001cd0 <watchdog_reboot+0x74>)
10001c64:	05d2      	lsls	r2, r2, #23
10001c66:	601a      	str	r2, [r3, #0]
10001c68:	2800      	cmp	r0, #0
10001c6a:	d01a      	beq.n	10001ca2 <watchdog_reboot+0x46>
10001c6c:	2301      	movs	r3, #1
10001c6e:	4a19      	ldr	r2, [pc, #100]	; (10001cd4 <watchdog_reboot+0x78>)
10001c70:	4318      	orrs	r0, r3
10001c72:	4b19      	ldr	r3, [pc, #100]	; (10001cd8 <watchdog_reboot+0x7c>)
10001c74:	61da      	str	r2, [r3, #28]
10001c76:	4a19      	ldr	r2, [pc, #100]	; (10001cdc <watchdog_reboot+0x80>)
10001c78:	4042      	eors	r2, r0
10001c7a:	621a      	str	r2, [r3, #32]
10001c7c:	6259      	str	r1, [r3, #36]	; 0x24
10001c7e:	6298      	str	r0, [r3, #40]	; 0x28
10001c80:	2280      	movs	r2, #128	; 0x80
10001c82:	4b13      	ldr	r3, [pc, #76]	; (10001cd0 <watchdog_reboot+0x74>)
10001c84:	05d2      	lsls	r2, r2, #23
10001c86:	601a      	str	r2, [r3, #0]
10001c88:	4915      	ldr	r1, [pc, #84]	; (10001ce0 <watchdog_reboot+0x84>)
10001c8a:	4a16      	ldr	r2, [pc, #88]	; (10001ce4 <watchdog_reboot+0x88>)
10001c8c:	6011      	str	r1, [r2, #0]
10001c8e:	22e0      	movs	r2, #224	; 0xe0
10001c90:	04d2      	lsls	r2, r2, #19
10001c92:	601a      	str	r2, [r3, #0]
10001c94:	2c00      	cmp	r4, #0
10001c96:	d107      	bne.n	10001ca8 <watchdog_reboot+0x4c>
10001c98:	2280      	movs	r2, #128	; 0x80
10001c9a:	4b13      	ldr	r3, [pc, #76]	; (10001ce8 <watchdog_reboot+0x8c>)
10001c9c:	0612      	lsls	r2, r2, #24
10001c9e:	601a      	str	r2, [r3, #0]
10001ca0:	bd10      	pop	{r4, pc}
10001ca2:	4b0d      	ldr	r3, [pc, #52]	; (10001cd8 <watchdog_reboot+0x7c>)
10001ca4:	61d8      	str	r0, [r3, #28]
10001ca6:	e7eb      	b.n	10001c80 <watchdog_reboot+0x24>
10001ca8:	0163      	lsls	r3, r4, #5
10001caa:	1b1b      	subs	r3, r3, r4
10001cac:	009a      	lsls	r2, r3, #2
10001cae:	2380      	movs	r3, #128	; 0x80
10001cb0:	1912      	adds	r2, r2, r4
10001cb2:	0112      	lsls	r2, r2, #4
10001cb4:	045b      	lsls	r3, r3, #17
10001cb6:	429a      	cmp	r2, r3
10001cb8:	d300      	bcc.n	10001cbc <watchdog_reboot+0x60>
10001cba:	4a0c      	ldr	r2, [pc, #48]	; (10001cec <watchdog_reboot+0x90>)
10001cbc:	4b0c      	ldr	r3, [pc, #48]	; (10001cf0 <watchdog_reboot+0x94>)
10001cbe:	601a      	str	r2, [r3, #0]
10001cc0:	4b05      	ldr	r3, [pc, #20]	; (10001cd8 <watchdog_reboot+0x7c>)
10001cc2:	605a      	str	r2, [r3, #4]
10001cc4:	2280      	movs	r2, #128	; 0x80
10001cc6:	4b08      	ldr	r3, [pc, #32]	; (10001ce8 <watchdog_reboot+0x8c>)
10001cc8:	05d2      	lsls	r2, r2, #23
10001cca:	601a      	str	r2, [r3, #0]
10001ccc:	e7e8      	b.n	10001ca0 <watchdog_reboot+0x44>
10001cce:	46c0      	nop			; (mov r8, r8)
10001cd0:	4005b000 	.word	0x4005b000
10001cd4:	b007c0d3 	.word	0xb007c0d3
10001cd8:	40058000 	.word	0x40058000
10001cdc:	4ff83f2d 	.word	0x4ff83f2d
10001ce0:	0001fffc 	.word	0x0001fffc
10001ce4:	40012008 	.word	0x40012008
10001ce8:	4005a000 	.word	0x4005a000
10001cec:	00ffffff 	.word	0x00ffffff
10001cf0:	2000214c 	.word	0x2000214c

10001cf4 <xosc_init>:
10001cf4:	23aa      	movs	r3, #170	; 0xaa
10001cf6:	4a06      	ldr	r2, [pc, #24]	; (10001d10 <xosc_init+0x1c>)
10001cf8:	011b      	lsls	r3, r3, #4
10001cfa:	6013      	str	r3, [r2, #0]
10001cfc:	232f      	movs	r3, #47	; 0x2f
10001cfe:	4905      	ldr	r1, [pc, #20]	; (10001d14 <xosc_init+0x20>)
10001d00:	60d3      	str	r3, [r2, #12]
10001d02:	4b05      	ldr	r3, [pc, #20]	; (10001d18 <xosc_init+0x24>)
10001d04:	6019      	str	r1, [r3, #0]
10001d06:	6853      	ldr	r3, [r2, #4]
10001d08:	2b00      	cmp	r3, #0
10001d0a:	dafc      	bge.n	10001d06 <xosc_init+0x12>
10001d0c:	4770      	bx	lr
10001d0e:	46c0      	nop			; (mov r8, r8)
10001d10:	40024000 	.word	0x40024000
10001d14:	00fab000 	.word	0x00fab000
10001d18:	40026000 	.word	0x40026000

10001d1c <_out_null>:
10001d1c:	4770      	bx	lr
10001d1e:	46c0      	nop			; (mov r8, r8)

10001d20 <_out_rev>:
10001d20:	b5f8      	push	{r3, r4, r5, r6, r7, lr}
10001d22:	4657      	mov	r7, sl
10001d24:	464e      	mov	r6, r9
10001d26:	4645      	mov	r5, r8
10001d28:	46de      	mov	lr, fp
10001d2a:	b5e0      	push	{r5, r6, r7, lr}
10001d2c:	4699      	mov	r9, r3
10001d2e:	9b0a      	ldr	r3, [sp, #40]	; 0x28
10001d30:	0007      	movs	r7, r0
10001d32:	469a      	mov	sl, r3
10001d34:	9b0d      	ldr	r3, [sp, #52]	; 0x34
10001d36:	4688      	mov	r8, r1
10001d38:	4693      	mov	fp, r2
10001d3a:	0015      	movs	r5, r2
10001d3c:	9e0b      	ldr	r6, [sp, #44]	; 0x2c
10001d3e:	079b      	lsls	r3, r3, #30
10001d40:	d110      	bne.n	10001d64 <_out_rev+0x44>
10001d42:	9b0c      	ldr	r3, [sp, #48]	; 0x30
10001d44:	429e      	cmp	r6, r3
10001d46:	d20d      	bcs.n	10001d64 <_out_rev+0x44>
10001d48:	1b9d      	subs	r5, r3, r6
10001d4a:	0014      	movs	r4, r2
10001d4c:	000e      	movs	r6, r1
10001d4e:	445d      	add	r5, fp
10001d50:	0022      	movs	r2, r4
10001d52:	464b      	mov	r3, r9
10001d54:	3401      	adds	r4, #1
10001d56:	0031      	movs	r1, r6
10001d58:	2020      	movs	r0, #32
10001d5a:	47b8      	blx	r7
10001d5c:	42a5      	cmp	r5, r4
10001d5e:	d1f7      	bne.n	10001d50 <_out_rev+0x30>
10001d60:	46b0      	mov	r8, r6
10001d62:	9e0b      	ldr	r6, [sp, #44]	; 0x2c
10001d64:	2e00      	cmp	r6, #0
10001d66:	d027      	beq.n	10001db8 <_out_rev+0x98>
10001d68:	4644      	mov	r4, r8
10001d6a:	1975      	adds	r5, r6, r5
10001d6c:	4653      	mov	r3, sl
10001d6e:	1baa      	subs	r2, r5, r6
10001d70:	3e01      	subs	r6, #1
10001d72:	5d98      	ldrb	r0, [r3, r6]
10001d74:	0021      	movs	r1, r4
10001d76:	464b      	mov	r3, r9
10001d78:	47b8      	blx	r7
10001d7a:	2e00      	cmp	r6, #0
10001d7c:	d1f6      	bne.n	10001d6c <_out_rev+0x4c>
10001d7e:	0023      	movs	r3, r4
10001d80:	002c      	movs	r4, r5
10001d82:	4698      	mov	r8, r3
10001d84:	9b0d      	ldr	r3, [sp, #52]	; 0x34
10001d86:	079b      	lsls	r3, r3, #30
10001d88:	d50f      	bpl.n	10001daa <_out_rev+0x8a>
10001d8a:	465b      	mov	r3, fp
10001d8c:	1ae5      	subs	r5, r4, r3
10001d8e:	9b0c      	ldr	r3, [sp, #48]	; 0x30
10001d90:	42ab      	cmp	r3, r5
10001d92:	d90a      	bls.n	10001daa <_out_rev+0x8a>
10001d94:	4646      	mov	r6, r8
10001d96:	4698      	mov	r8, r3
10001d98:	0022      	movs	r2, r4
10001d9a:	464b      	mov	r3, r9
10001d9c:	0031      	movs	r1, r6
10001d9e:	2020      	movs	r0, #32
10001da0:	3501      	adds	r5, #1
10001da2:	47b8      	blx	r7
10001da4:	3401      	adds	r4, #1
10001da6:	45a8      	cmp	r8, r5
10001da8:	d8f6      	bhi.n	10001d98 <_out_rev+0x78>
10001daa:	0020      	movs	r0, r4
10001dac:	bcf0      	pop	{r4, r5, r6, r7}
10001dae:	46bb      	mov	fp, r7
10001db0:	46b2      	mov	sl, r6
10001db2:	46a9      	mov	r9, r5
10001db4:	46a0      	mov	r8, r4
10001db6:	bdf8      	pop	{r3, r4, r5, r6, r7, pc}
10001db8:	002c      	movs	r4, r5
10001dba:	e7e3      	b.n	10001d84 <_out_rev+0x64>

10001dbc <_ntoa_format>:
10001dbc:	b5f0      	push	{r4, r5, r6, r7, lr}
10001dbe:	464f      	mov	r7, r9
10001dc0:	4646      	mov	r6, r8
10001dc2:	46d6      	mov	lr, sl
10001dc4:	b5c0      	push	{r6, r7, lr}
10001dc6:	b084      	sub	sp, #16
10001dc8:	4698      	mov	r8, r3
10001dca:	ab0e      	add	r3, sp, #56	; 0x38
10001dcc:	781b      	ldrb	r3, [r3, #0]
10001dce:	9f12      	ldr	r7, [sp, #72]	; 0x48
10001dd0:	4699      	mov	r9, r3
10001dd2:	4694      	mov	ip, r2
10001dd4:	9c0d      	ldr	r4, [sp, #52]	; 0x34
10001dd6:	9b10      	ldr	r3, [sp, #64]	; 0x40
10001dd8:	9e11      	ldr	r6, [sp, #68]	; 0x44
10001dda:	07ba      	lsls	r2, r7, #30
10001ddc:	d425      	bmi.n	10001e2a <_ntoa_format+0x6e>
10001dde:	2e00      	cmp	r6, #0
10001de0:	d14b      	bne.n	10001e7a <_ntoa_format+0xbe>
10001de2:	429c      	cmp	r4, r3
10001de4:	d300      	bcc.n	10001de8 <_ntoa_format+0x2c>
10001de6:	e0bf      	b.n	10001f68 <_ntoa_format+0x1ac>
10001de8:	2201      	movs	r2, #1
10001dea:	403a      	ands	r2, r7
10001dec:	4692      	mov	sl, r2
10001dee:	2c1f      	cmp	r4, #31
10001df0:	d900      	bls.n	10001df4 <_ntoa_format+0x38>
10001df2:	e0b8      	b.n	10001f66 <_ntoa_format+0x1aa>
10001df4:	9a0c      	ldr	r2, [sp, #48]	; 0x30
10001df6:	1e55      	subs	r5, r2, #1
10001df8:	2230      	movs	r2, #48	; 0x30
10001dfa:	e001      	b.n	10001e00 <_ntoa_format+0x44>
10001dfc:	2c20      	cmp	r4, #32
10001dfe:	d003      	beq.n	10001e08 <_ntoa_format+0x4c>
10001e00:	3401      	adds	r4, #1
10001e02:	552a      	strb	r2, [r5, r4]
10001e04:	42a3      	cmp	r3, r4
10001e06:	d8f9      	bhi.n	10001dfc <_ntoa_format+0x40>
10001e08:	4652      	mov	r2, sl
10001e0a:	2a00      	cmp	r2, #0
10001e0c:	d00d      	beq.n	10001e2a <_ntoa_format+0x6e>
10001e0e:	42a6      	cmp	r6, r4
10001e10:	d90b      	bls.n	10001e2a <_ntoa_format+0x6e>
10001e12:	2c20      	cmp	r4, #32
10001e14:	d044      	beq.n	10001ea0 <_ntoa_format+0xe4>
10001e16:	9a0c      	ldr	r2, [sp, #48]	; 0x30
10001e18:	1e55      	subs	r5, r2, #1
10001e1a:	2230      	movs	r2, #48	; 0x30
10001e1c:	e001      	b.n	10001e22 <_ntoa_format+0x66>
10001e1e:	2c20      	cmp	r4, #32
10001e20:	d03e      	beq.n	10001ea0 <_ntoa_format+0xe4>
10001e22:	3401      	adds	r4, #1
10001e24:	552a      	strb	r2, [r5, r4]
10001e26:	42b4      	cmp	r4, r6
10001e28:	d1f9      	bne.n	10001e1e <_ntoa_format+0x62>
10001e2a:	06fa      	lsls	r2, r7, #27
10001e2c:	d54d      	bpl.n	10001eca <_ntoa_format+0x10e>
10001e2e:	057a      	lsls	r2, r7, #21
10001e30:	d43f      	bmi.n	10001eb2 <_ntoa_format+0xf6>
10001e32:	2c00      	cmp	r4, #0
10001e34:	d139      	bne.n	10001eaa <_ntoa_format+0xee>
10001e36:	9b0f      	ldr	r3, [sp, #60]	; 0x3c
10001e38:	2b10      	cmp	r3, #16
10001e3a:	d100      	bne.n	10001e3e <_ntoa_format+0x82>
10001e3c:	e079      	b.n	10001f32 <_ntoa_format+0x176>
10001e3e:	9b0f      	ldr	r3, [sp, #60]	; 0x3c
10001e40:	2b02      	cmp	r3, #2
10001e42:	d100      	bne.n	10001e46 <_ntoa_format+0x8a>
10001e44:	e08a      	b.n	10001f5c <_ntoa_format+0x1a0>
10001e46:	2330      	movs	r3, #48	; 0x30
10001e48:	9a0c      	ldr	r2, [sp, #48]	; 0x30
10001e4a:	2401      	movs	r4, #1
10001e4c:	7013      	strb	r3, [r2, #0]
10001e4e:	464b      	mov	r3, r9
10001e50:	2b00      	cmp	r3, #0
10001e52:	d03f      	beq.n	10001ed4 <_ntoa_format+0x118>
10001e54:	232d      	movs	r3, #45	; 0x2d
10001e56:	9a0c      	ldr	r2, [sp, #48]	; 0x30
10001e58:	5513      	strb	r3, [r2, r4]
10001e5a:	3401      	adds	r4, #1
10001e5c:	9b0c      	ldr	r3, [sp, #48]	; 0x30
10001e5e:	4662      	mov	r2, ip
10001e60:	9300      	str	r3, [sp, #0]
10001e62:	9703      	str	r7, [sp, #12]
10001e64:	4643      	mov	r3, r8
10001e66:	9602      	str	r6, [sp, #8]
10001e68:	9401      	str	r4, [sp, #4]
10001e6a:	f7ff ff59 	bl	10001d20 <_out_rev>
10001e6e:	b004      	add	sp, #16
10001e70:	bce0      	pop	{r5, r6, r7}
10001e72:	46ba      	mov	sl, r7
10001e74:	46b1      	mov	r9, r6
10001e76:	46a8      	mov	r8, r5
10001e78:	bdf0      	pop	{r4, r5, r6, r7, pc}
10001e7a:	2201      	movs	r2, #1
10001e7c:	0015      	movs	r5, r2
10001e7e:	403d      	ands	r5, r7
10001e80:	46aa      	mov	sl, r5
10001e82:	423a      	tst	r2, r7
10001e84:	d02f      	beq.n	10001ee6 <_ntoa_format+0x12a>
10001e86:	464a      	mov	r2, r9
10001e88:	2a00      	cmp	r2, #0
10001e8a:	d102      	bne.n	10001e92 <_ntoa_format+0xd6>
10001e8c:	320c      	adds	r2, #12
10001e8e:	423a      	tst	r2, r7
10001e90:	d000      	beq.n	10001e94 <_ntoa_format+0xd8>
10001e92:	3e01      	subs	r6, #1
10001e94:	429c      	cmp	r4, r3
10001e96:	d2ba      	bcs.n	10001e0e <_ntoa_format+0x52>
10001e98:	2c1f      	cmp	r4, #31
10001e9a:	d9ab      	bls.n	10001df4 <_ntoa_format+0x38>
10001e9c:	2e20      	cmp	r6, #32
10001e9e:	d927      	bls.n	10001ef0 <_ntoa_format+0x134>
10001ea0:	2420      	movs	r4, #32
10001ea2:	06fa      	lsls	r2, r7, #27
10001ea4:	d5da      	bpl.n	10001e5c <_ntoa_format+0xa0>
10001ea6:	057a      	lsls	r2, r7, #21
10001ea8:	d403      	bmi.n	10001eb2 <_ntoa_format+0xf6>
10001eaa:	42a3      	cmp	r3, r4
10001eac:	d02d      	beq.n	10001f0a <_ntoa_format+0x14e>
10001eae:	42a6      	cmp	r6, r4
10001eb0:	d02b      	beq.n	10001f0a <_ntoa_format+0x14e>
10001eb2:	9b0f      	ldr	r3, [sp, #60]	; 0x3c
10001eb4:	2b10      	cmp	r3, #16
10001eb6:	d032      	beq.n	10001f1e <_ntoa_format+0x162>
10001eb8:	2b02      	cmp	r3, #2
10001eba:	d020      	beq.n	10001efe <_ntoa_format+0x142>
10001ebc:	2c20      	cmp	r4, #32
10001ebe:	d0cd      	beq.n	10001e5c <_ntoa_format+0xa0>
10001ec0:	2230      	movs	r2, #48	; 0x30
10001ec2:	9b0c      	ldr	r3, [sp, #48]	; 0x30
10001ec4:	191b      	adds	r3, r3, r4
10001ec6:	701a      	strb	r2, [r3, #0]
10001ec8:	3401      	adds	r4, #1
10001eca:	2c20      	cmp	r4, #32
10001ecc:	d0c6      	beq.n	10001e5c <_ntoa_format+0xa0>
10001ece:	464b      	mov	r3, r9
10001ed0:	2b00      	cmp	r3, #0
10001ed2:	d1bf      	bne.n	10001e54 <_ntoa_format+0x98>
10001ed4:	077b      	lsls	r3, r7, #29
10001ed6:	d40d      	bmi.n	10001ef4 <_ntoa_format+0x138>
10001ed8:	073b      	lsls	r3, r7, #28
10001eda:	d5bf      	bpl.n	10001e5c <_ntoa_format+0xa0>
10001edc:	2320      	movs	r3, #32
10001ede:	9a0c      	ldr	r2, [sp, #48]	; 0x30
10001ee0:	5513      	strb	r3, [r2, r4]
10001ee2:	3401      	adds	r4, #1
10001ee4:	e7ba      	b.n	10001e5c <_ntoa_format+0xa0>
10001ee6:	429c      	cmp	r4, r3
10001ee8:	d29f      	bcs.n	10001e2a <_ntoa_format+0x6e>
10001eea:	2c1f      	cmp	r4, #31
10001eec:	d800      	bhi.n	10001ef0 <_ntoa_format+0x134>
10001eee:	e781      	b.n	10001df4 <_ntoa_format+0x38>
10001ef0:	2420      	movs	r4, #32
10001ef2:	e79a      	b.n	10001e2a <_ntoa_format+0x6e>
10001ef4:	232b      	movs	r3, #43	; 0x2b
10001ef6:	9a0c      	ldr	r2, [sp, #48]	; 0x30
10001ef8:	5513      	strb	r3, [r2, r4]
10001efa:	3401      	adds	r4, #1
10001efc:	e7ae      	b.n	10001e5c <_ntoa_format+0xa0>
10001efe:	2c20      	cmp	r4, #32
10001f00:	d0ac      	beq.n	10001e5c <_ntoa_format+0xa0>
10001f02:	9b0c      	ldr	r3, [sp, #48]	; 0x30
10001f04:	191b      	adds	r3, r3, r4
10001f06:	3401      	adds	r4, #1
10001f08:	e03a      	b.n	10001f80 <_ntoa_format+0x1c4>
10001f0a:	1e63      	subs	r3, r4, #1
10001f0c:	2c01      	cmp	r4, #1
10001f0e:	d092      	beq.n	10001e36 <_ntoa_format+0x7a>
10001f10:	9a0f      	ldr	r2, [sp, #60]	; 0x3c
10001f12:	2a10      	cmp	r2, #16
10001f14:	d02a      	beq.n	10001f6c <_ntoa_format+0x1b0>
10001f16:	2a02      	cmp	r2, #2
10001f18:	d02f      	beq.n	10001f7a <_ntoa_format+0x1be>
10001f1a:	001c      	movs	r4, r3
10001f1c:	e7d0      	b.n	10001ec0 <_ntoa_format+0x104>
10001f1e:	06bb      	lsls	r3, r7, #26
10001f20:	d40e      	bmi.n	10001f40 <_ntoa_format+0x184>
10001f22:	2c20      	cmp	r4, #32
10001f24:	d09a      	beq.n	10001e5c <_ntoa_format+0xa0>
10001f26:	9b0c      	ldr	r3, [sp, #48]	; 0x30
10001f28:	191a      	adds	r2, r3, r4
10001f2a:	3401      	adds	r4, #1
10001f2c:	2378      	movs	r3, #120	; 0x78
10001f2e:	7013      	strb	r3, [r2, #0]
10001f30:	e7c4      	b.n	10001ebc <_ntoa_format+0x100>
10001f32:	06bb      	lsls	r3, r7, #26
10001f34:	d40d      	bmi.n	10001f52 <_ntoa_format+0x196>
10001f36:	2378      	movs	r3, #120	; 0x78
10001f38:	9a0c      	ldr	r2, [sp, #48]	; 0x30
10001f3a:	2401      	movs	r4, #1
10001f3c:	7013      	strb	r3, [r2, #0]
10001f3e:	e7bf      	b.n	10001ec0 <_ntoa_format+0x104>
10001f40:	2c20      	cmp	r4, #32
10001f42:	d100      	bne.n	10001f46 <_ntoa_format+0x18a>
10001f44:	e78a      	b.n	10001e5c <_ntoa_format+0xa0>
10001f46:	2258      	movs	r2, #88	; 0x58
10001f48:	9b0c      	ldr	r3, [sp, #48]	; 0x30
10001f4a:	191b      	adds	r3, r3, r4
10001f4c:	701a      	strb	r2, [r3, #0]
10001f4e:	3401      	adds	r4, #1
10001f50:	e7b4      	b.n	10001ebc <_ntoa_format+0x100>
10001f52:	2358      	movs	r3, #88	; 0x58
10001f54:	9a0c      	ldr	r2, [sp, #48]	; 0x30
10001f56:	2401      	movs	r4, #1
10001f58:	7013      	strb	r3, [r2, #0]
10001f5a:	e7b1      	b.n	10001ec0 <_ntoa_format+0x104>
10001f5c:	9a0c      	ldr	r2, [sp, #48]	; 0x30
10001f5e:	3360      	adds	r3, #96	; 0x60
10001f60:	2401      	movs	r4, #1
10001f62:	7013      	strb	r3, [r2, #0]
10001f64:	e7ac      	b.n	10001ec0 <_ntoa_format+0x104>
10001f66:	2420      	movs	r4, #32
10001f68:	2600      	movs	r6, #0
10001f6a:	e75e      	b.n	10001e2a <_ntoa_format+0x6e>
10001f6c:	3c02      	subs	r4, #2
10001f6e:	06ba      	lsls	r2, r7, #26
10001f70:	d4e9      	bmi.n	10001f46 <_ntoa_format+0x18a>
10001f72:	9a0c      	ldr	r2, [sp, #48]	; 0x30
10001f74:	1912      	adds	r2, r2, r4
10001f76:	001c      	movs	r4, r3
10001f78:	e7d8      	b.n	10001f2c <_ntoa_format+0x170>
10001f7a:	9a0c      	ldr	r2, [sp, #48]	; 0x30
10001f7c:	4692      	mov	sl, r2
10001f7e:	4453      	add	r3, sl
10001f80:	2262      	movs	r2, #98	; 0x62
10001f82:	701a      	strb	r2, [r3, #0]
10001f84:	e79a      	b.n	10001ebc <_ntoa_format+0x100>
10001f86:	46c0      	nop			; (mov r8, r8)

10001f88 <_out_char>:
10001f88:	b510      	push	{r4, lr}
10001f8a:	2800      	cmp	r0, #0
10001f8c:	d100      	bne.n	10001f90 <_out_char+0x8>
10001f8e:	bd10      	pop	{r4, pc}
10001f90:	f002 fa1e 	bl	100043d0 <__wrap_putchar>
10001f94:	e7fb      	b.n	10001f8e <_out_char+0x6>
10001f96:	46c0      	nop			; (mov r8, r8)

10001f98 <_out_fct>:
10001f98:	000b      	movs	r3, r1
10001f9a:	b510      	push	{r4, lr}
10001f9c:	2800      	cmp	r0, #0
10001f9e:	d002      	beq.n	10001fa6 <_out_fct+0xe>
10001fa0:	6849      	ldr	r1, [r1, #4]
10001fa2:	681b      	ldr	r3, [r3, #0]
10001fa4:	4798      	blx	r3
10001fa6:	bd10      	pop	{r4, pc}

10001fa8 <_etoa>:
10001fa8:	b5f0      	push	{r4, r5, r6, r7, lr}
10001faa:	46de      	mov	lr, fp
10001fac:	4657      	mov	r7, sl
10001fae:	464e      	mov	r6, r9
10001fb0:	4645      	mov	r5, r8
10001fb2:	b5e0      	push	{r5, r6, r7, lr}
10001fb4:	b09b      	sub	sp, #108	; 0x6c
10001fb6:	469b      	mov	fp, r3
10001fb8:	9b24      	ldr	r3, [sp, #144]	; 0x90
10001fba:	4689      	mov	r9, r1
10001fbc:	4698      	mov	r8, r3
10001fbe:	9b25      	ldr	r3, [sp, #148]	; 0x94
10001fc0:	900b      	str	r0, [sp, #44]	; 0x2c
10001fc2:	920c      	str	r2, [sp, #48]	; 0x30
10001fc4:	4640      	mov	r0, r8
10001fc6:	4642      	mov	r2, r8
10001fc8:	0019      	movs	r1, r3
10001fca:	469a      	mov	sl, r3
10001fcc:	f001 fcbb 	bl	10003946 <__wrap___aeabi_dcmpun>
10001fd0:	2800      	cmp	r0, #0
10001fd2:	d000      	beq.n	10001fd6 <_etoa+0x2e>
10001fd4:	e0d8      	b.n	10002188 <_etoa+0x1e0>
10001fd6:	2201      	movs	r2, #1
10001fd8:	4640      	mov	r0, r8
10001fda:	4651      	mov	r1, sl
10001fdc:	4b77      	ldr	r3, [pc, #476]	; (100021bc <_etoa+0x214>)
10001fde:	4252      	negs	r2, r2
10001fe0:	f001 fcac 	bl	1000393c <__wrap___aeabi_dcmpgt>
10001fe4:	2800      	cmp	r0, #0
10001fe6:	d000      	beq.n	10001fea <_etoa+0x42>
10001fe8:	e0ce      	b.n	10002188 <_etoa+0x1e0>
10001fea:	2201      	movs	r2, #1
10001fec:	4640      	mov	r0, r8
10001fee:	4651      	mov	r1, sl
10001ff0:	4b73      	ldr	r3, [pc, #460]	; (100021c0 <_etoa+0x218>)
10001ff2:	4252      	negs	r2, r2
10001ff4:	f001 fc8c 	bl	10003910 <__wrap___aeabi_dcmplt>
10001ff8:	2800      	cmp	r0, #0
10001ffa:	d000      	beq.n	10001ffe <_etoa+0x56>
10001ffc:	e0c4      	b.n	10002188 <_etoa+0x1e0>
10001ffe:	2200      	movs	r2, #0
10002000:	2300      	movs	r3, #0
10002002:	4640      	mov	r0, r8
10002004:	4651      	mov	r1, sl
10002006:	f001 fc83 	bl	10003910 <__wrap___aeabi_dcmplt>
1000200a:	2800      	cmp	r0, #0
1000200c:	d000      	beq.n	10002010 <_etoa+0x68>
1000200e:	e1b9      	b.n	10002384 <_etoa+0x3dc>
10002010:	4642      	mov	r2, r8
10002012:	4653      	mov	r3, sl
10002014:	920a      	str	r2, [sp, #40]	; 0x28
10002016:	9309      	str	r3, [sp, #36]	; 0x24
10002018:	2380      	movs	r3, #128	; 0x80
1000201a:	9a28      	ldr	r2, [sp, #160]	; 0xa0
1000201c:	00db      	lsls	r3, r3, #3
1000201e:	401a      	ands	r2, r3
10002020:	920e      	str	r2, [sp, #56]	; 0x38
10002022:	9a28      	ldr	r2, [sp, #160]	; 0xa0
10002024:	421a      	tst	r2, r3
10002026:	d101      	bne.n	1000202c <_etoa+0x84>
10002028:	2306      	movs	r3, #6
1000202a:	9326      	str	r3, [sp, #152]	; 0x98
1000202c:	9a0a      	ldr	r2, [sp, #40]	; 0x28
1000202e:	9b09      	ldr	r3, [sp, #36]	; 0x24
10002030:	0016      	movs	r6, r2
10002032:	4313      	orrs	r3, r2
10002034:	d000      	beq.n	10002038 <_etoa+0x90>
10002036:	e0c7      	b.n	100021c8 <_etoa+0x220>
10002038:	9b28      	ldr	r3, [sp, #160]	; 0xa0
1000203a:	2500      	movs	r5, #0
1000203c:	2600      	movs	r6, #0
1000203e:	051b      	lsls	r3, r3, #20
10002040:	d400      	bmi.n	10002044 <_etoa+0x9c>
10002042:	e19b      	b.n	1000237c <_etoa+0x3d4>
10002044:	2300      	movs	r3, #0
10002046:	930d      	str	r3, [sp, #52]	; 0x34
10002048:	9a26      	ldr	r2, [sp, #152]	; 0x98
1000204a:	9b0d      	ldr	r3, [sp, #52]	; 0x34
1000204c:	429a      	cmp	r2, r3
1000204e:	dc00      	bgt.n	10002052 <_etoa+0xaa>
10002050:	e19f      	b.n	10002392 <_etoa+0x3ea>
10002052:	1ad0      	subs	r0, r2, r3
10002054:	1e43      	subs	r3, r0, #1
10002056:	9326      	str	r3, [sp, #152]	; 0x98
10002058:	2380      	movs	r3, #128	; 0x80
1000205a:	9a28      	ldr	r2, [sp, #160]	; 0xa0
1000205c:	00db      	lsls	r3, r3, #3
1000205e:	431a      	orrs	r2, r3
10002060:	2300      	movs	r3, #0
10002062:	2700      	movs	r7, #0
10002064:	9228      	str	r2, [sp, #160]	; 0xa0
10002066:	930d      	str	r3, [sp, #52]	; 0x34
10002068:	9b27      	ldr	r3, [sp, #156]	; 0x9c
1000206a:	2400      	movs	r4, #0
1000206c:	42bb      	cmp	r3, r7
1000206e:	d900      	bls.n	10002072 <_etoa+0xca>
10002070:	1bdc      	subs	r4, r3, r7
10002072:	2302      	movs	r3, #2
10002074:	9a28      	ldr	r2, [sp, #160]	; 0xa0
10002076:	401a      	ands	r2, r3
10002078:	920e      	str	r2, [sp, #56]	; 0x38
1000207a:	9a28      	ldr	r2, [sp, #160]	; 0xa0
1000207c:	4213      	tst	r3, r2
1000207e:	d003      	beq.n	10002088 <_etoa+0xe0>
10002080:	427b      	negs	r3, r7
10002082:	417b      	adcs	r3, r7
10002084:	425b      	negs	r3, r3
10002086:	401c      	ands	r4, r3
10002088:	9b0d      	ldr	r3, [sp, #52]	; 0x34
1000208a:	2b00      	cmp	r3, #0
1000208c:	d007      	beq.n	1000209e <_etoa+0xf6>
1000208e:	980a      	ldr	r0, [sp, #40]	; 0x28
10002090:	9909      	ldr	r1, [sp, #36]	; 0x24
10002092:	002a      	movs	r2, r5
10002094:	0033      	movs	r3, r6
10002096:	f001 fbda 	bl	1000384e <__wrap___aeabi_ddiv>
1000209a:	900a      	str	r0, [sp, #40]	; 0x28
1000209c:	9109      	str	r1, [sp, #36]	; 0x24
1000209e:	2200      	movs	r2, #0
100020a0:	2300      	movs	r3, #0
100020a2:	4640      	mov	r0, r8
100020a4:	4651      	mov	r1, sl
100020a6:	f001 fc33 	bl	10003910 <__wrap___aeabi_dcmplt>
100020aa:	2800      	cmp	r0, #0
100020ac:	d005      	beq.n	100020ba <_etoa+0x112>
100020ae:	2080      	movs	r0, #128	; 0x80
100020b0:	0600      	lsls	r0, r0, #24
100020b2:	4684      	mov	ip, r0
100020b4:	9909      	ldr	r1, [sp, #36]	; 0x24
100020b6:	4461      	add	r1, ip
100020b8:	9109      	str	r1, [sp, #36]	; 0x24
100020ba:	9a28      	ldr	r2, [sp, #160]	; 0xa0
100020bc:	4b41      	ldr	r3, [pc, #260]	; (100021c4 <_etoa+0x21c>)
100020be:	9d0b      	ldr	r5, [sp, #44]	; 0x2c
100020c0:	4013      	ands	r3, r2
100020c2:	9304      	str	r3, [sp, #16]
100020c4:	9b26      	ldr	r3, [sp, #152]	; 0x98
100020c6:	9a0a      	ldr	r2, [sp, #40]	; 0x28
100020c8:	9302      	str	r3, [sp, #8]
100020ca:	9b09      	ldr	r3, [sp, #36]	; 0x24
100020cc:	9403      	str	r4, [sp, #12]
100020ce:	9200      	str	r2, [sp, #0]
100020d0:	9301      	str	r3, [sp, #4]
100020d2:	4649      	mov	r1, r9
100020d4:	465b      	mov	r3, fp
100020d6:	0028      	movs	r0, r5
100020d8:	9a0c      	ldr	r2, [sp, #48]	; 0x30
100020da:	f000 f98b 	bl	100023f4 <_ftoa>
100020de:	0004      	movs	r4, r0
100020e0:	2f00      	cmp	r7, #0
100020e2:	d062      	beq.n	100021aa <_etoa+0x202>
100020e4:	9b28      	ldr	r3, [sp, #160]	; 0xa0
100020e6:	0022      	movs	r2, r4
100020e8:	0698      	lsls	r0, r3, #26
100020ea:	231f      	movs	r3, #31
100020ec:	17c0      	asrs	r0, r0, #31
100020ee:	4398      	bics	r0, r3
100020f0:	1c63      	adds	r3, r4, #1
100020f2:	4698      	mov	r8, r3
100020f4:	4649      	mov	r1, r9
100020f6:	465b      	mov	r3, fp
100020f8:	3065      	adds	r0, #101	; 0x65
100020fa:	47a8      	blx	r5
100020fc:	9b0d      	ldr	r3, [sp, #52]	; 0x34
100020fe:	2500      	movs	r5, #0
10002100:	17da      	asrs	r2, r3, #31
10002102:	189c      	adds	r4, r3, r2
10002104:	0fdb      	lsrs	r3, r3, #31
10002106:	469a      	mov	sl, r3
10002108:	4054      	eors	r4, r2
1000210a:	3f01      	subs	r7, #1
1000210c:	e001      	b.n	10002112 <_etoa+0x16a>
1000210e:	2d20      	cmp	r5, #32
10002110:	d013      	beq.n	1000213a <_etoa+0x192>
10002112:	aa0a      	add	r2, sp, #40	; 0x28
10002114:	4694      	mov	ip, r2
10002116:	231f      	movs	r3, #31
10002118:	0020      	movs	r0, r4
1000211a:	4463      	add	r3, ip
1000211c:	210a      	movs	r1, #10
1000211e:	3501      	adds	r5, #1
10002120:	195e      	adds	r6, r3, r5
10002122:	f001 f93f 	bl	100033a4 <__wrap___aeabi_uidiv>
10002126:	3130      	adds	r1, #48	; 0x30
10002128:	7031      	strb	r1, [r6, #0]
1000212a:	0020      	movs	r0, r4
1000212c:	210a      	movs	r1, #10
1000212e:	f001 f939 	bl	100033a4 <__wrap___aeabi_uidiv>
10002132:	0026      	movs	r6, r4
10002134:	0004      	movs	r4, r0
10002136:	2e09      	cmp	r6, #9
10002138:	d8e9      	bhi.n	1000210e <_etoa+0x166>
1000213a:	2305      	movs	r3, #5
1000213c:	9306      	str	r3, [sp, #24]
1000213e:	2300      	movs	r3, #0
10002140:	9304      	str	r3, [sp, #16]
10002142:	330a      	adds	r3, #10
10002144:	9303      	str	r3, [sp, #12]
10002146:	4653      	mov	r3, sl
10002148:	9705      	str	r7, [sp, #20]
1000214a:	9f0b      	ldr	r7, [sp, #44]	; 0x2c
1000214c:	9302      	str	r3, [sp, #8]
1000214e:	ab12      	add	r3, sp, #72	; 0x48
10002150:	9300      	str	r3, [sp, #0]
10002152:	4642      	mov	r2, r8
10002154:	465b      	mov	r3, fp
10002156:	4649      	mov	r1, r9
10002158:	0038      	movs	r0, r7
1000215a:	9501      	str	r5, [sp, #4]
1000215c:	f7ff fe2e 	bl	10001dbc <_ntoa_format>
10002160:	9b0e      	ldr	r3, [sp, #56]	; 0x38
10002162:	0004      	movs	r4, r0
10002164:	2b00      	cmp	r3, #0
10002166:	d020      	beq.n	100021aa <_etoa+0x202>
10002168:	9b0c      	ldr	r3, [sp, #48]	; 0x30
1000216a:	1ac5      	subs	r5, r0, r3
1000216c:	9b27      	ldr	r3, [sp, #156]	; 0x9c
1000216e:	42ab      	cmp	r3, r5
10002170:	d91b      	bls.n	100021aa <_etoa+0x202>
10002172:	001e      	movs	r6, r3
10002174:	0022      	movs	r2, r4
10002176:	465b      	mov	r3, fp
10002178:	4649      	mov	r1, r9
1000217a:	2020      	movs	r0, #32
1000217c:	3501      	adds	r5, #1
1000217e:	47b8      	blx	r7
10002180:	3401      	adds	r4, #1
10002182:	42ae      	cmp	r6, r5
10002184:	d8f6      	bhi.n	10002174 <_etoa+0x1cc>
10002186:	e010      	b.n	100021aa <_etoa+0x202>
10002188:	9b28      	ldr	r3, [sp, #160]	; 0xa0
1000218a:	4642      	mov	r2, r8
1000218c:	9304      	str	r3, [sp, #16]
1000218e:	9b27      	ldr	r3, [sp, #156]	; 0x9c
10002190:	4649      	mov	r1, r9
10002192:	9303      	str	r3, [sp, #12]
10002194:	9b26      	ldr	r3, [sp, #152]	; 0x98
10002196:	980b      	ldr	r0, [sp, #44]	; 0x2c
10002198:	9302      	str	r3, [sp, #8]
1000219a:	4653      	mov	r3, sl
1000219c:	9200      	str	r2, [sp, #0]
1000219e:	9301      	str	r3, [sp, #4]
100021a0:	465b      	mov	r3, fp
100021a2:	9a0c      	ldr	r2, [sp, #48]	; 0x30
100021a4:	f000 f926 	bl	100023f4 <_ftoa>
100021a8:	0004      	movs	r4, r0
100021aa:	0020      	movs	r0, r4
100021ac:	b01b      	add	sp, #108	; 0x6c
100021ae:	bcf0      	pop	{r4, r5, r6, r7}
100021b0:	46bb      	mov	fp, r7
100021b2:	46b2      	mov	sl, r6
100021b4:	46a9      	mov	r9, r5
100021b6:	46a0      	mov	r8, r4
100021b8:	bdf0      	pop	{r4, r5, r6, r7, pc}
100021ba:	46c0      	nop			; (mov r8, r8)
100021bc:	7fefffff 	.word	0x7fefffff
100021c0:	ffefffff 	.word	0xffefffff
100021c4:	fffff7ff 	.word	0xfffff7ff
100021c8:	4b73      	ldr	r3, [pc, #460]	; (10002398 <_etoa+0x3f0>)
100021ca:	9f09      	ldr	r7, [sp, #36]	; 0x24
100021cc:	469c      	mov	ip, r3
100021ce:	0078      	lsls	r0, r7, #1
100021d0:	0d40      	lsrs	r0, r0, #21
100021d2:	4460      	add	r0, ip
100021d4:	f001 fbca 	bl	1000396c <__wrap___aeabi_i2d>
100021d8:	4a70      	ldr	r2, [pc, #448]	; (1000239c <_etoa+0x3f4>)
100021da:	4b71      	ldr	r3, [pc, #452]	; (100023a0 <_etoa+0x3f8>)
100021dc:	f001 fb55 	bl	1000388a <__wrap___aeabi_dmul>
100021e0:	4a70      	ldr	r2, [pc, #448]	; (100023a4 <_etoa+0x3fc>)
100021e2:	4b71      	ldr	r3, [pc, #452]	; (100023a8 <_etoa+0x400>)
100021e4:	f001 fb2a 	bl	1000383c <__wrap___aeabi_dadd>
100021e8:	033b      	lsls	r3, r7, #12
100021ea:	4a70      	ldr	r2, [pc, #448]	; (100023ac <_etoa+0x404>)
100021ec:	0b1b      	lsrs	r3, r3, #12
100021ee:	431a      	orrs	r2, r3
100021f0:	0004      	movs	r4, r0
100021f2:	000d      	movs	r5, r1
100021f4:	0030      	movs	r0, r6
100021f6:	0011      	movs	r1, r2
100021f8:	4b6d      	ldr	r3, [pc, #436]	; (100023b0 <_etoa+0x408>)
100021fa:	2200      	movs	r2, #0
100021fc:	f001 fb15 	bl	1000382a <__wrap___aeabi_dsub>
10002200:	4a6c      	ldr	r2, [pc, #432]	; (100023b4 <_etoa+0x40c>)
10002202:	4b6d      	ldr	r3, [pc, #436]	; (100023b8 <_etoa+0x410>)
10002204:	f001 fb41 	bl	1000388a <__wrap___aeabi_dmul>
10002208:	0002      	movs	r2, r0
1000220a:	000b      	movs	r3, r1
1000220c:	0020      	movs	r0, r4
1000220e:	0029      	movs	r1, r5
10002210:	f001 fb14 	bl	1000383c <__wrap___aeabi_dadd>
10002214:	f001 fbc2 	bl	1000399c <__wrap___aeabi_d2iz>
10002218:	900d      	str	r0, [sp, #52]	; 0x34
1000221a:	f001 fba7 	bl	1000396c <__wrap___aeabi_i2d>
1000221e:	4a67      	ldr	r2, [pc, #412]	; (100023bc <_etoa+0x414>)
10002220:	4b67      	ldr	r3, [pc, #412]	; (100023c0 <_etoa+0x418>)
10002222:	0004      	movs	r4, r0
10002224:	000d      	movs	r5, r1
10002226:	f001 fb30 	bl	1000388a <__wrap___aeabi_dmul>
1000222a:	2200      	movs	r2, #0
1000222c:	4b65      	ldr	r3, [pc, #404]	; (100023c4 <_etoa+0x41c>)
1000222e:	f001 fb05 	bl	1000383c <__wrap___aeabi_dadd>
10002232:	f001 fbb3 	bl	1000399c <__wrap___aeabi_d2iz>
10002236:	4a64      	ldr	r2, [pc, #400]	; (100023c8 <_etoa+0x420>)
10002238:	0006      	movs	r6, r0
1000223a:	4b64      	ldr	r3, [pc, #400]	; (100023cc <_etoa+0x424>)
1000223c:	0020      	movs	r0, r4
1000223e:	0029      	movs	r1, r5
10002240:	f001 fb23 	bl	1000388a <__wrap___aeabi_dmul>
10002244:	0004      	movs	r4, r0
10002246:	0030      	movs	r0, r6
10002248:	000d      	movs	r5, r1
1000224a:	960f      	str	r6, [sp, #60]	; 0x3c
1000224c:	f001 fb8e 	bl	1000396c <__wrap___aeabi_i2d>
10002250:	4a5f      	ldr	r2, [pc, #380]	; (100023d0 <_etoa+0x428>)
10002252:	4b60      	ldr	r3, [pc, #384]	; (100023d4 <_etoa+0x42c>)
10002254:	f001 fb19 	bl	1000388a <__wrap___aeabi_dmul>
10002258:	0002      	movs	r2, r0
1000225a:	000b      	movs	r3, r1
1000225c:	0020      	movs	r0, r4
1000225e:	0029      	movs	r1, r5
10002260:	f001 fae3 	bl	1000382a <__wrap___aeabi_dsub>
10002264:	0002      	movs	r2, r0
10002266:	000b      	movs	r3, r1
10002268:	0006      	movs	r6, r0
1000226a:	000f      	movs	r7, r1
1000226c:	f001 fb0d 	bl	1000388a <__wrap___aeabi_dmul>
10002270:	0032      	movs	r2, r6
10002272:	0004      	movs	r4, r0
10002274:	000d      	movs	r5, r1
10002276:	003b      	movs	r3, r7
10002278:	0030      	movs	r0, r6
1000227a:	0039      	movs	r1, r7
1000227c:	f001 fade 	bl	1000383c <__wrap___aeabi_dadd>
10002280:	2200      	movs	r2, #0
10002282:	9010      	str	r0, [sp, #64]	; 0x40
10002284:	9111      	str	r1, [sp, #68]	; 0x44
10002286:	4b54      	ldr	r3, [pc, #336]	; (100023d8 <_etoa+0x430>)
10002288:	0020      	movs	r0, r4
1000228a:	0029      	movs	r1, r5
1000228c:	f001 fadf 	bl	1000384e <__wrap___aeabi_ddiv>
10002290:	2200      	movs	r2, #0
10002292:	4b52      	ldr	r3, [pc, #328]	; (100023dc <_etoa+0x434>)
10002294:	f001 fad2 	bl	1000383c <__wrap___aeabi_dadd>
10002298:	0002      	movs	r2, r0
1000229a:	000b      	movs	r3, r1
1000229c:	0020      	movs	r0, r4
1000229e:	0029      	movs	r1, r5
100022a0:	f001 fad5 	bl	1000384e <__wrap___aeabi_ddiv>
100022a4:	2200      	movs	r2, #0
100022a6:	4b4e      	ldr	r3, [pc, #312]	; (100023e0 <_etoa+0x438>)
100022a8:	f001 fac8 	bl	1000383c <__wrap___aeabi_dadd>
100022ac:	0002      	movs	r2, r0
100022ae:	000b      	movs	r3, r1
100022b0:	0020      	movs	r0, r4
100022b2:	0029      	movs	r1, r5
100022b4:	f001 facb 	bl	1000384e <__wrap___aeabi_ddiv>
100022b8:	000d      	movs	r5, r1
100022ba:	2180      	movs	r1, #128	; 0x80
100022bc:	0004      	movs	r4, r0
100022be:	0032      	movs	r2, r6
100022c0:	003b      	movs	r3, r7
100022c2:	2000      	movs	r0, #0
100022c4:	05c9      	lsls	r1, r1, #23
100022c6:	f001 fab0 	bl	1000382a <__wrap___aeabi_dsub>
100022ca:	0002      	movs	r2, r0
100022cc:	000b      	movs	r3, r1
100022ce:	0020      	movs	r0, r4
100022d0:	0029      	movs	r1, r5
100022d2:	f001 fab3 	bl	1000383c <__wrap___aeabi_dadd>
100022d6:	0002      	movs	r2, r0
100022d8:	000b      	movs	r3, r1
100022da:	9810      	ldr	r0, [sp, #64]	; 0x40
100022dc:	9911      	ldr	r1, [sp, #68]	; 0x44
100022de:	f001 fab6 	bl	1000384e <__wrap___aeabi_ddiv>
100022e2:	2200      	movs	r2, #0
100022e4:	4b31      	ldr	r3, [pc, #196]	; (100023ac <_etoa+0x404>)
100022e6:	f001 faa9 	bl	1000383c <__wrap___aeabi_dadd>
100022ea:	4b3e      	ldr	r3, [pc, #248]	; (100023e4 <_etoa+0x43c>)
100022ec:	9c0f      	ldr	r4, [sp, #60]	; 0x3c
100022ee:	469c      	mov	ip, r3
100022f0:	4464      	add	r4, ip
100022f2:	2200      	movs	r2, #0
100022f4:	0523      	lsls	r3, r4, #20
100022f6:	f001 fac8 	bl	1000388a <__wrap___aeabi_dmul>
100022fa:	0005      	movs	r5, r0
100022fc:	000e      	movs	r6, r1
100022fe:	0002      	movs	r2, r0
10002300:	000b      	movs	r3, r1
10002302:	980a      	ldr	r0, [sp, #40]	; 0x28
10002304:	9909      	ldr	r1, [sp, #36]	; 0x24
10002306:	f001 fb03 	bl	10003910 <__wrap___aeabi_dcmplt>
1000230a:	2800      	cmp	r0, #0
1000230c:	d00a      	beq.n	10002324 <_etoa+0x37c>
1000230e:	9b0d      	ldr	r3, [sp, #52]	; 0x34
10002310:	0028      	movs	r0, r5
10002312:	3b01      	subs	r3, #1
10002314:	0031      	movs	r1, r6
10002316:	930d      	str	r3, [sp, #52]	; 0x34
10002318:	2200      	movs	r2, #0
1000231a:	4b30      	ldr	r3, [pc, #192]	; (100023dc <_etoa+0x434>)
1000231c:	f001 fa97 	bl	1000384e <__wrap___aeabi_ddiv>
10002320:	0005      	movs	r5, r0
10002322:	000e      	movs	r6, r1
10002324:	27c6      	movs	r7, #198	; 0xc6
10002326:	990d      	ldr	r1, [sp, #52]	; 0x34
10002328:	002b      	movs	r3, r5
1000232a:	3163      	adds	r1, #99	; 0x63
1000232c:	428f      	cmp	r7, r1
1000232e:	41bf      	sbcs	r7, r7
10002330:	9928      	ldr	r1, [sp, #160]	; 0xa0
10002332:	427f      	negs	r7, r7
10002334:	3704      	adds	r7, #4
10002336:	0509      	lsls	r1, r1, #20
10002338:	d400      	bmi.n	1000233c <_etoa+0x394>
1000233a:	e695      	b.n	10002068 <_etoa+0xc0>
1000233c:	4333      	orrs	r3, r6
1000233e:	d100      	bne.n	10002342 <_etoa+0x39a>
10002340:	e682      	b.n	10002048 <_etoa+0xa0>
10002342:	9c09      	ldr	r4, [sp, #36]	; 0x24
10002344:	4a28      	ldr	r2, [pc, #160]	; (100023e8 <_etoa+0x440>)
10002346:	0021      	movs	r1, r4
10002348:	4b28      	ldr	r3, [pc, #160]	; (100023ec <_etoa+0x444>)
1000234a:	980a      	ldr	r0, [sp, #40]	; 0x28
1000234c:	f001 faee 	bl	1000392c <__wrap___aeabi_dcmpge>
10002350:	2800      	cmp	r0, #0
10002352:	d008      	beq.n	10002366 <_etoa+0x3be>
10002354:	2200      	movs	r2, #0
10002356:	0021      	movs	r1, r4
10002358:	4b25      	ldr	r3, [pc, #148]	; (100023f0 <_etoa+0x448>)
1000235a:	980a      	ldr	r0, [sp, #40]	; 0x28
1000235c:	f001 fad8 	bl	10003910 <__wrap___aeabi_dcmplt>
10002360:	2800      	cmp	r0, #0
10002362:	d000      	beq.n	10002366 <_etoa+0x3be>
10002364:	e670      	b.n	10002048 <_etoa+0xa0>
10002366:	9b26      	ldr	r3, [sp, #152]	; 0x98
10002368:	2b00      	cmp	r3, #0
1000236a:	d100      	bne.n	1000236e <_etoa+0x3c6>
1000236c:	e67c      	b.n	10002068 <_etoa+0xc0>
1000236e:	9b0e      	ldr	r3, [sp, #56]	; 0x38
10002370:	1e5a      	subs	r2, r3, #1
10002372:	4193      	sbcs	r3, r2
10002374:	9a26      	ldr	r2, [sp, #152]	; 0x98
10002376:	1ad3      	subs	r3, r2, r3
10002378:	9326      	str	r3, [sp, #152]	; 0x98
1000237a:	e675      	b.n	10002068 <_etoa+0xc0>
1000237c:	2300      	movs	r3, #0
1000237e:	2704      	movs	r7, #4
10002380:	930d      	str	r3, [sp, #52]	; 0x34
10002382:	e671      	b.n	10002068 <_etoa+0xc0>
10002384:	4643      	mov	r3, r8
10002386:	930a      	str	r3, [sp, #40]	; 0x28
10002388:	2380      	movs	r3, #128	; 0x80
1000238a:	061b      	lsls	r3, r3, #24
1000238c:	4453      	add	r3, sl
1000238e:	9309      	str	r3, [sp, #36]	; 0x24
10002390:	e642      	b.n	10002018 <_etoa+0x70>
10002392:	2300      	movs	r3, #0
10002394:	9326      	str	r3, [sp, #152]	; 0x98
10002396:	e65f      	b.n	10002058 <_etoa+0xb0>
10002398:	fffffc01 	.word	0xfffffc01
1000239c:	509f79fb 	.word	0x509f79fb
100023a0:	3fd34413 	.word	0x3fd34413
100023a4:	8b60c8b3 	.word	0x8b60c8b3
100023a8:	3fc68a28 	.word	0x3fc68a28
100023ac:	3ff00000 	.word	0x3ff00000
100023b0:	3ff80000 	.word	0x3ff80000
100023b4:	636f4361 	.word	0x636f4361
100023b8:	3fd287a7 	.word	0x3fd287a7
100023bc:	0979a371 	.word	0x0979a371
100023c0:	400a934f 	.word	0x400a934f
100023c4:	3fe00000 	.word	0x3fe00000
100023c8:	bbb55516 	.word	0xbbb55516
100023cc:	40026bb1 	.word	0x40026bb1
100023d0:	fefa39ef 	.word	0xfefa39ef
100023d4:	3fe62e42 	.word	0x3fe62e42
100023d8:	402c0000 	.word	0x402c0000
100023dc:	40240000 	.word	0x40240000
100023e0:	40180000 	.word	0x40180000
100023e4:	000003ff 	.word	0x000003ff
100023e8:	eb1c432d 	.word	0xeb1c432d
100023ec:	3f1a36e2 	.word	0x3f1a36e2
100023f0:	412e8480 	.word	0x412e8480

100023f4 <_ftoa>:
100023f4:	b5f0      	push	{r4, r5, r6, r7, lr}
100023f6:	464e      	mov	r6, r9
100023f8:	46de      	mov	lr, fp
100023fa:	4657      	mov	r7, sl
100023fc:	4645      	mov	r5, r8
100023fe:	b5e0      	push	{r5, r6, r7, lr}
10002400:	b097      	sub	sp, #92	; 0x5c
10002402:	4699      	mov	r9, r3
10002404:	9e20      	ldr	r6, [sp, #128]	; 0x80
10002406:	9f21      	ldr	r7, [sp, #132]	; 0x84
10002408:	9b22      	ldr	r3, [sp, #136]	; 0x88
1000240a:	4683      	mov	fp, r0
1000240c:	4698      	mov	r8, r3
1000240e:	9107      	str	r1, [sp, #28]
10002410:	920c      	str	r2, [sp, #48]	; 0x30
10002412:	003b      	movs	r3, r7
10002414:	0032      	movs	r2, r6
10002416:	0030      	movs	r0, r6
10002418:	0039      	movs	r1, r7
1000241a:	f001 fa94 	bl	10003946 <__wrap___aeabi_dcmpun>
1000241e:	2800      	cmp	r0, #0
10002420:	d000      	beq.n	10002424 <_ftoa+0x30>
10002422:	e1a9      	b.n	10002778 <_ftoa+0x384>
10002424:	2201      	movs	r2, #1
10002426:	0030      	movs	r0, r6
10002428:	0039      	movs	r1, r7
1000242a:	4bca      	ldr	r3, [pc, #808]	; (10002754 <_ftoa+0x360>)
1000242c:	4252      	negs	r2, r2
1000242e:	f001 fa6f 	bl	10003910 <__wrap___aeabi_dcmplt>
10002432:	2800      	cmp	r0, #0
10002434:	d000      	beq.n	10002438 <_ftoa+0x44>
10002436:	e0e1      	b.n	100025fc <_ftoa+0x208>
10002438:	2201      	movs	r2, #1
1000243a:	0030      	movs	r0, r6
1000243c:	0039      	movs	r1, r7
1000243e:	4bc6      	ldr	r3, [pc, #792]	; (10002758 <_ftoa+0x364>)
10002440:	4252      	negs	r2, r2
10002442:	f001 fa7b 	bl	1000393c <__wrap___aeabi_dcmpgt>
10002446:	2800      	cmp	r0, #0
10002448:	d000      	beq.n	1000244c <_ftoa+0x58>
1000244a:	e0b7      	b.n	100025bc <_ftoa+0x1c8>
1000244c:	2200      	movs	r2, #0
1000244e:	0030      	movs	r0, r6
10002450:	0039      	movs	r1, r7
10002452:	4bc2      	ldr	r3, [pc, #776]	; (1000275c <_ftoa+0x368>)
10002454:	f001 fa72 	bl	1000393c <__wrap___aeabi_dcmpgt>
10002458:	2800      	cmp	r0, #0
1000245a:	d000      	beq.n	1000245e <_ftoa+0x6a>
1000245c:	e099      	b.n	10002592 <_ftoa+0x19e>
1000245e:	2200      	movs	r2, #0
10002460:	0030      	movs	r0, r6
10002462:	0039      	movs	r1, r7
10002464:	4bbe      	ldr	r3, [pc, #760]	; (10002760 <_ftoa+0x36c>)
10002466:	f001 fa53 	bl	10003910 <__wrap___aeabi_dcmplt>
1000246a:	2800      	cmp	r0, #0
1000246c:	d000      	beq.n	10002470 <_ftoa+0x7c>
1000246e:	e090      	b.n	10002592 <_ftoa+0x19e>
10002470:	2200      	movs	r2, #0
10002472:	2300      	movs	r3, #0
10002474:	0030      	movs	r0, r6
10002476:	0039      	movs	r1, r7
10002478:	f001 fa4a 	bl	10003910 <__wrap___aeabi_dcmplt>
1000247c:	2800      	cmp	r0, #0
1000247e:	d000      	beq.n	10002482 <_ftoa+0x8e>
10002480:	e0b1      	b.n	100025e6 <_ftoa+0x1f2>
10002482:	2300      	movs	r3, #0
10002484:	930d      	str	r3, [sp, #52]	; 0x34
10002486:	9b24      	ldr	r3, [sp, #144]	; 0x90
10002488:	055b      	lsls	r3, r3, #21
1000248a:	d401      	bmi.n	10002490 <_ftoa+0x9c>
1000248c:	2306      	movs	r3, #6
1000248e:	4698      	mov	r8, r3
10002490:	ab08      	add	r3, sp, #32
10002492:	469c      	mov	ip, r3
10002494:	2217      	movs	r2, #23
10002496:	2400      	movs	r4, #0
10002498:	2330      	movs	r3, #48	; 0x30
1000249a:	4641      	mov	r1, r8
1000249c:	4462      	add	r2, ip
1000249e:	e004      	b.n	100024aa <_ftoa+0xb6>
100024a0:	3401      	adds	r4, #1
100024a2:	5513      	strb	r3, [r2, r4]
100024a4:	3901      	subs	r1, #1
100024a6:	2c20      	cmp	r4, #32
100024a8:	d001      	beq.n	100024ae <_ftoa+0xba>
100024aa:	2909      	cmp	r1, #9
100024ac:	d8f8      	bhi.n	100024a0 <_ftoa+0xac>
100024ae:	4688      	mov	r8, r1
100024b0:	0030      	movs	r0, r6
100024b2:	0039      	movs	r1, r7
100024b4:	f001 fa72 	bl	1000399c <__wrap___aeabi_d2iz>
100024b8:	4643      	mov	r3, r8
100024ba:	00da      	lsls	r2, r3, #3
100024bc:	4ba9      	ldr	r3, [pc, #676]	; (10002764 <_ftoa+0x370>)
100024be:	0005      	movs	r5, r0
100024c0:	189b      	adds	r3, r3, r2
100024c2:	681a      	ldr	r2, [r3, #0]
100024c4:	685b      	ldr	r3, [r3, #4]
100024c6:	9208      	str	r2, [sp, #32]
100024c8:	9309      	str	r3, [sp, #36]	; 0x24
100024ca:	f001 fa4f 	bl	1000396c <__wrap___aeabi_i2d>
100024ce:	0002      	movs	r2, r0
100024d0:	000b      	movs	r3, r1
100024d2:	0030      	movs	r0, r6
100024d4:	0039      	movs	r1, r7
100024d6:	f001 f9a8 	bl	1000382a <__wrap___aeabi_dsub>
100024da:	9a08      	ldr	r2, [sp, #32]
100024dc:	9b09      	ldr	r3, [sp, #36]	; 0x24
100024de:	f001 f9d4 	bl	1000388a <__wrap___aeabi_dmul>
100024e2:	900a      	str	r0, [sp, #40]	; 0x28
100024e4:	910b      	str	r1, [sp, #44]	; 0x2c
100024e6:	f001 fa7d 	bl	100039e4 <__wrap___aeabi_d2uiz>
100024ea:	4682      	mov	sl, r0
100024ec:	f001 fa3a 	bl	10003964 <__wrap___aeabi_ui2d>
100024f0:	0002      	movs	r2, r0
100024f2:	000b      	movs	r3, r1
100024f4:	980a      	ldr	r0, [sp, #40]	; 0x28
100024f6:	990b      	ldr	r1, [sp, #44]	; 0x2c
100024f8:	f001 f997 	bl	1000382a <__wrap___aeabi_dsub>
100024fc:	2200      	movs	r2, #0
100024fe:	4b9a      	ldr	r3, [pc, #616]	; (10002768 <_ftoa+0x374>)
10002500:	900a      	str	r0, [sp, #40]	; 0x28
10002502:	910b      	str	r1, [sp, #44]	; 0x2c
10002504:	f001 fa1a 	bl	1000393c <__wrap___aeabi_dcmpgt>
10002508:	2800      	cmp	r0, #0
1000250a:	d100      	bne.n	1000250e <_ftoa+0x11a>
1000250c:	e0c0      	b.n	10002690 <_ftoa+0x29c>
1000250e:	2301      	movs	r3, #1
10002510:	469c      	mov	ip, r3
10002512:	44e2      	add	sl, ip
10002514:	4650      	mov	r0, sl
10002516:	f001 fa25 	bl	10003964 <__wrap___aeabi_ui2d>
1000251a:	0002      	movs	r2, r0
1000251c:	000b      	movs	r3, r1
1000251e:	9808      	ldr	r0, [sp, #32]
10002520:	9909      	ldr	r1, [sp, #36]	; 0x24
10002522:	f001 f9fb 	bl	1000391c <__wrap___aeabi_dcmple>
10002526:	2800      	cmp	r0, #0
10002528:	d002      	beq.n	10002530 <_ftoa+0x13c>
1000252a:	2300      	movs	r3, #0
1000252c:	469a      	mov	sl, r3
1000252e:	3501      	adds	r5, #1
10002530:	4643      	mov	r3, r8
10002532:	2b00      	cmp	r3, #0
10002534:	d06a      	beq.n	1000260c <_ftoa+0x218>
10002536:	ab08      	add	r3, sp, #32
10002538:	2617      	movs	r6, #23
1000253a:	469c      	mov	ip, r3
1000253c:	9508      	str	r5, [sp, #32]
1000253e:	4466      	add	r6, ip
10002540:	4655      	mov	r5, sl
10002542:	e014      	b.n	1000256e <_ftoa+0x17a>
10002544:	2301      	movs	r3, #1
10002546:	425b      	negs	r3, r3
10002548:	4443      	add	r3, r8
1000254a:	210a      	movs	r1, #10
1000254c:	0028      	movs	r0, r5
1000254e:	469a      	mov	sl, r3
10002550:	f000 ff28 	bl	100033a4 <__wrap___aeabi_uidiv>
10002554:	3401      	adds	r4, #1
10002556:	3130      	adds	r1, #48	; 0x30
10002558:	1937      	adds	r7, r6, r4
1000255a:	7039      	strb	r1, [r7, #0]
1000255c:	0028      	movs	r0, r5
1000255e:	210a      	movs	r1, #10
10002560:	f000 ff20 	bl	100033a4 <__wrap___aeabi_uidiv>
10002564:	2d09      	cmp	r5, #9
10002566:	d800      	bhi.n	1000256a <_ftoa+0x176>
10002568:	e0d0      	b.n	1000270c <_ftoa+0x318>
1000256a:	46d0      	mov	r8, sl
1000256c:	0005      	movs	r5, r0
1000256e:	2c20      	cmp	r4, #32
10002570:	d1e8      	bne.n	10002544 <_ftoa+0x150>
10002572:	ab0e      	add	r3, sp, #56	; 0x38
10002574:	4698      	mov	r8, r3
10002576:	2303      	movs	r3, #3
10002578:	9a24      	ldr	r2, [sp, #144]	; 0x90
1000257a:	4013      	ands	r3, r2
1000257c:	2b01      	cmp	r3, #1
1000257e:	d100      	bne.n	10002582 <_ftoa+0x18e>
10002580:	e096      	b.n	100026b0 <_ftoa+0x2bc>
10002582:	2320      	movs	r3, #32
10002584:	9a24      	ldr	r2, [sp, #144]	; 0x90
10002586:	9301      	str	r3, [sp, #4]
10002588:	9203      	str	r2, [sp, #12]
1000258a:	9a23      	ldr	r2, [sp, #140]	; 0x8c
1000258c:	4643      	mov	r3, r8
1000258e:	9202      	str	r2, [sp, #8]
10002590:	e01e      	b.n	100025d0 <_ftoa+0x1dc>
10002592:	9b24      	ldr	r3, [sp, #144]	; 0x90
10002594:	4658      	mov	r0, fp
10002596:	9304      	str	r3, [sp, #16]
10002598:	9b23      	ldr	r3, [sp, #140]	; 0x8c
1000259a:	9600      	str	r6, [sp, #0]
1000259c:	9701      	str	r7, [sp, #4]
1000259e:	9303      	str	r3, [sp, #12]
100025a0:	4643      	mov	r3, r8
100025a2:	9a0c      	ldr	r2, [sp, #48]	; 0x30
100025a4:	9302      	str	r3, [sp, #8]
100025a6:	9907      	ldr	r1, [sp, #28]
100025a8:	464b      	mov	r3, r9
100025aa:	f7ff fcfd 	bl	10001fa8 <_etoa>
100025ae:	b017      	add	sp, #92	; 0x5c
100025b0:	bcf0      	pop	{r4, r5, r6, r7}
100025b2:	46bb      	mov	fp, r7
100025b4:	46b2      	mov	sl, r6
100025b6:	46a9      	mov	r9, r5
100025b8:	46a0      	mov	r8, r4
100025ba:	bdf0      	pop	{r4, r5, r6, r7, pc}
100025bc:	9b24      	ldr	r3, [sp, #144]	; 0x90
100025be:	075b      	lsls	r3, r3, #29
100025c0:	d40e      	bmi.n	100025e0 <_ftoa+0x1ec>
100025c2:	2203      	movs	r2, #3
100025c4:	4b69      	ldr	r3, [pc, #420]	; (1000276c <_ftoa+0x378>)
100025c6:	9924      	ldr	r1, [sp, #144]	; 0x90
100025c8:	9201      	str	r2, [sp, #4]
100025ca:	9103      	str	r1, [sp, #12]
100025cc:	9923      	ldr	r1, [sp, #140]	; 0x8c
100025ce:	9102      	str	r1, [sp, #8]
100025d0:	9300      	str	r3, [sp, #0]
100025d2:	4658      	mov	r0, fp
100025d4:	464b      	mov	r3, r9
100025d6:	9a0c      	ldr	r2, [sp, #48]	; 0x30
100025d8:	9907      	ldr	r1, [sp, #28]
100025da:	f7ff fba1 	bl	10001d20 <_out_rev>
100025de:	e7e6      	b.n	100025ae <_ftoa+0x1ba>
100025e0:	2204      	movs	r2, #4
100025e2:	4b63      	ldr	r3, [pc, #396]	; (10002770 <_ftoa+0x37c>)
100025e4:	e7ef      	b.n	100025c6 <_ftoa+0x1d2>
100025e6:	003b      	movs	r3, r7
100025e8:	0032      	movs	r2, r6
100025ea:	2000      	movs	r0, #0
100025ec:	2100      	movs	r1, #0
100025ee:	f001 f91c 	bl	1000382a <__wrap___aeabi_dsub>
100025f2:	2301      	movs	r3, #1
100025f4:	0006      	movs	r6, r0
100025f6:	000f      	movs	r7, r1
100025f8:	930d      	str	r3, [sp, #52]	; 0x34
100025fa:	e744      	b.n	10002486 <_ftoa+0x92>
100025fc:	9b24      	ldr	r3, [sp, #144]	; 0x90
100025fe:	9303      	str	r3, [sp, #12]
10002600:	9b23      	ldr	r3, [sp, #140]	; 0x8c
10002602:	9302      	str	r3, [sp, #8]
10002604:	2304      	movs	r3, #4
10002606:	9301      	str	r3, [sp, #4]
10002608:	4b5a      	ldr	r3, [pc, #360]	; (10002774 <_ftoa+0x380>)
1000260a:	e7e1      	b.n	100025d0 <_ftoa+0x1dc>
1000260c:	0028      	movs	r0, r5
1000260e:	f001 f9ad 	bl	1000396c <__wrap___aeabi_i2d>
10002612:	0002      	movs	r2, r0
10002614:	000b      	movs	r3, r1
10002616:	0030      	movs	r0, r6
10002618:	0039      	movs	r1, r7
1000261a:	f001 f906 	bl	1000382a <__wrap___aeabi_dsub>
1000261e:	4b52      	ldr	r3, [pc, #328]	; (10002768 <_ftoa+0x374>)
10002620:	2200      	movs	r2, #0
10002622:	0006      	movs	r6, r0
10002624:	000f      	movs	r7, r1
10002626:	f001 f973 	bl	10003910 <__wrap___aeabi_dcmplt>
1000262a:	ab0e      	add	r3, sp, #56	; 0x38
1000262c:	4698      	mov	r8, r3
1000262e:	2800      	cmp	r0, #0
10002630:	d10a      	bne.n	10002648 <_ftoa+0x254>
10002632:	2200      	movs	r2, #0
10002634:	0030      	movs	r0, r6
10002636:	0039      	movs	r1, r7
10002638:	4b4b      	ldr	r3, [pc, #300]	; (10002768 <_ftoa+0x374>)
1000263a:	f001 f97f 	bl	1000393c <__wrap___aeabi_dcmpgt>
1000263e:	2800      	cmp	r0, #0
10002640:	d102      	bne.n	10002648 <_ftoa+0x254>
10002642:	07eb      	lsls	r3, r5, #31
10002644:	d500      	bpl.n	10002648 <_ftoa+0x254>
10002646:	3501      	adds	r5, #1
10002648:	2c20      	cmp	r4, #32
1000264a:	d094      	beq.n	10002576 <_ftoa+0x182>
1000264c:	aa08      	add	r2, sp, #32
1000264e:	4694      	mov	ip, r2
10002650:	2317      	movs	r3, #23
10002652:	0028      	movs	r0, r5
10002654:	4463      	add	r3, ip
10002656:	210a      	movs	r1, #10
10002658:	3401      	adds	r4, #1
1000265a:	191e      	adds	r6, r3, r4
1000265c:	f000 fe7a 	bl	10003354 <__wrap___aeabi_idiv>
10002660:	3130      	adds	r1, #48	; 0x30
10002662:	0028      	movs	r0, r5
10002664:	7031      	strb	r1, [r6, #0]
10002666:	210a      	movs	r1, #10
10002668:	f000 fe74 	bl	10003354 <__wrap___aeabi_idiv>
1000266c:	1e05      	subs	r5, r0, #0
1000266e:	d1eb      	bne.n	10002648 <_ftoa+0x254>
10002670:	2303      	movs	r3, #3
10002672:	9a24      	ldr	r2, [sp, #144]	; 0x90
10002674:	4013      	ands	r3, r2
10002676:	2b01      	cmp	r3, #1
10002678:	d01b      	beq.n	100026b2 <_ftoa+0x2be>
1000267a:	2c20      	cmp	r4, #32
1000267c:	d100      	bne.n	10002680 <_ftoa+0x28c>
1000267e:	e780      	b.n	10002582 <_ftoa+0x18e>
10002680:	9b0d      	ldr	r3, [sp, #52]	; 0x34
10002682:	2b00      	cmp	r3, #0
10002684:	d035      	beq.n	100026f2 <_ftoa+0x2fe>
10002686:	222d      	movs	r2, #45	; 0x2d
10002688:	4641      	mov	r1, r8
1000268a:	1c63      	adds	r3, r4, #1
1000268c:	550a      	strb	r2, [r1, r4]
1000268e:	e779      	b.n	10002584 <_ftoa+0x190>
10002690:	2200      	movs	r2, #0
10002692:	980a      	ldr	r0, [sp, #40]	; 0x28
10002694:	990b      	ldr	r1, [sp, #44]	; 0x2c
10002696:	4b34      	ldr	r3, [pc, #208]	; (10002768 <_ftoa+0x374>)
10002698:	f001 f93a 	bl	10003910 <__wrap___aeabi_dcmplt>
1000269c:	2800      	cmp	r0, #0
1000269e:	d000      	beq.n	100026a2 <_ftoa+0x2ae>
100026a0:	e746      	b.n	10002530 <_ftoa+0x13c>
100026a2:	4653      	mov	r3, sl
100026a4:	2b00      	cmp	r3, #0
100026a6:	d151      	bne.n	1000274c <_ftoa+0x358>
100026a8:	2301      	movs	r3, #1
100026aa:	469c      	mov	ip, r3
100026ac:	44e2      	add	sl, ip
100026ae:	e73f      	b.n	10002530 <_ftoa+0x13c>
100026b0:	2420      	movs	r4, #32
100026b2:	9b23      	ldr	r3, [sp, #140]	; 0x8c
100026b4:	2b00      	cmp	r3, #0
100026b6:	d0e0      	beq.n	1000267a <_ftoa+0x286>
100026b8:	9b0d      	ldr	r3, [sp, #52]	; 0x34
100026ba:	2b00      	cmp	r3, #0
100026bc:	d103      	bne.n	100026c6 <_ftoa+0x2d2>
100026be:	9a24      	ldr	r2, [sp, #144]	; 0x90
100026c0:	330c      	adds	r3, #12
100026c2:	4213      	tst	r3, r2
100026c4:	d002      	beq.n	100026cc <_ftoa+0x2d8>
100026c6:	9b23      	ldr	r3, [sp, #140]	; 0x8c
100026c8:	3b01      	subs	r3, #1
100026ca:	9323      	str	r3, [sp, #140]	; 0x8c
100026cc:	9b23      	ldr	r3, [sp, #140]	; 0x8c
100026ce:	42a3      	cmp	r3, r4
100026d0:	d9d3      	bls.n	1000267a <_ftoa+0x286>
100026d2:	ab08      	add	r3, sp, #32
100026d4:	469c      	mov	ip, r3
100026d6:	2217      	movs	r2, #23
100026d8:	2330      	movs	r3, #48	; 0x30
100026da:	4462      	add	r2, ip
100026dc:	2c20      	cmp	r4, #32
100026de:	d100      	bne.n	100026e2 <_ftoa+0x2ee>
100026e0:	e74f      	b.n	10002582 <_ftoa+0x18e>
100026e2:	9923      	ldr	r1, [sp, #140]	; 0x8c
100026e4:	3401      	adds	r4, #1
100026e6:	5513      	strb	r3, [r2, r4]
100026e8:	428c      	cmp	r4, r1
100026ea:	d0c6      	beq.n	1000267a <_ftoa+0x286>
100026ec:	2c20      	cmp	r4, #32
100026ee:	d1f8      	bne.n	100026e2 <_ftoa+0x2ee>
100026f0:	e747      	b.n	10002582 <_ftoa+0x18e>
100026f2:	9b24      	ldr	r3, [sp, #144]	; 0x90
100026f4:	075b      	lsls	r3, r3, #29
100026f6:	d424      	bmi.n	10002742 <_ftoa+0x34e>
100026f8:	9a24      	ldr	r2, [sp, #144]	; 0x90
100026fa:	0023      	movs	r3, r4
100026fc:	0712      	lsls	r2, r2, #28
100026fe:	d400      	bmi.n	10002702 <_ftoa+0x30e>
10002700:	e740      	b.n	10002584 <_ftoa+0x190>
10002702:	2220      	movs	r2, #32
10002704:	4641      	mov	r1, r8
10002706:	3301      	adds	r3, #1
10002708:	550a      	strb	r2, [r1, r4]
1000270a:	e73b      	b.n	10002584 <_ftoa+0x190>
1000270c:	4657      	mov	r7, sl
1000270e:	9d08      	ldr	r5, [sp, #32]
10002710:	2c20      	cmp	r4, #32
10002712:	d100      	bne.n	10002716 <_ftoa+0x322>
10002714:	e72d      	b.n	10002572 <_ftoa+0x17e>
10002716:	0022      	movs	r2, r4
10002718:	2130      	movs	r1, #48	; 0x30
1000271a:	4640      	mov	r0, r8
1000271c:	2f00      	cmp	r7, #0
1000271e:	d009      	beq.n	10002734 <_ftoa+0x340>
10002720:	3201      	adds	r2, #1
10002722:	54b1      	strb	r1, [r6, r2]
10002724:	2a20      	cmp	r2, #32
10002726:	d100      	bne.n	1000272a <_ftoa+0x336>
10002728:	e723      	b.n	10002572 <_ftoa+0x17e>
1000272a:	43d3      	mvns	r3, r2
1000272c:	191b      	adds	r3, r3, r4
1000272e:	181b      	adds	r3, r3, r0
10002730:	2b00      	cmp	r3, #0
10002732:	d1f5      	bne.n	10002720 <_ftoa+0x32c>
10002734:	ab0e      	add	r3, sp, #56	; 0x38
10002736:	4698      	mov	r8, r3
10002738:	232e      	movs	r3, #46	; 0x2e
1000273a:	4641      	mov	r1, r8
1000273c:	1c54      	adds	r4, r2, #1
1000273e:	548b      	strb	r3, [r1, r2]
10002740:	e782      	b.n	10002648 <_ftoa+0x254>
10002742:	222b      	movs	r2, #43	; 0x2b
10002744:	4641      	mov	r1, r8
10002746:	1c63      	adds	r3, r4, #1
10002748:	550a      	strb	r2, [r1, r4]
1000274a:	e71b      	b.n	10002584 <_ftoa+0x190>
1000274c:	07db      	lsls	r3, r3, #31
1000274e:	d400      	bmi.n	10002752 <_ftoa+0x35e>
10002750:	e6ee      	b.n	10002530 <_ftoa+0x13c>
10002752:	e7a9      	b.n	100026a8 <_ftoa+0x2b4>
10002754:	ffefffff 	.word	0xffefffff
10002758:	7fefffff 	.word	0x7fefffff
1000275c:	41cdcd65 	.word	0x41cdcd65
10002760:	c1cdcd65 	.word	0xc1cdcd65
10002764:	100072d0 	.word	0x100072d0
10002768:	3fe00000 	.word	0x3fe00000
1000276c:	100070d8 	.word	0x100070d8
10002770:	100070dc 	.word	0x100070dc
10002774:	100070e8 	.word	0x100070e8
10002778:	9b24      	ldr	r3, [sp, #144]	; 0x90
1000277a:	9303      	str	r3, [sp, #12]
1000277c:	9b23      	ldr	r3, [sp, #140]	; 0x8c
1000277e:	9302      	str	r3, [sp, #8]
10002780:	2303      	movs	r3, #3
10002782:	9301      	str	r3, [sp, #4]
10002784:	4b00      	ldr	r3, [pc, #0]	; (10002788 <_ftoa+0x394>)
10002786:	e723      	b.n	100025d0 <_ftoa+0x1dc>
10002788:	100070e4 	.word	0x100070e4

1000278c <_vsnprintf>:
1000278c:	b5f0      	push	{r4, r5, r6, r7, lr}
1000278e:	46de      	mov	lr, fp
10002790:	464e      	mov	r6, r9
10002792:	4657      	mov	r7, sl
10002794:	4645      	mov	r5, r8
10002796:	b5e0      	push	{r5, r6, r7, lr}
10002798:	b09f      	sub	sp, #124	; 0x7c
1000279a:	001c      	movs	r4, r3
1000279c:	9b28      	ldr	r3, [sp, #160]	; 0xa0
1000279e:	4691      	mov	r9, r2
100027a0:	9309      	str	r3, [sp, #36]	; 0x24
100027a2:	4ac9      	ldr	r2, [pc, #804]	; (10002ac8 <_vsnprintf+0x33c>)
100027a4:	4bc9      	ldr	r3, [pc, #804]	; (10002acc <_vsnprintf+0x340>)
100027a6:	468b      	mov	fp, r1
100027a8:	9008      	str	r0, [sp, #32]
100027aa:	601a      	str	r2, [r3, #0]
100027ac:	2900      	cmp	r1, #0
100027ae:	d100      	bne.n	100027b2 <_vsnprintf+0x26>
100027b0:	e218      	b.n	10002be4 <_vsnprintf+0x458>
100027b2:	2300      	movs	r3, #0
100027b4:	7820      	ldrb	r0, [r4, #0]
100027b6:	469a      	mov	sl, r3
100027b8:	2800      	cmp	r0, #0
100027ba:	d100      	bne.n	100027be <_vsnprintf+0x32>
100027bc:	e21a      	b.n	10002bf4 <_vsnprintf+0x468>
100027be:	0026      	movs	r6, r4
100027c0:	001d      	movs	r5, r3
100027c2:	465c      	mov	r4, fp
100027c4:	e00a      	b.n	100027dc <_vsnprintf+0x50>
100027c6:	002a      	movs	r2, r5
100027c8:	1c6f      	adds	r7, r5, #1
100027ca:	464b      	mov	r3, r9
100027cc:	9d08      	ldr	r5, [sp, #32]
100027ce:	0021      	movs	r1, r4
100027d0:	47a8      	blx	r5
100027d2:	003d      	movs	r5, r7
100027d4:	3601      	adds	r6, #1
100027d6:	7830      	ldrb	r0, [r6, #0]
100027d8:	2800      	cmp	r0, #0
100027da:	d070      	beq.n	100028be <_vsnprintf+0x132>
100027dc:	2825      	cmp	r0, #37	; 0x25
100027de:	d1f2      	bne.n	100027c6 <_vsnprintf+0x3a>
100027e0:	2310      	movs	r3, #16
100027e2:	469b      	mov	fp, r3
100027e4:	3b08      	subs	r3, #8
100027e6:	469a      	mov	sl, r3
100027e8:	3b04      	subs	r3, #4
100027ea:	4698      	mov	r8, r3
100027ec:	3b02      	subs	r3, #2
100027ee:	2100      	movs	r1, #0
100027f0:	469c      	mov	ip, r3
100027f2:	1c72      	adds	r2, r6, #1
100027f4:	7810      	ldrb	r0, [r2, #0]
100027f6:	0016      	movs	r6, r2
100027f8:	0003      	movs	r3, r0
100027fa:	3b20      	subs	r3, #32
100027fc:	b2db      	uxtb	r3, r3
100027fe:	2b10      	cmp	r3, #16
10002800:	d803      	bhi.n	1000280a <_vsnprintf+0x7e>
10002802:	4fb3      	ldr	r7, [pc, #716]	; (10002ad0 <_vsnprintf+0x344>)
10002804:	009b      	lsls	r3, r3, #2
10002806:	58fb      	ldr	r3, [r7, r3]
10002808:	469f      	mov	pc, r3
1000280a:	0003      	movs	r3, r0
1000280c:	3b30      	subs	r3, #48	; 0x30
1000280e:	2b09      	cmp	r3, #9
10002810:	d932      	bls.n	10002878 <_vsnprintf+0xec>
10002812:	2300      	movs	r3, #0
10002814:	930a      	str	r3, [sp, #40]	; 0x28
10002816:	282a      	cmp	r0, #42	; 0x2a
10002818:	d068      	beq.n	100028ec <_vsnprintf+0x160>
1000281a:	2300      	movs	r3, #0
1000281c:	4698      	mov	r8, r3
1000281e:	282e      	cmp	r0, #46	; 0x2e
10002820:	d03e      	beq.n	100028a0 <_vsnprintf+0x114>
10002822:	0003      	movs	r3, r0
10002824:	3b68      	subs	r3, #104	; 0x68
10002826:	b2db      	uxtb	r3, r3
10002828:	2b12      	cmp	r3, #18
1000282a:	d81c      	bhi.n	10002866 <_vsnprintf+0xda>
1000282c:	4aa9      	ldr	r2, [pc, #676]	; (10002ad4 <_vsnprintf+0x348>)
1000282e:	009b      	lsls	r3, r3, #2
10002830:	58d3      	ldr	r3, [r2, r3]
10002832:	469f      	mov	pc, r3
10002834:	2301      	movs	r3, #1
10002836:	3201      	adds	r2, #1
10002838:	4319      	orrs	r1, r3
1000283a:	e7db      	b.n	100027f4 <_vsnprintf+0x68>
1000283c:	4663      	mov	r3, ip
1000283e:	3201      	adds	r2, #1
10002840:	4319      	orrs	r1, r3
10002842:	e7d7      	b.n	100027f4 <_vsnprintf+0x68>
10002844:	4643      	mov	r3, r8
10002846:	3201      	adds	r2, #1
10002848:	4319      	orrs	r1, r3
1000284a:	e7d3      	b.n	100027f4 <_vsnprintf+0x68>
1000284c:	465b      	mov	r3, fp
1000284e:	3201      	adds	r2, #1
10002850:	4319      	orrs	r1, r3
10002852:	e7cf      	b.n	100027f4 <_vsnprintf+0x68>
10002854:	4653      	mov	r3, sl
10002856:	3201      	adds	r2, #1
10002858:	4319      	orrs	r1, r3
1000285a:	e7cb      	b.n	100027f4 <_vsnprintf+0x68>
1000285c:	2380      	movs	r3, #128	; 0x80
1000285e:	005b      	lsls	r3, r3, #1
10002860:	7870      	ldrb	r0, [r6, #1]
10002862:	4319      	orrs	r1, r3
10002864:	3601      	adds	r6, #1
10002866:	0003      	movs	r3, r0
10002868:	3b25      	subs	r3, #37	; 0x25
1000286a:	b2db      	uxtb	r3, r3
1000286c:	2b53      	cmp	r3, #83	; 0x53
1000286e:	d8aa      	bhi.n	100027c6 <_vsnprintf+0x3a>
10002870:	4a99      	ldr	r2, [pc, #612]	; (10002ad8 <_vsnprintf+0x34c>)
10002872:	009b      	lsls	r3, r3, #2
10002874:	58d3      	ldr	r3, [r2, r3]
10002876:	469f      	mov	pc, r3
10002878:	2700      	movs	r7, #0
1000287a:	0003      	movs	r3, r0
1000287c:	00b8      	lsls	r0, r7, #2
1000287e:	19c0      	adds	r0, r0, r7
10002880:	3601      	adds	r6, #1
10002882:	0040      	lsls	r0, r0, #1
10002884:	18c0      	adds	r0, r0, r3
10002886:	7833      	ldrb	r3, [r6, #0]
10002888:	3830      	subs	r0, #48	; 0x30
1000288a:	001a      	movs	r2, r3
1000288c:	3a30      	subs	r2, #48	; 0x30
1000288e:	0007      	movs	r7, r0
10002890:	2a09      	cmp	r2, #9
10002892:	d9f3      	bls.n	1000287c <_vsnprintf+0xf0>
10002894:	900a      	str	r0, [sp, #40]	; 0x28
10002896:	0018      	movs	r0, r3
10002898:	2300      	movs	r3, #0
1000289a:	4698      	mov	r8, r3
1000289c:	282e      	cmp	r0, #46	; 0x2e
1000289e:	d1c0      	bne.n	10002822 <_vsnprintf+0x96>
100028a0:	2380      	movs	r3, #128	; 0x80
100028a2:	7870      	ldrb	r0, [r6, #1]
100028a4:	00db      	lsls	r3, r3, #3
100028a6:	4319      	orrs	r1, r3
100028a8:	0003      	movs	r3, r0
100028aa:	3b30      	subs	r3, #48	; 0x30
100028ac:	1c72      	adds	r2, r6, #1
100028ae:	2b09      	cmp	r3, #9
100028b0:	d800      	bhi.n	100028b4 <_vsnprintf+0x128>
100028b2:	e1a1      	b.n	10002bf8 <_vsnprintf+0x46c>
100028b4:	282a      	cmp	r0, #42	; 0x2a
100028b6:	d100      	bne.n	100028ba <_vsnprintf+0x12e>
100028b8:	e1b2      	b.n	10002c20 <_vsnprintf+0x494>
100028ba:	0016      	movs	r6, r2
100028bc:	e7b1      	b.n	10002822 <_vsnprintf+0x96>
100028be:	46a3      	mov	fp, r4
100028c0:	46aa      	mov	sl, r5
100028c2:	002c      	movs	r4, r5
100028c4:	45d1      	cmp	r9, sl
100028c6:	d803      	bhi.n	100028d0 <_vsnprintf+0x144>
100028c8:	2301      	movs	r3, #1
100028ca:	425b      	negs	r3, r3
100028cc:	444b      	add	r3, r9
100028ce:	469a      	mov	sl, r3
100028d0:	464b      	mov	r3, r9
100028d2:	4652      	mov	r2, sl
100028d4:	4659      	mov	r1, fp
100028d6:	2000      	movs	r0, #0
100028d8:	9d08      	ldr	r5, [sp, #32]
100028da:	47a8      	blx	r5
100028dc:	0020      	movs	r0, r4
100028de:	b01f      	add	sp, #124	; 0x7c
100028e0:	bcf0      	pop	{r4, r5, r6, r7}
100028e2:	46bb      	mov	fp, r7
100028e4:	46b2      	mov	sl, r6
100028e6:	46a9      	mov	r9, r5
100028e8:	46a0      	mov	r8, r4
100028ea:	bdf0      	pop	{r4, r5, r6, r7, pc}
100028ec:	9b09      	ldr	r3, [sp, #36]	; 0x24
100028ee:	cb40      	ldmia	r3!, {r6}
100028f0:	960a      	str	r6, [sp, #40]	; 0x28
100028f2:	2e00      	cmp	r6, #0
100028f4:	db03      	blt.n	100028fe <_vsnprintf+0x172>
100028f6:	7850      	ldrb	r0, [r2, #1]
100028f8:	9309      	str	r3, [sp, #36]	; 0x24
100028fa:	1c56      	adds	r6, r2, #1
100028fc:	e78d      	b.n	1000281a <_vsnprintf+0x8e>
100028fe:	3828      	subs	r0, #40	; 0x28
10002900:	4301      	orrs	r1, r0
10002902:	4270      	negs	r0, r6
10002904:	900a      	str	r0, [sp, #40]	; 0x28
10002906:	9309      	str	r3, [sp, #36]	; 0x24
10002908:	7850      	ldrb	r0, [r2, #1]
1000290a:	1c56      	adds	r6, r2, #1
1000290c:	e785      	b.n	1000281a <_vsnprintf+0x8e>
1000290e:	2878      	cmp	r0, #120	; 0x78
10002910:	d100      	bne.n	10002914 <_vsnprintf+0x188>
10002912:	e1df      	b.n	10002cd4 <_vsnprintf+0x548>
10002914:	2858      	cmp	r0, #88	; 0x58
10002916:	d100      	bne.n	1000291a <_vsnprintf+0x18e>
10002918:	e24c      	b.n	10002db4 <_vsnprintf+0x628>
1000291a:	286f      	cmp	r0, #111	; 0x6f
1000291c:	d100      	bne.n	10002920 <_vsnprintf+0x194>
1000291e:	e34f      	b.n	10002fc0 <_vsnprintf+0x834>
10002920:	2862      	cmp	r0, #98	; 0x62
10002922:	d101      	bne.n	10002928 <_vsnprintf+0x19c>
10002924:	f000 fc30 	bl	10003188 <_vsnprintf+0x9fc>
10002928:	2310      	movs	r3, #16
1000292a:	000a      	movs	r2, r1
1000292c:	439a      	bics	r2, r3
1000292e:	920b      	str	r2, [sp, #44]	; 0x2c
10002930:	2869      	cmp	r0, #105	; 0x69
10002932:	d001      	beq.n	10002938 <_vsnprintf+0x1ac>
10002934:	f000 fca9 	bl	1000328a <_vsnprintf+0xafe>
10002938:	230a      	movs	r3, #10
1000293a:	930c      	str	r3, [sp, #48]	; 0x30
1000293c:	054b      	lsls	r3, r1, #21
1000293e:	d500      	bpl.n	10002942 <_vsnprintf+0x1b6>
10002940:	e1d0      	b.n	10002ce4 <_vsnprintf+0x558>
10002942:	9a0b      	ldr	r2, [sp, #44]	; 0x2c
10002944:	2380      	movs	r3, #128	; 0x80
10002946:	0011      	movs	r1, r2
10002948:	009b      	lsls	r3, r3, #2
1000294a:	4019      	ands	r1, r3
1000294c:	468b      	mov	fp, r1
1000294e:	421a      	tst	r2, r3
10002950:	d000      	beq.n	10002954 <_vsnprintf+0x1c8>
10002952:	e2a1      	b.n	10002e98 <_vsnprintf+0x70c>
10002954:	2380      	movs	r3, #128	; 0x80
10002956:	0011      	movs	r1, r2
10002958:	005b      	lsls	r3, r3, #1
1000295a:	4019      	ands	r1, r3
1000295c:	468a      	mov	sl, r1
1000295e:	421a      	tst	r2, r3
10002960:	d000      	beq.n	10002964 <_vsnprintf+0x1d8>
10002962:	e3b6      	b.n	100030d2 <_vsnprintf+0x946>
10002964:	0013      	movs	r3, r2
10002966:	065b      	lsls	r3, r3, #25
10002968:	d500      	bpl.n	1000296c <_vsnprintf+0x1e0>
1000296a:	e2ed      	b.n	10002f48 <_vsnprintf+0x7bc>
1000296c:	0013      	movs	r3, r2
1000296e:	9909      	ldr	r1, [sp, #36]	; 0x24
10002970:	061b      	lsls	r3, r3, #24
10002972:	d401      	bmi.n	10002978 <_vsnprintf+0x1ec>
10002974:	f000 fc76 	bl	10003264 <_vsnprintf+0xad8>
10002978:	c908      	ldmia	r1!, {r3}
1000297a:	b21b      	sxth	r3, r3
1000297c:	17d8      	asrs	r0, r3, #31
1000297e:	181a      	adds	r2, r3, r0
10002980:	4042      	eors	r2, r0
10002982:	b292      	uxth	r2, r2
10002984:	9109      	str	r1, [sp, #36]	; 0x24
10002986:	4693      	mov	fp, r2
10002988:	0fda      	lsrs	r2, r3, #31
