Archive member included to satisfy reference by file (symbol)

c:/progra~2/gnuarm~1/102021~1.10/bin/../lib/gcc/arm-none-eabi/10.3.1/thumb/v6-m/nofp\libgcc.a(_dvmd_tls.o)
                              CMakeFiles/adc_dma_capture.dir/C_/Users/tomas/Documents/pico-sdk/src/rp2_common/pico_divider/divider.S.obj (__aeabi_idiv0)
c:/progra~2/gnuarm~1/102021~1.10/bin/../lib/gcc/arm-none-eabi/10.3.1/../../../../arm-none-eabi/lib/thumb/v6-m/nofp\libc.a(lib_a-calloc.o)
                              CMakeFiles/adc_dma_capture.dir/C_/Users/tomas/Documents/pico-sdk/src/rp2_common/pico_malloc/pico_malloc.c.obj (calloc)
c:/progra~2/gnuarm~1/102021~1.10/bin/../lib/gcc/arm-none-eabi/10.3.1/../../../../arm-none-eabi/lib/thumb/v6-m/nofp\libc.a(lib_a-callocr.o)
                              c:/progra~2/gnuarm~1/102021~1.10/bin/../lib/gcc/arm-none-eabi/10.3.1/../../../../arm-none-eabi/lib/thumb/v6-m/nofp\libc.a(lib_a-calloc.o) (_calloc_r)
c:/progra~2/gnuarm~1/102021~1.10/bin/../lib/gcc/arm-none-eabi/10.3.1/../../../../arm-none-eabi/lib/thumb/v6-m/nofp\libc.a(lib_a-errno.o)
                              c:/progra~2/gnuarm~1/102021~1.10/bin/../lib/gcc/arm-none-eabi/10.3.1/../../../../arm-none-eabi/lib/thumb/v6-m/nofp\libc.a(lib_a-callocr.o) (__errno)
c:/progra~2/gnuarm~1/102021~1.10/bin/../lib/gcc/arm-none-eabi/10.3.1/../../../../arm-none-eabi/lib/thumb/v6-m/nofp\libc.a(lib_a-impure.o)
                              c:/progra~2/gnuarm~1/102021~1.10/bin/../lib/gcc/arm-none-eabi/10.3.1/../../../../arm-none-eabi/lib/thumb/v6-m/nofp\libc.a(lib_a-calloc.o) (_impure_ptr)
c:/progra~2/gnuarm~1/102021~1.10/bin/../lib/gcc/arm-none-eabi/10.3.1/../../../../arm-none-eabi/lib/thumb/v6-m/nofp\libc.a(lib_a-init.o)
                              c:/progra~2/gnuarm~1/102021~1.10/bin/../lib/gcc/arm-none-eabi/10.3.1/../../../../arm-none-eabi/lib/thumb/v6-m/nofp/crt0.o (__libc_init_array)
c:/progra~2/gnuarm~1/102021~1.10/bin/../lib/gcc/arm-none-eabi/10.3.1/../../../../arm-none-eabi/lib/thumb/v6-m/nofp\libc.a(lib_a-malloc.o)
                              CMakeFiles/adc_dma_capture.dir/C_/Users/tomas/Documents/pico-sdk/src/rp2_common/pico_malloc/pico_malloc.c.obj (malloc)
c:/progra~2/gnuarm~1/102021~1.10/bin/../lib/gcc/arm-none-eabi/10.3.1/../../../../arm-none-eabi/lib/thumb/v6-m/nofp\libc.a(lib_a-mallocr.o)
                              c:/progra~2/gnuarm~1/102021~1.10/bin/../lib/gcc/arm-none-eabi/10.3.1/../../../../arm-none-eabi/lib/thumb/v6-m/nofp\libc.a(lib_a-callocr.o) (_malloc_r)
c:/progra~2/gnuarm~1/102021~1.10/bin/../lib/gcc/arm-none-eabi/10.3.1/../../../../arm-none-eabi/lib/thumb/v6-m/nofp\libc.a(lib_a-mlock.o)
                              c:/progra~2/gnuarm~1/102021~1.10/bin/../lib/gcc/arm-none-eabi/10.3.1/../../../../arm-none-eabi/lib/thumb/v6-m/nofp\libc.a(lib_a-mallocr.o) (__malloc_lock)
c:/progra~2/gnuarm~1/102021~1.10/bin/../lib/gcc/arm-none-eabi/10.3.1/../../../../arm-none-eabi/lib/thumb/v6-m/nofp\libc.a(lib_a-sbrkr.o)
                              c:/progra~2/gnuarm~1/102021~1.10/bin/../lib/gcc/arm-none-eabi/10.3.1/../../../../arm-none-eabi/lib/thumb/v6-m/nofp\libc.a(lib_a-mallocr.o) (_sbrk_r)
c:/progra~2/gnuarm~1/102021~1.10/bin/../lib/gcc/arm-none-eabi/10.3.1/../../../../arm-none-eabi/lib/thumb/v6-m/nofp\libc.a(lib_a-strlen-stub.o)
                              CMakeFiles/adc_dma_capture.dir/C_/Users/tomas/Documents/pico-sdk/src/rp2_common/pico_stdio/stdio.c.obj (strlen)
c:/progra~2/gnuarm~1/102021~1.10/bin/../lib/gcc/arm-none-eabi/10.3.1/../../../../arm-none-eabi/lib/thumb/v6-m/nofp\libc.a(lib_a-freer.o)
                              c:/progra~2/gnuarm~1/102021~1.10/bin/../lib/gcc/arm-none-eabi/10.3.1/../../../../arm-none-eabi/lib/thumb/v6-m/nofp\libc.a(lib_a-malloc.o) (_free_r)
c:/progra~2/gnuarm~1/102021~1.10/bin/../lib/gcc/arm-none-eabi/10.3.1/../../../../arm-none-eabi/lib/thumb/v6-m/nofp\libc.a(lib_a-lock.o)
                              c:/progra~2/gnuarm~1/102021~1.10/bin/../lib/gcc/arm-none-eabi/10.3.1/../../../../arm-none-eabi/lib/thumb/v6-m/nofp\libc.a(lib_a-mlock.o) (__retarget_lock_acquire_recursive)
c:/progra~2/gnuarm~1/102021~1.10/bin/../lib/gcc/arm-none-eabi/10.3.1/../../../../arm-none-eabi/lib/thumb/v6-m/nofp\libc.a(lib_a-reent.o)
                              c:/progra~2/gnuarm~1/102021~1.10/bin/../lib/gcc/arm-none-eabi/10.3.1/../../../../arm-none-eabi/lib/thumb/v6-m/nofp\libc.a(lib_a-sbrkr.o) (errno)

Discarded input sections

 .text          0x00000000        0x0 c:/progra~2/gnuarm~1/102021~1.10/bin/../lib/gcc/arm-none-eabi/10.3.1/thumb/v6-m/nofp/crti.o
 .data          0x00000000        0x0 c:/progra~2/gnuarm~1/102021~1.10/bin/../lib/gcc/arm-none-eabi/10.3.1/thumb/v6-m/nofp/crti.o
 .bss           0x00000000        0x0 c:/progra~2/gnuarm~1/102021~1.10/bin/../lib/gcc/arm-none-eabi/10.3.1/thumb/v6-m/nofp/crti.o
 .data          0x00000000        0x4 c:/progra~2/gnuarm~1/102021~1.10/bin/../lib/gcc/arm-none-eabi/10.3.1/thumb/v6-m/nofp/crtbegin.o
 .rodata        0x00000000       0x24 c:/progra~2/gnuarm~1/102021~1.10/bin/../lib/gcc/arm-none-eabi/10.3.1/thumb/v6-m/nofp/crtbegin.o
 .fini_array    0x00000000        0x4 c:/progra~2/gnuarm~1/102021~1.10/bin/../lib/gcc/arm-none-eabi/10.3.1/thumb/v6-m/nofp/crtbegin.o
 .text          0x00000000       0x80 c:/progra~2/gnuarm~1/102021~1.10/bin/../lib/gcc/arm-none-eabi/10.3.1/../../../../arm-none-eabi/lib/thumb/v6-m/nofp/crt0.o
 .data          0x00000000        0x0 c:/progra~2/gnuarm~1/102021~1.10/bin/../lib/gcc/arm-none-eabi/10.3.1/../../../../arm-none-eabi/lib/thumb/v6-m/nofp/crt0.o
 .bss           0x00000000        0x0 c:/progra~2/gnuarm~1/102021~1.10/bin/../lib/gcc/arm-none-eabi/10.3.1/../../../../arm-none-eabi/lib/thumb/v6-m/nofp/crt0.o
 .ARM.extab     0x00000000        0x0 c:/progra~2/gnuarm~1/102021~1.10/bin/../lib/gcc/arm-none-eabi/10.3.1/../../../../arm-none-eabi/lib/thumb/v6-m/nofp/crt0.o
 .ARM.exidx     0x00000000       0x10 c:/progra~2/gnuarm~1/102021~1.10/bin/../lib/gcc/arm-none-eabi/10.3.1/../../../../arm-none-eabi/lib/thumb/v6-m/nofp/crt0.o
 .ARM.attributes
                0x00000000       0x1b c:/progra~2/gnuarm~1/102021~1.10/bin/../lib/gcc/arm-none-eabi/10.3.1/../../../../arm-none-eabi/lib/thumb/v6-m/nofp/crt0.o
 .text          0x00000000        0x0 CMakeFiles/adc_dma_capture.dir/dma_capture.c.obj
 .data          0x00000000        0x0 CMakeFiles/adc_dma_capture.dir/dma_capture.c.obj
 .bss           0x00000000        0x0 CMakeFiles/adc_dma_capture.dir/dma_capture.c.obj
 .text          0x00000000        0x0 CMakeFiles/adc_dma_capture.dir/C_/Users/tomas/Documents/pico-sdk/src/rp2_common/pico_stdlib/stdlib.c.obj
 .data          0x00000000        0x0 CMakeFiles/adc_dma_capture.dir/C_/Users/tomas/Documents/pico-sdk/src/rp2_common/pico_stdlib/stdlib.c.obj
Memory Configuration

Name             Origin             Length             Attributes
FLASH            0x10000000         0x00200000         xr
RAM              0x20000000         0x00040000         xrw
SCRATCH_X        0x20040000         0x00001000         xrw
SCRATCH_Y        0x20041000         0x00001000         xrw
*default*        0x00000000         0xffffffff

Linker script and memory map

LOAD c:/progra~2/gnuarm~1/102021~1.10/bin/../lib/gcc/arm-none-eabi/10.3.1/thumb/v6-m/nofp/crti.o
LOAD c:/progra~2/gnuarm~1/102021~1.10/bin/../lib/gcc/arm-none-eabi/10.3.1/thumb/v6-m/nofp/crtbegin.o
LOAD c:/progra~2/gnuarm~1/102021~1.10/bin/../lib/gcc/arm-none-eabi/10.3.1/../../../../arm-none-eabi/lib/thumb/v6-m/nofp/crt0.o

.flash_begin    0x10000000        0x0
                0x10000000                __flash_binary_start = .

.boot2          0x10000000      0x100
                0x10000000                __boot2_start__ = .
 *(.boot2)
 .boot2         0x10000000      0x100 C:\Users\tomas\AppData\Local\Temp\ccYf3Ypk.o
                0x10000100                __boot2_end__ = .
                0x00000001                ASSERT (((__boot2_end__ - __boot2_start__) == 0x100), ERROR: Pico second stage bootloader must be 256 bytes in size)

.text           0x10000100     0x6f68
                0x10000100                __logical_binary_start = .
 *(.vectors)
 .vectors       0x10000100       0xd4 CMakeFiles/adc_dma_capture.dir/C_/Users/tomas/Documents/pico-sdk/src/rp2_common/pico_standard_link/crt0.S.obj
                0x10000100                __VECTOR_TABLE
                0x10000100                __vectors
                0x100001c0                isr_invalid
                0x100001c0                __default_isrs_start
                0x100001c2                isr_nmi
                0x100001c4                isr_hardfault
                0x100001c6                isr_svcall
                0x100001c8                isr_pendsv
                0x100001ca                isr_systick
                0x100001cc                isr_irq23
                0x100001cc                isr_irq18
                0x100001cc                isr_irq11
                0x100001cc                isr_irq28
                0x100001cc                isr_irq19
                0x100001cc                isr_irq0
                0x100001cc                isr_irq6
                0x100001cc                isr_irq5
                0x100001cc                isr_irq12
                0x100001cc                isr_irq22
                0x100001cc                isr_irq31
                0x100001cc                isr_irq17
                0x100001cc                isr_irq27
                0x100001cc                isr_irq30
                0x100001cc                isr_irq2
                0x100001cc                isr_irq10
                0x100001cc                isr_irq8
                0x100001cc                isr_irq24
                0x100001cc                isr_irq1
                0x100001cc                isr_irq7
                0x100001cc                isr_irq21
                0x100001cc                isr_irq20
                0x100001cc                isr_irq15
                0x100001cc                isr_irq25
                0x100001cc                isr_irq13
                0x100001cc                __unhandled_user_irq
                0x100001cc                isr_irq4
                0x100001cc                isr_irq16
                0x100001cc                isr_irq29
                0x100001cc                isr_irq26
                0x100001cc                __default_isrs_end
                0x100001cc                isr_irq3
                0x100001cc                isr_irq14
                0x100001cc                isr_irq9
                0x100001d2                unhandled_user_irq_num_in_r0
 *(.binary_info_header)
 .binary_info_header
                0x100001d4       0x14 CMakeFiles/adc_dma_capture.dir/C_/Users/tomas/Documents/pico-sdk/src/rp2_common/pico_standard_link/crt0.S.obj
                0x100001e8                __binary_info_header_end = .
 *(.reset)
 .reset         0x100001e8       0xa8 CMakeFiles/adc_dma_capture.dir/C_/Users/tomas/Documents/pico-sdk/src/rp2_common/pico_standard_link/crt0.S.obj
                0x100001e8                _entry_point
                0x10000266                __get_current_exception
 .reset         0x10000290       0x30 CMakeFiles/adc_dma_capture.dir/C_/Users/tomas/Documents/pico-sdk/src/rp2_common/pico_standard_link/binary_info.c.obj
 *(.init)
 .init          0x100002c0        0x4 c:/progra~2/gnuarm~1/102021~1.10/bin/../lib/gcc/arm-none-eabi/10.3.1/thumb/v6-m/nofp/crti.o
                0x100002c0                _init
 *(EXCLUDE_FILE(*libm.a: *libc.a:*lib_a-mem*.o *libgcc.a:) .text*)
 .text          0x100002c4       0x48 c:/progra~2/gnuarm~1/102021~1.10/bin/../lib/gcc/arm-none-eabi/10.3.1/thumb/v6-m/nofp/crtbegin.o
 .text.dma_handler
                0x1000030c      0x114 CMakeFiles/adc_dma_capture.dir/dma_capture.c.obj
                0x1000030c                dma_handler
 .text.init_adc_dma_irq
                0x10000420       0xe4 CMakeFiles/adc_dma_capture.dir/dma_capture.c.obj
                0x10000420                init_adc_dma_irq
 .text.startup.main
                0x10000504       0x10 CMakeFiles/adc_dma_capture.dir/dma_capture.c.obj
                0x10000504                main
 .text.gpio_set_function
                0x10000514       0x30 CMakeFiles/adc_dma_capture.dir/C_/Users/tomas/Documents/pico-sdk/src/rp2_common/hardware_gpio/gpio.c.obj
                0x10000514                gpio_set_function
 .text.gpio_set_pulls
                0x10000544       0x30 CMakeFiles/adc_dma_capture.dir/C_/Users/tomas/Documents/pico-sdk/src/rp2_common/hardware_gpio/gpio.c.obj
                0x10000544                gpio_set_pulls
 .text.gpio_set_input_enabled
                0x10000574       0x28 CMakeFiles/adc_dma_capture.dir/C_/Users/tomas/Documents/pico-sdk/src/rp2_common/hardware_gpio/gpio.c.obj
                0x10000574                gpio_set_input_enabled
 .text.hw_claim_or_assert
                0x1000059c       0x44 CMakeFiles/adc_dma_capture.dir/C_/Users/tomas/Documents/pico-sdk/src/rp2_common/hardware_claim/claim.c.obj
                0x1000059c                hw_claim_or_assert
 .text.hw_claim_unused_from_range
                0x100005e0       0x9c CMakeFiles/adc_dma_capture.dir/C_/Users/tomas/Documents/pico-sdk/src/rp2_common/hardware_claim/claim.c.obj
                0x100005e0                hw_claim_unused_from_range
 .text.running_on_fpga
                0x1000067c       0x10 CMakeFiles/adc_dma_capture.dir/C_/Users/tomas/Documents/pico-sdk/src/rp2_common/pico_platform/platform.c.obj
                0x1000067c                running_on_fpga
 .text.spin_locks_reset
                0x1000068c       0x1c CMakeFiles/adc_dma_capture.dir/C_/Users/tomas/Documents/pico-sdk/src/rp2_common/hardware_sync/sync.c.obj
                0x1000068c                spin_locks_reset
 .text.next_striped_spin_lock_num
                0x100006a8       0x18 CMakeFiles/adc_dma_capture.dir/C_/Users/tomas/Documents/pico-sdk/src/rp2_common/hardware_sync/sync.c.obj
                0x100006a8                next_striped_spin_lock_num
 .text.spin_lock_claim_unused
                0x100006c0       0x20 CMakeFiles/adc_dma_capture.dir/C_/Users/tomas/Documents/pico-sdk/src/rp2_common/hardware_sync/sync.c.obj
                0x100006c0                spin_lock_claim_unused
 .text.timer_pool_entry_comparator
                0x100006e0       0x34 CMakeFiles/adc_dma_capture.dir/C_/Users/tomas/Documents/pico-sdk/src/common/pico_time/time.c.obj
                0x100006e0                timer_pool_entry_comparator
 .text.sleep_until_callback
                0x10000714       0x30 CMakeFiles/adc_dma_capture.dir/C_/Users/tomas/Documents/pico-sdk/src/common/pico_time/time.c.obj
 .text.add_alarm_under_lock.isra.0
                0x10000744      0x100 CMakeFiles/adc_dma_capture.dir/C_/Users/tomas/Documents/pico-sdk/src/common/pico_time/time.c.obj
 .text.alarm_pool_alarm_callback
                0x10000844      0x1c8 CMakeFiles/adc_dma_capture.dir/C_/Users/tomas/Documents/pico-sdk/src/common/pico_time/time.c.obj
 .text.alarm_pool_add_alarm_at.constprop.0
                0x10000a0c      0x11c CMakeFiles/adc_dma_capture.dir/C_/Users/tomas/Documents/pico-sdk/src/common/pico_time/time.c.obj
 .text.alarm_pool_init_default
                0x10000b28       0x64 CMakeFiles/adc_dma_capture.dir/C_/Users/tomas/Documents/pico-sdk/src/common/pico_time/time.c.obj
                0x10000b28                alarm_pool_init_default
 .text.alarm_pool_get_default
                0x10000b8c        0x8 CMakeFiles/adc_dma_capture.dir/C_/Users/tomas/Documents/pico-sdk/src/common/pico_time/time.c.obj
                0x10000b8c                alarm_pool_get_default
 .text.alarm_pool_add_alarm_at
                0x10000b94      0x194 CMakeFiles/adc_dma_capture.dir/C_/Users/tomas/Documents/pico-sdk/src/common/pico_time/time.c.obj
                0x10000b94                alarm_pool_add_alarm_at
 .text.best_effort_wfe_or_timeout
                0x10000d28       0xd4 CMakeFiles/adc_dma_capture.dir/C_/Users/tomas/Documents/pico-sdk/src/common/pico_time/time.c.obj
                0x10000d28                best_effort_wfe_or_timeout
 .text.hardware_alarm_irq_handler
                0x10000dfc       0xb8 CMakeFiles/adc_dma_capture.dir/C_/Users/tomas/Documents/pico-sdk/src/rp2_common/hardware_timer/timer.c.obj
 .text.hardware_alarm_claim
                0x10000eb4       0x18 CMakeFiles/adc_dma_capture.dir/C_/Users/tomas/Documents/pico-sdk/src/rp2_common/hardware_timer/timer.c.obj
                0x10000eb4                hardware_alarm_claim
 .text.time_us_64
                0x10000ecc       0x14 CMakeFiles/adc_dma_capture.dir/C_/Users/tomas/Documents/pico-sdk/src/rp2_common/hardware_timer/timer.c.obj
                0x10000ecc                time_us_64
 .text.hardware_alarm_set_callback
                0x10000ee0       0x8c CMakeFiles/adc_dma_capture.dir/C_/Users/tomas/Documents/pico-sdk/src/rp2_common/hardware_timer/timer.c.obj
                0x10000ee0                hardware_alarm_set_callback
 .text.hardware_alarm_set_target
                0x10000f6c       0xe0 CMakeFiles/adc_dma_capture.dir/C_/Users/tomas/Documents/pico-sdk/src/rp2_common/hardware_timer/timer.c.obj
                0x10000f6c                hardware_alarm_set_target
 .text.hardware_alarm_cancel
                0x1000104c       0x3c CMakeFiles/adc_dma_capture.dir/C_/Users/tomas/Documents/pico-sdk/src/rp2_common/hardware_timer/timer.c.obj
                0x1000104c                hardware_alarm_cancel
 .text.lock_init
                0x10001088       0x10 CMakeFiles/adc_dma_capture.dir/C_/Users/tomas/Documents/pico-sdk/src/common/pico_sync/lock_core.c.obj
                0x10001088                lock_init
 .text.mutex_init
                0x10001098       0x1c CMakeFiles/adc_dma_capture.dir/C_/Users/tomas/Documents/pico-sdk/src/common/pico_sync/mutex.c.obj
                0x10001098                mutex_init
 .text.recursive_mutex_init
                0x100010b4       0x1c CMakeFiles/adc_dma_capture.dir/C_/Users/tomas/Documents/pico-sdk/src/common/pico_sync/mutex.c.obj
                0x100010b4                recursive_mutex_init
 .text.critical_section_init
                0x100010d0       0x20 CMakeFiles/adc_dma_capture.dir/C_/Users/tomas/Documents/pico-sdk/src/common/pico_sync/critical_section.c.obj
                0x100010d0                critical_section_init
 .text.ph_merge_nodes
                0x100010f0       0x68 CMakeFiles/adc_dma_capture.dir/C_/Users/tomas/Documents/pico-sdk/src/common/pico_util/pheap.c.obj
 .text.ph_post_alloc_init
                0x10001158       0x3c CMakeFiles/adc_dma_capture.dir/C_/Users/tomas/Documents/pico-sdk/src/common/pico_util/pheap.c.obj
                0x10001158                ph_post_alloc_init
 .text.ph_merge_two_pass
                0x10001194       0x90 CMakeFiles/adc_dma_capture.dir/C_/Users/tomas/Documents/pico-sdk/src/common/pico_util/pheap.c.obj
                0x10001194                ph_merge_two_pass
 .text.ph_remove_any_head
                0x10001224       0xf8 CMakeFiles/adc_dma_capture.dir/C_/Users/tomas/Documents/pico-sdk/src/common/pico_util/pheap.c.obj
 .text.ph_remove_head
                0x1000131c       0xfc CMakeFiles/adc_dma_capture.dir/C_/Users/tomas/Documents/pico-sdk/src/common/pico_util/pheap.c.obj
                0x1000131c                ph_remove_head
 .text.ph_remove_and_free_node
                0x10001418       0x7c CMakeFiles/adc_dma_capture.dir/C_/Users/tomas/Documents/pico-sdk/src/common/pico_util/pheap.c.obj
                0x10001418                ph_remove_and_free_node
 .text.runtime_init
                0x10001494       0xf0 CMakeFiles/adc_dma_capture.dir/C_/Users/tomas/Documents/pico-sdk/src/rp2_common/pico_runtime/runtime.c.obj
                0x10001494                runtime_init
 .text.exit     0x10001584        0x4 CMakeFiles/adc_dma_capture.dir/C_/Users/tomas/Documents/pico-sdk/src/rp2_common/pico_runtime/runtime.c.obj
                0x10001584                exit
 .text.panic    0x10001588       0x30 CMakeFiles/adc_dma_capture.dir/C_/Users/tomas/Documents/pico-sdk/src/rp2_common/pico_runtime/runtime.c.obj
                0x10001588                panic
 .text.hard_assertion_failure
                0x100015b8        0xc CMakeFiles/adc_dma_capture.dir/C_/Users/tomas/Documents/pico-sdk/src/rp2_common/pico_runtime/runtime.c.obj
                0x100015b8                hard_assertion_failure
 .text.clocks_init
                0x100015c4      0x2bc CMakeFiles/adc_dma_capture.dir/C_/Users/tomas/Documents/pico-sdk/src/rp2_common/hardware_clocks/clocks.c.obj
                0x100015c4                clocks_init
 .text.irq_set_enabled
                0x10001880       0x24 CMakeFiles/adc_dma_capture.dir/C_/Users/tomas/Documents/pico-sdk/src/rp2_common/hardware_irq/irq.c.obj
                0x10001880                irq_set_enabled
 .text.irq_set_pending
                0x100018a4       0x10 CMakeFiles/adc_dma_capture.dir/C_/Users/tomas/Documents/pico-sdk/src/rp2_common/hardware_irq/irq.c.obj
                0x100018a4                irq_set_pending
 .text.irq_get_vtable_handler
                0x100018b4       0x10 CMakeFiles/adc_dma_capture.dir/C_/Users/tomas/Documents/pico-sdk/src/rp2_common/hardware_irq/irq.c.obj
                0x100018b4                irq_get_vtable_handler
 .text.irq_set_exclusive_handler
                0x100018c4       0x54 CMakeFiles/adc_dma_capture.dir/C_/Users/tomas/Documents/pico-sdk/src/rp2_common/hardware_irq/irq.c.obj
                0x100018c4                irq_set_exclusive_handler
 .text.irq_remove_handler
                0x10001918      0x1b4 CMakeFiles/adc_dma_capture.dir/C_/Users/tomas/Documents/pico-sdk/src/rp2_common/hardware_irq/irq.c.obj
                0x10001918                irq_remove_handler
 .text.irq_add_tail_to_free_list
                0x10001acc       0xb4 CMakeFiles/adc_dma_capture.dir/C_/Users/tomas/Documents/pico-sdk/src/rp2_common/hardware_irq/irq.c.obj
                0x10001acc                irq_add_tail_to_free_list
 .text.irq_init_priorities
                0x10001b80       0x24 CMakeFiles/adc_dma_capture.dir/C_/Users/tomas/Documents/pico-sdk/src/rp2_common/hardware_irq/irq.c.obj
                0x10001b80                irq_init_priorities
 .text.pll_init
                0x10001ba4       0xa8 CMakeFiles/adc_dma_capture.dir/C_/Users/tomas/Documents/pico-sdk/src/rp2_common/hardware_pll/pll.c.obj
                0x10001ba4                pll_init
 .text.watchdog_start_tick
                0x10001c4c       0x10 CMakeFiles/adc_dma_capture.dir/C_/Users/tomas/Documents/pico-sdk/src/rp2_common/hardware_watchdog/watchdog.c.obj
                0x10001c4c                watchdog_start_tick
 .text.watchdog_reboot
                0x10001c5c       0x98 CMakeFiles/adc_dma_capture.dir/C_/Users/tomas/Documents/pico-sdk/src/rp2_common/hardware_watchdog/watchdog.c.obj
                0x10001c5c                watchdog_reboot
 .text.xosc_init
                0x10001cf4       0x28 CMakeFiles/adc_dma_capture.dir/C_/Users/tomas/Documents/pico-sdk/src/rp2_common/hardware_xosc/xosc.c.obj
                0x10001cf4                xosc_init
 .text._out_null
                0x10001d1c        0x4 CMakeFiles/adc_dma_capture.dir/C_/Users/tomas/Documents/pico-sdk/src/rp2_common/pico_printf/printf.c.obj
 .text._out_rev
                0x10001d20       0x9c CMakeFiles/adc_dma_capture.dir/C_/Users/tomas/Documents/pico-sdk/src/rp2_common/pico_printf/printf.c.obj
 .text._ntoa_format
                0x10001dbc      0x1cc CMakeFiles/adc_dma_capture.dir/C_/Users/tomas/Documents/pico-sdk/src/rp2_common/pico_printf/printf.c.obj
 .text._out_char
                0x10001f88       0x10 CMakeFiles/adc_dma_capture.dir/C_/Users/tomas/Documents/pico-sdk/src/rp2_common/pico_printf/printf.c.obj
 .text._out_fct
                0x10001f98       0x10 CMakeFiles/adc_dma_capture.dir/C_/Users/tomas/Documents/pico-sdk/src/rp2_common/pico_printf/printf.c.obj
 .text._etoa    0x10001fa8      0x44c CMakeFiles/adc_dma_capture.dir/C_/Users/tomas/Documents/pico-sdk/src/rp2_common/pico_printf/printf.c.obj
 .text._ftoa    0x100023f4      0x398 CMakeFiles/adc_dma_capture.dir/C_/Users/tomas/Documents/pico-sdk/src/rp2_common/pico_printf/printf.c.obj
 .text._vsnprintf
                0x1000278c      0xb04 CMakeFiles/adc_dma_capture.dir/C_/Users/tomas/Documents/pico-sdk/src/rp2_common/pico_printf/printf.c.obj
 .text.vfctprintf
                0x10003290       0x20 CMakeFiles/adc_dma_capture.dir/C_/Users/tomas/Documents/pico-sdk/src/rp2_common/pico_printf/printf.c.obj
                0x10003290                vfctprintf
 .text.weak_raw_vprintf
                0x100032b0       0x30 CMakeFiles/adc_dma_capture.dir/C_/Users/tomas/Documents/pico-sdk/src/rp2_common/pico_printf/printf.c.obj
                0x100032b0                weak_raw_vprintf
 .text          0x100032e0       0x10 CMakeFiles/adc_dma_capture.dir/C_/Users/tomas/Documents/pico-sdk/src/rp2_common/pico_bit_ops/bit_ops_aeabi.S.obj
 .text.rom_func_lookup
                0x100032f0       0x10 CMakeFiles/adc_dma_capture.dir/C_/Users/tomas/Documents/pico-sdk/src/rp2_common/pico_bootrom/bootrom.c.obj
                0x100032f0                rom_func_lookup
 .text.rom_data_lookup
                0x10003300       0x10 CMakeFiles/adc_dma_capture.dir/C_/Users/tomas/Documents/pico-sdk/src/rp2_common/pico_bootrom/bootrom.c.obj
                0x10003300                rom_data_lookup
 .text.rom_funcs_lookup
                0x10003310       0x44 CMakeFiles/adc_dma_capture.dir/C_/Users/tomas/Documents/pico-sdk/src/rp2_common/pico_bootrom/bootrom.c.obj
                0x10003310                rom_funcs_lookup
 .text.__wrap___aeabi_idiv
                0x10003354       0x50 CMakeFiles/adc_dma_capture.dir/C_/Users/tomas/Documents/pico-sdk/src/rp2_common/pico_divider/divider.S.obj
                0x10003354                __wrap___aeabi_idivmod
                0x10003354                divmod_s32s32
                0x10003354                div_s32s32
                0x10003354                __wrap___aeabi_idiv
                0x1000335c                divmod_s32s32_unsafe
                0x10003388                divmod_s32s32_savestate
 .text.__wrap___aeabi_uidiv
                0x100033a4       0x4c CMakeFiles/adc_dma_capture.dir/C_/Users/tomas/Documents/pico-sdk/src/rp2_common/pico_divider/divider.S.obj
                0x100033a4                __wrap___aeabi_uidiv
                0x100033a4                __wrap___aeabi_uidivmod
                0x100033a4                div_u32u32
                0x100033a4                divmod_u32u32
                0x100033ac                divmod_u32u32_unsafe
                0x100033d4                divmod_u32u32_savestate
 .text.__wrap___aeabi_ldiv
                0x100033f0      0x434 CMakeFiles/adc_dma_capture.dir/C_/Users/tomas/Documents/pico-sdk/src/rp2_common/pico_divider/divider.S.obj
                0x100033f0                div_s64s64
                0x100033f0                divmod_s64s64
                0x100033f0                __wrap___aeabi_ldivmod
                0x10003428                divmod_u64u64
                0x10003428                div_u64u64
                0x10003428                __wrap___aeabi_uldivmod
                0x10003438                divmod_u64u64_savestate
                0x10003460                divmod_s64s64_unsafe
                0x100034e8                divmod_u64u64_unsafe
 .text.__wrap___aeabi_darithmetic
                0x10003824       0x80 CMakeFiles/adc_dma_capture.dir/C_/Users/tomas/Documents/pico-sdk/src/rp2_common/pico_double/double_aeabi.S.obj
                0x10003824                __wrap___aeabi_drsub
                0x1000382a                __wrap___aeabi_dsub
                0x1000383c                __wrap___aeabi_dadd
                0x1000384e                __wrap___aeabi_ddiv
                0x1000388a                __wrap___aeabi_dmul
 .text.__wrap___aeabi_cdcmple
                0x100038a4       0x6c CMakeFiles/adc_dma_capture.dir/C_/Users/tomas/Documents/pico-sdk/src/rp2_common/pico_double/double_aeabi.S.obj
                0x100038a4                __wrap___aeabi_cdrcmple
                0x100038b4                __wrap___aeabi_cdcmpeq
                0x100038b4                __wrap___aeabi_cdcmple
 .text.__wrap___aeabi_dcmplt
                0x10003910        0xc CMakeFiles/adc_dma_capture.dir/C_/Users/tomas/Documents/pico-sdk/src/rp2_common/pico_double/double_aeabi.S.obj
                0x10003910                __wrap___aeabi_dcmplt
 .text.__wrap___aeabi_dcmple
                0x1000391c       0x10 CMakeFiles/adc_dma_capture.dir/C_/Users/tomas/Documents/pico-sdk/src/rp2_common/pico_double/double_aeabi.S.obj
                0x1000391c                __wrap___aeabi_dcmple
 .text.__wrap___aeabi_dcmpge
                0x1000392c       0x10 CMakeFiles/adc_dma_capture.dir/C_/Users/tomas/Documents/pico-sdk/src/rp2_common/pico_double/double_aeabi.S.obj
                0x1000392c                __wrap___aeabi_dcmpge
 .text.__wrap___aeabi_dcmpgt
                0x1000393c        0xa CMakeFiles/adc_dma_capture.dir/C_/Users/tomas/Documents/pico-sdk/src/rp2_common/pico_double/double_aeabi.S.obj
                0x1000393c                __wrap___aeabi_dcmpgt
 .text.__wrap___aeabi_dcmpun
                0x10003946       0x1c CMakeFiles/adc_dma_capture.dir/C_/Users/tomas/Documents/pico-sdk/src/rp2_common/pico_double/double_aeabi.S.obj
                0x10003946                __wrap___aeabi_dcmpun
 *fill*         0x10003962        0x2 
 .text.__wrap___aeabi_i2d
                0x10003964       0x38 CMakeFiles/adc_dma_capture.dir/C_/Users/tomas/Documents/pico-sdk/src/rp2_common/pico_double/double_aeabi.S.obj
                0x10003964                __wrap___aeabi_ui2d
                0x1000396c                __wrap___aeabi_i2d
 .text.__wrap___aeabi_d2iz
                0x1000399c       0x48 CMakeFiles/adc_dma_capture.dir/C_/Users/tomas/Documents/pico-sdk/src/rp2_common/pico_double/double_aeabi.S.obj
                0x1000399c                double2int_z
                0x1000399c                __wrap___aeabi_d2iz
 .text.__wrap___aeabi_d2uiz
                0x100039e4       0x18 CMakeFiles/adc_dma_capture.dir/C_/Users/tomas/Documents/pico-sdk/src/rp2_common/pico_double/double_aeabi.S.obj
                0x100039e4                __wrap___aeabi_d2uiz
                0x100039e4                double2uint
 .text.__aeabi_double_init
                0x100039fc       0x94 CMakeFiles/adc_dma_capture.dir/C_/Users/tomas/Documents/pico-sdk/src/rp2_common/pico_double/double_init_rom.c.obj
                0x100039fc                __aeabi_double_init
 .text.double_table_shim_on_use_helper
                0x10003a90       0x2c CMakeFiles/adc_dma_capture.dir/C_/Users/tomas/Documents/pico-sdk/src/rp2_common/pico_double/double_v1_rom_shim.S.obj
                0x10003a90                double_table_shim_on_use_helper
 .text.__wrap___aeabi_dsub
                0x10003abc       0x10 CMakeFiles/adc_dma_capture.dir/C_/Users/tomas/Documents/pico-sdk/src/rp2_common/pico_double/double_v1_rom_shim.S.obj
                0x10003abc                drsub_shim
                0x10003ac2                dsub_shim
 .text.dadd_shim
                0x10003acc      0x15c CMakeFiles/adc_dma_capture.dir/C_/Users/tomas/Documents/pico-sdk/src/rp2_common/pico_double/double_v1_rom_shim.S.obj
                0x10003acc                dadd_shim
 .text.dmul_shim
                0x10003c28      0x15c CMakeFiles/adc_dma_capture.dir/C_/Users/tomas/Documents/pico-sdk/src/rp2_common/pico_double/double_v1_rom_shim.S.obj
                0x10003c28                dmul_shim
 .text.ddiv_shim
                0x10003d84      0x1b0 CMakeFiles/adc_dma_capture.dir/C_/Users/tomas/Documents/pico-sdk/src/rp2_common/pico_double/double_v1_rom_shim.S.obj
                0x10003d84                ddiv_shim
 .text.double2uint_shim
                0x10003f34        0xe CMakeFiles/adc_dma_capture.dir/C_/Users/tomas/Documents/pico-sdk/src/rp2_common/pico_double/double_v1_rom_shim.S.obj
                0x10003f34                double2uint_shim
                0x10003f36                double2ufix_shim
 *fill*         0x10003f42        0x2 
 .text.double2uint64_shim
                0x10003f44       0x70 CMakeFiles/adc_dma_capture.dir/C_/Users/tomas/Documents/pico-sdk/src/rp2_common/pico_double/double_v1_rom_shim.S.obj
                0x10003f44                double2uint64_shim
                0x10003f46                double2ufix64_shim
                0x10003f66                d2fix_a
 .text.dunpacks
                0x10003fb4       0x3c CMakeFiles/adc_dma_capture.dir/C_/Users/tomas/Documents/pico-sdk/src/rp2_common/pico_double/double_v1_rom_shim.S.obj
                0x10003fb4                dunpacks
 .text.__aeabi_lmul
                0x10003ff0       0x32 CMakeFiles/adc_dma_capture.dir/C_/Users/tomas/Documents/pico-sdk/src/rp2_common/pico_int64_ops/pico_int64_ops_aeabi.S.obj
                0x10003ff0                __wrap___aeabi_lmul
 *fill*         0x10004022        0x2 
 .text.__wrap___aeabi_farithmetic
                0x10004024       0x48 CMakeFiles/adc_dma_capture.dir/C_/Users/tomas/Documents/pico-sdk/src/rp2_common/pico_float/float_aeabi.S.obj
                0x10004024                __wrap___aeabi_frsub
                0x1000402a                __wrap___aeabi_fsub
                0x10004030                __wrap___aeabi_fadd
                0x10004036                __wrap___aeabi_fdiv
                0x1000405e                __wrap___aeabi_fmul
 .text.__wrap___aeabi_i2f
                0x1000406c       0x44 CMakeFiles/adc_dma_capture.dir/C_/Users/tomas/Documents/pico-sdk/src/rp2_common/pico_float/float_aeabi.S.obj
                0x1000406c                __wrap___aeabi_i2f
 .text.__wrap___aeabi_f2d
                0x100040b0       0x14 CMakeFiles/adc_dma_capture.dir/C_/Users/tomas/Documents/pico-sdk/src/rp2_common/pico_float/float_aeabi.S.obj
                0x100040b0                __wrap___aeabi_f2d
 .text.__aeabi_float_init
                0x100040c4       0x64 CMakeFiles/adc_dma_capture.dir/C_/Users/tomas/Documents/pico-sdk/src/rp2_common/pico_float/float_init_rom.c.obj
                0x100040c4                __aeabi_float_init
 .text.float_table_shim_on_use_helper
                0x10004128       0x2c CMakeFiles/adc_dma_capture.dir/C_/Users/tomas/Documents/pico-sdk/src/rp2_common/pico_float/float_v1_rom_shim.S.obj
                0x10004128                float_table_shim_on_use_helper
 .text.float2double_shim
                0x10004154       0x30 CMakeFiles/adc_dma_capture.dir/C_/Users/tomas/Documents/pico-sdk/src/rp2_common/pico_float/float_v1_rom_shim.S.obj
                0x10004154                float2double_shim
 .text          0x10004184       0x10 CMakeFiles/adc_dma_capture.dir/C_/Users/tomas/Documents/pico-sdk/src/rp2_common/pico_mem_ops/mem_ops_aeabi.S.obj
                0x10004184                __aeabi_mem_init
 .text.memset   0x10004194        0xc CMakeFiles/adc_dma_capture.dir/C_/Users/tomas/Documents/pico-sdk/src/rp2_common/pico_mem_ops/mem_ops_aeabi.S.obj
                0x10004194                __wrap_memset
 .text.memcpy   0x100041a0        0xc CMakeFiles/adc_dma_capture.dir/C_/Users/tomas/Documents/pico-sdk/src/rp2_common/pico_mem_ops/mem_ops_aeabi.S.obj
                0x100041a0                __wrap_memcpy
                0x100041a0                __wrap___aeabi_memcpy
 .text.stdio_out_chars_no_crlf
                0x100041ac       0x10 CMakeFiles/adc_dma_capture.dir/C_/Users/tomas/Documents/pico-sdk/src/rp2_common/pico_stdio/stdio.c.obj
 .text.stdio_out_chars_crlf
                0x100041bc       0xb4 CMakeFiles/adc_dma_capture.dir/C_/Users/tomas/Documents/pico-sdk/src/rp2_common/pico_stdio/stdio.c.obj
 .text.stdio_buffered_printer
                0x10004270       0x64 CMakeFiles/adc_dma_capture.dir/C_/Users/tomas/Documents/pico-sdk/src/rp2_common/pico_stdio/stdio.c.obj
 .text.stdio_put_string.isra.0
                0x100042d4       0xfc CMakeFiles/adc_dma_capture.dir/C_/Users/tomas/Documents/pico-sdk/src/rp2_common/pico_stdio/stdio.c.obj
 .text.__wrap_putchar
                0x100043d0       0xa0 CMakeFiles/adc_dma_capture.dir/C_/Users/tomas/Documents/pico-sdk/src/rp2_common/pico_stdio/stdio.c.obj
                0x100043d0                __wrap_putchar
 .text.__wrap_puts
                0x10004470       0x3c CMakeFiles/adc_dma_capture.dir/C_/Users/tomas/Documents/pico-sdk/src/rp2_common/pico_stdio/stdio.c.obj
                0x10004470                __wrap_puts
 .text.stdio_set_driver_enabled
                0x100044ac       0x3c CMakeFiles/adc_dma_capture.dir/C_/Users/tomas/Documents/pico-sdk/src/rp2_common/pico_stdio/stdio.c.obj
                0x100044ac                stdio_set_driver_enabled
 .text.__wrap_vprintf
                0x100044e8       0xd8 CMakeFiles/adc_dma_capture.dir/C_/Users/tomas/Documents/pico-sdk/src/rp2_common/pico_stdio/stdio.c.obj
                0x100044e8                __wrap_vprintf
 .text.__wrap_printf
                0x100045c0       0x18 CMakeFiles/adc_dma_capture.dir/C_/Users/tomas/Documents/pico-sdk/src/rp2_common/pico_stdio/stdio.c.obj
                0x100045c0                __wrap_printf
 .text.stdio_init_all
                0x100045d8        0x8 CMakeFiles/adc_dma_capture.dir/C_/Users/tomas/Documents/pico-sdk/src/rp2_common/pico_stdio/stdio.c.obj
                0x100045d8                stdio_init_all
 .text.resetd_init
                0x100045e0        0x4 CMakeFiles/adc_dma_capture.dir/C_/Users/tomas/Documents/pico-sdk/src/rp2_common/pico_stdio_usb/reset_interface.c.obj
 .text.resetd_reset
                0x100045e4        0xc CMakeFiles/adc_dma_capture.dir/C_/Users/tomas/Documents/pico-sdk/src/rp2_common/pico_stdio_usb/reset_interface.c.obj
 .text.resetd_open
                0x100045f0       0x28 CMakeFiles/adc_dma_capture.dir/C_/Users/tomas/Documents/pico-sdk/src/rp2_common/pico_stdio_usb/reset_interface.c.obj
 .text.resetd_xfer_cb
                0x10004618        0x4 CMakeFiles/adc_dma_capture.dir/C_/Users/tomas/Documents/pico-sdk/src/rp2_common/pico_stdio_usb/reset_interface.c.obj
 .text.resetd_control_xfer_cb
                0x1000461c       0x64 CMakeFiles/adc_dma_capture.dir/C_/Users/tomas/Documents/pico-sdk/src/rp2_common/pico_stdio_usb/reset_interface.c.obj
 .text.usbd_app_driver_get_cb
                0x10004680        0xc CMakeFiles/adc_dma_capture.dir/C_/Users/tomas/Documents/pico-sdk/src/rp2_common/pico_stdio_usb/reset_interface.c.obj
                0x10004680                usbd_app_driver_get_cb
 .text.tud_cdc_line_coding_cb
                0x1000468c       0x34 CMakeFiles/adc_dma_capture.dir/C_/Users/tomas/Documents/pico-sdk/src/rp2_common/pico_stdio_usb/reset_interface.c.obj
                0x1000468c                tud_cdc_line_coding_cb
 .text.stdio_usb_in_chars
                0x100046c0       0x68 CMakeFiles/adc_dma_capture.dir/C_/Users/tomas/Documents/pico-sdk/src/rp2_common/pico_stdio_usb/stdio_usb.c.obj
                0x100046c0                stdio_usb_in_chars
 .text.stdio_usb_out_chars
                0x10004728       0xe4 CMakeFiles/adc_dma_capture.dir/C_/Users/tomas/Documents/pico-sdk/src/rp2_common/pico_stdio_usb/stdio_usb.c.obj
 .text.timer_task
                0x1000480c       0x10 CMakeFiles/adc_dma_capture.dir/C_/Users/tomas/Documents/pico-sdk/src/rp2_common/pico_stdio_usb/stdio_usb.c.obj
 .text.low_priority_worker_irq
                0x1000481c       0x24 CMakeFiles/adc_dma_capture.dir/C_/Users/tomas/Documents/pico-sdk/src/rp2_common/pico_stdio_usb/stdio_usb.c.obj
 .text.stdio_usb_init
                0x10004840       0x90 CMakeFiles/adc_dma_capture.dir/C_/Users/tomas/Documents/pico-sdk/src/rp2_common/pico_stdio_usb/stdio_usb.c.obj
                0x10004840                stdio_usb_init
 .text.tud_descriptor_device_cb
                0x100048d0        0x8 CMakeFiles/adc_dma_capture.dir/C_/Users/tomas/Documents/pico-sdk/src/rp2_common/pico_stdio_usb/stdio_usb_descriptors.c.obj
                0x100048d0                tud_descriptor_device_cb
 .text.tud_descriptor_configuration_cb
                0x100048d8        0x8 CMakeFiles/adc_dma_capture.dir/C_/Users/tomas/Documents/pico-sdk/src/rp2_common/pico_stdio_usb/stdio_usb_descriptors.c.obj
                0x100048d8                tud_descriptor_configuration_cb
 .text.tud_descriptor_string_cb
                0x100048e0       0x74 CMakeFiles/adc_dma_capture.dir/C_/Users/tomas/Documents/pico-sdk/src/rp2_common/pico_stdio_usb/stdio_usb_descriptors.c.obj
                0x100048e0                tud_descriptor_string_cb
 .text.dcd_rp2040_irq
                0x10004954      0x21c CMakeFiles/adc_dma_capture.dir/C_/Users/tomas/Documents/pico-sdk/lib/tinyusb/src/portable/raspberrypi/rp2040/dcd_rp2040.c.obj
 .text.dcd_int_enable
                0x10004b70        0xc CMakeFiles/adc_dma_capture.dir/C_/Users/tomas/Documents/pico-sdk/lib/tinyusb/src/portable/raspberrypi/rp2040/dcd_rp2040.c.obj
                0x10004b70                dcd_int_enable
 .text.dcd_set_address
                0x10004b7c       0x14 CMakeFiles/adc_dma_capture.dir/C_/Users/tomas/Documents/pico-sdk/lib/tinyusb/src/portable/raspberrypi/rp2040/dcd_rp2040.c.obj
                0x10004b7c                dcd_set_address
 .text.dcd_connect
                0x10004b90       0x10 CMakeFiles/adc_dma_capture.dir/C_/Users/tomas/Documents/pico-sdk/lib/tinyusb/src/portable/raspberrypi/rp2040/dcd_rp2040.c.obj
                0x10004b90                dcd_connect
 .text.dcd_init
                0x10004ba0      0x144 CMakeFiles/adc_dma_capture.dir/C_/Users/tomas/Documents/pico-sdk/lib/tinyusb/src/portable/raspberrypi/rp2040/dcd_rp2040.c.obj
                0x10004ba0                dcd_init
 .text.dcd_edpt0_status_complete
                0x10004ce4       0x1c CMakeFiles/adc_dma_capture.dir/C_/Users/tomas/Documents/pico-sdk/lib/tinyusb/src/portable/raspberrypi/rp2040/dcd_rp2040.c.obj
                0x10004ce4                dcd_edpt0_status_complete
 .text.dcd_edpt_open
                0x10004d00       0xf0 CMakeFiles/adc_dma_capture.dir/C_/Users/tomas/Documents/pico-sdk/lib/tinyusb/src/portable/raspberrypi/rp2040/dcd_rp2040.c.obj
                0x10004d00                dcd_edpt_open
 .text.dcd_edpt_close_all
                0x10004df0       0xbc CMakeFiles/adc_dma_capture.dir/C_/Users/tomas/Documents/pico-sdk/lib/tinyusb/src/portable/raspberrypi/rp2040/dcd_rp2040.c.obj
                0x10004df0                dcd_edpt_close_all
 .text.dcd_edpt_xfer
                0x10004eac       0x24 CMakeFiles/adc_dma_capture.dir/C_/Users/tomas/Documents/pico-sdk/lib/tinyusb/src/portable/raspberrypi/rp2040/dcd_rp2040.c.obj
                0x10004eac                dcd_edpt_xfer
 .text.dcd_edpt_stall
                0x10004ed0       0x38 CMakeFiles/adc_dma_capture.dir/C_/Users/tomas/Documents/pico-sdk/lib/tinyusb/src/portable/raspberrypi/rp2040/dcd_rp2040.c.obj
                0x10004ed0                dcd_edpt_stall
 .text.dcd_edpt_clear_stall
                0x10004f08       0x30 CMakeFiles/adc_dma_capture.dir/C_/Users/tomas/Documents/pico-sdk/lib/tinyusb/src/portable/raspberrypi/rp2040/dcd_rp2040.c.obj
                0x10004f08                dcd_edpt_clear_stall
 .text._hw_endpoint_buffer_control_update32.part.0.isra.0
                0x10004f38       0x1c CMakeFiles/adc_dma_capture.dir/C_/Users/tomas/Documents/pico-sdk/lib/tinyusb/src/portable/raspberrypi/rp2040/rp2040_usb.c.obj
 .text.rp2040_usb_init
                0x10004f54       0x4c CMakeFiles/adc_dma_capture.dir/C_/Users/tomas/Documents/pico-sdk/lib/tinyusb/src/portable/raspberrypi/rp2040/rp2040_usb.c.obj
                0x10004f54                rp2040_usb_init
 .text.hw_endpoint_reset_transfer
                0x10004fa0        0xc CMakeFiles/adc_dma_capture.dir/C_/Users/tomas/Documents/pico-sdk/lib/tinyusb/src/portable/raspberrypi/rp2040/rp2040_usb.c.obj
                0x10004fa0                hw_endpoint_reset_transfer
 .text._hw_endpoint_buffer_control_update32
                0x10004fac       0x44 CMakeFiles/adc_dma_capture.dir/C_/Users/tomas/Documents/pico-sdk/lib/tinyusb/src/portable/raspberrypi/rp2040/rp2040_usb.c.obj
                0x10004fac                _hw_endpoint_buffer_control_update32
 .text.hw_endpoint_xfer_start
                0x10004ff0      0x138 CMakeFiles/adc_dma_capture.dir/C_/Users/tomas/Documents/pico-sdk/lib/tinyusb/src/portable/raspberrypi/rp2040/rp2040_usb.c.obj
                0x10004ff0                hw_endpoint_xfer_start
 .text.hw_endpoint_xfer_continue
                0x10005128      0x1e4 CMakeFiles/adc_dma_capture.dir/C_/Users/tomas/Documents/pico-sdk/lib/tinyusb/src/portable/raspberrypi/rp2040/rp2040_usb.c.obj
                0x10005128                hw_endpoint_xfer_continue
 .text.tud_mounted
                0x1000530c       0x10 CMakeFiles/adc_dma_capture.dir/C_/Users/tomas/Documents/pico-sdk/lib/tinyusb/src/device/usbd.c.obj
                0x1000530c                tud_mounted
 .text.tud_suspended
                0x1000531c       0x10 CMakeFiles/adc_dma_capture.dir/C_/Users/tomas/Documents/pico-sdk/lib/tinyusb/src/device/usbd.c.obj
                0x1000531c                tud_suspended
 .text.tud_inited
                0x1000532c        0xc CMakeFiles/adc_dma_capture.dir/C_/Users/tomas/Documents/pico-sdk/lib/tinyusb/src/device/usbd.c.obj
                0x1000532c                tud_inited
 .text.tud_init
                0x10005338       0xd8 CMakeFiles/adc_dma_capture.dir/C_/Users/tomas/Documents/pico-sdk/lib/tinyusb/src/device/usbd.c.obj
                0x10005338                tud_init
 .text.tud_task
                0x10005410      0x8ec CMakeFiles/adc_dma_capture.dir/C_/Users/tomas/Documents/pico-sdk/lib/tinyusb/src/device/usbd.c.obj
                0x10005410                tud_task
 .text.dcd_event_bus_signal
                0x10005cfc      0x120 CMakeFiles/adc_dma_capture.dir/C_/Users/tomas/Documents/pico-sdk/lib/tinyusb/src/device/usbd.c.obj
                0x10005cfc                dcd_event_bus_signal
 .text.dcd_event_bus_reset
                0x10005e1c       0x54 CMakeFiles/adc_dma_capture.dir/C_/Users/tomas/Documents/pico-sdk/lib/tinyusb/src/device/usbd.c.obj
                0x10005e1c                dcd_event_bus_reset
 .text.dcd_event_setup_received
                0x10005e70       0x50 CMakeFiles/adc_dma_capture.dir/C_/Users/tomas/Documents/pico-sdk/lib/tinyusb/src/device/usbd.c.obj
                0x10005e70                dcd_event_setup_received
 .text.dcd_event_xfer_complete
                0x10005ec0       0x68 CMakeFiles/adc_dma_capture.dir/C_/Users/tomas/Documents/pico-sdk/lib/tinyusb/src/device/usbd.c.obj
                0x10005ec0                dcd_event_xfer_complete
 .text.usbd_open_edpt_pair
                0x10005f28       0x80 CMakeFiles/adc_dma_capture.dir/C_/Users/tomas/Documents/pico-sdk/lib/tinyusb/src/device/usbd.c.obj
                0x10005f28                usbd_open_edpt_pair
 .text.usbd_edpt_open
                0x10005fa8       0x30 CMakeFiles/adc_dma_capture.dir/C_/Users/tomas/Documents/pico-sdk/lib/tinyusb/src/device/usbd.c.obj
                0x10005fa8                usbd_edpt_open
 .text.usbd_edpt_claim
                0x10005fd8       0x64 CMakeFiles/adc_dma_capture.dir/C_/Users/tomas/Documents/pico-sdk/lib/tinyusb/src/device/usbd.c.obj
                0x10005fd8                usbd_edpt_claim
 .text.usbd_edpt_release
                0x1000603c       0x4c CMakeFiles/adc_dma_capture.dir/C_/Users/tomas/Documents/pico-sdk/lib/tinyusb/src/device/usbd.c.obj
                0x1000603c                usbd_edpt_release
 .text.usbd_edpt_xfer
                0x10006088       0x48 CMakeFiles/adc_dma_capture.dir/C_/Users/tomas/Documents/pico-sdk/lib/tinyusb/src/device/usbd.c.obj
                0x10006088                usbd_edpt_xfer
 .text.tud_control_status
                0x100060d0       0x30 CMakeFiles/adc_dma_capture.dir/C_/Users/tomas/Documents/pico-sdk/lib/tinyusb/src/device/usbd_control.c.obj
                0x100060d0                tud_control_status
 .text.tud_control_xfer
                0x10006100       0xbc CMakeFiles/adc_dma_capture.dir/C_/Users/tomas/Documents/pico-sdk/lib/tinyusb/src/device/usbd_control.c.obj
                0x10006100                tud_control_xfer
 .text.usbd_control_reset
                0x100061bc       0x14 CMakeFiles/adc_dma_capture.dir/C_/Users/tomas/Documents/pico-sdk/lib/tinyusb/src/device/usbd_control.c.obj
                0x100061bc                usbd_control_reset
 .text.usbd_control_set_complete_callback
                0x100061d0        0xc CMakeFiles/adc_dma_capture.dir/C_/Users/tomas/Documents/pico-sdk/lib/tinyusb/src/device/usbd_control.c.obj
                0x100061d0                usbd_control_set_complete_callback
 .text.usbd_control_set_request
                0x100061dc       0x1c CMakeFiles/adc_dma_capture.dir/C_/Users/tomas/Documents/pico-sdk/lib/tinyusb/src/device/usbd_control.c.obj
                0x100061dc                usbd_control_set_request
 .text.usbd_control_xfer_cb
                0x100061f8       0xfc CMakeFiles/adc_dma_capture.dir/C_/Users/tomas/Documents/pico-sdk/lib/tinyusb/src/device/usbd_control.c.obj
                0x100061f8                usbd_control_xfer_cb
 .text.tud_cdc_n_connected
                0x100062f4       0x30 CMakeFiles/adc_dma_capture.dir/C_/Users/tomas/Documents/pico-sdk/lib/tinyusb/src/class/cdc/cdc_device.c.obj
                0x100062f4                tud_cdc_n_connected
 .text.tud_cdc_n_available
                0x10006324       0x18 CMakeFiles/adc_dma_capture.dir/C_/Users/tomas/Documents/pico-sdk/lib/tinyusb/src/class/cdc/cdc_device.c.obj
                0x10006324                tud_cdc_n_available
 .text.tud_cdc_n_read
                0x1000633c       0x70 CMakeFiles/adc_dma_capture.dir/C_/Users/tomas/Documents/pico-sdk/lib/tinyusb/src/class/cdc/cdc_device.c.obj
                0x1000633c                tud_cdc_n_read
 .text.tud_cdc_n_write_flush
                0x100063ac       0x78 CMakeFiles/adc_dma_capture.dir/C_/Users/tomas/Documents/pico-sdk/lib/tinyusb/src/class/cdc/cdc_device.c.obj
                0x100063ac                tud_cdc_n_write_flush
 .text.tud_cdc_n_write
                0x10006424       0x34 CMakeFiles/adc_dma_capture.dir/C_/Users/tomas/Documents/pico-sdk/lib/tinyusb/src/class/cdc/cdc_device.c.obj
                0x10006424                tud_cdc_n_write
 .text.tud_cdc_n_write_available
                0x10006458       0x18 CMakeFiles/adc_dma_capture.dir/C_/Users/tomas/Documents/pico-sdk/lib/tinyusb/src/class/cdc/cdc_device.c.obj
                0x10006458                tud_cdc_n_write_available
 .text.cdcd_init
                0x10006470       0x7c CMakeFiles/adc_dma_capture.dir/C_/Users/tomas/Documents/pico-sdk/lib/tinyusb/src/class/cdc/cdc_device.c.obj
                0x10006470                cdcd_init
 .text.cdcd_reset
                0x100064ec       0x2c CMakeFiles/adc_dma_capture.dir/C_/Users/tomas/Documents/pico-sdk/lib/tinyusb/src/class/cdc/cdc_device.c.obj
                0x100064ec                cdcd_reset
 .text.cdcd_open
                0x10006518       0xe4 CMakeFiles/adc_dma_capture.dir/C_/Users/tomas/Documents/pico-sdk/lib/tinyusb/src/class/cdc/cdc_device.c.obj
                0x10006518                cdcd_open
 .text.cdcd_control_xfer_cb
                0x100065fc       0xe4 CMakeFiles/adc_dma_capture.dir/C_/Users/tomas/Documents/pico-sdk/lib/tinyusb/src/class/cdc/cdc_device.c.obj
                0x100065fc                cdcd_control_xfer_cb
 .text.cdcd_xfer_cb
                0x100066e0      0x148 CMakeFiles/adc_dma_capture.dir/C_/Users/tomas/Documents/pico-sdk/lib/tinyusb/src/class/cdc/cdc_device.c.obj
                0x100066e0                cdcd_xfer_cb
 .text.tusb_init
                0x10006828        0xc CMakeFiles/adc_dma_capture.dir/C_/Users/tomas/Documents/pico-sdk/lib/tinyusb/src/tusb.c.obj
                0x10006828                tusb_init
 .text.tusb_inited
                0x10006834        0x8 CMakeFiles/adc_dma_capture.dir/C_/Users/tomas/Documents/pico-sdk/lib/tinyusb/src/tusb.c.obj
                0x10006834                tusb_inited
 .text.tu_edpt_validate
                0x1000683c       0x78 CMakeFiles/adc_dma_capture.dir/C_/Users/tomas/Documents/pico-sdk/lib/tinyusb/src/tusb.c.obj
                0x1000683c                tu_edpt_validate
 .text.tu_edpt_bind_driver
                0x100068b4       0x2c CMakeFiles/adc_dma_capture.dir/C_/Users/tomas/Documents/pico-sdk/lib/tinyusb/src/tusb.c.obj
                0x100068b4                tu_edpt_bind_driver
 .text.tu_fifo_config
                0x100068e0       0x78 CMakeFiles/adc_dma_capture.dir/C_/Users/tomas/Documents/pico-sdk/lib/tinyusb/src/common/tusb_fifo.c.obj
                0x100068e0                tu_fifo_config
 .text.tu_fifo_count
                0x10006958       0x20 CMakeFiles/adc_dma_capture.dir/C_/Users/tomas/Documents/pico-sdk/lib/tinyusb/src/common/tusb_fifo.c.obj
                0x10006958                tu_fifo_count
 .text.tu_fifo_empty
                0x10006978       0x10 CMakeFiles/adc_dma_capture.dir/C_/Users/tomas/Documents/pico-sdk/lib/tinyusb/src/common/tusb_fifo.c.obj
                0x10006978                tu_fifo_empty
 .text.tu_fifo_remaining
                0x10006988       0x1c CMakeFiles/adc_dma_capture.dir/C_/Users/tomas/Documents/pico-sdk/lib/tinyusb/src/common/tusb_fifo.c.obj
                0x10006988                tu_fifo_remaining
 .text.tu_fifo_read
                0x100069a4       0x9c CMakeFiles/adc_dma_capture.dir/C_/Users/tomas/Documents/pico-sdk/lib/tinyusb/src/common/tusb_fifo.c.obj
                0x100069a4                tu_fifo_read
 .text.tu_fifo_read_n
                0x10006a40      0x100 CMakeFiles/adc_dma_capture.dir/C_/Users/tomas/Documents/pico-sdk/lib/tinyusb/src/common/tusb_fifo.c.obj
                0x10006a40                tu_fifo_read_n
 .text.tu_fifo_write
                0x10006b40       0x7c CMakeFiles/adc_dma_capture.dir/C_/Users/tomas/Documents/pico-sdk/lib/tinyusb/src/common/tusb_fifo.c.obj
                0x10006b40                tu_fifo_write
 .text.tu_fifo_write_n
                0x10006bbc      0x100 CMakeFiles/adc_dma_capture.dir/C_/Users/tomas/Documents/pico-sdk/lib/tinyusb/src/common/tusb_fifo.c.obj
                0x10006bbc                tu_fifo_write_n
 .text.tu_fifo_clear
                0x10006cbc       0x4c CMakeFiles/adc_dma_capture.dir/C_/Users/tomas/Documents/pico-sdk/lib/tinyusb/src/common/tusb_fifo.c.obj
                0x10006cbc                tu_fifo_clear
 .text.tu_fifo_set_overwritable
                0x10006d08       0x3c CMakeFiles/adc_dma_capture.dir/C_/Users/tomas/Documents/pico-sdk/lib/tinyusb/src/common/tusb_fifo.c.obj
                0x10006d08                tu_fifo_set_overwritable
 .text.startup._retrieve_unique_id_on_boot
                0x10006d44       0x10 CMakeFiles/adc_dma_capture.dir/C_/Users/tomas/Documents/pico-sdk/src/rp2_common/pico_unique_id/unique_id.c.obj
 .text.pico_get_unique_board_id_string
                0x10006d54      0x1a8 CMakeFiles/adc_dma_capture.dir/C_/Users/tomas/Documents/pico-sdk/src/rp2_common/pico_unique_id/unique_id.c.obj
                0x10006d54                pico_get_unique_board_id_string
 .text.flash_get_unique_id
                0x10006efc       0x40 CMakeFiles/adc_dma_capture.dir/C_/Users/tomas/Documents/pico-sdk/src/rp2_common/hardware_flash/flash.c.obj
                0x10006efc                flash_get_unique_id
 .text.adc_init
                0x10006f3c       0x38 CMakeFiles/adc_dma_capture.dir/C_/Users/tomas/Documents/pico-sdk/src/rp2_common/hardware_adc/adc.c.obj
                0x10006f3c                adc_init
 .text.dma_claim_unused_channel
                0x10006f74       0x20 CMakeFiles/adc_dma_capture.dir/C_/Users/tomas/Documents/pico-sdk/src/rp2_common/hardware_dma/dma.c.obj
                0x10006f74                dma_claim_unused_channel
 .text.strlen   0x10006f94       0x5c c:/progra~2/gnuarm~1/102021~1.10/bin/../lib/gcc/arm-none-eabi/10.3.1/../../../../arm-none-eabi/lib/thumb/v6-m/nofp\libc.a(lib_a-strlen-stub.o)
                0x10006f94                strlen
 *(.fini)
 .fini          0x10006ff0        0x4 c:/progra~2/gnuarm~1/102021~1.10/bin/../lib/gcc/arm-none-eabi/10.3.1/thumb/v6-m/nofp/crti.o
                0x10006ff0                _fini
 *fill*         0x10006ff4        0x4 
 .fini.__stub   0x10006ff8       0x70 linker stubs
 *crtbegin.o(.ctors)
 *crtbegin?.o(.ctors)
 *(EXCLUDE_FILE(*crtend.o *crtend?.o) .ctors)
 *(SORT_BY_NAME(.ctors.*))
 *(.ctors)
 *crtbegin.o(.dtors)
 *crtbegin?.o(.dtors)
 *(EXCLUDE_FILE(*crtend.o *crtend?.o) .dtors)
 *(SORT_BY_NAME(.dtors.*))
 *(.dtors)
 *(.eh_frame*)
 .eh_frame      0x10007068        0x0 c:/progra~2/gnuarm~1/102021~1.10/bin/../lib/gcc/arm-none-eabi/10.3.1/thumb/v6-m/nofp/crtbegin.o
                0x10007068                . = ALIGN (0x4)

.glue_7         0x10007068        0x0
 .glue_7        0x10007068        0x0 linker stubs

.glue_7t        0x10007068        0x0
 .glue_7t       0x10007068        0x0 linker stubs

.vfp11_veneer   0x10007068        0x0
 .vfp11_veneer  0x10007068        0x0 linker stubs

.v4_bx          0x10007068        0x0
 .v4_bx         0x10007068        0x0 linker stubs

.iplt           0x10007068        0x0
 .iplt          0x10007068        0x0 c:/progra~2/gnuarm~1/102021~1.10/bin/../lib/gcc/arm-none-eabi/10.3.1/thumb/v6-m/nofp/crtbegin.o

.rodata         0x10007068      0x534
 *(EXCLUDE_FILE(*libm.a: *libc.a:*lib_a-mem*.o *libgcc.a:) .rodata*)
 .rodata.dma_handler.str1.4
                0x10007068        0xd CMakeFiles/adc_dma_capture.dir/dma_capture.c.obj
 *fill*         0x10007075        0x3 
 .rodata.spin_lock_claim_unused.str1.4
                0x10007078       0x1b CMakeFiles/adc_dma_capture.dir/C_/Users/tomas/Documents/pico-sdk/src/rp2_common/hardware_sync/sync.c.obj
 *fill*         0x10007093        0x1 
 .rodata.hardware_alarm_claim.str1.4
                0x10007094       0x22 CMakeFiles/adc_dma_capture.dir/C_/Users/tomas/Documents/pico-sdk/src/rp2_common/hardware_timer/timer.c.obj
 *fill*         0x100070b6        0x2 
 .rodata.panic.str1.4
                0x100070b8       0x12 CMakeFiles/adc_dma_capture.dir/C_/Users/tomas/Documents/pico-sdk/src/rp2_common/pico_runtime/runtime.c.obj
 *fill*         0x100070ca        0x2 
 .rodata.hard_assertion_failure.str1.4
                0x100070cc        0xc CMakeFiles/adc_dma_capture.dir/C_/Users/tomas/Documents/pico-sdk/src/rp2_common/pico_runtime/runtime.c.obj
 .rodata._ftoa.str1.4
                0x100070d8       0x15 CMakeFiles/adc_dma_capture.dir/C_/Users/tomas/Documents/pico-sdk/src/rp2_common/pico_printf/printf.c.obj
 *fill*         0x100070ed        0x3 
 .rodata._vsnprintf
                0x100070f0      0x1e0 CMakeFiles/adc_dma_capture.dir/C_/Users/tomas/Documents/pico-sdk/src/rp2_common/pico_printf/printf.c.obj
 .rodata.pow10.0
                0x100072d0       0x50 CMakeFiles/adc_dma_capture.dir/C_/Users/tomas/Documents/pico-sdk/src/rp2_common/pico_printf/printf.c.obj
 .rodata.str1.4
                0x10007320       0x44 CMakeFiles/adc_dma_capture.dir/C_/Users/tomas/Documents/pico-sdk/src/rp2_common/pico_standard_link/binary_info.c.obj
 .rodata.__bi_44
                0x10007364        0xc CMakeFiles/adc_dma_capture.dir/C_/Users/tomas/Documents/pico-sdk/src/rp2_common/pico_standard_link/binary_info.c.obj
 .rodata.__bi_75
                0x10007370        0xc CMakeFiles/adc_dma_capture.dir/C_/Users/tomas/Documents/pico-sdk/src/rp2_common/pico_standard_link/binary_info.c.obj
 .rodata.__bi_81
                0x1000737c        0xc CMakeFiles/adc_dma_capture.dir/C_/Users/tomas/Documents/pico-sdk/src/rp2_common/pico_standard_link/binary_info.c.obj
 .rodata.crlf_str.0
                0x10007388        0x2 CMakeFiles/adc_dma_capture.dir/C_/Users/tomas/Documents/pico-sdk/src/rp2_common/pico_stdio/stdio.c.obj
 *fill*         0x1000738a        0x2 
 .rodata._resetd_driver
                0x1000738c       0x18 CMakeFiles/adc_dma_capture.dir/C_/Users/tomas/Documents/pico-sdk/src/rp2_common/pico_stdio_usb/reset_interface.c.obj
 .rodata.str1.4
                0x100073a4       0x13 CMakeFiles/adc_dma_capture.dir/C_/Users/tomas/Documents/pico-sdk/src/rp2_common/pico_stdio_usb/stdio_usb.c.obj
 *fill*         0x100073b7        0x1 
 .rodata.__bi_93.0
                0x100073b8        0xc CMakeFiles/adc_dma_capture.dir/C_/Users/tomas/Documents/pico-sdk/src/rp2_common/pico_stdio_usb/stdio_usb.c.obj
 .rodata.str1.4
                0x100073c4       0x2a CMakeFiles/adc_dma_capture.dir/C_/Users/tomas/Documents/pico-sdk/src/rp2_common/pico_stdio_usb/stdio_usb_descriptors.c.obj
 *fill*         0x100073ee        0x2 
 .rodata.usbd_desc_cfg
                0x100073f0       0x54 CMakeFiles/adc_dma_capture.dir/C_/Users/tomas/Documents/pico-sdk/src/rp2_common/pico_stdio_usb/stdio_usb_descriptors.c.obj
 .rodata.usbd_desc_device
                0x10007444       0x12 CMakeFiles/adc_dma_capture.dir/C_/Users/tomas/Documents/pico-sdk/src/rp2_common/pico_stdio_usb/stdio_usb_descriptors.c.obj
 *fill*         0x10007456        0x2 
 .rodata.usbd_desc_str
                0x10007458       0x18 CMakeFiles/adc_dma_capture.dir/C_/Users/tomas/Documents/pico-sdk/src/rp2_common/pico_stdio_usb/stdio_usb_descriptors.c.obj
 .rodata.dcd_rp2040_irq.str1.4
                0x10007470       0x14 CMakeFiles/adc_dma_capture.dir/C_/Users/tomas/Documents/pico-sdk/lib/tinyusb/src/portable/raspberrypi/rp2040/dcd_rp2040.c.obj
 .rodata._hw_endpoint_buffer_control_update32.part.0.isra.0.str1.4
                0x10007484       0x1f CMakeFiles/adc_dma_capture.dir/C_/Users/tomas/Documents/pico-sdk/lib/tinyusb/src/portable/raspberrypi/rp2040/rp2040_usb.c.obj
 *fill*         0x100074a3        0x1 
 .rodata.hw_endpoint_xfer_continue.str1.4
                0x100074a4       0x29 CMakeFiles/adc_dma_capture.dir/C_/Users/tomas/Documents/pico-sdk/lib/tinyusb/src/portable/raspberrypi/rp2040/rp2040_usb.c.obj
 *fill*         0x100074cd        0x3 
 .rodata.str1.4
                0x100074d0        0x7 CMakeFiles/adc_dma_capture.dir/C_/Users/tomas/Documents/pico-sdk/lib/tinyusb/src/portable/raspberrypi/rp2040/rp2040_usb.c.obj
 *fill*         0x100074d7        0x1 
 .rodata.tud_task
                0x100074d8       0x8c CMakeFiles/adc_dma_capture.dir/C_/Users/tomas/Documents/pico-sdk/lib/tinyusb/src/device/usbd.c.obj
 .rodata._usbd_driver
                0x10007564       0x18 CMakeFiles/adc_dma_capture.dir/C_/Users/tomas/Documents/pico-sdk/lib/tinyusb/src/device/usbd.c.obj
 .rodata.dma_claim_unused_channel.str1.4
                0x1000757c       0x1e CMakeFiles/adc_dma_capture.dir/C_/Users/tomas/Documents/pico-sdk/src/rp2_common/hardware_dma/dma.c.obj
                0x1000759c                . = ALIGN (0x4)
 *fill*         0x1000759a        0x2 
 *(SORT_BY_ALIGNMENT(SORT_BY_NAME(.flashdata*)))
                0x1000759c                . = ALIGN (0x4)

.rel.dyn        0x1000759c        0x0
 .rel.iplt      0x1000759c        0x0 c:/progra~2/gnuarm~1/102021~1.10/bin/../lib/gcc/arm-none-eabi/10.3.1/thumb/v6-m/nofp/crtbegin.o

.ARM.extab
 *(.ARM.extab* .gnu.linkonce.armextab.*)
                0x1000759c                __exidx_start = .

.ARM.exidx
 *(.ARM.exidx* .gnu.linkonce.armexidx.*)
                0x1000759c                __exidx_end = .
                0x1000759c                . = ALIGN (0x4)
                0x1000759c                __binary_info_start = .

.binary_info    0x1000759c       0x20
 *(.binary_info.keep.*)
 .binary_info.keep.__bi_ptr22
                0x1000759c        0x4 CMakeFiles/adc_dma_capture.dir/C_/Users/tomas/Documents/pico-sdk/src/rp2_common/pico_standard_link/binary_info.c.obj
 .binary_info.keep.__bi_ptr30
                0x100075a0        0x4 CMakeFiles/adc_dma_capture.dir/C_/Users/tomas/Documents/pico-sdk/src/rp2_common/pico_standard_link/binary_info.c.obj
 .binary_info.keep.__bi_ptr38
                0x100075a4        0x4 CMakeFiles/adc_dma_capture.dir/C_/Users/tomas/Documents/pico-sdk/src/rp2_common/pico_standard_link/binary_info.c.obj
 .binary_info.keep.__bi_ptr44
                0x100075a8        0x4 CMakeFiles/adc_dma_capture.dir/C_/Users/tomas/Documents/pico-sdk/src/rp2_common/pico_standard_link/binary_info.c.obj
 .binary_info.keep.__bi_ptr50
                0x100075ac        0x4 CMakeFiles/adc_dma_capture.dir/C_/Users/tomas/Documents/pico-sdk/src/rp2_common/pico_standard_link/binary_info.c.obj
 .binary_info.keep.__bi_ptr75
                0x100075b0        0x4 CMakeFiles/adc_dma_capture.dir/C_/Users/tomas/Documents/pico-sdk/src/rp2_common/pico_standard_link/binary_info.c.obj
 .binary_info.keep.__bi_ptr81
                0x100075b4        0x4 CMakeFiles/adc_dma_capture.dir/C_/Users/tomas/Documents/pico-sdk/src/rp2_common/pico_standard_link/binary_info.c.obj
 *(.binary_info.*)
 .binary_info.__bi_ptr93
                0x100075b8        0x4 CMakeFiles/adc_dma_capture.dir/C_/Users/tomas/Documents/pico-sdk/src/rp2_common/pico_stdio_usb/stdio_usb.c.obj
                0x100075bc                __binary_info_end = .
                0x100075bc                . = ALIGN (0x4)
                0x100075bc                __etext = .

.ram_vector_table
                0x20000000       0xc0
 *(.ram_vector_table)
 .ram_vector_table
                0x20000000       0xc0 CMakeFiles/adc_dma_capture.dir/C_/Users/tomas/Documents/pico-sdk/src/rp2_common/pico_runtime/runtime.c.obj
                0x20000000                ram_vector_table

.data           0x200000c0      0x3c0 load address 0x100075bc
                0x200000c0                __data_start__ = .
 *(vtable)
 *(.time_critical*)
 .time_critical.mutex_enter_blocking
                0x200000c0       0x48 CMakeFiles/adc_dma_capture.dir/C_/Users/tomas/Documents/pico-sdk/src/common/pico_sync/mutex.c.obj
                0x200000c0                mutex_enter_blocking
 .time_critical.mutex_try_enter
                0x20000108       0x44 CMakeFiles/adc_dma_capture.dir/C_/Users/tomas/Documents/pico-sdk/src/common/pico_sync/mutex.c.obj
                0x20000108                mutex_try_enter
 .time_critical.mutex_enter_timeout_ms
                0x2000014c       0xa0 CMakeFiles/adc_dma_capture.dir/C_/Users/tomas/Documents/pico-sdk/src/common/pico_sync/mutex.c.obj
                0x2000014c                mutex_enter_timeout_ms
 .time_critical.mutex_exit
                0x200001ec       0x28 CMakeFiles/adc_dma_capture.dir/C_/Users/tomas/Documents/pico-sdk/src/common/pico_sync/mutex.c.obj
                0x200001ec                mutex_exit
 .time_critical.flash_init_boot2_copyout
                0x20000214       0x30 CMakeFiles/adc_dma_capture.dir/C_/Users/tomas/Documents/pico-sdk/src/rp2_common/hardware_flash/flash.c.obj
 .time_critical.flash_enable_xip_via_boot2
                0x20000244       0x10 CMakeFiles/adc_dma_capture.dir/C_/Users/tomas/Documents/pico-sdk/src/rp2_common/hardware_flash/flash.c.obj
 .time_critical.flash_cs_force
                0x20000254       0x38 CMakeFiles/adc_dma_capture.dir/C_/Users/tomas/Documents/pico-sdk/src/rp2_common/hardware_flash/flash.c.obj
 .time_critical.flash_do_cmd
                0x2000028c       0xc4 CMakeFiles/adc_dma_capture.dir/C_/Users/tomas/Documents/pico-sdk/src/rp2_common/hardware_flash/flash.c.obj
                0x2000028c                flash_do_cmd
 *(.text*)
 .text          0x20000350        0x4 c:/progra~2/gnuarm~1/102021~1.10/bin/../lib/gcc/arm-none-eabi/10.3.1/thumb/v6-m/nofp\libgcc.a(_dvmd_tls.o)
                0x20000350                __aeabi_idiv0
                0x20000350                __aeabi_ldiv0
 *fill*         0x20000354        0x4 
 .text.__stub   0x20000358       0x30 linker stubs
                0x20000388                . = ALIGN (0x4)
 *(.rodata*)
                0x20000388                . = ALIGN (0x4)
 *(.data*)
 .data.striped_spin_lock_num
                0x20000388        0x1 CMakeFiles/adc_dma_capture.dir/C_/Users/tomas/Documents/pico-sdk/src/rp2_common/hardware_sync/sync.c.obj
 *fill*         0x20000389        0x3 
 .data.default_alarm_pool
                0x2000038c       0x18 CMakeFiles/adc_dma_capture.dir/C_/Users/tomas/Documents/pico-sdk/src/common/pico_time/time.c.obj
 .data.default_alarm_pool_heap
                0x200003a4       0x10 CMakeFiles/adc_dma_capture.dir/C_/Users/tomas/Documents/pico-sdk/src/common/pico_time/time.c.obj
 .data          0x200003b4       0x48 CMakeFiles/adc_dma_capture.dir/C_/Users/tomas/Documents/pico-sdk/src/rp2_common/hardware_irq/irq_handler_chain.S.obj
                0x200003b4                irq_handler_chain_slots
                0x200003e4                irq_handler_chain_first_slot
                0x200003ee                irq_handler_chain_remove_tail
 *fill*         0x200003fc        0x4 
 .data.aeabi_bits_funcs
                0x20000400       0x10 CMakeFiles/adc_dma_capture.dir/C_/Users/tomas/Documents/pico-sdk/src/rp2_common/pico_bit_ops/bit_ops_aeabi.S.obj
                0x20000400                aeabi_bits_funcs
                0x20000410                aeabi_bits_funcs_end
 .data.aeabi_mem_funcs
                0x20000410       0x10 CMakeFiles/adc_dma_capture.dir/C_/Users/tomas/Documents/pico-sdk/src/rp2_common/pico_mem_ops/mem_ops_aeabi.S.obj
                0x20000410                aeabi_mem_funcs
                0x20000420                aeabi_mem_funcs_end
 .data.stdio_usb
                0x20000420       0x14 CMakeFiles/adc_dma_capture.dir/C_/Users/tomas/Documents/pico-sdk/src/rp2_common/pico_stdio_usb/stdio_usb.c.obj
                0x20000420                stdio_usb
 .data.ep_dir_string
                0x20000434        0x8 CMakeFiles/adc_dma_capture.dir/C_/Users/tomas/Documents/pico-sdk/lib/tinyusb/src/portable/raspberrypi/rp2040/rp2040_usb.c.obj
                0x20000434                ep_dir_string
 .data._usbd_qdef
                0x2000043c       0x24 CMakeFiles/adc_dma_capture.dir/C_/Users/tomas/Documents/pico-sdk/lib/tinyusb/src/device/usbd.c.obj
                0x2000043c                _usbd_qdef
                0x20000460                . = ALIGN (0x4)
 *(.after_data.*)
                0x20000460                . = ALIGN (0x4)
                0x20000460                PROVIDE (__mutex_array_start = .)
 *(SORT_BY_NAME(.mutex_array.*))
 *(.mutex_array)
 .mutex_array   0x20000460        0x8 CMakeFiles/adc_dma_capture.dir/C_/Users/tomas/Documents/pico-sdk/src/rp2_common/pico_stdio/stdio.c.obj
                0x20000468                PROVIDE (__mutex_array_end = .)
                0x20000468                . = ALIGN (0x4)
                0x20000468                PROVIDE (__preinit_array_start = .)
 *(SORT_BY_NAME(.preinit_array.*))
 .preinit_array.00001
                0x20000468        0x4 CMakeFiles/adc_dma_capture.dir/C_/Users/tomas/Documents/pico-sdk/src/rp2_common/pico_mem_ops/mem_ops_aeabi.S.obj
 .preinit_array.00010
                0x2000046c        0x4 CMakeFiles/adc_dma_capture.dir/C_/Users/tomas/Documents/pico-sdk/src/rp2_common/pico_bit_ops/bit_ops_aeabi.S.obj
 .preinit_array.00020
                0x20000470        0x4 CMakeFiles/adc_dma_capture.dir/C_/Users/tomas/Documents/pico-sdk/src/rp2_common/pico_double/double_aeabi.S.obj
 .preinit_array.00020
                0x20000474        0x4 CMakeFiles/adc_dma_capture.dir/C_/Users/tomas/Documents/pico-sdk/src/rp2_common/pico_float/float_aeabi.S.obj
 *(.preinit_array)
                0x20000478                PROVIDE (__preinit_array_end = .)
                0x20000478                . = ALIGN (0x4)
                0x20000478                PROVIDE (__init_array_start = .)
 *(SORT_BY_NAME(.init_array.*))
 *(.init_array)
 .init_array    0x20000478        0x4 c:/progra~2/gnuarm~1/102021~1.10/bin/../lib/gcc/arm-none-eabi/10.3.1/thumb/v6-m/nofp/crtbegin.o
 .init_array    0x2000047c        0x4 CMakeFiles/adc_dma_capture.dir/C_/Users/tomas/Documents/pico-sdk/src/rp2_common/pico_unique_id/unique_id.c.obj
                0x20000480                PROVIDE (__init_array_end = .)
                0x20000480                . = ALIGN (0x4)
                [!provide]                PROVIDE (__fini_array_start = .)
 *(SORT_BY_NAME(.fini_array.*))
 *(.fini_array)
                [!provide]                PROVIDE (__fini_array_end = .)
 *(.jcr)
                0x20000480                . = ALIGN (0x4)
                0x20000480                __data_end__ = .

.igot.plt       0x20000480        0x0 load address 0x1000797c
 .igot.plt      0x20000480        0x0 c:/progra~2/gnuarm~1/102021~1.10/bin/../lib/gcc/arm-none-eabi/10.3.1/thumb/v6-m/nofp/crtbegin.o

.uninitialized_data
                0x20000480        0x0 load address 0x1000797c
                0x20000480                . = ALIGN (0x4)
 *(.uninitialized_data*)

.scratch_x      0x20040000        0x0 load address 0x1000797c
                0x20040000                __scratch_x_start__ = .
 *(.scratch_x.*)
                0x20040000                . = ALIGN (0x4)
                0x20040000                __scratch_x_end__ = .
                0x1000797c                __scratch_x_source__ = LOADADDR (.scratch_x)

.scratch_y      0x20041000        0x0 load address 0x1000797c
                0x20041000                __scratch_y_start__ = .
 *(.scratch_y.*)
                0x20041000                . = ALIGN (0x4)
                0x20041000                __scratch_y_end__ = .
                0x1000797c                __scratch_y_source__ = LOADADDR (.scratch_y)

.bss            0x20000480     0x1d28
                0x20000480                . = ALIGN (0x4)
                0x20000480                __bss_start__ = .
 *(SORT_BY_ALIGNMENT(SORT_BY_NAME(.bss*)))
 .bss.default_alarm_pool_entries
                0x20000480      0x100 CMakeFiles/adc_dma_capture.dir/C_/Users/tomas/Documents/pico-sdk/src/common/pico_time/time.c.obj
 .bss.last_avail_time.1
                0x20000580        0x8 CMakeFiles/adc_dma_capture.dir/C_/Users/tomas/Documents/pico-sdk/src/rp2_common/pico_stdio_usb/stdio_usb.c.obj
 .bss.sd_table  0x20000588      0x100 CMakeFiles/adc_dma_capture.dir/C_/Users/tomas/Documents/pico-sdk/src/rp2_common/pico_double/double_init_rom.c.obj
                0x20000588                sd_table
 .bss.sf_table  0x20000688      0x100 CMakeFiles/adc_dma_capture.dir/C_/Users/tomas/Documents/pico-sdk/src/rp2_common/pico_float/float_init_rom.c.obj
                0x20000688                sf_table
 .bss           0x20000788       0x1c c:/progra~2/gnuarm~1/102021~1.10/bin/../lib/gcc/arm-none-eabi/10.3.1/thumb/v6-m/nofp/crtbegin.o
 .bss._app_driver
                0x200007a4        0x4 CMakeFiles/adc_dma_capture.dir/C_/Users/tomas/Documents/pico-sdk/lib/tinyusb/src/device/usbd.c.obj
 .bss._cdcd_itf
                0x200007a8      0x2d8 CMakeFiles/adc_dma_capture.dir/C_/Users/tomas/Documents/pico-sdk/lib/tinyusb/src/class/cdc/cdc_device.c.obj
 .bss._ctrl_xfer
                0x20000a80       0x14 CMakeFiles/adc_dma_capture.dir/C_/Users/tomas/Documents/pico-sdk/lib/tinyusb/src/device/usbd_control.c.obj
 .bss._ubsd_mutexdef
                0x20000a94        0x8 CMakeFiles/adc_dma_capture.dir/C_/Users/tomas/Documents/pico-sdk/lib/tinyusb/src/device/usbd.c.obj
 .bss._usbd_ctrl_buf
                0x20000a9c       0x40 CMakeFiles/adc_dma_capture.dir/C_/Users/tomas/Documents/pico-sdk/lib/tinyusb/src/device/usbd_control.c.obj
 .bss._usbd_dev
                0x20000adc       0x53 CMakeFiles/adc_dma_capture.dir/C_/Users/tomas/Documents/pico-sdk/lib/tinyusb/src/device/usbd.c.obj
 *fill*         0x20000b2f        0x1 
 .bss._usbd_mutex
                0x20000b30        0x4 CMakeFiles/adc_dma_capture.dir/C_/Users/tomas/Documents/pico-sdk/lib/tinyusb/src/device/usbd.c.obj
 .bss._usbd_q   0x20000b34        0x4 CMakeFiles/adc_dma_capture.dir/C_/Users/tomas/Documents/pico-sdk/lib/tinyusb/src/device/usbd.c.obj
 .bss._usbd_qdef_buf
                0x20000b38       0xc0 CMakeFiles/adc_dma_capture.dir/C_/Users/tomas/Documents/pico-sdk/lib/tinyusb/src/device/usbd.c.obj
                0x20000b38                _usbd_qdef_buf
 .bss.alarm_callbacks
                0x20000bf8       0x10 CMakeFiles/adc_dma_capture.dir/C_/Users/tomas/Documents/pico-sdk/src/rp2_common/hardware_timer/timer.c.obj
 .bss.boot2_copyout
                0x20000c08      0x100 CMakeFiles/adc_dma_capture.dir/C_/Users/tomas/Documents/pico-sdk/src/rp2_common/hardware_flash/flash.c.obj
 .bss.capture_buf
                0x20000d08      0xfa0 CMakeFiles/adc_dma_capture.dir/dma_capture.c.obj
                0x20000d08                capture_buf
 .bss.claimed   0x20001ca8        0x4 CMakeFiles/adc_dma_capture.dir/C_/Users/tomas/Documents/pico-sdk/src/rp2_common/hardware_sync/sync.c.obj
 .bss.configured_freq
                0x20001cac       0x28 CMakeFiles/adc_dma_capture.dir/C_/Users/tomas/Documents/pico-sdk/src/rp2_common/hardware_clocks/clocks.c.obj
 .bss.default_alarm_pool_entry_ids_high
                0x20001cd4       0x10 CMakeFiles/adc_dma_capture.dir/C_/Users/tomas/Documents/pico-sdk/src/common/pico_time/time.c.obj
 .bss.default_alarm_pool_heap_nodes
                0x20001ce4       0x30 CMakeFiles/adc_dma_capture.dir/C_/Users/tomas/Documents/pico-sdk/src/common/pico_time/time.c.obj
 .bss.desc_str.0
                0x20001d14       0x28 CMakeFiles/adc_dma_capture.dir/C_/Users/tomas/Documents/pico-sdk/src/rp2_common/pico_stdio_usb/stdio_usb_descriptors.c.obj
 .bss.dma_chan  0x20001d3c        0x4 CMakeFiles/adc_dma_capture.dir/dma_capture.c.obj
                0x20001d3c                dma_chan
 .bss.drivers   0x20001d40        0x4 CMakeFiles/adc_dma_capture.dir/C_/Users/tomas/Documents/pico-sdk/src/rp2_common/pico_stdio/stdio.c.obj
 .bss.filter    0x20001d44        0x4 CMakeFiles/adc_dma_capture.dir/C_/Users/tomas/Documents/pico-sdk/src/rp2_common/pico_stdio/stdio.c.obj
 .bss.hw_endpoints
                0x20001d48      0x400 CMakeFiles/adc_dma_capture.dir/C_/Users/tomas/Documents/pico-sdk/lib/tinyusb/src/portable/raspberrypi/rp2040/dcd_rp2040.c.obj
 .bss.lazy_vsnprintf
                0x20002148        0x4 CMakeFiles/adc_dma_capture.dir/C_/Users/tomas/Documents/pico-sdk/src/rp2_common/pico_printf/printf.c.obj
 .bss.load_value
                0x2000214c        0x4 CMakeFiles/adc_dma_capture.dir/C_/Users/tomas/Documents/pico-sdk/src/rp2_common/hardware_watchdog/watchdog.c.obj
 .bss.next_buffer_ptr
                0x20002150        0x4 CMakeFiles/adc_dma_capture.dir/C_/Users/tomas/Documents/pico-sdk/lib/tinyusb/src/portable/raspberrypi/rp2040/dcd_rp2040.c.obj
 .bss.pools     0x20002154       0x10 CMakeFiles/adc_dma_capture.dir/C_/Users/tomas/Documents/pico-sdk/src/common/pico_time/time.c.obj
 .bss.retrieved_id
                0x20002164        0x8 CMakeFiles/adc_dma_capture.dir/C_/Users/tomas/Documents/pico-sdk/src/rp2_common/pico_unique_id/unique_id.c.obj
 .bss.sf_clz_func
                0x2000216c        0x4 CMakeFiles/adc_dma_capture.dir/C_/Users/tomas/Documents/pico-sdk/src/rp2_common/pico_double/double_init_rom.c.obj
                0x2000216c                sf_clz_func
 .bss.sleep_notifier
                0x20002170        0x4 CMakeFiles/adc_dma_capture.dir/C_/Users/tomas/Documents/pico-sdk/src/common/pico_time/time.c.obj
 .bss.stdio_usb_mutex
                0x20002174        0x8 CMakeFiles/adc_dma_capture.dir/C_/Users/tomas/Documents/pico-sdk/src/rp2_common/pico_stdio_usb/stdio_usb.c.obj
 .bss.target_hi
                0x2000217c       0x10 CMakeFiles/adc_dma_capture.dir/C_/Users/tomas/Documents/pico-sdk/src/rp2_common/hardware_timer/timer.c.obj
 .bss.usbd_serial_str
                0x2000218c       0x11 CMakeFiles/adc_dma_capture.dir/C_/Users/tomas/Documents/pico-sdk/src/rp2_common/pico_stdio_usb/stdio_usb_descriptors.c.obj
 *fill*         0x2000219d        0x1 
 .bss._claimed  0x2000219e        0x2 CMakeFiles/adc_dma_capture.dir/C_/Users/tomas/Documents/pico-sdk/src/rp2_common/hardware_dma/dma.c.obj
 .bss._app_driver_count
                0x200021a0        0x1 CMakeFiles/adc_dma_capture.dir/C_/Users/tomas/Documents/pico-sdk/lib/tinyusb/src/device/usbd.c.obj
 .bss._usbd_initialized
                0x200021a1        0x1 CMakeFiles/adc_dma_capture.dir/C_/Users/tomas/Documents/pico-sdk/lib/tinyusb/src/device/usbd.c.obj
 .bss.boot2_copyout_valid
                0x200021a2        0x1 CMakeFiles/adc_dma_capture.dir/C_/Users/tomas/Documents/pico-sdk/src/rp2_common/hardware_flash/flash.c.obj
 .bss.claimed   0x200021a3        0x1 CMakeFiles/adc_dma_capture.dir/C_/Users/tomas/Documents/pico-sdk/src/rp2_common/hardware_timer/timer.c.obj
 .bss.irq_hander_chain_free_slot_head
                0x200021a4        0x1 CMakeFiles/adc_dma_capture.dir/C_/Users/tomas/Documents/pico-sdk/src/rp2_common/hardware_irq/irq.c.obj
 .bss.itf_num   0x200021a5        0x1 CMakeFiles/adc_dma_capture.dir/C_/Users/tomas/Documents/pico-sdk/src/rp2_common/pico_stdio_usb/reset_interface.c.obj
 .bss.timer_callbacks_pending
                0x200021a6        0x1 CMakeFiles/adc_dma_capture.dir/C_/Users/tomas/Documents/pico-sdk/src/rp2_common/hardware_timer/timer.c.obj
 *(COMMON)
                0x200021a8                . = ALIGN (0x4)
 *fill*         0x200021a7        0x1 
                0x200021a8                __bss_end__ = .

.heap           0x200021a8      0x800
                0x200021a8                __end__ = .
                0x200021a8                end = __end__
 *(.heap*)
 .heap          0x200021a8      0x800 CMakeFiles/adc_dma_capture.dir/C_/Users/tomas/Documents/pico-sdk/src/rp2_common/pico_standard_link/crt0.S.obj
                0x200029a8                __HeapLimit = .

.stack1_dummy   0x20040000        0x0
 *(.stack1*)

.stack_dummy    0x20041000      0x800
 *(.stack*)
 .stack         0x20041000      0x800 CMakeFiles/adc_dma_capture.dir/C_/Users/tomas/Documents/pico-sdk/src/rp2_common/pico_standard_link/crt0.S.obj

.flash_end      0x1000797c        0x0
                0x1000797c                __flash_binary_end = .
                0x20040000                __StackLimit = (ORIGIN (RAM) + LENGTH (RAM))
                0x20041000                __StackOneTop = (ORIGIN (SCRATCH_X) + LENGTH (SCRATCH_X))
                0x20042000                __StackTop = (ORIGIN (SCRATCH_Y) + LENGTH (SCRATCH_Y))
                0x20041000                __StackOneBottom = (__StackOneTop - SIZEOF (.stack1_dummy))
                0x20041800                __StackBottom = (__StackTop - SIZEOF (.stack_dummy))
                0x20042000                PROVIDE (__stack = __StackTop)
                0x00000001                ASSERT ((__StackLimit >= __HeapLimit), region RAM overflowed)
                0x00000001                ASSERT (((__binary_info_header_end - __logical_binary_start) <= 0x100), Binary info must be in first 256 bytes of the binary)
LOAD CMakeFiles/adc_dma_capture.dir/dma_capture.c.obj
LOAD CMakeFiles/adc_dma_capture.dir/C_/Users/tomas/Documents/pico-sdk/src/rp2_common/pico_stdlib/stdlib.c.obj
LOAD CMakeFiles/adc_dma_capture.dir/C_/Users/tomas/Documents/pico-sdk/src/rp2_common/hardware_gpio/gpio.c.obj
LOAD CMakeFiles/adc_dma_capture.dir/C_/Users/tomas/Documents/pico-sdk/src/rp2_common/hardware_claim/claim.c.obj
LOAD CMakeFiles/adc_dma_capture.dir/C_/Users/tomas/Documents/pico-sdk/src/rp2_common/pico_platform/platform.c.obj
LOAD CMakeFiles/adc_dma_capture.dir/C_/Users/tomas/Documents/pico-sdk/src/rp2_common/hardware_sync/sync.c.obj
LOAD CMakeFiles/adc_dma_capture.dir/C_/Users/tomas/Documents/pico-sdk/src/rp2_common/hardware_uart/uart.c.obj
LOAD CMakeFiles/adc_dma_capture.dir/C_/Users/tomas/Documents/pico-sdk/src/rp2_common/hardware_divider/divider.S.obj
LOAD CMakeFiles/adc_dma_capture.dir/C_/Users/tomas/Documents/pico-sdk/src/common/pico_time/time.c.obj
LOAD CMakeFiles/adc_dma_capture.dir/C_/Users/tomas/Documents/pico-sdk/src/common/pico_time/timeout_helper.c.obj
LOAD CMakeFiles/adc_dma_capture.dir/C_/Users/tomas/Documents/pico-sdk/src/rp2_common/hardware_timer/timer.c.obj
LOAD CMakeFiles/adc_dma_capture.dir/C_/Users/tomas/Documents/pico-sdk/src/common/pico_sync/sem.c.obj
LOAD CMakeFiles/adc_dma_capture.dir/C_/Users/tomas/Documents/pico-sdk/src/common/pico_sync/lock_core.c.obj
LOAD CMakeFiles/adc_dma_capture.dir/C_/Users/tomas/Documents/pico-sdk/src/common/pico_sync/mutex.c.obj
LOAD CMakeFiles/adc_dma_capture.dir/C_/Users/tomas/Documents/pico-sdk/src/common/pico_sync/critical_section.c.obj
LOAD CMakeFiles/adc_dma_capture.dir/C_/Users/tomas/Documents/pico-sdk/src/common/pico_util/datetime.c.obj
LOAD CMakeFiles/adc_dma_capture.dir/C_/Users/tomas/Documents/pico-sdk/src/common/pico_util/pheap.c.obj
LOAD CMakeFiles/adc_dma_capture.dir/C_/Users/tomas/Documents/pico-sdk/src/common/pico_util/queue.c.obj
LOAD CMakeFiles/adc_dma_capture.dir/C_/Users/tomas/Documents/pico-sdk/src/rp2_common/pico_runtime/runtime.c.obj
LOAD CMakeFiles/adc_dma_capture.dir/C_/Users/tomas/Documents/pico-sdk/src/rp2_common/hardware_clocks/clocks.c.obj
LOAD CMakeFiles/adc_dma_capture.dir/C_/Users/tomas/Documents/pico-sdk/src/rp2_common/hardware_irq/irq.c.obj
LOAD CMakeFiles/adc_dma_capture.dir/C_/Users/tomas/Documents/pico-sdk/src/rp2_common/hardware_irq/irq_handler_chain.S.obj
LOAD CMakeFiles/adc_dma_capture.dir/C_/Users/tomas/Documents/pico-sdk/src/rp2_common/hardware_pll/pll.c.obj
LOAD CMakeFiles/adc_dma_capture.dir/C_/Users/tomas/Documents/pico-sdk/src/rp2_common/hardware_vreg/vreg.c.obj
LOAD CMakeFiles/adc_dma_capture.dir/C_/Users/tomas/Documents/pico-sdk/src/rp2_common/hardware_watchdog/watchdog.c.obj
LOAD CMakeFiles/adc_dma_capture.dir/C_/Users/tomas/Documents/pico-sdk/src/rp2_common/hardware_xosc/xosc.c.obj
LOAD CMakeFiles/adc_dma_capture.dir/C_/Users/tomas/Documents/pico-sdk/src/rp2_common/pico_printf/printf.c.obj
LOAD CMakeFiles/adc_dma_capture.dir/C_/Users/tomas/Documents/pico-sdk/src/rp2_common/pico_bit_ops/bit_ops_aeabi.S.obj
LOAD CMakeFiles/adc_dma_capture.dir/C_/Users/tomas/Documents/pico-sdk/src/rp2_common/pico_bootrom/bootrom.c.obj
LOAD CMakeFiles/adc_dma_capture.dir/C_/Users/tomas/Documents/pico-sdk/src/rp2_common/pico_divider/divider.S.obj
LOAD CMakeFiles/adc_dma_capture.dir/C_/Users/tomas/Documents/pico-sdk/src/rp2_common/pico_double/double_aeabi.S.obj
LOAD CMakeFiles/adc_dma_capture.dir/C_/Users/tomas/Documents/pico-sdk/src/rp2_common/pico_double/double_init_rom.c.obj
LOAD CMakeFiles/adc_dma_capture.dir/C_/Users/tomas/Documents/pico-sdk/src/rp2_common/pico_double/double_math.c.obj
LOAD CMakeFiles/adc_dma_capture.dir/C_/Users/tomas/Documents/pico-sdk/src/rp2_common/pico_double/double_v1_rom_shim.S.obj
LOAD CMakeFiles/adc_dma_capture.dir/C_/Users/tomas/Documents/pico-sdk/src/rp2_common/pico_int64_ops/pico_int64_ops_aeabi.S.obj
LOAD CMakeFiles/adc_dma_capture.dir/C_/Users/tomas/Documents/pico-sdk/src/rp2_common/pico_float/float_aeabi.S.obj
LOAD CMakeFiles/adc_dma_capture.dir/C_/Users/tomas/Documents/pico-sdk/src/rp2_common/pico_float/float_init_rom.c.obj
LOAD CMakeFiles/adc_dma_capture.dir/C_/Users/tomas/Documents/pico-sdk/src/rp2_common/pico_float/float_math.c.obj
LOAD CMakeFiles/adc_dma_capture.dir/C_/Users/tomas/Documents/pico-sdk/src/rp2_common/pico_float/float_v1_rom_shim.S.obj
LOAD CMakeFiles/adc_dma_capture.dir/C_/Users/tomas/Documents/pico-sdk/src/rp2_common/pico_malloc/pico_malloc.c.obj
LOAD CMakeFiles/adc_dma_capture.dir/C_/Users/tomas/Documents/pico-sdk/src/rp2_common/pico_mem_ops/mem_ops_aeabi.S.obj
LOAD CMakeFiles/adc_dma_capture.dir/C_/Users/tomas/Documents/pico-sdk/src/rp2_common/pico_standard_link/crt0.S.obj
LOAD CMakeFiles/adc_dma_capture.dir/C_/Users/tomas/Documents/pico-sdk/src/rp2_common/pico_standard_link/new_delete.cpp.obj
LOAD CMakeFiles/adc_dma_capture.dir/C_/Users/tomas/Documents/pico-sdk/src/rp2_common/pico_standard_link/binary_info.c.obj
LOAD CMakeFiles/adc_dma_capture.dir/C_/Users/tomas/Documents/pico-sdk/src/rp2_common/pico_stdio/stdio.c.obj
LOAD CMakeFiles/adc_dma_capture.dir/C_/Users/tomas/Documents/pico-sdk/src/rp2_common/pico_stdio_usb/reset_interface.c.obj
LOAD CMakeFiles/adc_dma_capture.dir/C_/Users/tomas/Documents/pico-sdk/src/rp2_common/pico_stdio_usb/stdio_usb.c.obj
LOAD CMakeFiles/adc_dma_capture.dir/C_/Users/tomas/Documents/pico-sdk/src/rp2_common/pico_stdio_usb/stdio_usb_descriptors.c.obj
LOAD CMakeFiles/adc_dma_capture.dir/C_/Users/tomas/Documents/pico-sdk/lib/tinyusb/src/portable/raspberrypi/rp2040/dcd_rp2040.c.obj
LOAD CMakeFiles/adc_dma_capture.dir/C_/Users/tomas/Documents/pico-sdk/lib/tinyusb/src/portable/raspberrypi/rp2040/rp2040_usb.c.obj
LOAD CMakeFiles/adc_dma_capture.dir/C_/Users/tomas/Documents/pico-sdk/lib/tinyusb/src/device/usbd.c.obj
LOAD CMakeFiles/adc_dma_capture.dir/C_/Users/tomas/Documents/pico-sdk/lib/tinyusb/src/device/usbd_control.c.obj
LOAD CMakeFiles/adc_dma_capture.dir/C_/Users/tomas/Documents/pico-sdk/lib/tinyusb/src/class/audio/audio_device.c.obj
LOAD CMakeFiles/adc_dma_capture.dir/C_/Users/tomas/Documents/pico-sdk/lib/tinyusb/src/class/cdc/cdc_device.c.obj
LOAD CMakeFiles/adc_dma_capture.dir/C_/Users/tomas/Documents/pico-sdk/lib/tinyusb/src/class/dfu/dfu_device.c.obj
LOAD CMakeFiles/adc_dma_capture.dir/C_/Users/tomas/Documents/pico-sdk/lib/tinyusb/src/class/dfu/dfu_rt_device.c.obj
LOAD CMakeFiles/adc_dma_capture.dir/C_/Users/tomas/Documents/pico-sdk/lib/tinyusb/src/class/hid/hid_device.c.obj
LOAD CMakeFiles/adc_dma_capture.dir/C_/Users/tomas/Documents/pico-sdk/lib/tinyusb/src/class/midi/midi_device.c.obj
LOAD CMakeFiles/adc_dma_capture.dir/C_/Users/tomas/Documents/pico-sdk/lib/tinyusb/src/class/msc/msc_device.c.obj
LOAD CMakeFiles/adc_dma_capture.dir/C_/Users/tomas/Documents/pico-sdk/lib/tinyusb/src/class/net/ecm_rndis_device.c.obj
LOAD CMakeFiles/adc_dma_capture.dir/C_/Users/tomas/Documents/pico-sdk/lib/tinyusb/src/class/net/ncm_device.c.obj
LOAD CMakeFiles/adc_dma_capture.dir/C_/Users/tomas/Documents/pico-sdk/lib/tinyusb/src/class/usbtmc/usbtmc_device.c.obj
LOAD CMakeFiles/adc_dma_capture.dir/C_/Users/tomas/Documents/pico-sdk/lib/tinyusb/src/class/vendor/vendor_device.c.obj
LOAD CMakeFiles/adc_dma_capture.dir/C_/Users/tomas/Documents/pico-sdk/lib/tinyusb/src/class/video/video_device.c.obj
LOAD CMakeFiles/adc_dma_capture.dir/C_/Users/tomas/Documents/pico-sdk/lib/tinyusb/src/tusb.c.obj
LOAD CMakeFiles/adc_dma_capture.dir/C_/Users/tomas/Documents/pico-sdk/lib/tinyusb/src/common/tusb_fifo.c.obj
LOAD CMakeFiles/adc_dma_capture.dir/C_/Users/tomas/Documents/pico-sdk/src/rp2_common/pico_fix/rp2040_usb_device_enumeration/rp2040_usb_device_enumeration.c.obj
LOAD CMakeFiles/adc_dma_capture.dir/C_/Users/tomas/Documents/pico-sdk/src/rp2_common/pico_unique_id/unique_id.c.obj
LOAD CMakeFiles/adc_dma_capture.dir/C_/Users/tomas/Documents/pico-sdk/src/rp2_common/hardware_flash/flash.c.obj
LOAD CMakeFiles/adc_dma_capture.dir/C_/Users/tomas/Documents/pico-sdk/src/rp2_common/hardware_adc/adc.c.obj
LOAD CMakeFiles/adc_dma_capture.dir/C_/Users/tomas/Documents/pico-sdk/src/rp2_common/hardware_dma/dma.c.obj
LOAD C:\Users\tomas\AppData\Local\Temp\ccYf3Ypk.o
LOAD c:/progra~2/gnuarm~1/102021~1.10/bin/../lib/gcc/arm-none-eabi/10.3.1/../../../../arm-none-eabi/lib/thumb/v6-m/nofp\libstdc++.a
LOAD c:/progra~2/gnuarm~1/102021~1.10/bin/../lib/gcc/arm-none-eabi/10.3.1/../../../../arm-none-eabi/lib/thumb/v6-m/nofp\libm.a
START GROUP
LOAD c:/progra~2/gnuarm~1/102021~1.10/bin/../lib/gcc/arm-none-eabi/10.3.1/thumb/v6-m/nofp\libgcc.a
LOAD c:/progra~2/gnuarm~1/102021~1.10/bin/../lib/gcc/arm-none-eabi/10.3.1/../../../../arm-none-eabi/lib/thumb/v6-m/nofp\libc.a
END GROUP
START GROUP
LOAD c:/progra~2/gnuarm~1/102021~1.10/bin/../lib/gcc/arm-none-eabi/10.3.1/thumb/v6-m/nofp\libgcc.a
LOAD c:/progra~2/gnuarm~1/102021~1.10/bin/../lib/gcc/arm-none-eabi/10.3.1/../../../../arm-none-eabi/lib/thumb/v6-m/nofp\libc.a
LOAD c:/progra~2/gnuarm~1/102021~1.10/bin/../lib/gcc/arm-none-eabi/10.3.1/../../../../arm-none-eabi/lib/thumb/v6-m/nofp\libnosys.a
END GROUP
LOAD c:/progra~2/gnuarm~1/102021~1.10/bin/../lib/gcc/arm-none-eabi/10.3.1/thumb/v6-m/nofp/crtend.o
LOAD c:/progra~2/gnuarm~1/102021~1.10/bin/../lib/gcc/arm-none-eabi/10.3.1/thumb/v6-m/nofp/crtn.o
OUTPUT(adc_dma_capture.elf elf32-littlearm)
LOAD linker stubs

.ARM.attributes
                0x00000000       0x28
 .ARM.attributes
                0x00000000       0x1e c:/progra~2/gnuarm~1/102021~1.10/bin/../lib/gcc/arm-none-eabi/10.3.1/thumb/v6-m/nofp/crti.o
 .ARM.attributes
                0x0000001e       0x2c c:/progra~2/gnuarm~1/102021~1.10/bin/../lib/gcc/arm-none-eabi/10.3.1/thumb/v6-m/nofp/crtbegin.o
 .ARM.attributes
                0x0000004a       0x2c CMakeFiles/adc_dma_capture.dir/dma_capture.c.obj
 .ARM.attributes
                0x00000076       0x2c CMakeFiles/adc_dma_capture.dir/C_/Users/tomas/Documents/pico-sdk/src/rp2_common/hardware_gpio/gpio.c.obj
 .ARM.attributes
                0x000000a2       0x2c CMakeFiles/adc_dma_capture.dir/C_/Users/tomas/Documents/pico-sdk/src/rp2_common/hardware_claim/claim.c.obj
 .ARM.attributes
                0x000000ce       0x2c CMakeFiles/adc_dma_capture.dir/C_/Users/tomas/Documents/pico-sdk/src/rp2_common/pico_platform/platform.c.obj
 .ARM.attributes
                0x000000fa       0x2c CMakeFiles/adc_dma_capture.dir/C_/Users/tomas/Documents/pico-sdk/src/rp2_common/hardware_sync/sync.c.obj
 .ARM.attributes
                0x00000126       0x2c CMakeFiles/adc_dma_capture.dir/C_/Users/tomas/Documents/pico-sdk/src/common/pico_time/time.c.obj
 .ARM.attributes
                0x00000152       0x2c CMakeFiles/adc_dma_capture.dir/C_/Users/tomas/Documents/pico-sdk/src/rp2_common/hardware_timer/timer.c.obj
 .ARM.attributes
                0x0000017e       0x2c CMakeFiles/adc_dma_capture.dir/C_/Users/tomas/Documents/pico-sdk/src/common/pico_sync/lock_core.c.obj
 .ARM.attributes
                0x000001aa       0x2c CMakeFiles/adc_dma_capture.dir/C_/Users/tomas/Documents/pico-sdk/src/common/pico_sync/mutex.c.obj
 .ARM.attributes
                0x000001d6       0x2c CMakeFiles/adc_dma_capture.dir/C_/Users/tomas/Documents/pico-sdk/src/common/pico_sync/critical_section.c.obj
 .ARM.attributes
                0x00000202       0x2c CMakeFiles/adc_dma_capture.dir/C_/Users/tomas/Documents/pico-sdk/src/common/pico_util/pheap.c.obj
 .ARM.attributes
                0x0000022e       0x2c CMakeFiles/adc_dma_capture.dir/C_/Users/tomas/Documents/pico-sdk/src/rp2_common/pico_runtime/runtime.c.obj
 .ARM.attributes
                0x0000025a       0x2c CMakeFiles/adc_dma_capture.dir/C_/Users/tomas/Documents/pico-sdk/src/rp2_common/hardware_clocks/clocks.c.obj
 .ARM.attributes
                0x00000286       0x2c CMakeFiles/adc_dma_capture.dir/C_/Users/tomas/Documents/pico-sdk/src/rp2_common/hardware_irq/irq.c.obj
 .ARM.attributes
                0x000002b2       0x22 CMakeFiles/adc_dma_capture.dir/C_/Users/tomas/Documents/pico-sdk/src/rp2_common/hardware_irq/irq_handler_chain.S.obj
 .ARM.attributes
                0x000002d4       0x2c CMakeFiles/adc_dma_capture.dir/C_/Users/tomas/Documents/pico-sdk/src/rp2_common/hardware_pll/pll.c.obj
 .ARM.attributes
                0x00000300       0x2c CMakeFiles/adc_dma_capture.dir/C_/Users/tomas/Documents/pico-sdk/src/rp2_common/hardware_watchdog/watchdog.c.obj
 .ARM.attributes
                0x0000032c       0x2c CMakeFiles/adc_dma_capture.dir/C_/Users/tomas/Documents/pico-sdk/src/rp2_common/hardware_xosc/xosc.c.obj
 .ARM.attributes
                0x00000358       0x2c CMakeFiles/adc_dma_capture.dir/C_/Users/tomas/Documents/pico-sdk/src/rp2_common/pico_printf/printf.c.obj
 .ARM.attributes
                0x00000384       0x22 CMakeFiles/adc_dma_capture.dir/C_/Users/tomas/Documents/pico-sdk/src/rp2_common/pico_bit_ops/bit_ops_aeabi.S.obj
 .ARM.attributes
                0x000003a6       0x2c CMakeFiles/adc_dma_capture.dir/C_/Users/tomas/Documents/pico-sdk/src/rp2_common/pico_bootrom/bootrom.c.obj
 .ARM.attributes
                0x000003d2       0x22 CMakeFiles/adc_dma_capture.dir/C_/Users/tomas/Documents/pico-sdk/src/rp2_common/pico_divider/divider.S.obj
 .ARM.attributes
                0x000003f4       0x22 CMakeFiles/adc_dma_capture.dir/C_/Users/tomas/Documents/pico-sdk/src/rp2_common/pico_double/double_aeabi.S.obj
 .ARM.attributes
                0x00000416       0x2c CMakeFiles/adc_dma_capture.dir/C_/Users/tomas/Documents/pico-sdk/src/rp2_common/pico_double/double_init_rom.c.obj
 .ARM.attributes
                0x00000442       0x22 CMakeFiles/adc_dma_capture.dir/C_/Users/tomas/Documents/pico-sdk/src/rp2_common/pico_double/double_v1_rom_shim.S.obj
 .ARM.attributes
                0x00000464       0x22 CMakeFiles/adc_dma_capture.dir/C_/Users/tomas/Documents/pico-sdk/src/rp2_common/pico_int64_ops/pico_int64_ops_aeabi.S.obj
 .ARM.attributes
                0x00000486       0x22 CMakeFiles/adc_dma_capture.dir/C_/Users/tomas/Documents/pico-sdk/src/rp2_common/pico_float/float_aeabi.S.obj
 .ARM.attributes
                0x000004a8       0x2c CMakeFiles/adc_dma_capture.dir/C_/Users/tomas/Documents/pico-sdk/src/rp2_common/pico_float/float_init_rom.c.obj
 .ARM.attributes
                0x000004d4       0x22 CMakeFiles/adc_dma_capture.dir/C_/Users/tomas/Documents/pico-sdk/src/rp2_common/pico_float/float_v1_rom_shim.S.obj
 .ARM.attributes
                0x000004f6       0x22 CMakeFiles/adc_dma_capture.dir/C_/Users/tomas/Documents/pico-sdk/src/rp2_common/pico_mem_ops/mem_ops_aeabi.S.obj
 .ARM.attributes
                0x00000518       0x22 CMakeFiles/adc_dma_capture.dir/C_/Users/tomas/Documents/pico-sdk/src/rp2_common/pico_standard_link/crt0.S.obj
 .ARM.attributes
                0x0000053a       0x2c CMakeFiles/adc_dma_capture.dir/C_/Users/tomas/Documents/pico-sdk/src/rp2_common/pico_standard_link/binary_info.c.obj
 .ARM.attributes
                0x00000566       0x2c CMakeFiles/adc_dma_capture.dir/C_/Users/tomas/Documents/pico-sdk/src/rp2_common/pico_stdio/stdio.c.obj
 .ARM.attributes
                0x00000592       0x2c CMakeFiles/adc_dma_capture.dir/C_/Users/tomas/Documents/pico-sdk/src/rp2_common/pico_stdio_usb/reset_interface.c.obj
 .ARM.attributes
                0x000005be       0x2c CMakeFiles/adc_dma_capture.dir/C_/Users/tomas/Documents/pico-sdk/src/rp2_common/pico_stdio_usb/stdio_usb.c.obj
 .ARM.attributes
                0x000005ea       0x2c CMakeFiles/adc_dma_capture.dir/C_/Users/tomas/Documents/pico-sdk/src/rp2_common/pico_stdio_usb/stdio_usb_descriptors.c.obj
 .ARM.attributes
                0x00000616       0x2c CMakeFiles/adc_dma_capture.dir/C_/Users/tomas/Documents/pico-sdk/lib/tinyusb/src/portable/raspberrypi/rp2040/dcd_rp2040.c.obj
 .ARM.attributes
                0x00000642       0x2c CMakeFiles/adc_dma_capture.dir/C_/Users/tomas/Documents/pico-sdk/lib/tinyusb/src/portable/raspberrypi/rp2040/rp2040_usb.c.obj
 .ARM.attributes
                0x0000066e       0x2c CMakeFiles/adc_dma_capture.dir/C_/Users/tomas/Documents/pico-sdk/lib/tinyusb/src/device/usbd.c.obj
 .ARM.attributes
                0x0000069a       0x2c CMakeFiles/adc_dma_capture.dir/C_/Users/tomas/Documents/pico-sdk/lib/tinyusb/src/device/usbd_control.c.obj
 .ARM.attributes
                0x000006c6       0x2c CMakeFiles/adc_dma_capture.dir/C_/Users/tomas/Documents/pico-sdk/lib/tinyusb/src/class/cdc/cdc_device.c.obj
 .ARM.attributes
                0x000006f2       0x2c CMakeFiles/adc_dma_capture.dir/C_/Users/tomas/Documents/pico-sdk/lib/tinyusb/src/tusb.c.obj
 .ARM.attributes
                0x0000071e       0x2c CMakeFiles/adc_dma_capture.dir/C_/Users/tomas/Documents/pico-sdk/lib/tinyusb/src/common/tusb_fifo.c.obj
 .ARM.attributes
                0x0000074a       0x2c CMakeFiles/adc_dma_capture.dir/C_/Users/tomas/Documents/pico-sdk/src/rp2_common/pico_unique_id/unique_id.c.obj
 .ARM.attributes
                0x00000776       0x2c CMakeFiles/adc_dma_capture.dir/C_/Users/tomas/Documents/pico-sdk/src/rp2_common/hardware_flash/flash.c.obj
 .ARM.attributes
                0x000007a2       0x2c CMakeFiles/adc_dma_capture.dir/C_/Users/tomas/Documents/pico-sdk/src/rp2_common/hardware_adc/adc.c.obj
 .ARM.attributes
                0x000007ce       0x2c CMakeFiles/adc_dma_capture.dir/C_/Users/tomas/Documents/pico-sdk/src/rp2_common/hardware_dma/dma.c.obj
 .ARM.attributes
                0x000007fa       0x22 C:\Users\tomas\AppData\Local\Temp\ccYf3Ypk.o
 .ARM.attributes
                0x0000081c       0x1e c:/progra~2/gnuarm~1/102021~1.10/bin/../lib/gcc/arm-none-eabi/10.3.1/thumb/v6-m/nofp\libgcc.a(_dvmd_tls.o)
 .ARM.attributes
                0x0000083a       0x2c c:/progra~2/gnuarm~1/102021~1.10/bin/../lib/gcc/arm-none-eabi/10.3.1/../../../../arm-none-eabi/lib/thumb/v6-m/nofp\libc.a(lib_a-strlen-stub.o)

.comment        0x00000000       0x49
 .comment       0x00000000       0x49 CMakeFiles/adc_dma_capture.dir/dma_capture.c.obj
                                 0x4a (size before relaxing)
 .comment       0x00000049       0x4a CMakeFiles/adc_dma_capture.dir/C_/Users/tomas/Documents/pico-sdk/src/rp2_common/hardware_gpio/gpio.c.obj
 .comment       0x00000049       0x4a CMakeFiles/adc_dma_capture.dir/C_/Users/tomas/Documents/pico-sdk/src/rp2_common/hardware_claim/claim.c.obj
 .comment       0x00000049       0x4a CMakeFiles/adc_dma_capture.dir/C_/Users/tomas/Documents/pico-sdk/src/rp2_common/pico_platform/platform.c.obj
 .comment       0x00000049       0x4a CMakeFiles/adc_dma_capture.dir/C_/Users/tomas/Documents/pico-sdk/src/rp2_common/hardware_sync/sync.c.obj
 .comment       0x00000049       0x4a CMakeFiles/adc_dma_capture.dir/C_/Users/tomas/Documents/pico-sdk/src/common/pico_time/time.c.obj
 .comment       0x00000049       0x4a CMakeFiles/adc_dma_capture.dir/C_/Users/tomas/Documents/pico-sdk/src/rp2_common/hardware_timer/timer.c.obj
 .comment       0x00000049       0x4a CMakeFiles/adc_dma_capture.dir/C_/Users/tomas/Documents/pico-sdk/src/common/pico_sync/lock_core.c.obj
 .comment       0x00000049       0x4a CMakeFiles/adc_dma_capture.dir/C_/Users/tomas/Documents/pico-sdk/src/common/pico_sync/mutex.c.obj
 .comment       0x00000049       0x4a CMakeFiles/adc_dma_capture.dir/C_/Users/tomas/Documents/pico-sdk/src/common/pico_sync/critical_section.c.obj
 .comment       0x00000049       0x4a CMakeFiles/adc_dma_capture.dir/C_/Users/tomas/Documents/pico-sdk/src/common/pico_util/pheap.c.obj
 .comment       0x00000049       0x4a CMakeFiles/adc_dma_capture.dir/C_/Users/tomas/Documents/pico-sdk/src/rp2_common/pico_runtime/runtime.c.obj
 .comment       0x00000049       0x4a CMakeFiles/adc_dma_capture.dir/C_/Users/tomas/Documents/pico-sdk/src/rp2_common/hardware_clocks/clocks.c.obj
 .comment       0x00000049       0x4a CMakeFiles/adc_dma_capture.dir/C_/Users/tomas/Documents/pico-sdk/src/rp2_common/hardware_irq/irq.c.obj
 .comment       0x00000049       0x4a CMakeFiles/adc_dma_capture.dir/C_/Users/tomas/Documents/pico-sdk/src/rp2_common/hardware_pll/pll.c.obj
 .comment       0x00000049       0x4a CMakeFiles/adc_dma_capture.dir/C_/Users/tomas/Documents/pico-sdk/src/rp2_common/hardware_watchdog/watchdog.c.obj
 .comment       0x00000049       0x4a CMakeFiles/adc_dma_capture.dir/C_/Users/tomas/Documents/pico-sdk/src/rp2_common/hardware_xosc/xosc.c.obj
 .comment       0x00000049       0x4a CMakeFiles/adc_dma_capture.dir/C_/Users/tomas/Documents/pico-sdk/src/rp2_common/pico_printf/printf.c.obj
 .comment       0x00000049       0x4a CMakeFiles/adc_dma_capture.dir/C_/Users/tomas/Documents/pico-sdk/src/rp2_common/pico_bootrom/bootrom.c.obj
 .comment       0x00000049       0x4a CMakeFiles/adc_dma_capture.dir/C_/Users/tomas/Documents/pico-sdk/src/rp2_common/pico_double/double_init_rom.c.obj
 .comment       0x00000049       0x4a CMakeFiles/adc_dma_capture.dir/C_/Users/tomas/Documents/pico-sdk/src/rp2_common/pico_float/float_init_rom.c.obj
 .comment       0x00000049       0x4a CMakeFiles/adc_dma_capture.dir/C_/Users/tomas/Documents/pico-sdk/src/rp2_common/pico_standard_link/binary_info.c.obj
 .comment       0x00000049       0x4a CMakeFiles/adc_dma_capture.dir/C_/Users/tomas/Documents/pico-sdk/src/rp2_common/pico_stdio/stdio.c.obj
 .comment       0x00000049       0x4a CMakeFiles/adc_dma_capture.dir/C_/Users/tomas/Documents/pico-sdk/src/rp2_common/pico_stdio_usb/reset_interface.c.obj
 .comment       0x00000049       0x4a CMakeFiles/adc_dma_capture.dir/C_/Users/tomas/Documents/pico-sdk/src/rp2_common/pico_stdio_usb/stdio_usb.c.obj
 .comment       0x00000049       0x4a CMakeFiles/adc_dma_capture.dir/C_/Users/tomas/Documents/pico-sdk/src/rp2_common/pico_stdio_usb/stdio_usb_descriptors.c.obj
 .comment       0x00000049       0x4a CMakeFiles/adc_dma_capture.dir/C_/Users/tomas/Documents/pico-sdk/lib/tinyusb/src/portable/raspberrypi/rp2040/dcd_rp2040.c.obj
 .comment       0x00000049       0x4a CMakeFiles/adc_dma_capture.dir/C_/Users/tomas/Documents/pico-sdk/lib/tinyusb/src/portable/raspberrypi/rp2040/rp2040_usb.c.obj
 .comment       0x00000049       0x4a CMakeFiles/adc_dma_capture.dir/C_/Users/tomas/Documents/pico-sdk/lib/tinyusb/src/device/usbd.c.obj
 .comment       0x00000049       0x4a CMakeFiles/adc_dma_capture.dir/C_/Users/tomas/Documents/pico-sdk/lib/tinyusb/src/device/usbd_control.c.obj
 .comment       0x00000049       0x4a CMakeFiles/adc_dma_capture.dir/C_/Users/tomas/Documents/pico-sdk/lib/tinyusb/src/class/cdc/cdc_device.c.obj
 .comment       0x00000049       0x4a CMakeFiles/adc_dma_capture.dir/C_/Users/tomas/Documents/pico-sdk/lib/tinyusb/src/tusb.c.obj
 .comment       0x00000049       0x4a CMakeFiles/adc_dma_capture.dir/C_/Users/tomas/Documents/pico-sdk/lib/tinyusb/src/common/tusb_fifo.c.obj
 .comment       0x00000049       0x4a CMakeFiles/adc_dma_capture.dir/C_/Users/tomas/Documents/pico-sdk/src/rp2_common/pico_unique_id/unique_id.c.obj
 .comment       0x00000049       0x4a CMakeFiles/adc_dma_capture.dir/C_/Users/tomas/Documents/pico-sdk/src/rp2_common/hardware_flash/flash.c.obj
 .comment       0x00000049       0x4a CMakeFiles/adc_dma_capture.dir/C_/Users/tomas/Documents/pico-sdk/src/rp2_common/hardware_adc/adc.c.obj
 .comment       0x00000049       0x4a CMakeFiles/adc_dma_capture.dir/C_/Users/tomas/Documents/pico-sdk/src/rp2_common/hardware_dma/dma.c.obj

.debug_frame    0x00000000       0x28
 .debug_frame   0x00000000       0x28 c:/progra~2/gnuarm~1/102021~1.10/bin/../lib/gcc/arm-none-eabi/10.3.1/../../../../arm-none-eabi/lib/thumb/v6-m/nofp\libc.a(lib_a-strlen-stub.o)
